{
	"data": {
		"bytecode": {
			"linkReferences": {},
			"object": "6080604052620000176401000000006200001d810204565b6200023b565b6200003064010000000062000125810204565b60408051808201909152601881527f494e49545f414c52454144595f494e495449414c495a45440000000000000000602082015290156200010c576040517f08c379a00000000000000000000000000000000000000000000000000000000081526004018080602001828103825283818151815260200191508051906020019080838360005b83811015620000d0578181015183820152602001620000b6565b50505050905090810190601f168015620000fe5780820380516001836020036101000a031916815260200191505b509250505060405180910390fd5b506200012360001964010000000062000154810204565b565b60006200014f6000805160206200429e833981519152640100000000620027586200023382021704565b905090565b6200016764010000000062000125810204565b60408051808201909152601881527f494e49545f414c52454144595f494e495449414c495a454400000000000000006020820152901562000206576040517f08c379a000000000000000000000000000000000000000000000000000000000815260040180806020018281038252838181518152602001915080519060200190808383600083811015620000d0578181015183820152602001620000b6565b50620002306000805160206200429e83398151915282640100000000620037496200023782021704565b50565b5490565b9055565b614053806200024b6000396000f3006080604052600436106101b65763ffffffff7c01000000000000000000000000000000000000000000000000000000006000350416630803fac081146101bb5780632914b9bd146101e457806332f0a3b5146102665780633c624c751461027b5780634b12311c146102a25780635a55c1f0146102f75780635eb243321461048457806362de7e5a146104a85780637c1d0b87146104bd5780637e7db6e1146104df57806380afdea81461050d5780638b3dd749146105225780639d4941d814610537578063a1658fad14610565578063a479e508146105d9578063aa449396146105ee578063bcf93dd614610603578063be2c64d414610635578063c0774df31461064a578063cc63604a146106be578063cdb2867b146106d6578063d4aae0c414610707578063d5db2c801461071c578063d948d46814610748578063dc474b1a146107a1578063de4796ed146107b6578063de4f6347146107cb578063df133bca146107e0578063df3d330514610802578063f4b0051314610849578063f98a4eca1461087f578063fad167ab14610897578063fc0c546a146108ac578063fc157cb4146108c1578063fd64eccb146108d6575b600080fd5b3480156101c757600080fd5b506101d06108eb565b604080519115158252519081900360200190f35b3480156101f057600080fd5b506040805160206004803580820135601f810184900484028501840190955284845261023d9436949293602493928401919081908401838280828437509497506109159650505050505050565b6040805173ffffffffffffffffffffffffffffffffffffffff9092168252519081900360200190f35b34801561027257600080fd5b5061023d610a21565b34801561028757600080fd5b50610290610ac0565b60408051918252519081900360200190f35b3480156102ae57600080fd5b506102d360043573ffffffffffffffffffffffffffffffffffffffff60243516610af5565b604051808260028111156102e357fe5b60ff16815260200191505060405180910390f35b34801561030357600080fd5b5061030f600435610c17565b604051808c1515151581526020018b1515151581526020018a67ffffffffffffffff1667ffffffffffffffff1681526020018967ffffffffffffffff1667ffffffffffffffff1681526020018867ffffffffffffffff1667ffffffffffffffff1681526020018767ffffffffffffffff1667ffffffffffffffff1681526020018681526020018581526020018481526020018060200180602001838103835285818151815260200191508051906020019080838360005b838110156103de5781810151838201526020016103c6565b50505050905090810190601f16801561040b5780820380516001836020036101000a031916815260200191505b50838103825284518152845160209182019186019080838360005b8381101561043e578181015183820152602001610426565b50505050905090810190601f16801561046b5780820380516001836020036101000a031916815260200191505b509d505050505050505050505050505060405180910390f35b34801561049057600080fd5b506104a667ffffffffffffffff60043516610ede565b005b3480156104b457600080fd5b5061029061110a565b3480156104c957600080fd5b506104a667ffffffffffffffff6004351661113f565b3480156104eb57600080fd5b506101d073ffffffffffffffffffffffffffffffffffffffff60043516611434565b34801561051957600080fd5b5061029061143a565b34801561052e57600080fd5b5061029061146a565b34801561054357600080fd5b506104a673ffffffffffffffffffffffffffffffffffffffff60043516611495565b34801561057157600080fd5b5060408051602060046044358181013583810280860185019096528085526101d095833573ffffffffffffffffffffffffffffffffffffffff169560248035963696956064959394920192918291850190849080828437509497506117b79650505050505050565b3480156105e557600080fd5b5061023d611947565b3480156105fa57600080fd5b50610290611a09565b34801561060f57600080fd5b50610618611a3e565b6040805167ffffffffffffffff9092168252519081900360200190f35b34801561064157600080fd5b50610290611a5a565b34801561065657600080fd5b5060408051602060046024803582810135601f81018590048502860185019096528585526101d095833573ffffffffffffffffffffffffffffffffffffffff16953695604494919390910191908190840183828082843750949750611a8f9650505050505050565b3480156106ca57600080fd5b506101d0600435611adf565b3480156106e257600080fd5b506101d060043573ffffffffffffffffffffffffffffffffffffffff60243516611b97565b34801561071357600080fd5b5061023d611c4f565b34801561072857600080fd5b506102906024600480358281019290820135918135918201910135611c7a565b34801561075457600080fd5b506040805160206004803580820135601f81018490048402850184019095528484526104a6943694929360249392840191908190840183828082843750949750611ddd9650505050505050565b3480156107ad57600080fd5b50610618611ea6565b3480156107c257600080fd5b506101d0611eb6565b3480156107d757600080fd5b50610290611ee7565b3480156107ec57600080fd5b506104a660043560243515156044351515611eed565b34801561080e57600080fd5b506104a673ffffffffffffffffffffffffffffffffffffffff6004351667ffffffffffffffff60243581169060443581169060643516612135565b34801561085557600080fd5b50610290602460048035828101929082013591813591820191013560443515156064351515612430565b34801561088b57600080fd5b506104a6600435612592565b3480156108a357600080fd5b5061061861263d565b3480156108b857600080fd5b5061023d612665565b3480156108cd57600080fd5b50610618612681565b3480156108e257600080fd5b506101d061268d565b6000806108f661146a565b9050801580159061090e57508061090b612692565b10155b91505b5090565b600061091f611947565b73ffffffffffffffffffffffffffffffffffffffff166304bf2a7f836040518263ffffffff167c01000000000000000000000000000000000000000000000000000000000281526004018080602001828103825283818151815260200191508051906020019080838360005b838110156109a357818101518382015260200161098b565b50505050905090810190601f1680156109d05780820380516001836020036101000a031916815260200191505b5092505050602060405180830381600087803b1580156109ef57600080fd5b505af1158015610a03573d6000803e3d6000fd5b505050506040513d6020811015610a1957600080fd5b505192915050565b6000610a2b611c4f565b73ffffffffffffffffffffffffffffffffffffffff166332f0a3b56040518163ffffffff167c0100000000000000000000000000000000000000000000000000000000028152600401602060405180830381600087803b158015610a8e57600080fd5b505af1158015610aa2573d6000803e3d6000fd5b505050506040513d6020811015610ab857600080fd5b505190505b90565b604080517f4d4f444946595f51554f52554d5f524f4c4500000000000000000000000000008152905190819003601201902081565b60035460408051808201909152600e81527f564f54494e475f4e4f5f564f544500000000000000000000000000000000000060208201526000918491908210610bd6576040517f08c379a00000000000000000000000000000000000000000000000000000000081526004018080602001828103825283818151815260200191508051906020019080838360005b83811015610b9b578181015183820152602001610b83565b50505050905090810190601f168015610bc85780820380516001836020036101000a031916815260200191505b509250505060405180910390fd5b50600084815260026020908152604080832073ffffffffffffffffffffffffffffffffffffffff8716845260070190915290205460ff1691505b5092915050565b600080600080600080600080600060608060008c60035481106040805190810160405280600e81526020017f564f54494e475f4e4f5f564f5445000000000000000000000000000000000000815250901515610ccf576040517f08c379a000000000000000000000000000000000000000000000000000000000815260040180806020018281038252838181518152602001915080519060200190808383600083811015610b9b578181015183820152602001610b83565b5060008e81526002602052604090209150610ce982612696565b9c508160000160009054906101000a900460ff169b508160000160019054906101000a900467ffffffffffffffff169a508160000160099054906101000a900467ffffffffffffffff1699508160000160119054906101000a900467ffffffffffffffff1698508160010160009054906101000a900467ffffffffffffffff169750816002015496508160030154955081600401549450816006018054600181600116156101000203166002900480601f016020809104026020016040519081016040528092919081815260200182805460018160011615610100020316600290048015610e185780601f10610ded57610100808354040283529160200191610e18565b820191906000526020600020905b815481529060010190602001808311610dfb57829003601f168201915b5050505060058401805460408051602060026001851615610100027fffffffffffffffffffffffffffffffffffffffffffffffffffffffffffffffff0190941693909304601f8101849004840282018401909252818152949850919250830182828015610ec65780601f10610e9b57610100808354040283529160200191610ec6565b820191906000526020600020905b815481529060010190602001808311610ea957829003601f168201915b50505050509250505091939597999b90929496989a50565b604080517f4d4f444946595f51554f52554d5f524f4c45000000000000000000000000000081529051908190036012019020600154610f2a9067ffffffffffffffff80851691166126fd565b610f353383836117b7565b60408051808201909152600f81527f4150505f415554485f4641494c454400000000000000000000000000000000006020820152901515610fd2576040517f08c379a000000000000000000000000000000000000000000000000000000000815260040180806020018281038252838181518152602001915080519060200190808383600083811015610b9b578181015183820152602001610b83565b5060005460408051808201909152601981527f564f54494e475f4348414e47455f51554f52554d5f504354530000000000000060208201529067ffffffffffffffff740100000000000000000000000000000000000000009091048116908516111561109a576040517f08c379a000000000000000000000000000000000000000000000000000000000815260040180806020018281038252838181518152602001915080519060200190808383600083811015610b9b578181015183820152602001610b83565b506001805467ffffffffffffffff85167fffffffffffffffffffffffffffffffffffffffffffffffff0000000000000000909116811790915560408051918252517f3172f2e9273c729c2a47cc8bf7e7f18506e3e3035126d562602bd2155bc78a509181900360200190a1505050565b604080517f4d4f444946595f535550504f52545f524f4c45000000000000000000000000008152905190819003601301902081565b604080517f4d4f444946595f535550504f52545f524f4c4500000000000000000000000000815290519081900360130190206000546111a39067ffffffffffffffff80851691740100000000000000000000000000000000000000009004166126fd565b6111ae3383836117b7565b60408051808201909152600f81527f4150505f415554485f4641494c45440000000000000000000000000000000000602082015290151561124b576040517f08c379a000000000000000000000000000000000000000000000000000000000815260040180806020018281038252838181518152602001915080519060200190808383600083811015610b9b578181015183820152602001610b83565b5060015460408051808201909152601a81527f564f54494e475f4348414e47455f535550504f52545f5043545300000000000060208201529067ffffffffffffffff808616911611156112fa576040517f08c379a000000000000000000000000000000000000000000000000000000000815260040180806020018281038252838181518152602001915080519060200190808383600083811015610b9b578181015183820152602001610b83565b5060408051808201909152601a81527f564f54494e475f4348414e47455f535550505f544f4f5f4249470000000000006020820152670de0b6b3a764000067ffffffffffffffff8516106113aa576040517f08c379a000000000000000000000000000000000000000000000000000000000815260040180806020018281038252838181518152602001915080519060200190808383600083811015610b9b578181015183820152602001610b83565b506000805467ffffffffffffffff85167401000000000000000000000000000000000000000081027fffffffff0000000000000000ffffffffffffffffffffffffffffffffffffffff9092169190911790915560408051918252517f903b617f7f36eb047a29b89d1bf7885fdae31d250c3320fccf11d045c11b396e9181900360200190a1505050565b50600190565b60006114657fd625496217aa6a3453eecb9c3489dc5a53e6c67b444329ea2b2cbc9ff547639b612758565b905090565b60006114657febb05b386a8d34882b8711d156f463690983dc47815980fb82aeeff1aa43579e612758565b60008060006114a384611434565b60408051808201909152601281527f5245434f5645525f444953414c4c4f57454400000000000000000000000000006020820152901515611540576040517f08c379a000000000000000000000000000000000000000000000000000000000815260040180806020018281038252838181518152602001915080519060200190808383600083811015610b9b578181015183820152602001610b83565b50611549610a21565b925061155483612760565b60408051808201909152601a81527f5245434f5645525f5641554c545f4e4f545f434f4e545241435400000000000060208201529015156115f1576040517f08c379a000000000000000000000000000000000000000000000000000000000815260040180806020018281038252838181518152602001915080519060200190808383600083811015610b9b578181015183820152602001610b83565b5073ffffffffffffffffffffffffffffffffffffffff8416151561165c576040513031925073ffffffffffffffffffffffffffffffffffffffff84169083156108fc029084906000818181858888f19350505050158015611656573d6000803e3d6000fd5b5061174c565b508261168473ffffffffffffffffffffffffffffffffffffffff82163063ffffffff61279316565b91506116ad73ffffffffffffffffffffffffffffffffffffffff8216848463ffffffff6128cc16565b60408051808201909152601d81527f5245434f5645525f544f4b454e5f5452414e534645525f4641494c4544000000602082015290151561174a576040517f08c379a000000000000000000000000000000000000000000000000000000000815260040180806020018281038252838181518152602001915080519060200190808383600083811015610b9b578181015183820152602001610b83565b505b8373ffffffffffffffffffffffffffffffffffffffff168373ffffffffffffffffffffffffffffffffffffffff167f596caf56044b55fb8c4ca640089bbc2b63cae3e978b851f5745cbb7c5b288e02846040518082815260200191505060405180910390a350505050565b6000806117c26108eb565b15156117d1576000915061193f565b6117d9611c4f565b905073ffffffffffffffffffffffffffffffffffffffff81161515611801576000915061193f565b8073ffffffffffffffffffffffffffffffffffffffff1663fdef910686308761182988612964565b6040517c010000000000000000000000000000000000000000000000000000000063ffffffff871602815273ffffffffffffffffffffffffffffffffffffffff808616600483019081529085166024830152604482018490526080606483019081528351608484015283519192909160a490910190602085019080838360005b838110156118c15781810151838201526020016118a9565b50505050905090810190601f1680156118ee5780820380516001836020036101000a031916815260200191505b5095505050505050602060405180830381600087803b15801561191057600080fd5b505af1158015611924573d6000803e3d6000fd5b505050506040513d602081101561193a57600080fd5b505191505b509392505050565b600080611952611c4f565b604080517fbe00bbd80000000000000000000000000000000000000000000000000000000081527fd6f028ca0e8edb4a8c9757ca4fdccab25fa1e0317da1188108f7d2dee14902fb60048201527fddbcfd564f642ab5627cf68b9b7d374fb4f8a36e941a75d89c87998cef03bd616024820152905173ffffffffffffffffffffffffffffffffffffffff929092169163be00bbd8916044808201926020929091908290030181600087803b1580156109ef57600080fd5b604080517f564f5445000000000000000000000000000000000000000000000000000000008152905190819003600401902081565b60015468010000000000000000900467ffffffffffffffff1681565b604080517f4352454154455f564f5445535f524f4c450000000000000000000000000000008152905190819003601101902081565b6000611ad88360405180807f4352454154455f564f5445535f524f4c4500000000000000000000000000000081525060110190506040518091039020611ad361296e565b6117b7565b9392505050565b60035460408051808201909152600e81527f564f54494e475f4e4f5f564f544500000000000000000000000000000000000060208201526000918391908210611b84576040517f08c379a000000000000000000000000000000000000000000000000000000000815260040180806020018281038252838181518152602001915080519060200190808383600083811015610b9b578181015183820152602001610b83565b50611b8e83612980565b91505b50919050565b60035460408051808201909152600e81527f564f54494e475f4e4f5f564f544500000000000000000000000000000000000060208201526000918491908210611c3c576040517f08c379a000000000000000000000000000000000000000000000000000000000815260040180806020018281038252838181518152602001915080519060200190808383600083811015610b9b578181015183820152602001610b83565b50611c478484612a99565b949350505050565b60006114657f4172f0f7d2289153072b0a6ca36959e0cbe2efc3afe50fc81636caa96338137b612758565b604080517f4352454154455f564f5445535f524f4c450000000000000000000000000000008152815190819003601101812060008083526020830190935290611cc99033908390855b506117b7565b60408051808201909152600f81527f4150505f415554485f4641494c454400000000000000000000000000000000006020820152901515611d66576040517f08c379a000000000000000000000000000000000000000000000000000000000815260040180806020018281038252838181518152602001915080519060200190808383600083811015610b9b578181015183820152602001610b83565b50611dd386868080601f0160208091040260200160405190810160405280939291908181526020018383808284375050604080516020601f8c018190048102820181019092528a815294508a93508992508291508401838280828437820191505050505050600180612b80565b9695505050505050565b611de73382611a8f565b60408051808201909152601681527f564f54494e475f43414e5f4e4f545f464f5257415244000000000000000000006020820152901515611e84576040517f08c379a000000000000000000000000000000000000000000000000000000000815260040180806020018281038252838181518152602001915080519060200190808383600083811015610b9b578181015183820152602001610b83565b50611ea2816020604051908101604052806000815250600180612b80565b5050565b60015467ffffffffffffffff1681565b60007fffffffffffffffffffffffffffffffffffffffffffffffffffffffffffffffff611ee161146a565b14905090565b60035481565b604080517f564f5445000000000000000000000000000000000000000000000000000000008152815190819003600401812060008083526020830190935291611f3a913391849190611cc3565b60408051808201909152600f81527f4150505f415554485f4641494c454400000000000000000000000000000000006020820152901515611fd7576040517f08c379a000000000000000000000000000000000000000000000000000000000815260040180806020018281038252838181518152602001915080519060200190808383600083811015610b9b578181015183820152602001610b83565b5060035460408051808201909152600e81527f564f54494e475f4e4f5f564f5445000000000000000000000000000000000000602082015285918210612079576040517f08c379a000000000000000000000000000000000000000000000000000000000815260040180806020018281038252838181518152602001915080519060200190808383600083811015610b9b578181015183820152602001610b83565b506120848533612a99565b60408051808201909152601381527f564f54494e475f43414e5f4e4f545f564f5445000000000000000000000000006020820152901515612121576040517f08c379a000000000000000000000000000000000000000000000000000000000815260040180806020018281038252838181518152602001915080519060200190808383600083811015610b9b578181015183820152602001610b83565b5061212e85853386612f0f565b5050505050565b61213d61146a565b60408051808201909152601881527f494e49545f414c52454144595f494e495449414c495a45440000000000000000602082015290156121d9576040517f08c379a000000000000000000000000000000000000000000000000000000000815260040180806020018281038252838181518152602001915080519060200190808383600083811015610b9b578181015183820152602001610b83565b506121e261319d565b60408051808201909152601081527f564f54494e475f494e49545f5043545300000000000000000000000000000000602082015267ffffffffffffffff808516908416111561228d576040517f08c379a000000000000000000000000000000000000000000000000000000000815260040180806020018281038252838181518152602001915080519060200190808383600083811015610b9b578181015183820152602001610b83565b5060408051808201909152601b81527f564f54494e475f494e49545f535550504f52545f544f4f5f42494700000000006020820152670de0b6b3a764000067ffffffffffffffff85161061233d576040517f08c379a000000000000000000000000000000000000000000000000000000000815260040180806020018281038252838181518152602001915080519060200190808383600083811015610b9b578181015183820152602001610b83565b50600080547fffffffffffffffffffffffff00000000000000000000000000000000000000001673ffffffffffffffffffffffffffffffffffffffff95909516949094177fffffffff0000000000000000ffffffffffffffffffffffffffffffffffffffff167401000000000000000000000000000000000000000067ffffffffffffffff9485160217909355600180547fffffffffffffffffffffffffffffffffffffffffffffffff000000000000000016918316919091177fffffffffffffffffffffffffffffffff0000000000000000ffffffffffffffff16680100000000000000009390921692909202179055565b604080517f4352454154455f564f5445535f524f4c45000000000000000000000000000000815281519081900360110181206000808352602083019093529061247d903390839085611cc3565b60408051808201909152600f81527f4150505f415554485f4641494c45440000000000000000000000000000000000602082015290151561251a576040517f08c379a000000000000000000000000000000000000000000000000000000000815260040180806020018281038252838181518152602001915080519060200190808383600083811015610b9b578181015183820152602001610b83565b5061258688888080601f0160208091040260200160405190810160405280939291908181526020018383808284375050604080516020601f8e018190048102820181019092528c815294508c93508b925082915084018382808284378201915050505050508686612b80565b98975050505050505050565b60035460408051808201909152600e81527f564f54494e475f4e4f5f564f5445000000000000000000000000000000000000602082015282918210612633576040517f08c379a000000000000000000000000000000000000000000000000000000000815260040180806020018281038252838181518152602001915080519060200190808383600083811015610b9b578181015183820152602001610b83565b50611ea28261327c565b60005474010000000000000000000000000000000000000000900467ffffffffffffffff1681565b60005473ffffffffffffffffffffffffffffffffffffffff1681565b670de0b6b3a764000081565b600190565b4390565b60015481546000916126cc91610100900467ffffffffffffffff908116916801000000000000000090041663ffffffff61332f16565b67ffffffffffffffff166126de6133e1565b67ffffffffffffffff161080156126f75750815460ff16155b92915050565b60408051600280825260608083018452926020830190803883390190505090508281600081518110151561272d57fe5b60209081029091010152805182908290600190811061274857fe5b6020908102909101015292915050565b5490565b5490565b60008073ffffffffffffffffffffffffffffffffffffffff831615156127895760009150611b91565b50506000903b1190565b6040805173ffffffffffffffffffffffffffffffffffffffff83166024808301919091528251808303909101815260449091019091526020810180517bffffffffffffffffffffffffffffffffffffffffffffffffffffffff167f70a0823100000000000000000000000000000000000000000000000000000000179052600090818061282086846133f3565b60408051808201909152601c81527f534146455f4552435f32305f42414c414e43455f524556455254454400000000602082015291935091508215156128c2576040517f08c379a000000000000000000000000000000000000000000000000000000000815260040180806020018281038252838181518152602001915080519060200190808383600083811015610b9b578181015183820152602001610b83565b5095945050505050565b6040805173ffffffffffffffffffffffffffffffffffffffff8416602482015260448082018490528251808303909101815260649091019091526020810180517bffffffffffffffffffffffffffffffffffffffffffffffffffffffff167fa9059cbb0000000000000000000000000000000000000000000000000000000017905260009061295b8582613424565b95945050505050565b8051602002815290565b60408051600081526020810190915290565b60008181526002602052604081208054829060ff16156129a35760009250612a92565b6002820154600483015483546129d992919071010000000000000000000000000000000000900467ffffffffffffffff16613472565b156129e75760019250612a92565b6129f082612696565b156129fe5760009250612a92565b60038201546002830154612a179163ffffffff6134b416565b60028301548354919250612a4b91839071010000000000000000000000000000000000900467ffffffffffffffff16613472565b1515612a5a5760009250612a92565b600282015460048301546001840154612a7e92919067ffffffffffffffff16613472565b1515612a8d5760009250612a92565b600192505b5050919050565b6000828152600260205260408120612ab081612696565b8015611c475750600080548254604080517f4ee2cd7e00000000000000000000000000000000000000000000000000000000815273ffffffffffffffffffffffffffffffffffffffff8881166004830152690100000000000000000090930467ffffffffffffffff16602482015290519190921691634ee2cd7e91604480830192602092919082900301818787803b158015612b4b57600080fd5b505af1158015612b5f573d6000803e3d6000fd5b505050506040513d6020811015612b7557600080fd5b505111949350505050565b6000806000806001612b90613559565b60008054604080517f981b24d00000000000000000000000000000000000000000000000000000000081529490930367ffffffffffffffff81166004860152925192965073ffffffffffffffffffffffffffffffffffffffff169263981b24d09260248083019360209383900390910190829087803b158015612c1257600080fd5b505af1158015612c26573d6000803e3d6000fd5b505050506040513d6020811015612c3c57600080fd5b505160408051808201909152601681527f564f54494e475f4e4f5f564f54494e475f504f57455200000000000000000000602082015290925060008311612cdf576040517f08c379a000000000000000000000000000000000000000000000000000000000815260040180806020018281038252838181518152602001915080519060200190808383600083811015610b9b578181015183820152602001610b83565b505060038054600181019091556000818152600260205260409020909350612d056133e1565b81547fffffffffffffffffffffffffffffffffffffffffffffff0000000000000000ff1661010067ffffffffffffffff92831602177fffffffffffffffffffffffffffffff0000000000000000ffffffffffffffffff16690100000000000000000085831602178083556000547fffffffffffffff0000000000000000ffffffffffffffffffffffffffffffffff9091167401000000000000000000000000000000000000000090910482167101000000000000000000000000000000000002178255600180549083018054919092167fffffffffffffffffffffffffffffffffffffffffffffffff0000000000000000909116179055600481018290558651612e1890600683019060208a0190613f99565b508751612e2e90600583019060208b0190613f99565b503373ffffffffffffffffffffffffffffffffffffffff16847f4d72fe0577a3a3f7da968d7b892779dde102519c25527b29cf7054f245c791b9896040518080602001828103825283818151815260200191508051906020019080838360005b83811015612ea6578181015183820152602001612e8e565b50505050905090810190601f168015612ed35780820380516001836020036101000a031916815260200191505b509250505060405180910390a3858015612ef25750612ef28433612a99565b15612f0457612f048460013388612f0f565b505050949350505050565b60008481526002602090815260408083208354815483517f4ee2cd7e00000000000000000000000000000000000000000000000000000000815273ffffffffffffffffffffffffffffffffffffffff8981166004830152690100000000000000000090920467ffffffffffffffff166024820152935192959485949190921692634ee2cd7e9260448084019391929182900301818787803b158015612fb357600080fd5b505af1158015612fc7573d6000803e3d6000fd5b505050506040513d6020811015612fdd57600080fd5b505173ffffffffffffffffffffffffffffffffffffffff8616600090815260078501602052604090205490925060ff169050600181600281111561301d57fe5b1415613042576002830154613038908363ffffffff61356616565b6002840155613071565b600281600281111561305057fe5b141561307157600383015461306b908363ffffffff61356616565b60038401555b851561309657600283015461308c908363ffffffff6134b416565b60028401556130b1565b60038301546130ab908363ffffffff6134b416565b60038401555b856130bd5760026130c0565b60015b73ffffffffffffffffffffffffffffffffffffffff86166000908152600785016020526040902080547fffffffffffffffffffffffffffffffffffffffffffffffffffffffffffffff0016600183600281111561311957fe5b021790555060408051871515815260208101849052815173ffffffffffffffffffffffffffffffffffffffff8816928a927fb34ee265e3d4f5ec4e8b52d59b2a9be8fceca2f274ebc080d8fba797fea9391f929081900390910190a3838015613186575061318687612980565b156131945761319487613611565b50505050505050565b6131a561146a565b60408051808201909152601881527f494e49545f414c52454144595f494e495449414c495a4544000000000000000060208201529015613241576040517f08c379a000000000000000000000000000000000000000000000000000000000815260040180806020018281038252838181518152602001915080519060200190808383600083811015610b9b578181015183820152602001610b83565b5061327a61324d612692565b7febb05b386a8d34882b8711d156f463690983dc47815980fb82aeeff1aa43579e9063ffffffff61374916565b565b61328581612980565b60408051808201909152601681527f564f54494e475f43414e5f4e4f545f45584543555445000000000000000000006020820152901515613322576040517f08c379a000000000000000000000000000000000000000000000000000000000815260040180806020018281038252838181518152602001915080519060200190808383600083811015610b9b578181015183820152602001610b83565b5061332c81613611565b50565b60408051808201909152601381527f4d41544836345f4144445f4f564552464c4f570000000000000000000000000060208201526000908383019067ffffffffffffffff808616908316101561193f576040517f08c379a000000000000000000000000000000000000000000000000000000000815260040180806020018281038252838181518152602001915080519060200190808383600083811015610b9b578181015183820152602001610b83565b60006114656133ee61374d565b613751565b6000806000806040516020818751602089018a5afa9250600083111561341857805191505b50909590945092505050565b6000806040516020818551602087016000895af16000811115613468573d8015613455576020811461345e57613466565b60019350613466565b600183511493505b505b5090949350505050565b600080831515613485576000915061193f565b8361349e86670de0b6b3a764000063ffffffff61380116565b8115156134a757fe5b0492909211949350505050565b60408051808201909152601181527f4d4154485f4144445f4f564552464c4f570000000000000000000000000000006020820152600090838301908482101561193f576040517f08c379a000000000000000000000000000000000000000000000000000000000815260040180806020018281038252838181518152602001915080519060200190808383600083811015610b9b578181015183820152602001610b83565b60006114656133ee612692565b60408051808201909152601281527f4d4154485f5355425f554e444552464c4f5700000000000000000000000000006020820152600090819084841115613609576040517f08c379a000000000000000000000000000000000000000000000000000000000815260040180806020018281038252838181518152602001915080519060200190808383600083811015610b9b578181015183820152602001610b83565b505050900390565b600081815260026020818152604080842080547fffffffffffffffffffffffffffffffffffffffffffffffffffffffffffffff001660019081178255825195865260058201805491821615610100027fffffffffffffffffffffffffffffffffffffffffffffffffffffffffffffffff0190911694909404601f810184900484028601830183529285018381529094936137189391929091908501828280156136fb5780601f106136d0576101008083540402835291602001916136fb565b820191906000526020600020905b8154815290600101906020018083116136de57829003601f168201915b505060408051600081526020810190915286935091506138c39050565b5060405183907fbf8e2b108bb7c980e08903a8a46527699d5e84905a082d56dacb4150725c8cab90600090a2505050565b9055565b4290565b60408051808201909152601581527f55494e5436345f4e554d4245525f544f4f5f4249470000000000000000000000602082015260009067ffffffffffffffff8311156137fa576040517f08c379a000000000000000000000000000000000000000000000000000000000815260040180806020018281038252838181518152602001915080519060200190808383600083811015610b9b578181015183820152602001610b83565b5090919050565b6000808315156138145760009150610c10565b5082820282848281151561382457fe5b60408051808201909152601181527f4d4154485f4d554c5f4f564552464c4f570000000000000000000000000000006020820152929190041461193f576040517f08c379a000000000000000000000000000000000000000000000000000000000815260040180806020018281038252838181518152602001915080519060200190808383600083811015610b9b578181015183820152602001610b83565b60606000806060806138d36108eb565b60408051808201909152601481527f494e49545f4e4f545f494e495449414c495a45440000000000000000000000006020820152901515613970576040517f08c379a000000000000000000000000000000000000000000000000000000000815260040180806020018281038252838181518152602001915080519060200190808383600083811015610b9b578181015183820152602001610b83565b5060008061397c611c4f565b915061398661143a565b90506139918a610915565b60408051808201909152601b81527f45564d52554e5f4558454355544f525f554e415641494c41424c450000000000602082015290965073ffffffffffffffffffffffffffffffffffffffff87161515613a47576040517f08c379a000000000000000000000000000000000000000000000000000000000815260040180806020018281038252838181518152602001915080519060200190808383600083811015610b9b578181015183820152602001610b83565b506040516060602482019081528b5160848301528b517f279cea3500000000000000000000000000000000000000000000000000000000975087928d928d928d9282916044820191606481019160a490910190602089019080838360005b83811015613abd578181015183820152602001613aa5565b50505050905090810190601f168015613aea5780820380516001836020036101000a031916815260200191505b50848103835286518152865160209182019188019080838360005b83811015613b1d578181015183820152602001613b05565b50505050905090810190601f168015613b4a5780820380516001836020036101000a031916815260200191505b508481038252855181528551602091820191808801910280838360005b83811015613b7f578181015183820152602001613b67565b505050509050019650505050505050604051602081830303815290604052907bffffffffffffffffffffffffffffffffffffffffffffffffffffffff19166020820180517bffffffffffffffffffffffffffffffffffffffffffffffffffffffff83818316178352505050509350600080855160208701895af46040519350808015613c8457603f3d118015613c225760203d03806020883e8601604052613c7e565b7f08c379a000000000000000000000000000000000000000000000000000000000865260206004870152601e60248701527f45564d52554e5f4558454355544f525f494e56414c49445f52455455524e00006044870152606486fd5b50613c8d565b3d6000863e3d85fd5b50508573ffffffffffffffffffffffffffffffffffffffff167f5229a5dba83a54ae8cb5b51bdd6de9474cacbe9dd332f5185f3a4f4f2e3f4ad98b8b8660405180806020018060200180602001848103845287818151815260200191508051906020019080838360005b83811015613d0f578181015183820152602001613cf7565b50505050905090810190601f168015613d3c5780820380516001836020036101000a031916815260200191505b50848103835286518152865160209182019188019080838360005b83811015613d6f578181015183820152602001613d57565b50505050905090810190601f168015613d9c5780820380516001836020036101000a031916815260200191505b50848103825285518152855160209182019187019080838360005b83811015613dcf578181015183820152602001613db7565b50505050905090810190601f168015613dfc5780820380516001836020036101000a031916815260200191505b50965050505050505060405180910390a28296508173ffffffffffffffffffffffffffffffffffffffff16613e2f611c4f565b73ffffffffffffffffffffffffffffffffffffffff16146040805190810160405280601f81526020017f45564d52554e5f50524f5445435445445f53544154455f4d4f44494649454400815250901515613ee5576040517f08c379a000000000000000000000000000000000000000000000000000000000815260040180806020018281038252838181518152602001915080519060200190808383600083811015610b9b578181015183820152602001610b83565b5080613eef61143a565b60408051808201909152601f81527f45564d52554e5f50524f5445435445445f53544154455f4d4f4449464945440060208201529114613f8b576040517f08c379a000000000000000000000000000000000000000000000000000000000815260040180806020018281038252838181518152602001915080519060200190808383600083811015610b9b578181015183820152602001610b83565b505050505050509392505050565b828054600181600116156101000203166002900490600052602060002090601f016020900481019282601f10613fda57805160ff1916838001178555614007565b82800160010185558215614007579182015b82811115614007578251825591602001919060010190613fec565b5061091192610abd9250905b8082111561091157600081556001016140135600a165627a7a7230582035c65dec12d103cede197712b9d125a3d29da65848578b0c59bbe2653be83e050029ebb05b386a8d34882b8711d156f463690983dc47815980fb82aeeff1aa43579e",
			"opcodes": "PUSH1 0x80 PUSH1 0x40 MSTORE PUSH3 0x17 PUSH5 0x100000000 PUSH3 0x1D DUP2 MUL DIV JUMP JUMPDEST PUSH3 0x23B JUMP JUMPDEST PUSH3 0x30 PUSH5 0x100000000 PUSH3 0x125 DUP2 MUL DIV JUMP JUMPDEST PUSH1 0x40 DUP1 MLOAD DUP1 DUP3 ADD SWAP1 SWAP2 MSTORE PUSH1 0x18 DUP2 MSTORE PUSH32 0x494E49545F414C52454144595F494E495449414C495A45440000000000000000 PUSH1 0x20 DUP3 ADD MSTORE SWAP1 ISZERO PUSH3 0x10C JUMPI PUSH1 0x40 MLOAD PUSH32 0x8C379A000000000000000000000000000000000000000000000000000000000 DUP2 MSTORE PUSH1 0x4 ADD DUP1 DUP1 PUSH1 0x20 ADD DUP3 DUP2 SUB DUP3 MSTORE DUP4 DUP2 DUP2 MLOAD DUP2 MSTORE PUSH1 0x20 ADD SWAP2 POP DUP1 MLOAD SWAP1 PUSH1 0x20 ADD SWAP1 DUP1 DUP4 DUP4 PUSH1 0x0 JUMPDEST DUP4 DUP2 LT ISZERO PUSH3 0xD0 JUMPI DUP2 DUP2 ADD MLOAD DUP4 DUP3 ADD MSTORE PUSH1 0x20 ADD PUSH3 0xB6 JUMP JUMPDEST POP POP POP POP SWAP1 POP SWAP1 DUP2 ADD SWAP1 PUSH1 0x1F AND DUP1 ISZERO PUSH3 0xFE JUMPI DUP1 DUP3 SUB DUP1 MLOAD PUSH1 0x1 DUP4 PUSH1 0x20 SUB PUSH2 0x100 EXP SUB NOT AND DUP2 MSTORE PUSH1 0x20 ADD SWAP2 POP JUMPDEST POP SWAP3 POP POP POP PUSH1 0x40 MLOAD DUP1 SWAP2 SUB SWAP1 REVERT JUMPDEST POP PUSH3 0x123 PUSH1 0x0 NOT PUSH5 0x100000000 PUSH3 0x154 DUP2 MUL DIV JUMP JUMPDEST JUMP JUMPDEST PUSH1 0x0 PUSH3 0x14F PUSH1 0x0 DUP1 MLOAD PUSH1 0x20 PUSH3 0x429E DUP4 CODECOPY DUP2 MLOAD SWAP2 MSTORE PUSH5 0x100000000 PUSH3 0x2758 PUSH3 0x233 DUP3 MUL OR DIV JUMP JUMPDEST SWAP1 POP SWAP1 JUMP JUMPDEST PUSH3 0x167 PUSH5 0x100000000 PUSH3 0x125 DUP2 MUL DIV JUMP JUMPDEST PUSH1 0x40 DUP1 MLOAD DUP1 DUP3 ADD SWAP1 SWAP2 MSTORE PUSH1 0x18 DUP2 MSTORE PUSH32 0x494E49545F414C52454144595F494E495449414C495A45440000000000000000 PUSH1 0x20 DUP3 ADD MSTORE SWAP1 ISZERO PUSH3 0x206 JUMPI PUSH1 0x40 MLOAD PUSH32 0x8C379A000000000000000000000000000000000000000000000000000000000 DUP2 MSTORE PUSH1 0x4 ADD DUP1 DUP1 PUSH1 0x20 ADD DUP3 DUP2 SUB DUP3 MSTORE DUP4 DUP2 DUP2 MLOAD DUP2 MSTORE PUSH1 0x20 ADD SWAP2 POP DUP1 MLOAD SWAP1 PUSH1 0x20 ADD SWAP1 DUP1 DUP4 DUP4 PUSH1 0x0 DUP4 DUP2 LT ISZERO PUSH3 0xD0 JUMPI DUP2 DUP2 ADD MLOAD DUP4 DUP3 ADD MSTORE PUSH1 0x20 ADD PUSH3 0xB6 JUMP JUMPDEST POP PUSH3 0x230 PUSH1 0x0 DUP1 MLOAD PUSH1 0x20 PUSH3 0x429E DUP4 CODECOPY DUP2 MLOAD SWAP2 MSTORE DUP3 PUSH5 0x100000000 PUSH3 0x3749 PUSH3 0x237 DUP3 MUL OR DIV JUMP JUMPDEST POP JUMP JUMPDEST SLOAD SWAP1 JUMP JUMPDEST SWAP1 SSTORE JUMP JUMPDEST PUSH2 0x4053 DUP1 PUSH3 0x24B PUSH1 0x0 CODECOPY PUSH1 0x0 RETURN STOP PUSH1 0x80 PUSH1 0x40 MSTORE PUSH1 0x4 CALLDATASIZE LT PUSH2 0x1B6 JUMPI PUSH4 0xFFFFFFFF PUSH29 0x100000000000000000000000000000000000000000000000000000000 PUSH1 0x0 CALLDATALOAD DIV AND PUSH4 0x803FAC0 DUP2 EQ PUSH2 0x1BB JUMPI DUP1 PUSH4 0x2914B9BD EQ PUSH2 0x1E4 JUMPI DUP1 PUSH4 0x32F0A3B5 EQ PUSH2 0x266 JUMPI DUP1 PUSH4 0x3C624C75 EQ PUSH2 0x27B JUMPI DUP1 PUSH4 0x4B12311C EQ PUSH2 0x2A2 JUMPI DUP1 PUSH4 0x5A55C1F0 EQ PUSH2 0x2F7 JUMPI DUP1 PUSH4 0x5EB24332 EQ PUSH2 0x484 JUMPI DUP1 PUSH4 0x62DE7E5A EQ PUSH2 0x4A8 JUMPI DUP1 PUSH4 0x7C1D0B87 EQ PUSH2 0x4BD JUMPI DUP1 PUSH4 0x7E7DB6E1 EQ PUSH2 0x4DF JUMPI DUP1 PUSH4 0x80AFDEA8 EQ PUSH2 0x50D JUMPI DUP1 PUSH4 0x8B3DD749 EQ PUSH2 0x522 JUMPI DUP1 PUSH4 0x9D4941D8 EQ PUSH2 0x537 JUMPI DUP1 PUSH4 0xA1658FAD EQ PUSH2 0x565 JUMPI DUP1 PUSH4 0xA479E508 EQ PUSH2 0x5D9 JUMPI DUP1 PUSH4 0xAA449396 EQ PUSH2 0x5EE JUMPI DUP1 PUSH4 0xBCF93DD6 EQ PUSH2 0x603 JUMPI DUP1 PUSH4 0xBE2C64D4 EQ PUSH2 0x635 JUMPI DUP1 PUSH4 0xC0774DF3 EQ PUSH2 0x64A JUMPI DUP1 PUSH4 0xCC63604A EQ PUSH2 0x6BE JUMPI DUP1 PUSH4 0xCDB2867B EQ PUSH2 0x6D6 JUMPI DUP1 PUSH4 0xD4AAE0C4 EQ PUSH2 0x707 JUMPI DUP1 PUSH4 0xD5DB2C80 EQ PUSH2 0x71C JUMPI DUP1 PUSH4 0xD948D468 EQ PUSH2 0x748 JUMPI DUP1 PUSH4 0xDC474B1A EQ PUSH2 0x7A1 JUMPI DUP1 PUSH4 0xDE4796ED EQ PUSH2 0x7B6 JUMPI DUP1 PUSH4 0xDE4F6347 EQ PUSH2 0x7CB JUMPI DUP1 PUSH4 0xDF133BCA EQ PUSH2 0x7E0 JUMPI DUP1 PUSH4 0xDF3D3305 EQ PUSH2 0x802 JUMPI DUP1 PUSH4 0xF4B00513 EQ PUSH2 0x849 JUMPI DUP1 PUSH4 0xF98A4ECA EQ PUSH2 0x87F JUMPI DUP1 PUSH4 0xFAD167AB EQ PUSH2 0x897 JUMPI DUP1 PUSH4 0xFC0C546A EQ PUSH2 0x8AC JUMPI DUP1 PUSH4 0xFC157CB4 EQ PUSH2 0x8C1 JUMPI DUP1 PUSH4 0xFD64ECCB EQ PUSH2 0x8D6 JUMPI JUMPDEST PUSH1 0x0 DUP1 REVERT JUMPDEST CALLVALUE DUP1 ISZERO PUSH2 0x1C7 JUMPI PUSH1 0x0 DUP1 REVERT JUMPDEST POP PUSH2 0x1D0 PUSH2 0x8EB JUMP JUMPDEST PUSH1 0x40 DUP1 MLOAD SWAP2 ISZERO ISZERO DUP3 MSTORE MLOAD SWAP1 DUP2 SWAP1 SUB PUSH1 0x20 ADD SWAP1 RETURN JUMPDEST CALLVALUE DUP1 ISZERO PUSH2 0x1F0 JUMPI PUSH1 0x0 DUP1 REVERT JUMPDEST POP PUSH1 0x40 DUP1 MLOAD PUSH1 0x20 PUSH1 0x4 DUP1 CALLDATALOAD DUP1 DUP3 ADD CALLDATALOAD PUSH1 0x1F DUP2 ADD DUP5 SWAP1 DIV DUP5 MUL DUP6 ADD DUP5 ADD SWAP1 SWAP6 MSTORE DUP5 DUP5 MSTORE PUSH2 0x23D SWAP5 CALLDATASIZE SWAP5 SWAP3 SWAP4 PUSH1 0x24 SWAP4 SWAP3 DUP5 ADD SWAP2 SWAP1 DUP2 SWAP1 DUP5 ADD DUP4 DUP3 DUP1 DUP3 DUP5 CALLDATACOPY POP SWAP5 SWAP8 POP PUSH2 0x915 SWAP7 POP POP POP POP POP POP POP JUMP JUMPDEST PUSH1 0x40 DUP1 MLOAD PUSH20 0xFFFFFFFFFFFFFFFFFFFFFFFFFFFFFFFFFFFFFFFF SWAP1 SWAP3 AND DUP3 MSTORE MLOAD SWAP1 DUP2 SWAP1 SUB PUSH1 0x20 ADD SWAP1 RETURN JUMPDEST CALLVALUE DUP1 ISZERO PUSH2 0x272 JUMPI PUSH1 0x0 DUP1 REVERT JUMPDEST POP PUSH2 0x23D PUSH2 0xA21 JUMP JUMPDEST CALLVALUE DUP1 ISZERO PUSH2 0x287 JUMPI PUSH1 0x0 DUP1 REVERT JUMPDEST POP PUSH2 0x290 PUSH2 0xAC0 JUMP JUMPDEST PUSH1 0x40 DUP1 MLOAD SWAP2 DUP3 MSTORE MLOAD SWAP1 DUP2 SWAP1 SUB PUSH1 0x20 ADD SWAP1 RETURN JUMPDEST CALLVALUE DUP1 ISZERO PUSH2 0x2AE JUMPI PUSH1 0x0 DUP1 REVERT JUMPDEST POP PUSH2 0x2D3 PUSH1 0x4 CALLDATALOAD PUSH20 0xFFFFFFFFFFFFFFFFFFFFFFFFFFFFFFFFFFFFFFFF PUSH1 0x24 CALLDATALOAD AND PUSH2 0xAF5 JUMP JUMPDEST PUSH1 0x40 MLOAD DUP1 DUP3 PUSH1 0x2 DUP2 GT ISZERO PUSH2 0x2E3 JUMPI INVALID JUMPDEST PUSH1 0xFF AND DUP2 MSTORE PUSH1 0x20 ADD SWAP2 POP POP PUSH1 0x40 MLOAD DUP1 SWAP2 SUB SWAP1 RETURN JUMPDEST CALLVALUE DUP1 ISZERO PUSH2 0x303 JUMPI PUSH1 0x0 DUP1 REVERT JUMPDEST POP PUSH2 0x30F PUSH1 0x4 CALLDATALOAD PUSH2 0xC17 JUMP JUMPDEST PUSH1 0x40 MLOAD DUP1 DUP13 ISZERO ISZERO ISZERO ISZERO DUP2 MSTORE PUSH1 0x20 ADD DUP12 ISZERO ISZERO ISZERO ISZERO DUP2 MSTORE PUSH1 0x20 ADD DUP11 PUSH8 0xFFFFFFFFFFFFFFFF AND PUSH8 0xFFFFFFFFFFFFFFFF AND DUP2 MSTORE PUSH1 0x20 ADD DUP10 PUSH8 0xFFFFFFFFFFFFFFFF AND PUSH8 0xFFFFFFFFFFFFFFFF AND DUP2 MSTORE PUSH1 0x20 ADD DUP9 PUSH8 0xFFFFFFFFFFFFFFFF AND PUSH8 0xFFFFFFFFFFFFFFFF AND DUP2 MSTORE PUSH1 0x20 ADD DUP8 PUSH8 0xFFFFFFFFFFFFFFFF AND PUSH8 0xFFFFFFFFFFFFFFFF AND DUP2 MSTORE PUSH1 0x20 ADD DUP7 DUP2 MSTORE PUSH1 0x20 ADD DUP6 DUP2 MSTORE PUSH1 0x20 ADD DUP5 DUP2 MSTORE PUSH1 0x20 ADD DUP1 PUSH1 0x20 ADD DUP1 PUSH1 0x20 ADD DUP4 DUP2 SUB DUP4 MSTORE DUP6 DUP2 DUP2 MLOAD DUP2 MSTORE PUSH1 0x20 ADD SWAP2 POP DUP1 MLOAD SWAP1 PUSH1 0x20 ADD SWAP1 DUP1 DUP4 DUP4 PUSH1 0x0 JUMPDEST DUP4 DUP2 LT ISZERO PUSH2 0x3DE JUMPI DUP2 DUP2 ADD MLOAD DUP4 DUP3 ADD MSTORE PUSH1 0x20 ADD PUSH2 0x3C6 JUMP JUMPDEST POP POP POP POP SWAP1 POP SWAP1 DUP2 ADD SWAP1 PUSH1 0x1F AND DUP1 ISZERO PUSH2 0x40B JUMPI DUP1 DUP3 SUB DUP1 MLOAD PUSH1 0x1 DUP4 PUSH1 0x20 SUB PUSH2 0x100 EXP SUB NOT AND DUP2 MSTORE PUSH1 0x20 ADD SWAP2 POP JUMPDEST POP DUP4 DUP2 SUB DUP3 MSTORE DUP5 MLOAD DUP2 MSTORE DUP5 MLOAD PUSH1 0x20 SWAP2 DUP3 ADD SWAP2 DUP7 ADD SWAP1 DUP1 DUP4 DUP4 PUSH1 0x0 JUMPDEST DUP4 DUP2 LT ISZERO PUSH2 0x43E JUMPI DUP2 DUP2 ADD MLOAD DUP4 DUP3 ADD MSTORE PUSH1 0x20 ADD PUSH2 0x426 JUMP JUMPDEST POP POP POP POP SWAP1 POP SWAP1 DUP2 ADD SWAP1 PUSH1 0x1F AND DUP1 ISZERO PUSH2 0x46B JUMPI DUP1 DUP3 SUB DUP1 MLOAD PUSH1 0x1 DUP4 PUSH1 0x20 SUB PUSH2 0x100 EXP SUB NOT AND DUP2 MSTORE PUSH1 0x20 ADD SWAP2 POP JUMPDEST POP SWAP14 POP POP POP POP POP POP POP POP POP POP POP POP POP POP PUSH1 0x40 MLOAD DUP1 SWAP2 SUB SWAP1 RETURN JUMPDEST CALLVALUE DUP1 ISZERO PUSH2 0x490 JUMPI PUSH1 0x0 DUP1 REVERT JUMPDEST POP PUSH2 0x4A6 PUSH8 0xFFFFFFFFFFFFFFFF PUSH1 0x4 CALLDATALOAD AND PUSH2 0xEDE JUMP JUMPDEST STOP JUMPDEST CALLVALUE DUP1 ISZERO PUSH2 0x4B4 JUMPI PUSH1 0x0 DUP1 REVERT JUMPDEST POP PUSH2 0x290 PUSH2 0x110A JUMP JUMPDEST CALLVALUE DUP1 ISZERO PUSH2 0x4C9 JUMPI PUSH1 0x0 DUP1 REVERT JUMPDEST POP PUSH2 0x4A6 PUSH8 0xFFFFFFFFFFFFFFFF PUSH1 0x4 CALLDATALOAD AND PUSH2 0x113F JUMP JUMPDEST CALLVALUE DUP1 ISZERO PUSH2 0x4EB JUMPI PUSH1 0x0 DUP1 REVERT JUMPDEST POP PUSH2 0x1D0 PUSH20 0xFFFFFFFFFFFFFFFFFFFFFFFFFFFFFFFFFFFFFFFF PUSH1 0x4 CALLDATALOAD AND PUSH2 0x1434 JUMP JUMPDEST CALLVALUE DUP1 ISZERO PUSH2 0x519 JUMPI PUSH1 0x0 DUP1 REVERT JUMPDEST POP PUSH2 0x290 PUSH2 0x143A JUMP JUMPDEST CALLVALUE DUP1 ISZERO PUSH2 0x52E JUMPI PUSH1 0x0 DUP1 REVERT JUMPDEST POP PUSH2 0x290 PUSH2 0x146A JUMP JUMPDEST CALLVALUE DUP1 ISZERO PUSH2 0x543 JUMPI PUSH1 0x0 DUP1 REVERT JUMPDEST POP PUSH2 0x4A6 PUSH20 0xFFFFFFFFFFFFFFFFFFFFFFFFFFFFFFFFFFFFFFFF PUSH1 0x4 CALLDATALOAD AND PUSH2 0x1495 JUMP JUMPDEST CALLVALUE DUP1 ISZERO PUSH2 0x571 JUMPI PUSH1 0x0 DUP1 REVERT JUMPDEST POP PUSH1 0x40 DUP1 MLOAD PUSH1 0x20 PUSH1 0x4 PUSH1 0x44 CALLDATALOAD DUP2 DUP2 ADD CALLDATALOAD DUP4 DUP2 MUL DUP1 DUP7 ADD DUP6 ADD SWAP1 SWAP7 MSTORE DUP1 DUP6 MSTORE PUSH2 0x1D0 SWAP6 DUP4 CALLDATALOAD PUSH20 0xFFFFFFFFFFFFFFFFFFFFFFFFFFFFFFFFFFFFFFFF AND SWAP6 PUSH1 0x24 DUP1 CALLDATALOAD SWAP7 CALLDATASIZE SWAP7 SWAP6 PUSH1 0x64 SWAP6 SWAP4 SWAP5 SWAP3 ADD SWAP3 SWAP2 DUP3 SWAP2 DUP6 ADD SWAP1 DUP5 SWAP1 DUP1 DUP3 DUP5 CALLDATACOPY POP SWAP5 SWAP8 POP PUSH2 0x17B7 SWAP7 POP POP POP POP POP POP POP JUMP JUMPDEST CALLVALUE DUP1 ISZERO PUSH2 0x5E5 JUMPI PUSH1 0x0 DUP1 REVERT JUMPDEST POP PUSH2 0x23D PUSH2 0x1947 JUMP JUMPDEST CALLVALUE DUP1 ISZERO PUSH2 0x5FA JUMPI PUSH1 0x0 DUP1 REVERT JUMPDEST POP PUSH2 0x290 PUSH2 0x1A09 JUMP JUMPDEST CALLVALUE DUP1 ISZERO PUSH2 0x60F JUMPI PUSH1 0x0 DUP1 REVERT JUMPDEST POP PUSH2 0x618 PUSH2 0x1A3E JUMP JUMPDEST PUSH1 0x40 DUP1 MLOAD PUSH8 0xFFFFFFFFFFFFFFFF SWAP1 SWAP3 AND DUP3 MSTORE MLOAD SWAP1 DUP2 SWAP1 SUB PUSH1 0x20 ADD SWAP1 RETURN JUMPDEST CALLVALUE DUP1 ISZERO PUSH2 0x641 JUMPI PUSH1 0x0 DUP1 REVERT JUMPDEST POP PUSH2 0x290 PUSH2 0x1A5A JUMP JUMPDEST CALLVALUE DUP1 ISZERO PUSH2 0x656 JUMPI PUSH1 0x0 DUP1 REVERT JUMPDEST POP PUSH1 0x40 DUP1 MLOAD PUSH1 0x20 PUSH1 0x4 PUSH1 0x24 DUP1 CALLDATALOAD DUP3 DUP2 ADD CALLDATALOAD PUSH1 0x1F DUP2 ADD DUP6 SWAP1 DIV DUP6 MUL DUP7 ADD DUP6 ADD SWAP1 SWAP7 MSTORE DUP6 DUP6 MSTORE PUSH2 0x1D0 SWAP6 DUP4 CALLDATALOAD PUSH20 0xFFFFFFFFFFFFFFFFFFFFFFFFFFFFFFFFFFFFFFFF AND SWAP6 CALLDATASIZE SWAP6 PUSH1 0x44 SWAP5 SWAP2 SWAP4 SWAP1 SWAP2 ADD SWAP2 SWAP1 DUP2 SWAP1 DUP5 ADD DUP4 DUP3 DUP1 DUP3 DUP5 CALLDATACOPY POP SWAP5 SWAP8 POP PUSH2 0x1A8F SWAP7 POP POP POP POP POP POP POP JUMP JUMPDEST CALLVALUE DUP1 ISZERO PUSH2 0x6CA JUMPI PUSH1 0x0 DUP1 REVERT JUMPDEST POP PUSH2 0x1D0 PUSH1 0x4 CALLDATALOAD PUSH2 0x1ADF JUMP JUMPDEST CALLVALUE DUP1 ISZERO PUSH2 0x6E2 JUMPI PUSH1 0x0 DUP1 REVERT JUMPDEST POP PUSH2 0x1D0 PUSH1 0x4 CALLDATALOAD PUSH20 0xFFFFFFFFFFFFFFFFFFFFFFFFFFFFFFFFFFFFFFFF PUSH1 0x24 CALLDATALOAD AND PUSH2 0x1B97 JUMP JUMPDEST CALLVALUE DUP1 ISZERO PUSH2 0x713 JUMPI PUSH1 0x0 DUP1 REVERT JUMPDEST POP PUSH2 0x23D PUSH2 0x1C4F JUMP JUMPDEST CALLVALUE DUP1 ISZERO PUSH2 0x728 JUMPI PUSH1 0x0 DUP1 REVERT JUMPDEST POP PUSH2 0x290 PUSH1 0x24 PUSH1 0x4 DUP1 CALLDATALOAD DUP3 DUP2 ADD SWAP3 SWAP1 DUP3 ADD CALLDATALOAD SWAP2 DUP2 CALLDATALOAD SWAP2 DUP3 ADD SWAP2 ADD CALLDATALOAD PUSH2 0x1C7A JUMP JUMPDEST CALLVALUE DUP1 ISZERO PUSH2 0x754 JUMPI PUSH1 0x0 DUP1 REVERT JUMPDEST POP PUSH1 0x40 DUP1 MLOAD PUSH1 0x20 PUSH1 0x4 DUP1 CALLDATALOAD DUP1 DUP3 ADD CALLDATALOAD PUSH1 0x1F DUP2 ADD DUP5 SWAP1 DIV DUP5 MUL DUP6 ADD DUP5 ADD SWAP1 SWAP6 MSTORE DUP5 DUP5 MSTORE PUSH2 0x4A6 SWAP5 CALLDATASIZE SWAP5 SWAP3 SWAP4 PUSH1 0x24 SWAP4 SWAP3 DUP5 ADD SWAP2 SWAP1 DUP2 SWAP1 DUP5 ADD DUP4 DUP3 DUP1 DUP3 DUP5 CALLDATACOPY POP SWAP5 SWAP8 POP PUSH2 0x1DDD SWAP7 POP POP POP POP POP POP POP JUMP JUMPDEST CALLVALUE DUP1 ISZERO PUSH2 0x7AD JUMPI PUSH1 0x0 DUP1 REVERT JUMPDEST POP PUSH2 0x618 PUSH2 0x1EA6 JUMP JUMPDEST CALLVALUE DUP1 ISZERO PUSH2 0x7C2 JUMPI PUSH1 0x0 DUP1 REVERT JUMPDEST POP PUSH2 0x1D0 PUSH2 0x1EB6 JUMP JUMPDEST CALLVALUE DUP1 ISZERO PUSH2 0x7D7 JUMPI PUSH1 0x0 DUP1 REVERT JUMPDEST POP PUSH2 0x290 PUSH2 0x1EE7 JUMP JUMPDEST CALLVALUE DUP1 ISZERO PUSH2 0x7EC JUMPI PUSH1 0x0 DUP1 REVERT JUMPDEST POP PUSH2 0x4A6 PUSH1 0x4 CALLDATALOAD PUSH1 0x24 CALLDATALOAD ISZERO ISZERO PUSH1 0x44 CALLDATALOAD ISZERO ISZERO PUSH2 0x1EED JUMP JUMPDEST CALLVALUE DUP1 ISZERO PUSH2 0x80E JUMPI PUSH1 0x0 DUP1 REVERT JUMPDEST POP PUSH2 0x4A6 PUSH20 0xFFFFFFFFFFFFFFFFFFFFFFFFFFFFFFFFFFFFFFFF PUSH1 0x4 CALLDATALOAD AND PUSH8 0xFFFFFFFFFFFFFFFF PUSH1 0x24 CALLDATALOAD DUP2 AND SWAP1 PUSH1 0x44 CALLDATALOAD DUP2 AND SWAP1 PUSH1 0x64 CALLDATALOAD AND PUSH2 0x2135 JUMP JUMPDEST CALLVALUE DUP1 ISZERO PUSH2 0x855 JUMPI PUSH1 0x0 DUP1 REVERT JUMPDEST POP PUSH2 0x290 PUSH1 0x24 PUSH1 0x4 DUP1 CALLDATALOAD DUP3 DUP2 ADD SWAP3 SWAP1 DUP3 ADD CALLDATALOAD SWAP2 DUP2 CALLDATALOAD SWAP2 DUP3 ADD SWAP2 ADD CALLDATALOAD PUSH1 0x44 CALLDATALOAD ISZERO ISZERO PUSH1 0x64 CALLDATALOAD ISZERO ISZERO PUSH2 0x2430 JUMP JUMPDEST CALLVALUE DUP1 ISZERO PUSH2 0x88B JUMPI PUSH1 0x0 DUP1 REVERT JUMPDEST POP PUSH2 0x4A6 PUSH1 0x4 CALLDATALOAD PUSH2 0x2592 JUMP JUMPDEST CALLVALUE DUP1 ISZERO PUSH2 0x8A3 JUMPI PUSH1 0x0 DUP1 REVERT JUMPDEST POP PUSH2 0x618 PUSH2 0x263D JUMP JUMPDEST CALLVALUE DUP1 ISZERO PUSH2 0x8B8 JUMPI PUSH1 0x0 DUP1 REVERT JUMPDEST POP PUSH2 0x23D PUSH2 0x2665 JUMP JUMPDEST CALLVALUE DUP1 ISZERO PUSH2 0x8CD JUMPI PUSH1 0x0 DUP1 REVERT JUMPDEST POP PUSH2 0x618 PUSH2 0x2681 JUMP JUMPDEST CALLVALUE DUP1 ISZERO PUSH2 0x8E2 JUMPI PUSH1 0x0 DUP1 REVERT JUMPDEST POP PUSH2 0x1D0 PUSH2 0x268D JUMP JUMPDEST PUSH1 0x0 DUP1 PUSH2 0x8F6 PUSH2 0x146A JUMP JUMPDEST SWAP1 POP DUP1 ISZERO DUP1 ISZERO SWAP1 PUSH2 0x90E JUMPI POP DUP1 PUSH2 0x90B PUSH2 0x2692 JUMP JUMPDEST LT ISZERO JUMPDEST SWAP2 POP JUMPDEST POP SWAP1 JUMP JUMPDEST PUSH1 0x0 PUSH2 0x91F PUSH2 0x1947 JUMP JUMPDEST PUSH20 0xFFFFFFFFFFFFFFFFFFFFFFFFFFFFFFFFFFFFFFFF AND PUSH4 0x4BF2A7F DUP4 PUSH1 0x40 MLOAD DUP3 PUSH4 0xFFFFFFFF AND PUSH29 0x100000000000000000000000000000000000000000000000000000000 MUL DUP2 MSTORE PUSH1 0x4 ADD DUP1 DUP1 PUSH1 0x20 ADD DUP3 DUP2 SUB DUP3 MSTORE DUP4 DUP2 DUP2 MLOAD DUP2 MSTORE PUSH1 0x20 ADD SWAP2 POP DUP1 MLOAD SWAP1 PUSH1 0x20 ADD SWAP1 DUP1 DUP4 DUP4 PUSH1 0x0 JUMPDEST DUP4 DUP2 LT ISZERO PUSH2 0x9A3 JUMPI DUP2 DUP2 ADD MLOAD DUP4 DUP3 ADD MSTORE PUSH1 0x20 ADD PUSH2 0x98B JUMP JUMPDEST POP POP POP POP SWAP1 POP SWAP1 DUP2 ADD SWAP1 PUSH1 0x1F AND DUP1 ISZERO PUSH2 0x9D0 JUMPI DUP1 DUP3 SUB DUP1 MLOAD PUSH1 0x1 DUP4 PUSH1 0x20 SUB PUSH2 0x100 EXP SUB NOT AND DUP2 MSTORE PUSH1 0x20 ADD SWAP2 POP JUMPDEST POP SWAP3 POP POP POP PUSH1 0x20 PUSH1 0x40 MLOAD DUP1 DUP4 SUB DUP2 PUSH1 0x0 DUP8 DUP1 EXTCODESIZE ISZERO DUP1 ISZERO PUSH2 0x9EF JUMPI PUSH1 0x0 DUP1 REVERT JUMPDEST POP GAS CALL ISZERO DUP1 ISZERO PUSH2 0xA03 JUMPI RETURNDATASIZE PUSH1 0x0 DUP1 RETURNDATACOPY RETURNDATASIZE PUSH1 0x0 REVERT JUMPDEST POP POP POP POP PUSH1 0x40 MLOAD RETURNDATASIZE PUSH1 0x20 DUP2 LT ISZERO PUSH2 0xA19 JUMPI PUSH1 0x0 DUP1 REVERT JUMPDEST POP MLOAD SWAP3 SWAP2 POP POP JUMP JUMPDEST PUSH1 0x0 PUSH2 0xA2B PUSH2 0x1C4F JUMP JUMPDEST PUSH20 0xFFFFFFFFFFFFFFFFFFFFFFFFFFFFFFFFFFFFFFFF AND PUSH4 0x32F0A3B5 PUSH1 0x40 MLOAD DUP2 PUSH4 0xFFFFFFFF AND PUSH29 0x100000000000000000000000000000000000000000000000000000000 MUL DUP2 MSTORE PUSH1 0x4 ADD PUSH1 0x20 PUSH1 0x40 MLOAD DUP1 DUP4 SUB DUP2 PUSH1 0x0 DUP8 DUP1 EXTCODESIZE ISZERO DUP1 ISZERO PUSH2 0xA8E JUMPI PUSH1 0x0 DUP1 REVERT JUMPDEST POP GAS CALL ISZERO DUP1 ISZERO PUSH2 0xAA2 JUMPI RETURNDATASIZE PUSH1 0x0 DUP1 RETURNDATACOPY RETURNDATASIZE PUSH1 0x0 REVERT JUMPDEST POP POP POP POP PUSH1 0x40 MLOAD RETURNDATASIZE PUSH1 0x20 DUP2 LT ISZERO PUSH2 0xAB8 JUMPI PUSH1 0x0 DUP1 REVERT JUMPDEST POP MLOAD SWAP1 POP JUMPDEST SWAP1 JUMP JUMPDEST PUSH1 0x40 DUP1 MLOAD PUSH32 0x4D4F444946595F51554F52554D5F524F4C450000000000000000000000000000 DUP2 MSTORE SWAP1 MLOAD SWAP1 DUP2 SWAP1 SUB PUSH1 0x12 ADD SWAP1 KECCAK256 DUP2 JUMP JUMPDEST PUSH1 0x3 SLOAD PUSH1 0x40 DUP1 MLOAD DUP1 DUP3 ADD SWAP1 SWAP2 MSTORE PUSH1 0xE DUP2 MSTORE PUSH32 0x564F54494E475F4E4F5F564F5445000000000000000000000000000000000000 PUSH1 0x20 DUP3 ADD MSTORE PUSH1 0x0 SWAP2 DUP5 SWAP2 SWAP1 DUP3 LT PUSH2 0xBD6 JUMPI PUSH1 0x40 MLOAD PUSH32 0x8C379A000000000000000000000000000000000000000000000000000000000 DUP2 MSTORE PUSH1 0x4 ADD DUP1 DUP1 PUSH1 0x20 ADD DUP3 DUP2 SUB DUP3 MSTORE DUP4 DUP2 DUP2 MLOAD DUP2 MSTORE PUSH1 0x20 ADD SWAP2 POP DUP1 MLOAD SWAP1 PUSH1 0x20 ADD SWAP1 DUP1 DUP4 DUP4 PUSH1 0x0 JUMPDEST DUP4 DUP2 LT ISZERO PUSH2 0xB9B JUMPI DUP2 DUP2 ADD MLOAD DUP4 DUP3 ADD MSTORE PUSH1 0x20 ADD PUSH2 0xB83 JUMP JUMPDEST POP POP POP POP SWAP1 POP SWAP1 DUP2 ADD SWAP1 PUSH1 0x1F AND DUP1 ISZERO PUSH2 0xBC8 JUMPI DUP1 DUP3 SUB DUP1 MLOAD PUSH1 0x1 DUP4 PUSH1 0x20 SUB PUSH2 0x100 EXP SUB NOT AND DUP2 MSTORE PUSH1 0x20 ADD SWAP2 POP JUMPDEST POP SWAP3 POP POP POP PUSH1 0x40 MLOAD DUP1 SWAP2 SUB SWAP1 REVERT JUMPDEST POP PUSH1 0x0 DUP5 DUP2 MSTORE PUSH1 0x2 PUSH1 0x20 SWAP1 DUP2 MSTORE PUSH1 0x40 DUP1 DUP4 KECCAK256 PUSH20 0xFFFFFFFFFFFFFFFFFFFFFFFFFFFFFFFFFFFFFFFF DUP8 AND DUP5 MSTORE PUSH1 0x7 ADD SWAP1 SWAP2 MSTORE SWAP1 KECCAK256 SLOAD PUSH1 0xFF AND SWAP2 POP JUMPDEST POP SWAP3 SWAP2 POP POP JUMP JUMPDEST PUSH1 0x0 DUP1 PUSH1 0x0 DUP1 PUSH1 0x0 DUP1 PUSH1 0x0 DUP1 PUSH1 0x0 PUSH1 0x60 DUP1 PUSH1 0x0 DUP13 PUSH1 0x3 SLOAD DUP2 LT PUSH1 0x40 DUP1 MLOAD SWAP1 DUP2 ADD PUSH1 0x40 MSTORE DUP1 PUSH1 0xE DUP2 MSTORE PUSH1 0x20 ADD PUSH32 0x564F54494E475F4E4F5F564F5445000000000000000000000000000000000000 DUP2 MSTORE POP SWAP1 ISZERO ISZERO PUSH2 0xCCF JUMPI PUSH1 0x40 MLOAD PUSH32 0x8C379A000000000000000000000000000000000000000000000000000000000 DUP2 MSTORE PUSH1 0x4 ADD DUP1 DUP1 PUSH1 0x20 ADD DUP3 DUP2 SUB DUP3 MSTORE DUP4 DUP2 DUP2 MLOAD DUP2 MSTORE PUSH1 0x20 ADD SWAP2 POP DUP1 MLOAD SWAP1 PUSH1 0x20 ADD SWAP1 DUP1 DUP4 DUP4 PUSH1 0x0 DUP4 DUP2 LT ISZERO PUSH2 0xB9B JUMPI DUP2 DUP2 ADD MLOAD DUP4 DUP3 ADD MSTORE PUSH1 0x20 ADD PUSH2 0xB83 JUMP JUMPDEST POP PUSH1 0x0 DUP15 DUP2 MSTORE PUSH1 0x2 PUSH1 0x20 MSTORE PUSH1 0x40 SWAP1 KECCAK256 SWAP2 POP PUSH2 0xCE9 DUP3 PUSH2 0x2696 JUMP JUMPDEST SWAP13 POP DUP2 PUSH1 0x0 ADD PUSH1 0x0 SWAP1 SLOAD SWAP1 PUSH2 0x100 EXP SWAP1 DIV PUSH1 0xFF AND SWAP12 POP DUP2 PUSH1 0x0 ADD PUSH1 0x1 SWAP1 SLOAD SWAP1 PUSH2 0x100 EXP SWAP1 DIV PUSH8 0xFFFFFFFFFFFFFFFF AND SWAP11 POP DUP2 PUSH1 0x0 ADD PUSH1 0x9 SWAP1 SLOAD SWAP1 PUSH2 0x100 EXP SWAP1 DIV PUSH8 0xFFFFFFFFFFFFFFFF AND SWAP10 POP DUP2 PUSH1 0x0 ADD PUSH1 0x11 SWAP1 SLOAD SWAP1 PUSH2 0x100 EXP SWAP1 DIV PUSH8 0xFFFFFFFFFFFFFFFF AND SWAP9 POP DUP2 PUSH1 0x1 ADD PUSH1 0x0 SWAP1 SLOAD SWAP1 PUSH2 0x100 EXP SWAP1 DIV PUSH8 0xFFFFFFFFFFFFFFFF AND SWAP8 POP DUP2 PUSH1 0x2 ADD SLOAD SWAP7 POP DUP2 PUSH1 0x3 ADD SLOAD SWAP6 POP DUP2 PUSH1 0x4 ADD SLOAD SWAP5 POP DUP2 PUSH1 0x6 ADD DUP1 SLOAD PUSH1 0x1 DUP2 PUSH1 0x1 AND ISZERO PUSH2 0x100 MUL SUB AND PUSH1 0x2 SWAP1 DIV DUP1 PUSH1 0x1F ADD PUSH1 0x20 DUP1 SWAP2 DIV MUL PUSH1 0x20 ADD PUSH1 0x40 MLOAD SWAP1 DUP2 ADD PUSH1 0x40 MSTORE DUP1 SWAP3 SWAP2 SWAP1 DUP2 DUP2 MSTORE PUSH1 0x20 ADD DUP3 DUP1 SLOAD PUSH1 0x1 DUP2 PUSH1 0x1 AND ISZERO PUSH2 0x100 MUL SUB AND PUSH1 0x2 SWAP1 DIV DUP1 ISZERO PUSH2 0xE18 JUMPI DUP1 PUSH1 0x1F LT PUSH2 0xDED JUMPI PUSH2 0x100 DUP1 DUP4 SLOAD DIV MUL DUP4 MSTORE SWAP2 PUSH1 0x20 ADD SWAP2 PUSH2 0xE18 JUMP JUMPDEST DUP3 ADD SWAP2 SWAP1 PUSH1 0x0 MSTORE PUSH1 0x20 PUSH1 0x0 KECCAK256 SWAP1 JUMPDEST DUP2 SLOAD DUP2 MSTORE SWAP1 PUSH1 0x1 ADD SWAP1 PUSH1 0x20 ADD DUP1 DUP4 GT PUSH2 0xDFB JUMPI DUP3 SWAP1 SUB PUSH1 0x1F AND DUP3 ADD SWAP2 JUMPDEST POP POP POP POP PUSH1 0x5 DUP5 ADD DUP1 SLOAD PUSH1 0x40 DUP1 MLOAD PUSH1 0x20 PUSH1 0x2 PUSH1 0x1 DUP6 AND ISZERO PUSH2 0x100 MUL PUSH32 0xFFFFFFFFFFFFFFFFFFFFFFFFFFFFFFFFFFFFFFFFFFFFFFFFFFFFFFFFFFFFFFFF ADD SWAP1 SWAP5 AND SWAP4 SWAP1 SWAP4 DIV PUSH1 0x1F DUP2 ADD DUP5 SWAP1 DIV DUP5 MUL DUP3 ADD DUP5 ADD SWAP1 SWAP3 MSTORE DUP2 DUP2 MSTORE SWAP5 SWAP9 POP SWAP2 SWAP3 POP DUP4 ADD DUP3 DUP3 DUP1 ISZERO PUSH2 0xEC6 JUMPI DUP1 PUSH1 0x1F LT PUSH2 0xE9B JUMPI PUSH2 0x100 DUP1 DUP4 SLOAD DIV MUL DUP4 MSTORE SWAP2 PUSH1 0x20 ADD SWAP2 PUSH2 0xEC6 JUMP JUMPDEST DUP3 ADD SWAP2 SWAP1 PUSH1 0x0 MSTORE PUSH1 0x20 PUSH1 0x0 KECCAK256 SWAP1 JUMPDEST DUP2 SLOAD DUP2 MSTORE SWAP1 PUSH1 0x1 ADD SWAP1 PUSH1 0x20 ADD DUP1 DUP4 GT PUSH2 0xEA9 JUMPI DUP3 SWAP1 SUB PUSH1 0x1F AND DUP3 ADD SWAP2 JUMPDEST POP POP POP POP POP SWAP3 POP POP POP SWAP2 SWAP4 SWAP6 SWAP8 SWAP10 SWAP12 SWAP1 SWAP3 SWAP5 SWAP7 SWAP9 SWAP11 POP JUMP JUMPDEST PUSH1 0x40 DUP1 MLOAD PUSH32 0x4D4F444946595F51554F52554D5F524F4C450000000000000000000000000000 DUP2 MSTORE SWAP1 MLOAD SWAP1 DUP2 SWAP1 SUB PUSH1 0x12 ADD SWAP1 KECCAK256 PUSH1 0x1 SLOAD PUSH2 0xF2A SWAP1 PUSH8 0xFFFFFFFFFFFFFFFF DUP1 DUP6 AND SWAP2 AND PUSH2 0x26FD JUMP JUMPDEST PUSH2 0xF35 CALLER DUP4 DUP4 PUSH2 0x17B7 JUMP JUMPDEST PUSH1 0x40 DUP1 MLOAD DUP1 DUP3 ADD SWAP1 SWAP2 MSTORE PUSH1 0xF DUP2 MSTORE PUSH32 0x4150505F415554485F4641494C45440000000000000000000000000000000000 PUSH1 0x20 DUP3 ADD MSTORE SWAP1 ISZERO ISZERO PUSH2 0xFD2 JUMPI PUSH1 0x40 MLOAD PUSH32 0x8C379A000000000000000000000000000000000000000000000000000000000 DUP2 MSTORE PUSH1 0x4 ADD DUP1 DUP1 PUSH1 0x20 ADD DUP3 DUP2 SUB DUP3 MSTORE DUP4 DUP2 DUP2 MLOAD DUP2 MSTORE PUSH1 0x20 ADD SWAP2 POP DUP1 MLOAD SWAP1 PUSH1 0x20 ADD SWAP1 DUP1 DUP4 DUP4 PUSH1 0x0 DUP4 DUP2 LT ISZERO PUSH2 0xB9B JUMPI DUP2 DUP2 ADD MLOAD DUP4 DUP3 ADD MSTORE PUSH1 0x20 ADD PUSH2 0xB83 JUMP JUMPDEST POP PUSH1 0x0 SLOAD PUSH1 0x40 DUP1 MLOAD DUP1 DUP3 ADD SWAP1 SWAP2 MSTORE PUSH1 0x19 DUP2 MSTORE PUSH32 0x564F54494E475F4348414E47455F51554F52554D5F5043545300000000000000 PUSH1 0x20 DUP3 ADD MSTORE SWAP1 PUSH8 0xFFFFFFFFFFFFFFFF PUSH21 0x10000000000000000000000000000000000000000 SWAP1 SWAP2 DIV DUP2 AND SWAP1 DUP6 AND GT ISZERO PUSH2 0x109A JUMPI PUSH1 0x40 MLOAD PUSH32 0x8C379A000000000000000000000000000000000000000000000000000000000 DUP2 MSTORE PUSH1 0x4 ADD DUP1 DUP1 PUSH1 0x20 ADD DUP3 DUP2 SUB DUP3 MSTORE DUP4 DUP2 DUP2 MLOAD DUP2 MSTORE PUSH1 0x20 ADD SWAP2 POP DUP1 MLOAD SWAP1 PUSH1 0x20 ADD SWAP1 DUP1 DUP4 DUP4 PUSH1 0x0 DUP4 DUP2 LT ISZERO PUSH2 0xB9B JUMPI DUP2 DUP2 ADD MLOAD DUP4 DUP3 ADD MSTORE PUSH1 0x20 ADD PUSH2 0xB83 JUMP JUMPDEST POP PUSH1 0x1 DUP1 SLOAD PUSH8 0xFFFFFFFFFFFFFFFF DUP6 AND PUSH32 0xFFFFFFFFFFFFFFFFFFFFFFFFFFFFFFFFFFFFFFFFFFFFFFFF0000000000000000 SWAP1 SWAP2 AND DUP2 OR SWAP1 SWAP2 SSTORE PUSH1 0x40 DUP1 MLOAD SWAP2 DUP3 MSTORE MLOAD PUSH32 0x3172F2E9273C729C2A47CC8BF7E7F18506E3E3035126D562602BD2155BC78A50 SWAP2 DUP2 SWAP1 SUB PUSH1 0x20 ADD SWAP1 LOG1 POP POP POP JUMP JUMPDEST PUSH1 0x40 DUP1 MLOAD PUSH32 0x4D4F444946595F535550504F52545F524F4C4500000000000000000000000000 DUP2 MSTORE SWAP1 MLOAD SWAP1 DUP2 SWAP1 SUB PUSH1 0x13 ADD SWAP1 KECCAK256 DUP2 JUMP JUMPDEST PUSH1 0x40 DUP1 MLOAD PUSH32 0x4D4F444946595F535550504F52545F524F4C4500000000000000000000000000 DUP2 MSTORE SWAP1 MLOAD SWAP1 DUP2 SWAP1 SUB PUSH1 0x13 ADD SWAP1 KECCAK256 PUSH1 0x0 SLOAD PUSH2 0x11A3 SWAP1 PUSH8 0xFFFFFFFFFFFFFFFF DUP1 DUP6 AND SWAP2 PUSH21 0x10000000000000000000000000000000000000000 SWAP1 DIV AND PUSH2 0x26FD JUMP JUMPDEST PUSH2 0x11AE CALLER DUP4 DUP4 PUSH2 0x17B7 JUMP JUMPDEST PUSH1 0x40 DUP1 MLOAD DUP1 DUP3 ADD SWAP1 SWAP2 MSTORE PUSH1 0xF DUP2 MSTORE PUSH32 0x4150505F415554485F4641494C45440000000000000000000000000000000000 PUSH1 0x20 DUP3 ADD MSTORE SWAP1 ISZERO ISZERO PUSH2 0x124B JUMPI PUSH1 0x40 MLOAD PUSH32 0x8C379A000000000000000000000000000000000000000000000000000000000 DUP2 MSTORE PUSH1 0x4 ADD DUP1 DUP1 PUSH1 0x20 ADD DUP3 DUP2 SUB DUP3 MSTORE DUP4 DUP2 DUP2 MLOAD DUP2 MSTORE PUSH1 0x20 ADD SWAP2 POP DUP1 MLOAD SWAP1 PUSH1 0x20 ADD SWAP1 DUP1 DUP4 DUP4 PUSH1 0x0 DUP4 DUP2 LT ISZERO PUSH2 0xB9B JUMPI DUP2 DUP2 ADD MLOAD DUP4 DUP3 ADD MSTORE PUSH1 0x20 ADD PUSH2 0xB83 JUMP JUMPDEST POP PUSH1 0x1 SLOAD PUSH1 0x40 DUP1 MLOAD DUP1 DUP3 ADD SWAP1 SWAP2 MSTORE PUSH1 0x1A DUP2 MSTORE PUSH32 0x564F54494E475F4348414E47455F535550504F52545F50435453000000000000 PUSH1 0x20 DUP3 ADD MSTORE SWAP1 PUSH8 0xFFFFFFFFFFFFFFFF DUP1 DUP7 AND SWAP2 AND GT ISZERO PUSH2 0x12FA JUMPI PUSH1 0x40 MLOAD PUSH32 0x8C379A000000000000000000000000000000000000000000000000000000000 DUP2 MSTORE PUSH1 0x4 ADD DUP1 DUP1 PUSH1 0x20 ADD DUP3 DUP2 SUB DUP3 MSTORE DUP4 DUP2 DUP2 MLOAD DUP2 MSTORE PUSH1 0x20 ADD SWAP2 POP DUP1 MLOAD SWAP1 PUSH1 0x20 ADD SWAP1 DUP1 DUP4 DUP4 PUSH1 0x0 DUP4 DUP2 LT ISZERO PUSH2 0xB9B JUMPI DUP2 DUP2 ADD MLOAD DUP4 DUP3 ADD MSTORE PUSH1 0x20 ADD PUSH2 0xB83 JUMP JUMPDEST POP PUSH1 0x40 DUP1 MLOAD DUP1 DUP3 ADD SWAP1 SWAP2 MSTORE PUSH1 0x1A DUP2 MSTORE PUSH32 0x564F54494E475F4348414E47455F535550505F544F4F5F424947000000000000 PUSH1 0x20 DUP3 ADD MSTORE PUSH8 0xDE0B6B3A7640000 PUSH8 0xFFFFFFFFFFFFFFFF DUP6 AND LT PUSH2 0x13AA JUMPI PUSH1 0x40 MLOAD PUSH32 0x8C379A000000000000000000000000000000000000000000000000000000000 DUP2 MSTORE PUSH1 0x4 ADD DUP1 DUP1 PUSH1 0x20 ADD DUP3 DUP2 SUB DUP3 MSTORE DUP4 DUP2 DUP2 MLOAD DUP2 MSTORE PUSH1 0x20 ADD SWAP2 POP DUP1 MLOAD SWAP1 PUSH1 0x20 ADD SWAP1 DUP1 DUP4 DUP4 PUSH1 0x0 DUP4 DUP2 LT ISZERO PUSH2 0xB9B JUMPI DUP2 DUP2 ADD MLOAD DUP4 DUP3 ADD MSTORE PUSH1 0x20 ADD PUSH2 0xB83 JUMP JUMPDEST POP PUSH1 0x0 DUP1 SLOAD PUSH8 0xFFFFFFFFFFFFFFFF DUP6 AND PUSH21 0x10000000000000000000000000000000000000000 DUP2 MUL PUSH32 0xFFFFFFFF0000000000000000FFFFFFFFFFFFFFFFFFFFFFFFFFFFFFFFFFFFFFFF SWAP1 SWAP3 AND SWAP2 SWAP1 SWAP2 OR SWAP1 SWAP2 SSTORE PUSH1 0x40 DUP1 MLOAD SWAP2 DUP3 MSTORE MLOAD PUSH32 0x903B617F7F36EB047A29B89D1BF7885FDAE31D250C3320FCCF11D045C11B396E SWAP2 DUP2 SWAP1 SUB PUSH1 0x20 ADD SWAP1 LOG1 POP POP POP JUMP JUMPDEST POP PUSH1 0x1 SWAP1 JUMP JUMPDEST PUSH1 0x0 PUSH2 0x1465 PUSH32 0xD625496217AA6A3453EECB9C3489DC5A53E6C67B444329EA2B2CBC9FF547639B PUSH2 0x2758 JUMP JUMPDEST SWAP1 POP SWAP1 JUMP JUMPDEST PUSH1 0x0 PUSH2 0x1465 PUSH32 0xEBB05B386A8D34882B8711D156F463690983DC47815980FB82AEEFF1AA43579E PUSH2 0x2758 JUMP JUMPDEST PUSH1 0x0 DUP1 PUSH1 0x0 PUSH2 0x14A3 DUP5 PUSH2 0x1434 JUMP JUMPDEST PUSH1 0x40 DUP1 MLOAD DUP1 DUP3 ADD SWAP1 SWAP2 MSTORE PUSH1 0x12 DUP2 MSTORE PUSH32 0x5245434F5645525F444953414C4C4F5745440000000000000000000000000000 PUSH1 0x20 DUP3 ADD MSTORE SWAP1 ISZERO ISZERO PUSH2 0x1540 JUMPI PUSH1 0x40 MLOAD PUSH32 0x8C379A000000000000000000000000000000000000000000000000000000000 DUP2 MSTORE PUSH1 0x4 ADD DUP1 DUP1 PUSH1 0x20 ADD DUP3 DUP2 SUB DUP3 MSTORE DUP4 DUP2 DUP2 MLOAD DUP2 MSTORE PUSH1 0x20 ADD SWAP2 POP DUP1 MLOAD SWAP1 PUSH1 0x20 ADD SWAP1 DUP1 DUP4 DUP4 PUSH1 0x0 DUP4 DUP2 LT ISZERO PUSH2 0xB9B JUMPI DUP2 DUP2 ADD MLOAD DUP4 DUP3 ADD MSTORE PUSH1 0x20 ADD PUSH2 0xB83 JUMP JUMPDEST POP PUSH2 0x1549 PUSH2 0xA21 JUMP JUMPDEST SWAP3 POP PUSH2 0x1554 DUP4 PUSH2 0x2760 JUMP JUMPDEST PUSH1 0x40 DUP1 MLOAD DUP1 DUP3 ADD SWAP1 SWAP2 MSTORE PUSH1 0x1A DUP2 MSTORE PUSH32 0x5245434F5645525F5641554C545F4E4F545F434F4E5452414354000000000000 PUSH1 0x20 DUP3 ADD MSTORE SWAP1 ISZERO ISZERO PUSH2 0x15F1 JUMPI PUSH1 0x40 MLOAD PUSH32 0x8C379A000000000000000000000000000000000000000000000000000000000 DUP2 MSTORE PUSH1 0x4 ADD DUP1 DUP1 PUSH1 0x20 ADD DUP3 DUP2 SUB DUP3 MSTORE DUP4 DUP2 DUP2 MLOAD DUP2 MSTORE PUSH1 0x20 ADD SWAP2 POP DUP1 MLOAD SWAP1 PUSH1 0x20 ADD SWAP1 DUP1 DUP4 DUP4 PUSH1 0x0 DUP4 DUP2 LT ISZERO PUSH2 0xB9B JUMPI DUP2 DUP2 ADD MLOAD DUP4 DUP3 ADD MSTORE PUSH1 0x20 ADD PUSH2 0xB83 JUMP JUMPDEST POP PUSH20 0xFFFFFFFFFFFFFFFFFFFFFFFFFFFFFFFFFFFFFFFF DUP5 AND ISZERO ISZERO PUSH2 0x165C JUMPI PUSH1 0x40 MLOAD ADDRESS BALANCE SWAP3 POP PUSH20 0xFFFFFFFFFFFFFFFFFFFFFFFFFFFFFFFFFFFFFFFF DUP5 AND SWAP1 DUP4 ISZERO PUSH2 0x8FC MUL SWAP1 DUP5 SWAP1 PUSH1 0x0 DUP2 DUP2 DUP2 DUP6 DUP9 DUP9 CALL SWAP4 POP POP POP POP ISZERO DUP1 ISZERO PUSH2 0x1656 JUMPI RETURNDATASIZE PUSH1 0x0 DUP1 RETURNDATACOPY RETURNDATASIZE PUSH1 0x0 REVERT JUMPDEST POP PUSH2 0x174C JUMP JUMPDEST POP DUP3 PUSH2 0x1684 PUSH20 0xFFFFFFFFFFFFFFFFFFFFFFFFFFFFFFFFFFFFFFFF DUP3 AND ADDRESS PUSH4 0xFFFFFFFF PUSH2 0x2793 AND JUMP JUMPDEST SWAP2 POP PUSH2 0x16AD PUSH20 0xFFFFFFFFFFFFFFFFFFFFFFFFFFFFFFFFFFFFFFFF DUP3 AND DUP5 DUP5 PUSH4 0xFFFFFFFF PUSH2 0x28CC AND JUMP JUMPDEST PUSH1 0x40 DUP1 MLOAD DUP1 DUP3 ADD SWAP1 SWAP2 MSTORE PUSH1 0x1D DUP2 MSTORE PUSH32 0x5245434F5645525F544F4B454E5F5452414E534645525F4641494C4544000000 PUSH1 0x20 DUP3 ADD MSTORE SWAP1 ISZERO ISZERO PUSH2 0x174A JUMPI PUSH1 0x40 MLOAD PUSH32 0x8C379A000000000000000000000000000000000000000000000000000000000 DUP2 MSTORE PUSH1 0x4 ADD DUP1 DUP1 PUSH1 0x20 ADD DUP3 DUP2 SUB DUP3 MSTORE DUP4 DUP2 DUP2 MLOAD DUP2 MSTORE PUSH1 0x20 ADD SWAP2 POP DUP1 MLOAD SWAP1 PUSH1 0x20 ADD SWAP1 DUP1 DUP4 DUP4 PUSH1 0x0 DUP4 DUP2 LT ISZERO PUSH2 0xB9B JUMPI DUP2 DUP2 ADD MLOAD DUP4 DUP3 ADD MSTORE PUSH1 0x20 ADD PUSH2 0xB83 JUMP JUMPDEST POP JUMPDEST DUP4 PUSH20 0xFFFFFFFFFFFFFFFFFFFFFFFFFFFFFFFFFFFFFFFF AND DUP4 PUSH20 0xFFFFFFFFFFFFFFFFFFFFFFFFFFFFFFFFFFFFFFFF AND PUSH32 0x596CAF56044B55FB8C4CA640089BBC2B63CAE3E978B851F5745CBB7C5B288E02 DUP5 PUSH1 0x40 MLOAD DUP1 DUP3 DUP2 MSTORE PUSH1 0x20 ADD SWAP2 POP POP PUSH1 0x40 MLOAD DUP1 SWAP2 SUB SWAP1 LOG3 POP POP POP POP JUMP JUMPDEST PUSH1 0x0 DUP1 PUSH2 0x17C2 PUSH2 0x8EB JUMP JUMPDEST ISZERO ISZERO PUSH2 0x17D1 JUMPI PUSH1 0x0 SWAP2 POP PUSH2 0x193F JUMP JUMPDEST PUSH2 0x17D9 PUSH2 0x1C4F JUMP JUMPDEST SWAP1 POP PUSH20 0xFFFFFFFFFFFFFFFFFFFFFFFFFFFFFFFFFFFFFFFF DUP2 AND ISZERO ISZERO PUSH2 0x1801 JUMPI PUSH1 0x0 SWAP2 POP PUSH2 0x193F JUMP JUMPDEST DUP1 PUSH20 0xFFFFFFFFFFFFFFFFFFFFFFFFFFFFFFFFFFFFFFFF AND PUSH4 0xFDEF9106 DUP7 ADDRESS DUP8 PUSH2 0x1829 DUP9 PUSH2 0x2964 JUMP JUMPDEST PUSH1 0x40 MLOAD PUSH29 0x100000000000000000000000000000000000000000000000000000000 PUSH4 0xFFFFFFFF DUP8 AND MUL DUP2 MSTORE PUSH20 0xFFFFFFFFFFFFFFFFFFFFFFFFFFFFFFFFFFFFFFFF DUP1 DUP7 AND PUSH1 0x4 DUP4 ADD SWAP1 DUP2 MSTORE SWAP1 DUP6 AND PUSH1 0x24 DUP4 ADD MSTORE PUSH1 0x44 DUP3 ADD DUP5 SWAP1 MSTORE PUSH1 0x80 PUSH1 0x64 DUP4 ADD SWAP1 DUP2 MSTORE DUP4 MLOAD PUSH1 0x84 DUP5 ADD MSTORE DUP4 MLOAD SWAP2 SWAP3 SWAP1 SWAP2 PUSH1 0xA4 SWAP1 SWAP2 ADD SWAP1 PUSH1 0x20 DUP6 ADD SWAP1 DUP1 DUP4 DUP4 PUSH1 0x0 JUMPDEST DUP4 DUP2 LT ISZERO PUSH2 0x18C1 JUMPI DUP2 DUP2 ADD MLOAD DUP4 DUP3 ADD MSTORE PUSH1 0x20 ADD PUSH2 0x18A9 JUMP JUMPDEST POP POP POP POP SWAP1 POP SWAP1 DUP2 ADD SWAP1 PUSH1 0x1F AND DUP1 ISZERO PUSH2 0x18EE JUMPI DUP1 DUP3 SUB DUP1 MLOAD PUSH1 0x1 DUP4 PUSH1 0x20 SUB PUSH2 0x100 EXP SUB NOT AND DUP2 MSTORE PUSH1 0x20 ADD SWAP2 POP JUMPDEST POP SWAP6 POP POP POP POP POP POP PUSH1 0x20 PUSH1 0x40 MLOAD DUP1 DUP4 SUB DUP2 PUSH1 0x0 DUP8 DUP1 EXTCODESIZE ISZERO DUP1 ISZERO PUSH2 0x1910 JUMPI PUSH1 0x0 DUP1 REVERT JUMPDEST POP GAS CALL ISZERO DUP1 ISZERO PUSH2 0x1924 JUMPI RETURNDATASIZE PUSH1 0x0 DUP1 RETURNDATACOPY RETURNDATASIZE PUSH1 0x0 REVERT JUMPDEST POP POP POP POP PUSH1 0x40 MLOAD RETURNDATASIZE PUSH1 0x20 DUP2 LT ISZERO PUSH2 0x193A JUMPI PUSH1 0x0 DUP1 REVERT JUMPDEST POP MLOAD SWAP2 POP JUMPDEST POP SWAP4 SWAP3 POP POP POP JUMP JUMPDEST PUSH1 0x0 DUP1 PUSH2 0x1952 PUSH2 0x1C4F JUMP JUMPDEST PUSH1 0x40 DUP1 MLOAD PUSH32 0xBE00BBD800000000000000000000000000000000000000000000000000000000 DUP2 MSTORE PUSH32 0xD6F028CA0E8EDB4A8C9757CA4FDCCAB25FA1E0317DA1188108F7D2DEE14902FB PUSH1 0x4 DUP3 ADD MSTORE PUSH32 0xDDBCFD564F642AB5627CF68B9B7D374FB4F8A36E941A75D89C87998CEF03BD61 PUSH1 0x24 DUP3 ADD MSTORE SWAP1 MLOAD PUSH20 0xFFFFFFFFFFFFFFFFFFFFFFFFFFFFFFFFFFFFFFFF SWAP3 SWAP1 SWAP3 AND SWAP2 PUSH4 0xBE00BBD8 SWAP2 PUSH1 0x44 DUP1 DUP3 ADD SWAP3 PUSH1 0x20 SWAP3 SWAP1 SWAP2 SWAP1 DUP3 SWAP1 SUB ADD DUP2 PUSH1 0x0 DUP8 DUP1 EXTCODESIZE ISZERO DUP1 ISZERO PUSH2 0x9EF JUMPI PUSH1 0x0 DUP1 REVERT JUMPDEST PUSH1 0x40 DUP1 MLOAD PUSH32 0x564F544500000000000000000000000000000000000000000000000000000000 DUP2 MSTORE SWAP1 MLOAD SWAP1 DUP2 SWAP1 SUB PUSH1 0x4 ADD SWAP1 KECCAK256 DUP2 JUMP JUMPDEST PUSH1 0x1 SLOAD PUSH9 0x10000000000000000 SWAP1 DIV PUSH8 0xFFFFFFFFFFFFFFFF AND DUP2 JUMP JUMPDEST PUSH1 0x40 DUP1 MLOAD PUSH32 0x4352454154455F564F5445535F524F4C45000000000000000000000000000000 DUP2 MSTORE SWAP1 MLOAD SWAP1 DUP2 SWAP1 SUB PUSH1 0x11 ADD SWAP1 KECCAK256 DUP2 JUMP JUMPDEST PUSH1 0x0 PUSH2 0x1AD8 DUP4 PUSH1 0x40 MLOAD DUP1 DUP1 PUSH32 0x4352454154455F564F5445535F524F4C45000000000000000000000000000000 DUP2 MSTORE POP PUSH1 0x11 ADD SWAP1 POP PUSH1 0x40 MLOAD DUP1 SWAP2 SUB SWAP1 KECCAK256 PUSH2 0x1AD3 PUSH2 0x296E JUMP JUMPDEST PUSH2 0x17B7 JUMP JUMPDEST SWAP4 SWAP3 POP POP POP JUMP JUMPDEST PUSH1 0x3 SLOAD PUSH1 0x40 DUP1 MLOAD DUP1 DUP3 ADD SWAP1 SWAP2 MSTORE PUSH1 0xE DUP2 MSTORE PUSH32 0x564F54494E475F4E4F5F564F5445000000000000000000000000000000000000 PUSH1 0x20 DUP3 ADD MSTORE PUSH1 0x0 SWAP2 DUP4 SWAP2 SWAP1 DUP3 LT PUSH2 0x1B84 JUMPI PUSH1 0x40 MLOAD PUSH32 0x8C379A000000000000000000000000000000000000000000000000000000000 DUP2 MSTORE PUSH1 0x4 ADD DUP1 DUP1 PUSH1 0x20 ADD DUP3 DUP2 SUB DUP3 MSTORE DUP4 DUP2 DUP2 MLOAD DUP2 MSTORE PUSH1 0x20 ADD SWAP2 POP DUP1 MLOAD SWAP1 PUSH1 0x20 ADD SWAP1 DUP1 DUP4 DUP4 PUSH1 0x0 DUP4 DUP2 LT ISZERO PUSH2 0xB9B JUMPI DUP2 DUP2 ADD MLOAD DUP4 DUP3 ADD MSTORE PUSH1 0x20 ADD PUSH2 0xB83 JUMP JUMPDEST POP PUSH2 0x1B8E DUP4 PUSH2 0x2980 JUMP JUMPDEST SWAP2 POP JUMPDEST POP SWAP2 SWAP1 POP JUMP JUMPDEST PUSH1 0x3 SLOAD PUSH1 0x40 DUP1 MLOAD DUP1 DUP3 ADD SWAP1 SWAP2 MSTORE PUSH1 0xE DUP2 MSTORE PUSH32 0x564F54494E475F4E4F5F564F5445000000000000000000000000000000000000 PUSH1 0x20 DUP3 ADD MSTORE PUSH1 0x0 SWAP2 DUP5 SWAP2 SWAP1 DUP3 LT PUSH2 0x1C3C JUMPI PUSH1 0x40 MLOAD PUSH32 0x8C379A000000000000000000000000000000000000000000000000000000000 DUP2 MSTORE PUSH1 0x4 ADD DUP1 DUP1 PUSH1 0x20 ADD DUP3 DUP2 SUB DUP3 MSTORE DUP4 DUP2 DUP2 MLOAD DUP2 MSTORE PUSH1 0x20 ADD SWAP2 POP DUP1 MLOAD SWAP1 PUSH1 0x20 ADD SWAP1 DUP1 DUP4 DUP4 PUSH1 0x0 DUP4 DUP2 LT ISZERO PUSH2 0xB9B JUMPI DUP2 DUP2 ADD MLOAD DUP4 DUP3 ADD MSTORE PUSH1 0x20 ADD PUSH2 0xB83 JUMP JUMPDEST POP PUSH2 0x1C47 DUP5 DUP5 PUSH2 0x2A99 JUMP JUMPDEST SWAP5 SWAP4 POP POP POP POP JUMP JUMPDEST PUSH1 0x0 PUSH2 0x1465 PUSH32 0x4172F0F7D2289153072B0A6CA36959E0CBE2EFC3AFE50FC81636CAA96338137B PUSH2 0x2758 JUMP JUMPDEST PUSH1 0x40 DUP1 MLOAD PUSH32 0x4352454154455F564F5445535F524F4C45000000000000000000000000000000 DUP2 MSTORE DUP2 MLOAD SWAP1 DUP2 SWAP1 SUB PUSH1 0x11 ADD DUP2 KECCAK256 PUSH1 0x0 DUP1 DUP4 MSTORE PUSH1 0x20 DUP4 ADD SWAP1 SWAP4 MSTORE SWAP1 PUSH2 0x1CC9 SWAP1 CALLER SWAP1 DUP4 SWAP1 DUP6 JUMPDEST POP PUSH2 0x17B7 JUMP JUMPDEST PUSH1 0x40 DUP1 MLOAD DUP1 DUP3 ADD SWAP1 SWAP2 MSTORE PUSH1 0xF DUP2 MSTORE PUSH32 0x4150505F415554485F4641494C45440000000000000000000000000000000000 PUSH1 0x20 DUP3 ADD MSTORE SWAP1 ISZERO ISZERO PUSH2 0x1D66 JUMPI PUSH1 0x40 MLOAD PUSH32 0x8C379A000000000000000000000000000000000000000000000000000000000 DUP2 MSTORE PUSH1 0x4 ADD DUP1 DUP1 PUSH1 0x20 ADD DUP3 DUP2 SUB DUP3 MSTORE DUP4 DUP2 DUP2 MLOAD DUP2 MSTORE PUSH1 0x20 ADD SWAP2 POP DUP1 MLOAD SWAP1 PUSH1 0x20 ADD SWAP1 DUP1 DUP4 DUP4 PUSH1 0x0 DUP4 DUP2 LT ISZERO PUSH2 0xB9B JUMPI DUP2 DUP2 ADD MLOAD DUP4 DUP3 ADD MSTORE PUSH1 0x20 ADD PUSH2 0xB83 JUMP JUMPDEST POP PUSH2 0x1DD3 DUP7 DUP7 DUP1 DUP1 PUSH1 0x1F ADD PUSH1 0x20 DUP1 SWAP2 DIV MUL PUSH1 0x20 ADD PUSH1 0x40 MLOAD SWAP1 DUP2 ADD PUSH1 0x40 MSTORE DUP1 SWAP4 SWAP3 SWAP2 SWAP1 DUP2 DUP2 MSTORE PUSH1 0x20 ADD DUP4 DUP4 DUP1 DUP3 DUP5 CALLDATACOPY POP POP PUSH1 0x40 DUP1 MLOAD PUSH1 0x20 PUSH1 0x1F DUP13 ADD DUP2 SWAP1 DIV DUP2 MUL DUP3 ADD DUP2 ADD SWAP1 SWAP3 MSTORE DUP11 DUP2 MSTORE SWAP5 POP DUP11 SWAP4 POP DUP10 SWAP3 POP DUP3 SWAP2 POP DUP5 ADD DUP4 DUP3 DUP1 DUP3 DUP5 CALLDATACOPY DUP3 ADD SWAP2 POP POP POP POP POP POP PUSH1 0x1 DUP1 PUSH2 0x2B80 JUMP JUMPDEST SWAP7 SWAP6 POP POP POP POP POP POP JUMP JUMPDEST PUSH2 0x1DE7 CALLER DUP3 PUSH2 0x1A8F JUMP JUMPDEST PUSH1 0x40 DUP1 MLOAD DUP1 DUP3 ADD SWAP1 SWAP2 MSTORE PUSH1 0x16 DUP2 MSTORE PUSH32 0x564F54494E475F43414E5F4E4F545F464F525741524400000000000000000000 PUSH1 0x20 DUP3 ADD MSTORE SWAP1 ISZERO ISZERO PUSH2 0x1E84 JUMPI PUSH1 0x40 MLOAD PUSH32 0x8C379A000000000000000000000000000000000000000000000000000000000 DUP2 MSTORE PUSH1 0x4 ADD DUP1 DUP1 PUSH1 0x20 ADD DUP3 DUP2 SUB DUP3 MSTORE DUP4 DUP2 DUP2 MLOAD DUP2 MSTORE PUSH1 0x20 ADD SWAP2 POP DUP1 MLOAD SWAP1 PUSH1 0x20 ADD SWAP1 DUP1 DUP4 DUP4 PUSH1 0x0 DUP4 DUP2 LT ISZERO PUSH2 0xB9B JUMPI DUP2 DUP2 ADD MLOAD DUP4 DUP3 ADD MSTORE PUSH1 0x20 ADD PUSH2 0xB83 JUMP JUMPDEST POP PUSH2 0x1EA2 DUP2 PUSH1 0x20 PUSH1 0x40 MLOAD SWAP1 DUP2 ADD PUSH1 0x40 MSTORE DUP1 PUSH1 0x0 DUP2 MSTORE POP PUSH1 0x1 DUP1 PUSH2 0x2B80 JUMP JUMPDEST POP POP JUMP JUMPDEST PUSH1 0x1 SLOAD PUSH8 0xFFFFFFFFFFFFFFFF AND DUP2 JUMP JUMPDEST PUSH1 0x0 PUSH32 0xFFFFFFFFFFFFFFFFFFFFFFFFFFFFFFFFFFFFFFFFFFFFFFFFFFFFFFFFFFFFFFFF PUSH2 0x1EE1 PUSH2 0x146A JUMP JUMPDEST EQ SWAP1 POP SWAP1 JUMP JUMPDEST PUSH1 0x3 SLOAD DUP2 JUMP JUMPDEST PUSH1 0x40 DUP1 MLOAD PUSH32 0x564F544500000000000000000000000000000000000000000000000000000000 DUP2 MSTORE DUP2 MLOAD SWAP1 DUP2 SWAP1 SUB PUSH1 0x4 ADD DUP2 KECCAK256 PUSH1 0x0 DUP1 DUP4 MSTORE PUSH1 0x20 DUP4 ADD SWAP1 SWAP4 MSTORE SWAP2 PUSH2 0x1F3A SWAP2 CALLER SWAP2 DUP5 SWAP2 SWAP1 PUSH2 0x1CC3 JUMP JUMPDEST PUSH1 0x40 DUP1 MLOAD DUP1 DUP3 ADD SWAP1 SWAP2 MSTORE PUSH1 0xF DUP2 MSTORE PUSH32 0x4150505F415554485F4641494C45440000000000000000000000000000000000 PUSH1 0x20 DUP3 ADD MSTORE SWAP1 ISZERO ISZERO PUSH2 0x1FD7 JUMPI PUSH1 0x40 MLOAD PUSH32 0x8C379A000000000000000000000000000000000000000000000000000000000 DUP2 MSTORE PUSH1 0x4 ADD DUP1 DUP1 PUSH1 0x20 ADD DUP3 DUP2 SUB DUP3 MSTORE DUP4 DUP2 DUP2 MLOAD DUP2 MSTORE PUSH1 0x20 ADD SWAP2 POP DUP1 MLOAD SWAP1 PUSH1 0x20 ADD SWAP1 DUP1 DUP4 DUP4 PUSH1 0x0 DUP4 DUP2 LT ISZERO PUSH2 0xB9B JUMPI DUP2 DUP2 ADD MLOAD DUP4 DUP3 ADD MSTORE PUSH1 0x20 ADD PUSH2 0xB83 JUMP JUMPDEST POP PUSH1 0x3 SLOAD PUSH1 0x40 DUP1 MLOAD DUP1 DUP3 ADD SWAP1 SWAP2 MSTORE PUSH1 0xE DUP2 MSTORE PUSH32 0x564F54494E475F4E4F5F564F5445000000000000000000000000000000000000 PUSH1 0x20 DUP3 ADD MSTORE DUP6 SWAP2 DUP3 LT PUSH2 0x2079 JUMPI PUSH1 0x40 MLOAD PUSH32 0x8C379A000000000000000000000000000000000000000000000000000000000 DUP2 MSTORE PUSH1 0x4 ADD DUP1 DUP1 PUSH1 0x20 ADD DUP3 DUP2 SUB DUP3 MSTORE DUP4 DUP2 DUP2 MLOAD DUP2 MSTORE PUSH1 0x20 ADD SWAP2 POP DUP1 MLOAD SWAP1 PUSH1 0x20 ADD SWAP1 DUP1 DUP4 DUP4 PUSH1 0x0 DUP4 DUP2 LT ISZERO PUSH2 0xB9B JUMPI DUP2 DUP2 ADD MLOAD DUP4 DUP3 ADD MSTORE PUSH1 0x20 ADD PUSH2 0xB83 JUMP JUMPDEST POP PUSH2 0x2084 DUP6 CALLER PUSH2 0x2A99 JUMP JUMPDEST PUSH1 0x40 DUP1 MLOAD DUP1 DUP3 ADD SWAP1 SWAP2 MSTORE PUSH1 0x13 DUP2 MSTORE PUSH32 0x564F54494E475F43414E5F4E4F545F564F544500000000000000000000000000 PUSH1 0x20 DUP3 ADD MSTORE SWAP1 ISZERO ISZERO PUSH2 0x2121 JUMPI PUSH1 0x40 MLOAD PUSH32 0x8C379A000000000000000000000000000000000000000000000000000000000 DUP2 MSTORE PUSH1 0x4 ADD DUP1 DUP1 PUSH1 0x20 ADD DUP3 DUP2 SUB DUP3 MSTORE DUP4 DUP2 DUP2 MLOAD DUP2 MSTORE PUSH1 0x20 ADD SWAP2 POP DUP1 MLOAD SWAP1 PUSH1 0x20 ADD SWAP1 DUP1 DUP4 DUP4 PUSH1 0x0 DUP4 DUP2 LT ISZERO PUSH2 0xB9B JUMPI DUP2 DUP2 ADD MLOAD DUP4 DUP3 ADD MSTORE PUSH1 0x20 ADD PUSH2 0xB83 JUMP JUMPDEST POP PUSH2 0x212E DUP6 DUP6 CALLER DUP7 PUSH2 0x2F0F JUMP JUMPDEST POP POP POP POP POP JUMP JUMPDEST PUSH2 0x213D PUSH2 0x146A JUMP JUMPDEST PUSH1 0x40 DUP1 MLOAD DUP1 DUP3 ADD SWAP1 SWAP2 MSTORE PUSH1 0x18 DUP2 MSTORE PUSH32 0x494E49545F414C52454144595F494E495449414C495A45440000000000000000 PUSH1 0x20 DUP3 ADD MSTORE SWAP1 ISZERO PUSH2 0x21D9 JUMPI PUSH1 0x40 MLOAD PUSH32 0x8C379A000000000000000000000000000000000000000000000000000000000 DUP2 MSTORE PUSH1 0x4 ADD DUP1 DUP1 PUSH1 0x20 ADD DUP3 DUP2 SUB DUP3 MSTORE DUP4 DUP2 DUP2 MLOAD DUP2 MSTORE PUSH1 0x20 ADD SWAP2 POP DUP1 MLOAD SWAP1 PUSH1 0x20 ADD SWAP1 DUP1 DUP4 DUP4 PUSH1 0x0 DUP4 DUP2 LT ISZERO PUSH2 0xB9B JUMPI DUP2 DUP2 ADD MLOAD DUP4 DUP3 ADD MSTORE PUSH1 0x20 ADD PUSH2 0xB83 JUMP JUMPDEST POP PUSH2 0x21E2 PUSH2 0x319D JUMP JUMPDEST PUSH1 0x40 DUP1 MLOAD DUP1 DUP3 ADD SWAP1 SWAP2 MSTORE PUSH1 0x10 DUP2 MSTORE PUSH32 0x564F54494E475F494E49545F5043545300000000000000000000000000000000 PUSH1 0x20 DUP3 ADD MSTORE PUSH8 0xFFFFFFFFFFFFFFFF DUP1 DUP6 AND SWAP1 DUP5 AND GT ISZERO PUSH2 0x228D JUMPI PUSH1 0x40 MLOAD PUSH32 0x8C379A000000000000000000000000000000000000000000000000000000000 DUP2 MSTORE PUSH1 0x4 ADD DUP1 DUP1 PUSH1 0x20 ADD DUP3 DUP2 SUB DUP3 MSTORE DUP4 DUP2 DUP2 MLOAD DUP2 MSTORE PUSH1 0x20 ADD SWAP2 POP DUP1 MLOAD SWAP1 PUSH1 0x20 ADD SWAP1 DUP1 DUP4 DUP4 PUSH1 0x0 DUP4 DUP2 LT ISZERO PUSH2 0xB9B JUMPI DUP2 DUP2 ADD MLOAD DUP4 DUP3 ADD MSTORE PUSH1 0x20 ADD PUSH2 0xB83 JUMP JUMPDEST POP PUSH1 0x40 DUP1 MLOAD DUP1 DUP3 ADD SWAP1 SWAP2 MSTORE PUSH1 0x1B DUP2 MSTORE PUSH32 0x564F54494E475F494E49545F535550504F52545F544F4F5F4249470000000000 PUSH1 0x20 DUP3 ADD MSTORE PUSH8 0xDE0B6B3A7640000 PUSH8 0xFFFFFFFFFFFFFFFF DUP6 AND LT PUSH2 0x233D JUMPI PUSH1 0x40 MLOAD PUSH32 0x8C379A000000000000000000000000000000000000000000000000000000000 DUP2 MSTORE PUSH1 0x4 ADD DUP1 DUP1 PUSH1 0x20 ADD DUP3 DUP2 SUB DUP3 MSTORE DUP4 DUP2 DUP2 MLOAD DUP2 MSTORE PUSH1 0x20 ADD SWAP2 POP DUP1 MLOAD SWAP1 PUSH1 0x20 ADD SWAP1 DUP1 DUP4 DUP4 PUSH1 0x0 DUP4 DUP2 LT ISZERO PUSH2 0xB9B JUMPI DUP2 DUP2 ADD MLOAD DUP4 DUP3 ADD MSTORE PUSH1 0x20 ADD PUSH2 0xB83 JUMP JUMPDEST POP PUSH1 0x0 DUP1 SLOAD PUSH32 0xFFFFFFFFFFFFFFFFFFFFFFFF0000000000000000000000000000000000000000 AND PUSH20 0xFFFFFFFFFFFFFFFFFFFFFFFFFFFFFFFFFFFFFFFF SWAP6 SWAP1 SWAP6 AND SWAP5 SWAP1 SWAP5 OR PUSH32 0xFFFFFFFF0000000000000000FFFFFFFFFFFFFFFFFFFFFFFFFFFFFFFFFFFFFFFF AND PUSH21 0x10000000000000000000000000000000000000000 PUSH8 0xFFFFFFFFFFFFFFFF SWAP5 DUP6 AND MUL OR SWAP1 SWAP4 SSTORE PUSH1 0x1 DUP1 SLOAD PUSH32 0xFFFFFFFFFFFFFFFFFFFFFFFFFFFFFFFFFFFFFFFFFFFFFFFF0000000000000000 AND SWAP2 DUP4 AND SWAP2 SWAP1 SWAP2 OR PUSH32 0xFFFFFFFFFFFFFFFFFFFFFFFFFFFFFFFF0000000000000000FFFFFFFFFFFFFFFF AND PUSH9 0x10000000000000000 SWAP4 SWAP1 SWAP3 AND SWAP3 SWAP1 SWAP3 MUL OR SWAP1 SSTORE JUMP JUMPDEST PUSH1 0x40 DUP1 MLOAD PUSH32 0x4352454154455F564F5445535F524F4C45000000000000000000000000000000 DUP2 MSTORE DUP2 MLOAD SWAP1 DUP2 SWAP1 SUB PUSH1 0x11 ADD DUP2 KECCAK256 PUSH1 0x0 DUP1 DUP4 MSTORE PUSH1 0x20 DUP4 ADD SWAP1 SWAP4 MSTORE SWAP1 PUSH2 0x247D SWAP1 CALLER SWAP1 DUP4 SWAP1 DUP6 PUSH2 0x1CC3 JUMP JUMPDEST PUSH1 0x40 DUP1 MLOAD DUP1 DUP3 ADD SWAP1 SWAP2 MSTORE PUSH1 0xF DUP2 MSTORE PUSH32 0x4150505F415554485F4641494C45440000000000000000000000000000000000 PUSH1 0x20 DUP3 ADD MSTORE SWAP1 ISZERO ISZERO PUSH2 0x251A JUMPI PUSH1 0x40 MLOAD PUSH32 0x8C379A000000000000000000000000000000000000000000000000000000000 DUP2 MSTORE PUSH1 0x4 ADD DUP1 DUP1 PUSH1 0x20 ADD DUP3 DUP2 SUB DUP3 MSTORE DUP4 DUP2 DUP2 MLOAD DUP2 MSTORE PUSH1 0x20 ADD SWAP2 POP DUP1 MLOAD SWAP1 PUSH1 0x20 ADD SWAP1 DUP1 DUP4 DUP4 PUSH1 0x0 DUP4 DUP2 LT ISZERO PUSH2 0xB9B JUMPI DUP2 DUP2 ADD MLOAD DUP4 DUP3 ADD MSTORE PUSH1 0x20 ADD PUSH2 0xB83 JUMP JUMPDEST POP PUSH2 0x2586 DUP9 DUP9 DUP1 DUP1 PUSH1 0x1F ADD PUSH1 0x20 DUP1 SWAP2 DIV MUL PUSH1 0x20 ADD PUSH1 0x40 MLOAD SWAP1 DUP2 ADD PUSH1 0x40 MSTORE DUP1 SWAP4 SWAP3 SWAP2 SWAP1 DUP2 DUP2 MSTORE PUSH1 0x20 ADD DUP4 DUP4 DUP1 DUP3 DUP5 CALLDATACOPY POP POP PUSH1 0x40 DUP1 MLOAD PUSH1 0x20 PUSH1 0x1F DUP15 ADD DUP2 SWAP1 DIV DUP2 MUL DUP3 ADD DUP2 ADD SWAP1 SWAP3 MSTORE DUP13 DUP2 MSTORE SWAP5 POP DUP13 SWAP4 POP DUP12 SWAP3 POP DUP3 SWAP2 POP DUP5 ADD DUP4 DUP3 DUP1 DUP3 DUP5 CALLDATACOPY DUP3 ADD SWAP2 POP POP POP POP POP POP DUP7 DUP7 PUSH2 0x2B80 JUMP JUMPDEST SWAP9 SWAP8 POP POP POP POP POP POP POP POP JUMP JUMPDEST PUSH1 0x3 SLOAD PUSH1 0x40 DUP1 MLOAD DUP1 DUP3 ADD SWAP1 SWAP2 MSTORE PUSH1 0xE DUP2 MSTORE PUSH32 0x564F54494E475F4E4F5F564F5445000000000000000000000000000000000000 PUSH1 0x20 DUP3 ADD MSTORE DUP3 SWAP2 DUP3 LT PUSH2 0x2633 JUMPI PUSH1 0x40 MLOAD PUSH32 0x8C379A000000000000000000000000000000000000000000000000000000000 DUP2 MSTORE PUSH1 0x4 ADD DUP1 DUP1 PUSH1 0x20 ADD DUP3 DUP2 SUB DUP3 MSTORE DUP4 DUP2 DUP2 MLOAD DUP2 MSTORE PUSH1 0x20 ADD SWAP2 POP DUP1 MLOAD SWAP1 PUSH1 0x20 ADD SWAP1 DUP1 DUP4 DUP4 PUSH1 0x0 DUP4 DUP2 LT ISZERO PUSH2 0xB9B JUMPI DUP2 DUP2 ADD MLOAD DUP4 DUP3 ADD MSTORE PUSH1 0x20 ADD PUSH2 0xB83 JUMP JUMPDEST POP PUSH2 0x1EA2 DUP3 PUSH2 0x327C JUMP JUMPDEST PUSH1 0x0 SLOAD PUSH21 0x10000000000000000000000000000000000000000 SWAP1 DIV PUSH8 0xFFFFFFFFFFFFFFFF AND DUP2 JUMP JUMPDEST PUSH1 0x0 SLOAD PUSH20 0xFFFFFFFFFFFFFFFFFFFFFFFFFFFFFFFFFFFFFFFF AND DUP2 JUMP JUMPDEST PUSH8 0xDE0B6B3A7640000 DUP2 JUMP JUMPDEST PUSH1 0x1 SWAP1 JUMP JUMPDEST NUMBER SWAP1 JUMP JUMPDEST PUSH1 0x1 SLOAD DUP2 SLOAD PUSH1 0x0 SWAP2 PUSH2 0x26CC SWAP2 PUSH2 0x100 SWAP1 DIV PUSH8 0xFFFFFFFFFFFFFFFF SWAP1 DUP2 AND SWAP2 PUSH9 0x10000000000000000 SWAP1 DIV AND PUSH4 0xFFFFFFFF PUSH2 0x332F AND JUMP JUMPDEST PUSH8 0xFFFFFFFFFFFFFFFF AND PUSH2 0x26DE PUSH2 0x33E1 JUMP JUMPDEST PUSH8 0xFFFFFFFFFFFFFFFF AND LT DUP1 ISZERO PUSH2 0x26F7 JUMPI POP DUP2 SLOAD PUSH1 0xFF AND ISZERO JUMPDEST SWAP3 SWAP2 POP POP JUMP JUMPDEST PUSH1 0x40 DUP1 MLOAD PUSH1 0x2 DUP1 DUP3 MSTORE PUSH1 0x60 DUP1 DUP4 ADD DUP5 MSTORE SWAP3 PUSH1 0x20 DUP4 ADD SWAP1 DUP1 CODESIZE DUP4 CODECOPY ADD SWAP1 POP POP SWAP1 POP DUP3 DUP2 PUSH1 0x0 DUP2 MLOAD DUP2 LT ISZERO ISZERO PUSH2 0x272D JUMPI INVALID JUMPDEST PUSH1 0x20 SWAP1 DUP2 MUL SWAP1 SWAP2 ADD ADD MSTORE DUP1 MLOAD DUP3 SWAP1 DUP3 SWAP1 PUSH1 0x1 SWAP1 DUP2 LT PUSH2 0x2748 JUMPI INVALID JUMPDEST PUSH1 0x20 SWAP1 DUP2 MUL SWAP1 SWAP2 ADD ADD MSTORE SWAP3 SWAP2 POP POP JUMP JUMPDEST SLOAD SWAP1 JUMP JUMPDEST SLOAD SWAP1 JUMP JUMPDEST PUSH1 0x0 DUP1 PUSH20 0xFFFFFFFFFFFFFFFFFFFFFFFFFFFFFFFFFFFFFFFF DUP4 AND ISZERO ISZERO PUSH2 0x2789 JUMPI PUSH1 0x0 SWAP2 POP PUSH2 0x1B91 JUMP JUMPDEST POP POP PUSH1 0x0 SWAP1 EXTCODESIZE GT SWAP1 JUMP JUMPDEST PUSH1 0x40 DUP1 MLOAD PUSH20 0xFFFFFFFFFFFFFFFFFFFFFFFFFFFFFFFFFFFFFFFF DUP4 AND PUSH1 0x24 DUP1 DUP4 ADD SWAP2 SWAP1 SWAP2 MSTORE DUP3 MLOAD DUP1 DUP4 SUB SWAP1 SWAP2 ADD DUP2 MSTORE PUSH1 0x44 SWAP1 SWAP2 ADD SWAP1 SWAP2 MSTORE PUSH1 0x20 DUP2 ADD DUP1 MLOAD PUSH28 0xFFFFFFFFFFFFFFFFFFFFFFFFFFFFFFFFFFFFFFFFFFFFFFFFFFFFFFFF AND PUSH32 0x70A0823100000000000000000000000000000000000000000000000000000000 OR SWAP1 MSTORE PUSH1 0x0 SWAP1 DUP2 DUP1 PUSH2 0x2820 DUP7 DUP5 PUSH2 0x33F3 JUMP JUMPDEST PUSH1 0x40 DUP1 MLOAD DUP1 DUP3 ADD SWAP1 SWAP2 MSTORE PUSH1 0x1C DUP2 MSTORE PUSH32 0x534146455F4552435F32305F42414C414E43455F524556455254454400000000 PUSH1 0x20 DUP3 ADD MSTORE SWAP2 SWAP4 POP SWAP2 POP DUP3 ISZERO ISZERO PUSH2 0x28C2 JUMPI PUSH1 0x40 MLOAD PUSH32 0x8C379A000000000000000000000000000000000000000000000000000000000 DUP2 MSTORE PUSH1 0x4 ADD DUP1 DUP1 PUSH1 0x20 ADD DUP3 DUP2 SUB DUP3 MSTORE DUP4 DUP2 DUP2 MLOAD DUP2 MSTORE PUSH1 0x20 ADD SWAP2 POP DUP1 MLOAD SWAP1 PUSH1 0x20 ADD SWAP1 DUP1 DUP4 DUP4 PUSH1 0x0 DUP4 DUP2 LT ISZERO PUSH2 0xB9B JUMPI DUP2 DUP2 ADD MLOAD DUP4 DUP3 ADD MSTORE PUSH1 0x20 ADD PUSH2 0xB83 JUMP JUMPDEST POP SWAP6 SWAP5 POP POP POP POP POP JUMP JUMPDEST PUSH1 0x40 DUP1 MLOAD PUSH20 0xFFFFFFFFFFFFFFFFFFFFFFFFFFFFFFFFFFFFFFFF DUP5 AND PUSH1 0x24 DUP3 ADD MSTORE PUSH1 0x44 DUP1 DUP3 ADD DUP5 SWAP1 MSTORE DUP3 MLOAD DUP1 DUP4 SUB SWAP1 SWAP2 ADD DUP2 MSTORE PUSH1 0x64 SWAP1 SWAP2 ADD SWAP1 SWAP2 MSTORE PUSH1 0x20 DUP2 ADD DUP1 MLOAD PUSH28 0xFFFFFFFFFFFFFFFFFFFFFFFFFFFFFFFFFFFFFFFFFFFFFFFFFFFFFFFF AND PUSH32 0xA9059CBB00000000000000000000000000000000000000000000000000000000 OR SWAP1 MSTORE PUSH1 0x0 SWAP1 PUSH2 0x295B DUP6 DUP3 PUSH2 0x3424 JUMP JUMPDEST SWAP6 SWAP5 POP POP POP POP POP JUMP JUMPDEST DUP1 MLOAD PUSH1 0x20 MUL DUP2 MSTORE SWAP1 JUMP JUMPDEST PUSH1 0x40 DUP1 MLOAD PUSH1 0x0 DUP2 MSTORE PUSH1 0x20 DUP2 ADD SWAP1 SWAP2 MSTORE SWAP1 JUMP JUMPDEST PUSH1 0x0 DUP2 DUP2 MSTORE PUSH1 0x2 PUSH1 0x20 MSTORE PUSH1 0x40 DUP2 KECCAK256 DUP1 SLOAD DUP3 SWAP1 PUSH1 0xFF AND ISZERO PUSH2 0x29A3 JUMPI PUSH1 0x0 SWAP3 POP PUSH2 0x2A92 JUMP JUMPDEST PUSH1 0x2 DUP3 ADD SLOAD PUSH1 0x4 DUP4 ADD SLOAD DUP4 SLOAD PUSH2 0x29D9 SWAP3 SWAP2 SWAP1 PUSH18 0x10000000000000000000000000000000000 SWAP1 DIV PUSH8 0xFFFFFFFFFFFFFFFF AND PUSH2 0x3472 JUMP JUMPDEST ISZERO PUSH2 0x29E7 JUMPI PUSH1 0x1 SWAP3 POP PUSH2 0x2A92 JUMP JUMPDEST PUSH2 0x29F0 DUP3 PUSH2 0x2696 JUMP JUMPDEST ISZERO PUSH2 0x29FE JUMPI PUSH1 0x0 SWAP3 POP PUSH2 0x2A92 JUMP JUMPDEST PUSH1 0x3 DUP3 ADD SLOAD PUSH1 0x2 DUP4 ADD SLOAD PUSH2 0x2A17 SWAP2 PUSH4 0xFFFFFFFF PUSH2 0x34B4 AND JUMP JUMPDEST PUSH1 0x2 DUP4 ADD SLOAD DUP4 SLOAD SWAP2 SWAP3 POP PUSH2 0x2A4B SWAP2 DUP4 SWAP1 PUSH18 0x10000000000000000000000000000000000 SWAP1 DIV PUSH8 0xFFFFFFFFFFFFFFFF AND PUSH2 0x3472 JUMP JUMPDEST ISZERO ISZERO PUSH2 0x2A5A JUMPI PUSH1 0x0 SWAP3 POP PUSH2 0x2A92 JUMP JUMPDEST PUSH1 0x2 DUP3 ADD SLOAD PUSH1 0x4 DUP4 ADD SLOAD PUSH1 0x1 DUP5 ADD SLOAD PUSH2 0x2A7E SWAP3 SWAP2 SWAP1 PUSH8 0xFFFFFFFFFFFFFFFF AND PUSH2 0x3472 JUMP JUMPDEST ISZERO ISZERO PUSH2 0x2A8D JUMPI PUSH1 0x0 SWAP3 POP PUSH2 0x2A92 JUMP JUMPDEST PUSH1 0x1 SWAP3 POP JUMPDEST POP POP SWAP2 SWAP1 POP JUMP JUMPDEST PUSH1 0x0 DUP3 DUP2 MSTORE PUSH1 0x2 PUSH1 0x20 MSTORE PUSH1 0x40 DUP2 KECCAK256 PUSH2 0x2AB0 DUP2 PUSH2 0x2696 JUMP JUMPDEST DUP1 ISZERO PUSH2 0x1C47 JUMPI POP PUSH1 0x0 DUP1 SLOAD DUP3 SLOAD PUSH1 0x40 DUP1 MLOAD PUSH32 0x4EE2CD7E00000000000000000000000000000000000000000000000000000000 DUP2 MSTORE PUSH20 0xFFFFFFFFFFFFFFFFFFFFFFFFFFFFFFFFFFFFFFFF DUP9 DUP2 AND PUSH1 0x4 DUP4 ADD MSTORE PUSH10 0x1000000000000000000 SWAP1 SWAP4 DIV PUSH8 0xFFFFFFFFFFFFFFFF AND PUSH1 0x24 DUP3 ADD MSTORE SWAP1 MLOAD SWAP2 SWAP1 SWAP3 AND SWAP2 PUSH4 0x4EE2CD7E SWAP2 PUSH1 0x44 DUP1 DUP4 ADD SWAP3 PUSH1 0x20 SWAP3 SWAP2 SWAP1 DUP3 SWAP1 SUB ADD DUP2 DUP8 DUP8 DUP1 EXTCODESIZE ISZERO DUP1 ISZERO PUSH2 0x2B4B JUMPI PUSH1 0x0 DUP1 REVERT JUMPDEST POP GAS CALL ISZERO DUP1 ISZERO PUSH2 0x2B5F JUMPI RETURNDATASIZE PUSH1 0x0 DUP1 RETURNDATACOPY RETURNDATASIZE PUSH1 0x0 REVERT JUMPDEST POP POP POP POP PUSH1 0x40 MLOAD RETURNDATASIZE PUSH1 0x20 DUP2 LT ISZERO PUSH2 0x2B75 JUMPI PUSH1 0x0 DUP1 REVERT JUMPDEST POP MLOAD GT SWAP5 SWAP4 POP POP POP POP JUMP JUMPDEST PUSH1 0x0 DUP1 PUSH1 0x0 DUP1 PUSH1 0x1 PUSH2 0x2B90 PUSH2 0x3559 JUMP JUMPDEST PUSH1 0x0 DUP1 SLOAD PUSH1 0x40 DUP1 MLOAD PUSH32 0x981B24D000000000000000000000000000000000000000000000000000000000 DUP2 MSTORE SWAP5 SWAP1 SWAP4 SUB PUSH8 0xFFFFFFFFFFFFFFFF DUP2 AND PUSH1 0x4 DUP7 ADD MSTORE SWAP3 MLOAD SWAP3 SWAP7 POP PUSH20 0xFFFFFFFFFFFFFFFFFFFFFFFFFFFFFFFFFFFFFFFF AND SWAP3 PUSH4 0x981B24D0 SWAP3 PUSH1 0x24 DUP1 DUP4 ADD SWAP4 PUSH1 0x20 SWAP4 DUP4 SWAP1 SUB SWAP1 SWAP2 ADD SWAP1 DUP3 SWAP1 DUP8 DUP1 EXTCODESIZE ISZERO DUP1 ISZERO PUSH2 0x2C12 JUMPI PUSH1 0x0 DUP1 REVERT JUMPDEST POP GAS CALL ISZERO DUP1 ISZERO PUSH2 0x2C26 JUMPI RETURNDATASIZE PUSH1 0x0 DUP1 RETURNDATACOPY RETURNDATASIZE PUSH1 0x0 REVERT JUMPDEST POP POP POP POP PUSH1 0x40 MLOAD RETURNDATASIZE PUSH1 0x20 DUP2 LT ISZERO PUSH2 0x2C3C JUMPI PUSH1 0x0 DUP1 REVERT JUMPDEST POP MLOAD PUSH1 0x40 DUP1 MLOAD DUP1 DUP3 ADD SWAP1 SWAP2 MSTORE PUSH1 0x16 DUP2 MSTORE PUSH32 0x564F54494E475F4E4F5F564F54494E475F504F57455200000000000000000000 PUSH1 0x20 DUP3 ADD MSTORE SWAP1 SWAP3 POP PUSH1 0x0 DUP4 GT PUSH2 0x2CDF JUMPI PUSH1 0x40 MLOAD PUSH32 0x8C379A000000000000000000000000000000000000000000000000000000000 DUP2 MSTORE PUSH1 0x4 ADD DUP1 DUP1 PUSH1 0x20 ADD DUP3 DUP2 SUB DUP3 MSTORE DUP4 DUP2 DUP2 MLOAD DUP2 MSTORE PUSH1 0x20 ADD SWAP2 POP DUP1 MLOAD SWAP1 PUSH1 0x20 ADD SWAP1 DUP1 DUP4 DUP4 PUSH1 0x0 DUP4 DUP2 LT ISZERO PUSH2 0xB9B JUMPI DUP2 DUP2 ADD MLOAD DUP4 DUP3 ADD MSTORE PUSH1 0x20 ADD PUSH2 0xB83 JUMP JUMPDEST POP POP PUSH1 0x3 DUP1 SLOAD PUSH1 0x1 DUP2 ADD SWAP1 SWAP2 SSTORE PUSH1 0x0 DUP2 DUP2 MSTORE PUSH1 0x2 PUSH1 0x20 MSTORE PUSH1 0x40 SWAP1 KECCAK256 SWAP1 SWAP4 POP PUSH2 0x2D05 PUSH2 0x33E1 JUMP JUMPDEST DUP2 SLOAD PUSH32 0xFFFFFFFFFFFFFFFFFFFFFFFFFFFFFFFFFFFFFFFFFFFFFF0000000000000000FF AND PUSH2 0x100 PUSH8 0xFFFFFFFFFFFFFFFF SWAP3 DUP4 AND MUL OR PUSH32 0xFFFFFFFFFFFFFFFFFFFFFFFFFFFFFF0000000000000000FFFFFFFFFFFFFFFFFF AND PUSH10 0x1000000000000000000 DUP6 DUP4 AND MUL OR DUP1 DUP4 SSTORE PUSH1 0x0 SLOAD PUSH32 0xFFFFFFFFFFFFFF0000000000000000FFFFFFFFFFFFFFFFFFFFFFFFFFFFFFFFFF SWAP1 SWAP2 AND PUSH21 0x10000000000000000000000000000000000000000 SWAP1 SWAP2 DIV DUP3 AND PUSH18 0x10000000000000000000000000000000000 MUL OR DUP3 SSTORE PUSH1 0x1 DUP1 SLOAD SWAP1 DUP4 ADD DUP1 SLOAD SWAP2 SWAP1 SWAP3 AND PUSH32 0xFFFFFFFFFFFFFFFFFFFFFFFFFFFFFFFFFFFFFFFFFFFFFFFF0000000000000000 SWAP1 SWAP2 AND OR SWAP1 SSTORE PUSH1 0x4 DUP2 ADD DUP3 SWAP1 SSTORE DUP7 MLOAD PUSH2 0x2E18 SWAP1 PUSH1 0x6 DUP4 ADD SWAP1 PUSH1 0x20 DUP11 ADD SWAP1 PUSH2 0x3F99 JUMP JUMPDEST POP DUP8 MLOAD PUSH2 0x2E2E SWAP1 PUSH1 0x5 DUP4 ADD SWAP1 PUSH1 0x20 DUP12 ADD SWAP1 PUSH2 0x3F99 JUMP JUMPDEST POP CALLER PUSH20 0xFFFFFFFFFFFFFFFFFFFFFFFFFFFFFFFFFFFFFFFF AND DUP5 PUSH32 0x4D72FE0577A3A3F7DA968D7B892779DDE102519C25527B29CF7054F245C791B9 DUP10 PUSH1 0x40 MLOAD DUP1 DUP1 PUSH1 0x20 ADD DUP3 DUP2 SUB DUP3 MSTORE DUP4 DUP2 DUP2 MLOAD DUP2 MSTORE PUSH1 0x20 ADD SWAP2 POP DUP1 MLOAD SWAP1 PUSH1 0x20 ADD SWAP1 DUP1 DUP4 DUP4 PUSH1 0x0 JUMPDEST DUP4 DUP2 LT ISZERO PUSH2 0x2EA6 JUMPI DUP2 DUP2 ADD MLOAD DUP4 DUP3 ADD MSTORE PUSH1 0x20 ADD PUSH2 0x2E8E JUMP JUMPDEST POP POP POP POP SWAP1 POP SWAP1 DUP2 ADD SWAP1 PUSH1 0x1F AND DUP1 ISZERO PUSH2 0x2ED3 JUMPI DUP1 DUP3 SUB DUP1 MLOAD PUSH1 0x1 DUP4 PUSH1 0x20 SUB PUSH2 0x100 EXP SUB NOT AND DUP2 MSTORE PUSH1 0x20 ADD SWAP2 POP JUMPDEST POP SWAP3 POP POP POP PUSH1 0x40 MLOAD DUP1 SWAP2 SUB SWAP1 LOG3 DUP6 DUP1 ISZERO PUSH2 0x2EF2 JUMPI POP PUSH2 0x2EF2 DUP5 CALLER PUSH2 0x2A99 JUMP JUMPDEST ISZERO PUSH2 0x2F04 JUMPI PUSH2 0x2F04 DUP5 PUSH1 0x1 CALLER DUP9 PUSH2 0x2F0F JUMP JUMPDEST POP POP POP SWAP5 SWAP4 POP POP POP POP JUMP JUMPDEST PUSH1 0x0 DUP5 DUP2 MSTORE PUSH1 0x2 PUSH1 0x20 SWAP1 DUP2 MSTORE PUSH1 0x40 DUP1 DUP4 KECCAK256 DUP4 SLOAD DUP2 SLOAD DUP4 MLOAD PUSH32 0x4EE2CD7E00000000000000000000000000000000000000000000000000000000 DUP2 MSTORE PUSH20 0xFFFFFFFFFFFFFFFFFFFFFFFFFFFFFFFFFFFFFFFF DUP10 DUP2 AND PUSH1 0x4 DUP4 ADD MSTORE PUSH10 0x1000000000000000000 SWAP1 SWAP3 DIV PUSH8 0xFFFFFFFFFFFFFFFF AND PUSH1 0x24 DUP3 ADD MSTORE SWAP4 MLOAD SWAP3 SWAP6 SWAP5 DUP6 SWAP5 SWAP2 SWAP1 SWAP3 AND SWAP3 PUSH4 0x4EE2CD7E SWAP3 PUSH1 0x44 DUP1 DUP5 ADD SWAP4 SWAP2 SWAP3 SWAP2 DUP3 SWAP1 SUB ADD DUP2 DUP8 DUP8 DUP1 EXTCODESIZE ISZERO DUP1 ISZERO PUSH2 0x2FB3 JUMPI PUSH1 0x0 DUP1 REVERT JUMPDEST POP GAS CALL ISZERO DUP1 ISZERO PUSH2 0x2FC7 JUMPI RETURNDATASIZE PUSH1 0x0 DUP1 RETURNDATACOPY RETURNDATASIZE PUSH1 0x0 REVERT JUMPDEST POP POP POP POP PUSH1 0x40 MLOAD RETURNDATASIZE PUSH1 0x20 DUP2 LT ISZERO PUSH2 0x2FDD JUMPI PUSH1 0x0 DUP1 REVERT JUMPDEST POP MLOAD PUSH20 0xFFFFFFFFFFFFFFFFFFFFFFFFFFFFFFFFFFFFFFFF DUP7 AND PUSH1 0x0 SWAP1 DUP2 MSTORE PUSH1 0x7 DUP6 ADD PUSH1 0x20 MSTORE PUSH1 0x40 SWAP1 KECCAK256 SLOAD SWAP1 SWAP3 POP PUSH1 0xFF AND SWAP1 POP PUSH1 0x1 DUP2 PUSH1 0x2 DUP2 GT ISZERO PUSH2 0x301D JUMPI INVALID JUMPDEST EQ ISZERO PUSH2 0x3042 JUMPI PUSH1 0x2 DUP4 ADD SLOAD PUSH2 0x3038 SWAP1 DUP4 PUSH4 0xFFFFFFFF PUSH2 0x3566 AND JUMP JUMPDEST PUSH1 0x2 DUP5 ADD SSTORE PUSH2 0x3071 JUMP JUMPDEST PUSH1 0x2 DUP2 PUSH1 0x2 DUP2 GT ISZERO PUSH2 0x3050 JUMPI INVALID JUMPDEST EQ ISZERO PUSH2 0x3071 JUMPI PUSH1 0x3 DUP4 ADD SLOAD PUSH2 0x306B SWAP1 DUP4 PUSH4 0xFFFFFFFF PUSH2 0x3566 AND JUMP JUMPDEST PUSH1 0x3 DUP5 ADD SSTORE JUMPDEST DUP6 ISZERO PUSH2 0x3096 JUMPI PUSH1 0x2 DUP4 ADD SLOAD PUSH2 0x308C SWAP1 DUP4 PUSH4 0xFFFFFFFF PUSH2 0x34B4 AND JUMP JUMPDEST PUSH1 0x2 DUP5 ADD SSTORE PUSH2 0x30B1 JUMP JUMPDEST PUSH1 0x3 DUP4 ADD SLOAD PUSH2 0x30AB SWAP1 DUP4 PUSH4 0xFFFFFFFF PUSH2 0x34B4 AND JUMP JUMPDEST PUSH1 0x3 DUP5 ADD SSTORE JUMPDEST DUP6 PUSH2 0x30BD JUMPI PUSH1 0x2 PUSH2 0x30C0 JUMP JUMPDEST PUSH1 0x1 JUMPDEST PUSH20 0xFFFFFFFFFFFFFFFFFFFFFFFFFFFFFFFFFFFFFFFF DUP7 AND PUSH1 0x0 SWAP1 DUP2 MSTORE PUSH1 0x7 DUP6 ADD PUSH1 0x20 MSTORE PUSH1 0x40 SWAP1 KECCAK256 DUP1 SLOAD PUSH32 0xFFFFFFFFFFFFFFFFFFFFFFFFFFFFFFFFFFFFFFFFFFFFFFFFFFFFFFFFFFFFFF00 AND PUSH1 0x1 DUP4 PUSH1 0x2 DUP2 GT ISZERO PUSH2 0x3119 JUMPI INVALID JUMPDEST MUL OR SWAP1 SSTORE POP PUSH1 0x40 DUP1 MLOAD DUP8 ISZERO ISZERO DUP2 MSTORE PUSH1 0x20 DUP2 ADD DUP5 SWAP1 MSTORE DUP2 MLOAD PUSH20 0xFFFFFFFFFFFFFFFFFFFFFFFFFFFFFFFFFFFFFFFF DUP9 AND SWAP3 DUP11 SWAP3 PUSH32 0xB34EE265E3D4F5EC4E8B52D59B2A9BE8FCECA2F274EBC080D8FBA797FEA9391F SWAP3 SWAP1 DUP2 SWAP1 SUB SWAP1 SWAP2 ADD SWAP1 LOG3 DUP4 DUP1 ISZERO PUSH2 0x3186 JUMPI POP PUSH2 0x3186 DUP8 PUSH2 0x2980 JUMP JUMPDEST ISZERO PUSH2 0x3194 JUMPI PUSH2 0x3194 DUP8 PUSH2 0x3611 JUMP JUMPDEST POP POP POP POP POP POP POP JUMP JUMPDEST PUSH2 0x31A5 PUSH2 0x146A JUMP JUMPDEST PUSH1 0x40 DUP1 MLOAD DUP1 DUP3 ADD SWAP1 SWAP2 MSTORE PUSH1 0x18 DUP2 MSTORE PUSH32 0x494E49545F414C52454144595F494E495449414C495A45440000000000000000 PUSH1 0x20 DUP3 ADD MSTORE SWAP1 ISZERO PUSH2 0x3241 JUMPI PUSH1 0x40 MLOAD PUSH32 0x8C379A000000000000000000000000000000000000000000000000000000000 DUP2 MSTORE PUSH1 0x4 ADD DUP1 DUP1 PUSH1 0x20 ADD DUP3 DUP2 SUB DUP3 MSTORE DUP4 DUP2 DUP2 MLOAD DUP2 MSTORE PUSH1 0x20 ADD SWAP2 POP DUP1 MLOAD SWAP1 PUSH1 0x20 ADD SWAP1 DUP1 DUP4 DUP4 PUSH1 0x0 DUP4 DUP2 LT ISZERO PUSH2 0xB9B JUMPI DUP2 DUP2 ADD MLOAD DUP4 DUP3 ADD MSTORE PUSH1 0x20 ADD PUSH2 0xB83 JUMP JUMPDEST POP PUSH2 0x327A PUSH2 0x324D PUSH2 0x2692 JUMP JUMPDEST PUSH32 0xEBB05B386A8D34882B8711D156F463690983DC47815980FB82AEEFF1AA43579E SWAP1 PUSH4 0xFFFFFFFF PUSH2 0x3749 AND JUMP JUMPDEST JUMP JUMPDEST PUSH2 0x3285 DUP2 PUSH2 0x2980 JUMP JUMPDEST PUSH1 0x40 DUP1 MLOAD DUP1 DUP3 ADD SWAP1 SWAP2 MSTORE PUSH1 0x16 DUP2 MSTORE PUSH32 0x564F54494E475F43414E5F4E4F545F4558454355544500000000000000000000 PUSH1 0x20 DUP3 ADD MSTORE SWAP1 ISZERO ISZERO PUSH2 0x3322 JUMPI PUSH1 0x40 MLOAD PUSH32 0x8C379A000000000000000000000000000000000000000000000000000000000 DUP2 MSTORE PUSH1 0x4 ADD DUP1 DUP1 PUSH1 0x20 ADD DUP3 DUP2 SUB DUP3 MSTORE DUP4 DUP2 DUP2 MLOAD DUP2 MSTORE PUSH1 0x20 ADD SWAP2 POP DUP1 MLOAD SWAP1 PUSH1 0x20 ADD SWAP1 DUP1 DUP4 DUP4 PUSH1 0x0 DUP4 DUP2 LT ISZERO PUSH2 0xB9B JUMPI DUP2 DUP2 ADD MLOAD DUP4 DUP3 ADD MSTORE PUSH1 0x20 ADD PUSH2 0xB83 JUMP JUMPDEST POP PUSH2 0x332C DUP2 PUSH2 0x3611 JUMP JUMPDEST POP JUMP JUMPDEST PUSH1 0x40 DUP1 MLOAD DUP1 DUP3 ADD SWAP1 SWAP2 MSTORE PUSH1 0x13 DUP2 MSTORE PUSH32 0x4D41544836345F4144445F4F564552464C4F5700000000000000000000000000 PUSH1 0x20 DUP3 ADD MSTORE PUSH1 0x0 SWAP1 DUP4 DUP4 ADD SWAP1 PUSH8 0xFFFFFFFFFFFFFFFF DUP1 DUP7 AND SWAP1 DUP4 AND LT ISZERO PUSH2 0x193F JUMPI PUSH1 0x40 MLOAD PUSH32 0x8C379A000000000000000000000000000000000000000000000000000000000 DUP2 MSTORE PUSH1 0x4 ADD DUP1 DUP1 PUSH1 0x20 ADD DUP3 DUP2 SUB DUP3 MSTORE DUP4 DUP2 DUP2 MLOAD DUP2 MSTORE PUSH1 0x20 ADD SWAP2 POP DUP1 MLOAD SWAP1 PUSH1 0x20 ADD SWAP1 DUP1 DUP4 DUP4 PUSH1 0x0 DUP4 DUP2 LT ISZERO PUSH2 0xB9B JUMPI DUP2 DUP2 ADD MLOAD DUP4 DUP3 ADD MSTORE PUSH1 0x20 ADD PUSH2 0xB83 JUMP JUMPDEST PUSH1 0x0 PUSH2 0x1465 PUSH2 0x33EE PUSH2 0x374D JUMP JUMPDEST PUSH2 0x3751 JUMP JUMPDEST PUSH1 0x0 DUP1 PUSH1 0x0 DUP1 PUSH1 0x40 MLOAD PUSH1 0x20 DUP2 DUP8 MLOAD PUSH1 0x20 DUP10 ADD DUP11 GAS STATICCALL SWAP3 POP PUSH1 0x0 DUP4 GT ISZERO PUSH2 0x3418 JUMPI DUP1 MLOAD SWAP2 POP JUMPDEST POP SWAP1 SWAP6 SWAP1 SWAP5 POP SWAP3 POP POP POP JUMP JUMPDEST PUSH1 0x0 DUP1 PUSH1 0x40 MLOAD PUSH1 0x20 DUP2 DUP6 MLOAD PUSH1 0x20 DUP8 ADD PUSH1 0x0 DUP10 GAS CALL PUSH1 0x0 DUP2 GT ISZERO PUSH2 0x3468 JUMPI RETURNDATASIZE DUP1 ISZERO PUSH2 0x3455 JUMPI PUSH1 0x20 DUP2 EQ PUSH2 0x345E JUMPI PUSH2 0x3466 JUMP JUMPDEST PUSH1 0x1 SWAP4 POP PUSH2 0x3466 JUMP JUMPDEST PUSH1 0x1 DUP4 MLOAD EQ SWAP4 POP JUMPDEST POP JUMPDEST POP SWAP1 SWAP5 SWAP4 POP POP POP POP JUMP JUMPDEST PUSH1 0x0 DUP1 DUP4 ISZERO ISZERO PUSH2 0x3485 JUMPI PUSH1 0x0 SWAP2 POP PUSH2 0x193F JUMP JUMPDEST DUP4 PUSH2 0x349E DUP7 PUSH8 0xDE0B6B3A7640000 PUSH4 0xFFFFFFFF PUSH2 0x3801 AND JUMP JUMPDEST DUP2 ISZERO ISZERO PUSH2 0x34A7 JUMPI INVALID JUMPDEST DIV SWAP3 SWAP1 SWAP3 GT SWAP5 SWAP4 POP POP POP POP JUMP JUMPDEST PUSH1 0x40 DUP1 MLOAD DUP1 DUP3 ADD SWAP1 SWAP2 MSTORE PUSH1 0x11 DUP2 MSTORE PUSH32 0x4D4154485F4144445F4F564552464C4F57000000000000000000000000000000 PUSH1 0x20 DUP3 ADD MSTORE PUSH1 0x0 SWAP1 DUP4 DUP4 ADD SWAP1 DUP5 DUP3 LT ISZERO PUSH2 0x193F JUMPI PUSH1 0x40 MLOAD PUSH32 0x8C379A000000000000000000000000000000000000000000000000000000000 DUP2 MSTORE PUSH1 0x4 ADD DUP1 DUP1 PUSH1 0x20 ADD DUP3 DUP2 SUB DUP3 MSTORE DUP4 DUP2 DUP2 MLOAD DUP2 MSTORE PUSH1 0x20 ADD SWAP2 POP DUP1 MLOAD SWAP1 PUSH1 0x20 ADD SWAP1 DUP1 DUP4 DUP4 PUSH1 0x0 DUP4 DUP2 LT ISZERO PUSH2 0xB9B JUMPI DUP2 DUP2 ADD MLOAD DUP4 DUP3 ADD MSTORE PUSH1 0x20 ADD PUSH2 0xB83 JUMP JUMPDEST PUSH1 0x0 PUSH2 0x1465 PUSH2 0x33EE PUSH2 0x2692 JUMP JUMPDEST PUSH1 0x40 DUP1 MLOAD DUP1 DUP3 ADD SWAP1 SWAP2 MSTORE PUSH1 0x12 DUP2 MSTORE PUSH32 0x4D4154485F5355425F554E444552464C4F570000000000000000000000000000 PUSH1 0x20 DUP3 ADD MSTORE PUSH1 0x0 SWAP1 DUP2 SWAP1 DUP5 DUP5 GT ISZERO PUSH2 0x3609 JUMPI PUSH1 0x40 MLOAD PUSH32 0x8C379A000000000000000000000000000000000000000000000000000000000 DUP2 MSTORE PUSH1 0x4 ADD DUP1 DUP1 PUSH1 0x20 ADD DUP3 DUP2 SUB DUP3 MSTORE DUP4 DUP2 DUP2 MLOAD DUP2 MSTORE PUSH1 0x20 ADD SWAP2 POP DUP1 MLOAD SWAP1 PUSH1 0x20 ADD SWAP1 DUP1 DUP4 DUP4 PUSH1 0x0 DUP4 DUP2 LT ISZERO PUSH2 0xB9B JUMPI DUP2 DUP2 ADD MLOAD DUP4 DUP3 ADD MSTORE PUSH1 0x20 ADD PUSH2 0xB83 JUMP JUMPDEST POP POP POP SWAP1 SUB SWAP1 JUMP JUMPDEST PUSH1 0x0 DUP2 DUP2 MSTORE PUSH1 0x2 PUSH1 0x20 DUP2 DUP2 MSTORE PUSH1 0x40 DUP1 DUP5 KECCAK256 DUP1 SLOAD PUSH32 0xFFFFFFFFFFFFFFFFFFFFFFFFFFFFFFFFFFFFFFFFFFFFFFFFFFFFFFFFFFFFFF00 AND PUSH1 0x1 SWAP1 DUP2 OR DUP3 SSTORE DUP3 MLOAD SWAP6 DUP7 MSTORE PUSH1 0x5 DUP3 ADD DUP1 SLOAD SWAP2 DUP3 AND ISZERO PUSH2 0x100 MUL PUSH32 0xFFFFFFFFFFFFFFFFFFFFFFFFFFFFFFFFFFFFFFFFFFFFFFFFFFFFFFFFFFFFFFFF ADD SWAP1 SWAP2 AND SWAP5 SWAP1 SWAP5 DIV PUSH1 0x1F DUP2 ADD DUP5 SWAP1 DIV DUP5 MUL DUP7 ADD DUP4 ADD DUP4 MSTORE SWAP3 DUP6 ADD DUP4 DUP2 MSTORE SWAP1 SWAP5 SWAP4 PUSH2 0x3718 SWAP4 SWAP2 SWAP3 SWAP1 SWAP2 SWAP1 DUP6 ADD DUP3 DUP3 DUP1 ISZERO PUSH2 0x36FB JUMPI DUP1 PUSH1 0x1F LT PUSH2 0x36D0 JUMPI PUSH2 0x100 DUP1 DUP4 SLOAD DIV MUL DUP4 MSTORE SWAP2 PUSH1 0x20 ADD SWAP2 PUSH2 0x36FB JUMP JUMPDEST DUP3 ADD SWAP2 SWAP1 PUSH1 0x0 MSTORE PUSH1 0x20 PUSH1 0x0 KECCAK256 SWAP1 JUMPDEST DUP2 SLOAD DUP2 MSTORE SWAP1 PUSH1 0x1 ADD SWAP1 PUSH1 0x20 ADD DUP1 DUP4 GT PUSH2 0x36DE JUMPI DUP3 SWAP1 SUB PUSH1 0x1F AND DUP3 ADD SWAP2 JUMPDEST POP POP PUSH1 0x40 DUP1 MLOAD PUSH1 0x0 DUP2 MSTORE PUSH1 0x20 DUP2 ADD SWAP1 SWAP2 MSTORE DUP7 SWAP4 POP SWAP2 POP PUSH2 0x38C3 SWAP1 POP JUMP JUMPDEST POP PUSH1 0x40 MLOAD DUP4 SWAP1 PUSH32 0xBF8E2B108BB7C980E08903A8A46527699D5E84905A082D56DACB4150725C8CAB SWAP1 PUSH1 0x0 SWAP1 LOG2 POP POP POP JUMP JUMPDEST SWAP1 SSTORE JUMP JUMPDEST TIMESTAMP SWAP1 JUMP JUMPDEST PUSH1 0x40 DUP1 MLOAD DUP1 DUP3 ADD SWAP1 SWAP2 MSTORE PUSH1 0x15 DUP2 MSTORE PUSH32 0x55494E5436345F4E554D4245525F544F4F5F4249470000000000000000000000 PUSH1 0x20 DUP3 ADD MSTORE PUSH1 0x0 SWAP1 PUSH8 0xFFFFFFFFFFFFFFFF DUP4 GT ISZERO PUSH2 0x37FA JUMPI PUSH1 0x40 MLOAD PUSH32 0x8C379A000000000000000000000000000000000000000000000000000000000 DUP2 MSTORE PUSH1 0x4 ADD DUP1 DUP1 PUSH1 0x20 ADD DUP3 DUP2 SUB DUP3 MSTORE DUP4 DUP2 DUP2 MLOAD DUP2 MSTORE PUSH1 0x20 ADD SWAP2 POP DUP1 MLOAD SWAP1 PUSH1 0x20 ADD SWAP1 DUP1 DUP4 DUP4 PUSH1 0x0 DUP4 DUP2 LT ISZERO PUSH2 0xB9B JUMPI DUP2 DUP2 ADD MLOAD DUP4 DUP3 ADD MSTORE PUSH1 0x20 ADD PUSH2 0xB83 JUMP JUMPDEST POP SWAP1 SWAP2 SWAP1 POP JUMP JUMPDEST PUSH1 0x0 DUP1 DUP4 ISZERO ISZERO PUSH2 0x3814 JUMPI PUSH1 0x0 SWAP2 POP PUSH2 0xC10 JUMP JUMPDEST POP DUP3 DUP3 MUL DUP3 DUP5 DUP3 DUP2 ISZERO ISZERO PUSH2 0x3824 JUMPI INVALID JUMPDEST PUSH1 0x40 DUP1 MLOAD DUP1 DUP3 ADD SWAP1 SWAP2 MSTORE PUSH1 0x11 DUP2 MSTORE PUSH32 0x4D4154485F4D554C5F4F564552464C4F57000000000000000000000000000000 PUSH1 0x20 DUP3 ADD MSTORE SWAP3 SWAP2 SWAP1 DIV EQ PUSH2 0x193F JUMPI PUSH1 0x40 MLOAD PUSH32 0x8C379A000000000000000000000000000000000000000000000000000000000 DUP2 MSTORE PUSH1 0x4 ADD DUP1 DUP1 PUSH1 0x20 ADD DUP3 DUP2 SUB DUP3 MSTORE DUP4 DUP2 DUP2 MLOAD DUP2 MSTORE PUSH1 0x20 ADD SWAP2 POP DUP1 MLOAD SWAP1 PUSH1 0x20 ADD SWAP1 DUP1 DUP4 DUP4 PUSH1 0x0 DUP4 DUP2 LT ISZERO PUSH2 0xB9B JUMPI DUP2 DUP2 ADD MLOAD DUP4 DUP3 ADD MSTORE PUSH1 0x20 ADD PUSH2 0xB83 JUMP JUMPDEST PUSH1 0x60 PUSH1 0x0 DUP1 PUSH1 0x60 DUP1 PUSH2 0x38D3 PUSH2 0x8EB JUMP JUMPDEST PUSH1 0x40 DUP1 MLOAD DUP1 DUP3 ADD SWAP1 SWAP2 MSTORE PUSH1 0x14 DUP2 MSTORE PUSH32 0x494E49545F4E4F545F494E495449414C495A4544000000000000000000000000 PUSH1 0x20 DUP3 ADD MSTORE SWAP1 ISZERO ISZERO PUSH2 0x3970 JUMPI PUSH1 0x40 MLOAD PUSH32 0x8C379A000000000000000000000000000000000000000000000000000000000 DUP2 MSTORE PUSH1 0x4 ADD DUP1 DUP1 PUSH1 0x20 ADD DUP3 DUP2 SUB DUP3 MSTORE DUP4 DUP2 DUP2 MLOAD DUP2 MSTORE PUSH1 0x20 ADD SWAP2 POP DUP1 MLOAD SWAP1 PUSH1 0x20 ADD SWAP1 DUP1 DUP4 DUP4 PUSH1 0x0 DUP4 DUP2 LT ISZERO PUSH2 0xB9B JUMPI DUP2 DUP2 ADD MLOAD DUP4 DUP3 ADD MSTORE PUSH1 0x20 ADD PUSH2 0xB83 JUMP JUMPDEST POP PUSH1 0x0 DUP1 PUSH2 0x397C PUSH2 0x1C4F JUMP JUMPDEST SWAP2 POP PUSH2 0x3986 PUSH2 0x143A JUMP JUMPDEST SWAP1 POP PUSH2 0x3991 DUP11 PUSH2 0x915 JUMP JUMPDEST PUSH1 0x40 DUP1 MLOAD DUP1 DUP3 ADD SWAP1 SWAP2 MSTORE PUSH1 0x1B DUP2 MSTORE PUSH32 0x45564D52554E5F4558454355544F525F554E415641494C41424C450000000000 PUSH1 0x20 DUP3 ADD MSTORE SWAP1 SWAP7 POP PUSH20 0xFFFFFFFFFFFFFFFFFFFFFFFFFFFFFFFFFFFFFFFF DUP8 AND ISZERO ISZERO PUSH2 0x3A47 JUMPI PUSH1 0x40 MLOAD PUSH32 0x8C379A000000000000000000000000000000000000000000000000000000000 DUP2 MSTORE PUSH1 0x4 ADD DUP1 DUP1 PUSH1 0x20 ADD DUP3 DUP2 SUB DUP3 MSTORE DUP4 DUP2 DUP2 MLOAD DUP2 MSTORE PUSH1 0x20 ADD SWAP2 POP DUP1 MLOAD SWAP1 PUSH1 0x20 ADD SWAP1 DUP1 DUP4 DUP4 PUSH1 0x0 DUP4 DUP2 LT ISZERO PUSH2 0xB9B JUMPI DUP2 DUP2 ADD MLOAD DUP4 DUP3 ADD MSTORE PUSH1 0x20 ADD PUSH2 0xB83 JUMP JUMPDEST POP PUSH1 0x40 MLOAD PUSH1 0x60 PUSH1 0x24 DUP3 ADD SWAP1 DUP2 MSTORE DUP12 MLOAD PUSH1 0x84 DUP4 ADD MSTORE DUP12 MLOAD PUSH32 0x279CEA3500000000000000000000000000000000000000000000000000000000 SWAP8 POP DUP8 SWAP3 DUP14 SWAP3 DUP14 SWAP3 DUP14 SWAP3 DUP3 SWAP2 PUSH1 0x44 DUP3 ADD SWAP2 PUSH1 0x64 DUP2 ADD SWAP2 PUSH1 0xA4 SWAP1 SWAP2 ADD SWAP1 PUSH1 0x20 DUP10 ADD SWAP1 DUP1 DUP4 DUP4 PUSH1 0x0 JUMPDEST DUP4 DUP2 LT ISZERO PUSH2 0x3ABD JUMPI DUP2 DUP2 ADD MLOAD DUP4 DUP3 ADD MSTORE PUSH1 0x20 ADD PUSH2 0x3AA5 JUMP JUMPDEST POP POP POP POP SWAP1 POP SWAP1 DUP2 ADD SWAP1 PUSH1 0x1F AND DUP1 ISZERO PUSH2 0x3AEA JUMPI DUP1 DUP3 SUB DUP1 MLOAD PUSH1 0x1 DUP4 PUSH1 0x20 SUB PUSH2 0x100 EXP SUB NOT AND DUP2 MSTORE PUSH1 0x20 ADD SWAP2 POP JUMPDEST POP DUP5 DUP2 SUB DUP4 MSTORE DUP7 MLOAD DUP2 MSTORE DUP7 MLOAD PUSH1 0x20 SWAP2 DUP3 ADD SWAP2 DUP9 ADD SWAP1 DUP1 DUP4 DUP4 PUSH1 0x0 JUMPDEST DUP4 DUP2 LT ISZERO PUSH2 0x3B1D JUMPI DUP2 DUP2 ADD MLOAD DUP4 DUP3 ADD MSTORE PUSH1 0x20 ADD PUSH2 0x3B05 JUMP JUMPDEST POP POP POP POP SWAP1 POP SWAP1 DUP2 ADD SWAP1 PUSH1 0x1F AND DUP1 ISZERO PUSH2 0x3B4A JUMPI DUP1 DUP3 SUB DUP1 MLOAD PUSH1 0x1 DUP4 PUSH1 0x20 SUB PUSH2 0x100 EXP SUB NOT AND DUP2 MSTORE PUSH1 0x20 ADD SWAP2 POP JUMPDEST POP DUP5 DUP2 SUB DUP3 MSTORE DUP6 MLOAD DUP2 MSTORE DUP6 MLOAD PUSH1 0x20 SWAP2 DUP3 ADD SWAP2 DUP1 DUP9 ADD SWAP2 MUL DUP1 DUP4 DUP4 PUSH1 0x0 JUMPDEST DUP4 DUP2 LT ISZERO PUSH2 0x3B7F JUMPI DUP2 DUP2 ADD MLOAD DUP4 DUP3 ADD MSTORE PUSH1 0x20 ADD PUSH2 0x3B67 JUMP JUMPDEST POP POP POP POP SWAP1 POP ADD SWAP7 POP POP POP POP POP POP POP PUSH1 0x40 MLOAD PUSH1 0x20 DUP2 DUP4 SUB SUB DUP2 MSTORE SWAP1 PUSH1 0x40 MSTORE SWAP1 PUSH28 0xFFFFFFFFFFFFFFFFFFFFFFFFFFFFFFFFFFFFFFFFFFFFFFFFFFFFFFFF NOT AND PUSH1 0x20 DUP3 ADD DUP1 MLOAD PUSH28 0xFFFFFFFFFFFFFFFFFFFFFFFFFFFFFFFFFFFFFFFFFFFFFFFFFFFFFFFF DUP4 DUP2 DUP4 AND OR DUP4 MSTORE POP POP POP POP SWAP4 POP PUSH1 0x0 DUP1 DUP6 MLOAD PUSH1 0x20 DUP8 ADD DUP10 GAS DELEGATECALL PUSH1 0x40 MLOAD SWAP4 POP DUP1 DUP1 ISZERO PUSH2 0x3C84 JUMPI PUSH1 0x3F RETURNDATASIZE GT DUP1 ISZERO PUSH2 0x3C22 JUMPI PUSH1 0x20 RETURNDATASIZE SUB DUP1 PUSH1 0x20 DUP9 RETURNDATACOPY DUP7 ADD PUSH1 0x40 MSTORE PUSH2 0x3C7E JUMP JUMPDEST PUSH32 0x8C379A000000000000000000000000000000000000000000000000000000000 DUP7 MSTORE PUSH1 0x20 PUSH1 0x4 DUP8 ADD MSTORE PUSH1 0x1E PUSH1 0x24 DUP8 ADD MSTORE PUSH32 0x45564D52554E5F4558454355544F525F494E56414C49445F52455455524E0000 PUSH1 0x44 DUP8 ADD MSTORE PUSH1 0x64 DUP7 REVERT JUMPDEST POP PUSH2 0x3C8D JUMP JUMPDEST RETURNDATASIZE PUSH1 0x0 DUP7 RETURNDATACOPY RETURNDATASIZE DUP6 REVERT JUMPDEST POP POP DUP6 PUSH20 0xFFFFFFFFFFFFFFFFFFFFFFFFFFFFFFFFFFFFFFFF AND PUSH32 0x5229A5DBA83A54AE8CB5B51BDD6DE9474CACBE9DD332F5185F3A4F4F2E3F4AD9 DUP12 DUP12 DUP7 PUSH1 0x40 MLOAD DUP1 DUP1 PUSH1 0x20 ADD DUP1 PUSH1 0x20 ADD DUP1 PUSH1 0x20 ADD DUP5 DUP2 SUB DUP5 MSTORE DUP8 DUP2 DUP2 MLOAD DUP2 MSTORE PUSH1 0x20 ADD SWAP2 POP DUP1 MLOAD SWAP1 PUSH1 0x20 ADD SWAP1 DUP1 DUP4 DUP4 PUSH1 0x0 JUMPDEST DUP4 DUP2 LT ISZERO PUSH2 0x3D0F JUMPI DUP2 DUP2 ADD MLOAD DUP4 DUP3 ADD MSTORE PUSH1 0x20 ADD PUSH2 0x3CF7 JUMP JUMPDEST POP POP POP POP SWAP1 POP SWAP1 DUP2 ADD SWAP1 PUSH1 0x1F AND DUP1 ISZERO PUSH2 0x3D3C JUMPI DUP1 DUP3 SUB DUP1 MLOAD PUSH1 0x1 DUP4 PUSH1 0x20 SUB PUSH2 0x100 EXP SUB NOT AND DUP2 MSTORE PUSH1 0x20 ADD SWAP2 POP JUMPDEST POP DUP5 DUP2 SUB DUP4 MSTORE DUP7 MLOAD DUP2 MSTORE DUP7 MLOAD PUSH1 0x20 SWAP2 DUP3 ADD SWAP2 DUP9 ADD SWAP1 DUP1 DUP4 DUP4 PUSH1 0x0 JUMPDEST DUP4 DUP2 LT ISZERO PUSH2 0x3D6F JUMPI DUP2 DUP2 ADD MLOAD DUP4 DUP3 ADD MSTORE PUSH1 0x20 ADD PUSH2 0x3D57 JUMP JUMPDEST POP POP POP POP SWAP1 POP SWAP1 DUP2 ADD SWAP1 PUSH1 0x1F AND DUP1 ISZERO PUSH2 0x3D9C JUMPI DUP1 DUP3 SUB DUP1 MLOAD PUSH1 0x1 DUP4 PUSH1 0x20 SUB PUSH2 0x100 EXP SUB NOT AND DUP2 MSTORE PUSH1 0x20 ADD SWAP2 POP JUMPDEST POP DUP5 DUP2 SUB DUP3 MSTORE DUP6 MLOAD DUP2 MSTORE DUP6 MLOAD PUSH1 0x20 SWAP2 DUP3 ADD SWAP2 DUP8 ADD SWAP1 DUP1 DUP4 DUP4 PUSH1 0x0 JUMPDEST DUP4 DUP2 LT ISZERO PUSH2 0x3DCF JUMPI DUP2 DUP2 ADD MLOAD DUP4 DUP3 ADD MSTORE PUSH1 0x20 ADD PUSH2 0x3DB7 JUMP JUMPDEST POP POP POP POP SWAP1 POP SWAP1 DUP2 ADD SWAP1 PUSH1 0x1F AND DUP1 ISZERO PUSH2 0x3DFC JUMPI DUP1 DUP3 SUB DUP1 MLOAD PUSH1 0x1 DUP4 PUSH1 0x20 SUB PUSH2 0x100 EXP SUB NOT AND DUP2 MSTORE PUSH1 0x20 ADD SWAP2 POP JUMPDEST POP SWAP7 POP POP POP POP POP POP POP PUSH1 0x40 MLOAD DUP1 SWAP2 SUB SWAP1 LOG2 DUP3 SWAP7 POP DUP2 PUSH20 0xFFFFFFFFFFFFFFFFFFFFFFFFFFFFFFFFFFFFFFFF AND PUSH2 0x3E2F PUSH2 0x1C4F JUMP JUMPDEST PUSH20 0xFFFFFFFFFFFFFFFFFFFFFFFFFFFFFFFFFFFFFFFF AND EQ PUSH1 0x40 DUP1 MLOAD SWAP1 DUP2 ADD PUSH1 0x40 MSTORE DUP1 PUSH1 0x1F DUP2 MSTORE PUSH1 0x20 ADD PUSH32 0x45564D52554E5F50524F5445435445445F53544154455F4D4F44494649454400 DUP2 MSTORE POP SWAP1 ISZERO ISZERO PUSH2 0x3EE5 JUMPI PUSH1 0x40 MLOAD PUSH32 0x8C379A000000000000000000000000000000000000000000000000000000000 DUP2 MSTORE PUSH1 0x4 ADD DUP1 DUP1 PUSH1 0x20 ADD DUP3 DUP2 SUB DUP3 MSTORE DUP4 DUP2 DUP2 MLOAD DUP2 MSTORE PUSH1 0x20 ADD SWAP2 POP DUP1 MLOAD SWAP1 PUSH1 0x20 ADD SWAP1 DUP1 DUP4 DUP4 PUSH1 0x0 DUP4 DUP2 LT ISZERO PUSH2 0xB9B JUMPI DUP2 DUP2 ADD MLOAD DUP4 DUP3 ADD MSTORE PUSH1 0x20 ADD PUSH2 0xB83 JUMP JUMPDEST POP DUP1 PUSH2 0x3EEF PUSH2 0x143A JUMP JUMPDEST PUSH1 0x40 DUP1 MLOAD DUP1 DUP3 ADD SWAP1 SWAP2 MSTORE PUSH1 0x1F DUP2 MSTORE PUSH32 0x45564D52554E5F50524F5445435445445F53544154455F4D4F44494649454400 PUSH1 0x20 DUP3 ADD MSTORE SWAP2 EQ PUSH2 0x3F8B JUMPI PUSH1 0x40 MLOAD PUSH32 0x8C379A000000000000000000000000000000000000000000000000000000000 DUP2 MSTORE PUSH1 0x4 ADD DUP1 DUP1 PUSH1 0x20 ADD DUP3 DUP2 SUB DUP3 MSTORE DUP4 DUP2 DUP2 MLOAD DUP2 MSTORE PUSH1 0x20 ADD SWAP2 POP DUP1 MLOAD SWAP1 PUSH1 0x20 ADD SWAP1 DUP1 DUP4 DUP4 PUSH1 0x0 DUP4 DUP2 LT ISZERO PUSH2 0xB9B JUMPI DUP2 DUP2 ADD MLOAD DUP4 DUP3 ADD MSTORE PUSH1 0x20 ADD PUSH2 0xB83 JUMP JUMPDEST POP POP POP POP POP POP POP SWAP4 SWAP3 POP POP POP JUMP JUMPDEST DUP3 DUP1 SLOAD PUSH1 0x1 DUP2 PUSH1 0x1 AND ISZERO PUSH2 0x100 MUL SUB AND PUSH1 0x2 SWAP1 DIV SWAP1 PUSH1 0x0 MSTORE PUSH1 0x20 PUSH1 0x0 KECCAK256 SWAP1 PUSH1 0x1F ADD PUSH1 0x20 SWAP1 DIV DUP2 ADD SWAP3 DUP3 PUSH1 0x1F LT PUSH2 0x3FDA JUMPI DUP1 MLOAD PUSH1 0xFF NOT AND DUP4 DUP1 ADD OR DUP6 SSTORE PUSH2 0x4007 JUMP JUMPDEST DUP3 DUP1 ADD PUSH1 0x1 ADD DUP6 SSTORE DUP3 ISZERO PUSH2 0x4007 JUMPI SWAP2 DUP3 ADD JUMPDEST DUP3 DUP2 GT ISZERO PUSH2 0x4007 JUMPI DUP3 MLOAD DUP3 SSTORE SWAP2 PUSH1 0x20 ADD SWAP2 SWAP1 PUSH1 0x1 ADD SWAP1 PUSH2 0x3FEC JUMP JUMPDEST POP PUSH2 0x911 SWAP3 PUSH2 0xABD SWAP3 POP SWAP1 JUMPDEST DUP1 DUP3 GT ISZERO PUSH2 0x911 JUMPI PUSH1 0x0 DUP2 SSTORE PUSH1 0x1 ADD PUSH2 0x4013 JUMP STOP LOG1 PUSH6 0x627A7A723058 KECCAK256 CALLDATALOAD 0xc6 0x5d 0xec SLT 0xd1 SUB 0xce 0xde NOT PUSH24 0x12B9D125A3D29DA65848578B0C59BBE2653BE83E050029EB 0xb0 JUMPDEST CODESIZE PUSH11 0x8D34882B8711D156F46369 MULMOD DUP4 0xdc 0x47 DUP2 MSIZE DUP1 CREATE2 DUP3 0xae 0xef CALL 0xaa NUMBER JUMPI SWAP15 "
		},
		"gasEstimates": {
			"creation": {
				"codeDepositCost": "3293400",
				"executionCost": "infinite",
				"totalCost": "infinite"
			},
			"external": {
				"CREATE_VOTES_ROLE()": "636",
				"MODIFY_QUORUM_ROLE()": "328",
				"MODIFY_SUPPORT_ROLE()": "416",
				"PCT_BASE()": "919",
				"VOTE()": "592",
				"allowRecoverability(address)": "402",
				"appId()": "639",
				"canExecute(uint256)": "infinite",
				"canForward(address,bytes)": "infinite",
				"canPerform(address,bytes32,uint256[])": "infinite",
				"canVote(uint256,address)": "infinite",
				"changeMinAcceptQuorumPct(uint64)": "infinite",
				"changeSupportRequiredPct(uint64)": "infinite",
				"executeVote(uint256)": "infinite",
				"forward(bytes)": "infinite",
				"getEVMScriptExecutor(bytes)": "infinite",
				"getEVMScriptRegistry()": "infinite",
				"getInitializationBlock()": "661",
				"getRecoveryVault()": "infinite",
				"getVote(uint256)": "infinite",
				"getVoterState(uint256,address)": "infinite",
				"hasInitialized()": "540",
				"initialize(address,uint64,uint64,uint64)": "infinite",
				"isForwarder()": "938",
				"isPetrified()": "1016",
				"kernel()": "890",
				"minAcceptQuorumPct()": "927",
				"newVote(bytes,string)": "infinite",
				"newVote(bytes,string,bool,bool)": "infinite",
				"supportRequiredPct()": "1092",
				"token()": "1103",
				"transferToVault(address)": "infinite",
				"vote(uint256,bool,bool)": "infinite",
				"voteTime()": "762",
				"votesLength()": "956"
			},
			"internal": {
				"_canExecute(uint256)": "infinite",
				"_canVote(uint256,address)": "infinite",
				"_executeVote(uint256)": "infinite",
				"_isValuePct(uint256,uint256,uint256)": "infinite",
				"_isVoteOpen(struct Voting.Vote storage pointer)": "infinite",
				"_newVote(bytes memory,string memory,bool,bool)": "infinite",
				"_unsafeExecuteVote(uint256)": "infinite",
				"_vote(uint256,bool,address,bool)": "infinite"
			}
		},
		"methodIdentifiers": {
			"CREATE_VOTES_ROLE()": "be2c64d4",
			"MODIFY_QUORUM_ROLE()": "3c624c75",
			"MODIFY_SUPPORT_ROLE()": "62de7e5a",
			"PCT_BASE()": "fc157cb4",
			"VOTE()": "aa449396",
			"allowRecoverability(address)": "7e7db6e1",
			"appId()": "80afdea8",
			"canExecute(uint256)": "cc63604a",
			"canForward(address,bytes)": "c0774df3",
			"canPerform(address,bytes32,uint256[])": "a1658fad",
			"canVote(uint256,address)": "cdb2867b",
			"changeMinAcceptQuorumPct(uint64)": "5eb24332",
			"changeSupportRequiredPct(uint64)": "7c1d0b87",
			"executeVote(uint256)": "f98a4eca",
			"forward(bytes)": "d948d468",
			"getEVMScriptExecutor(bytes)": "2914b9bd",
			"getEVMScriptRegistry()": "a479e508",
			"getInitializationBlock()": "8b3dd749",
			"getRecoveryVault()": "32f0a3b5",
			"getVote(uint256)": "5a55c1f0",
			"getVoterState(uint256,address)": "4b12311c",
			"hasInitialized()": "0803fac0",
			"initialize(address,uint64,uint64,uint64)": "df3d3305",
			"isForwarder()": "fd64eccb",
			"isPetrified()": "de4796ed",
			"kernel()": "d4aae0c4",
			"minAcceptQuorumPct()": "dc474b1a",
			"newVote(bytes,string)": "d5db2c80",
			"newVote(bytes,string,bool,bool)": "f4b00513",
			"supportRequiredPct()": "fad167ab",
			"token()": "fc0c546a",
			"transferToVault(address)": "9d4941d8",
			"vote(uint256,bool,bool)": "df133bca",
			"voteTime()": "bcf93dd6",
			"votesLength()": "de4f6347"
		}
	},
	"abi": [
		{
			"constant": true,
			"inputs": [],
			"name": "hasInitialized",
			"outputs": [
				{
					"name": "",
					"type": "bool"
				}
			],
			"payable": false,
			"stateMutability": "view",
			"type": "function"
		},
		{
			"constant": true,
			"inputs": [
				{
					"name": "_script",
					"type": "bytes"
				}
			],
			"name": "getEVMScriptExecutor",
			"outputs": [
				{
					"name": "",
					"type": "address"
				}
			],
			"payable": false,
			"stateMutability": "view",
			"type": "function"
		},
		{
			"constant": true,
			"inputs": [],
			"name": "getRecoveryVault",
			"outputs": [
				{
					"name": "",
					"type": "address"
				}
			],
			"payable": false,
			"stateMutability": "view",
			"type": "function"
		},
		{
			"constant": true,
			"inputs": [],
			"name": "MODIFY_QUORUM_ROLE",
			"outputs": [
				{
					"name": "",
					"type": "bytes32"
				}
			],
			"payable": false,
			"stateMutability": "view",
			"type": "function"
		},
		{
			"constant": true,
			"inputs": [
				{
					"name": "_voteId",
					"type": "uint256"
				},
				{
					"name": "_voter",
					"type": "address"
				}
			],
			"name": "getVoterState",
			"outputs": [
				{
					"name": "",
					"type": "uint8"
				}
			],
			"payable": false,
			"stateMutability": "view",
			"type": "function"
		},
		{
			"constant": true,
			"inputs": [
				{
					"name": "_voteId",
					"type": "uint256"
				}
			],
			"name": "getVote",
			"outputs": [
				{
					"name": "open",
					"type": "bool"
				},
				{
					"name": "executed",
					"type": "bool"
				},
				{
					"name": "startDate",
					"type": "uint64"
				},
				{
					"name": "snapshotBlock",
					"type": "uint64"
				},
				{
					"name": "supportRequired",
					"type": "uint64"
				},
				{
					"name": "minAcceptQuorum",
					"type": "uint64"
				},
				{
					"name": "yea",
					"type": "uint256"
				},
				{
					"name": "nay",
					"type": "uint256"
				},
				{
					"name": "votingPower",
					"type": "uint256"
				},
				{
					"name": "metadata",
					"type": "string"
				},
				{
					"name": "script",
					"type": "bytes"
				}
			],
			"payable": false,
			"stateMutability": "view",
			"type": "function"
		},
		{
			"constant": false,
			"inputs": [
				{
					"name": "_minAcceptQuorumPct",
					"type": "uint64"
				}
			],
			"name": "changeMinAcceptQuorumPct",
			"outputs": [],
			"payable": false,
			"stateMutability": "nonpayable",
			"type": "function"
		},
		{
			"constant": true,
			"inputs": [],
			"name": "MODIFY_SUPPORT_ROLE",
			"outputs": [
				{
					"name": "",
					"type": "bytes32"
				}
			],
			"payable": false,
			"stateMutability": "view",
			"type": "function"
		},
		{
			"constant": false,
			"inputs": [
				{
					"name": "_supportRequiredPct",
					"type": "uint64"
				}
			],
			"name": "changeSupportRequiredPct",
			"outputs": [],
			"payable": false,
			"stateMutability": "nonpayable",
			"type": "function"
		},
		{
			"constant": true,
			"inputs": [
				{
					"name": "token",
					"type": "address"
				}
			],
			"name": "allowRecoverability",
			"outputs": [
				{
					"name": "",
					"type": "bool"
				}
			],
			"payable": false,
			"stateMutability": "view",
			"type": "function"
		},
		{
			"constant": true,
			"inputs": [],
			"name": "appId",
			"outputs": [
				{
					"name": "",
					"type": "bytes32"
				}
			],
			"payable": false,
			"stateMutability": "view",
			"type": "function"
		},
		{
			"constant": true,
			"inputs": [],
			"name": "getInitializationBlock",
			"outputs": [
				{
					"name": "",
					"type": "uint256"
				}
			],
			"payable": false,
			"stateMutability": "view",
			"type": "function"
		},
		{
			"constant": false,
			"inputs": [
				{
					"name": "_token",
					"type": "address"
				}
			],
			"name": "transferToVault",
			"outputs": [],
			"payable": false,
			"stateMutability": "nonpayable",
			"type": "function"
		},
		{
			"constant": true,
			"inputs": [
				{
					"name": "_sender",
					"type": "address"
				},
				{
					"name": "_role",
					"type": "bytes32"
				},
				{
					"name": "_params",
					"type": "uint256[]"
				}
			],
			"name": "canPerform",
			"outputs": [
				{
					"name": "",
					"type": "bool"
				}
			],
			"payable": false,
			"stateMutability": "view",
			"type": "function"
		},
		{
			"constant": true,
			"inputs": [],
			"name": "getEVMScriptRegistry",
			"outputs": [
				{
					"name": "",
					"type": "address"
				}
			],
			"payable": false,
			"stateMutability": "view",
			"type": "function"
		},
		{
			"constant": true,
			"inputs": [],
			"name": "VOTE",
			"outputs": [
				{
					"name": "",
					"type": "bytes32"
				}
			],
			"payable": false,
			"stateMutability": "view",
			"type": "function"
		},
		{
			"constant": true,
			"inputs": [],
			"name": "voteTime",
			"outputs": [
				{
					"name": "",
					"type": "uint64"
				}
			],
			"payable": false,
			"stateMutability": "view",
			"type": "function"
		},
		{
			"constant": true,
			"inputs": [],
			"name": "CREATE_VOTES_ROLE",
			"outputs": [
				{
					"name": "",
					"type": "bytes32"
				}
			],
			"payable": false,
			"stateMutability": "view",
			"type": "function"
		},
		{
			"constant": true,
			"inputs": [
				{
					"name": "_sender",
					"type": "address"
				},
				{
					"name": "",
					"type": "bytes"
				}
			],
			"name": "canForward",
			"outputs": [
				{
					"name": "",
					"type": "bool"
				}
			],
			"payable": false,
			"stateMutability": "view",
			"type": "function"
		},
		{
			"constant": true,
			"inputs": [
				{
					"name": "_voteId",
					"type": "uint256"
				}
			],
			"name": "canExecute",
			"outputs": [
				{
					"name": "",
					"type": "bool"
				}
			],
			"payable": false,
			"stateMutability": "view",
			"type": "function"
		},
		{
			"constant": true,
			"inputs": [
				{
					"name": "_voteId",
					"type": "uint256"
				},
				{
					"name": "_voter",
					"type": "address"
				}
			],
			"name": "canVote",
			"outputs": [
				{
					"name": "",
					"type": "bool"
				}
			],
			"payable": false,
			"stateMutability": "view",
			"type": "function"
		},
		{
			"constant": true,
			"inputs": [],
			"name": "kernel",
			"outputs": [
				{
					"name": "",
					"type": "address"
				}
			],
			"payable": false,
			"stateMutability": "view",
			"type": "function"
		},
		{
			"constant": false,
			"inputs": [
				{
					"name": "_executionScript",
					"type": "bytes"
				},
				{
					"name": "_metadata",
					"type": "string"
				}
			],
			"name": "newVote",
			"outputs": [
				{
					"name": "voteId",
					"type": "uint256"
				}
			],
			"payable": false,
			"stateMutability": "nonpayable",
			"type": "function"
		},
		{
			"constant": false,
			"inputs": [
				{
					"name": "_evmScript",
					"type": "bytes"
				}
			],
			"name": "forward",
			"outputs": [],
			"payable": false,
			"stateMutability": "nonpayable",
			"type": "function"
		},
		{
			"constant": true,
			"inputs": [],
			"name": "minAcceptQuorumPct",
			"outputs": [
				{
					"name": "",
					"type": "uint64"
				}
			],
			"payable": false,
			"stateMutability": "view",
			"type": "function"
		},
		{
			"constant": true,
			"inputs": [],
			"name": "isPetrified",
			"outputs": [
				{
					"name": "",
					"type": "bool"
				}
			],
			"payable": false,
			"stateMutability": "view",
			"type": "function"
		},
		{
			"constant": true,
			"inputs": [],
			"name": "votesLength",
			"outputs": [
				{
					"name": "",
					"type": "uint256"
				}
			],
			"payable": false,
			"stateMutability": "view",
			"type": "function"
		},
		{
			"constant": false,
			"inputs": [
				{
					"name": "_voteId",
					"type": "uint256"
				},
				{
					"name": "_supports",
					"type": "bool"
				},
				{
					"name": "_executesIfDecided",
					"type": "bool"
				}
			],
			"name": "vote",
			"outputs": [],
			"payable": false,
			"stateMutability": "nonpayable",
			"type": "function"
		},
		{
			"constant": false,
			"inputs": [
				{
					"name": "_token",
					"type": "address"
				},
				{
					"name": "_supportRequiredPct",
					"type": "uint64"
				},
				{
					"name": "_minAcceptQuorumPct",
					"type": "uint64"
				},
				{
					"name": "_voteTime",
					"type": "uint64"
				}
			],
			"name": "initialize",
			"outputs": [],
			"payable": false,
			"stateMutability": "nonpayable",
			"type": "function"
		},
		{
			"constant": false,
			"inputs": [
				{
					"name": "_executionScript",
					"type": "bytes"
				},
				{
					"name": "_metadata",
					"type": "string"
				},
				{
					"name": "_castVote",
					"type": "bool"
				},
				{
					"name": "_executesIfDecided",
					"type": "bool"
				}
			],
			"name": "newVote",
			"outputs": [
				{
					"name": "voteId",
					"type": "uint256"
				}
			],
			"payable": false,
			"stateMutability": "nonpayable",
			"type": "function"
		},
		{
			"constant": false,
			"inputs": [
				{
					"name": "_voteId",
					"type": "uint256"
				}
			],
			"name": "executeVote",
			"outputs": [],
			"payable": false,
			"stateMutability": "nonpayable",
			"type": "function"
		},
		{
			"constant": true,
			"inputs": [],
			"name": "supportRequiredPct",
			"outputs": [
				{
					"name": "",
					"type": "uint64"
				}
			],
			"payable": false,
			"stateMutability": "view",
			"type": "function"
		},
		{
			"constant": true,
			"inputs": [],
			"name": "token",
			"outputs": [
				{
					"name": "",
					"type": "address"
				}
			],
			"payable": false,
			"stateMutability": "view",
			"type": "function"
		},
		{
			"constant": true,
			"inputs": [],
			"name": "PCT_BASE",
			"outputs": [
				{
					"name": "",
					"type": "uint64"
				}
			],
			"payable": false,
			"stateMutability": "view",
			"type": "function"
		},
		{
			"constant": true,
			"inputs": [],
			"name": "isForwarder",
			"outputs": [
				{
					"name": "",
					"type": "bool"
				}
			],
			"payable": false,
			"stateMutability": "view",
			"type": "function"
		},
		{
			"anonymous": false,
			"inputs": [
				{
					"indexed": true,
					"name": "voteId",
					"type": "uint256"
				},
				{
					"indexed": true,
					"name": "creator",
					"type": "address"
				},
				{
					"indexed": false,
					"name": "metadata",
					"type": "string"
				}
			],
			"name": "StartVote",
			"type": "event"
		},
		{
			"anonymous": false,
			"inputs": [
				{
					"indexed": true,
					"name": "voteId",
					"type": "uint256"
				},
				{
					"indexed": true,
					"name": "voter",
					"type": "address"
				},
				{
					"indexed": false,
					"name": "supports",
					"type": "bool"
				},
				{
					"indexed": false,
					"name": "stake",
					"type": "uint256"
				}
			],
			"name": "CastVote",
			"type": "event"
		},
		{
			"anonymous": false,
			"inputs": [
				{
					"indexed": true,
					"name": "voteId",
					"type": "uint256"
				}
			],
			"name": "ExecuteVote",
			"type": "event"
		},
		{
			"anonymous": false,
			"inputs": [
				{
					"indexed": false,
					"name": "supportRequiredPct",
					"type": "uint64"
				}
			],
			"name": "ChangeSupportRequired",
			"type": "event"
		},
		{
			"anonymous": false,
			"inputs": [
				{
					"indexed": false,
					"name": "minAcceptQuorumPct",
					"type": "uint64"
				}
			],
			"name": "ChangeMinQuorum",
			"type": "event"
		},
		{
			"anonymous": false,
			"inputs": [
				{
					"indexed": true,
					"name": "executor",
					"type": "address"
				},
				{
					"indexed": false,
					"name": "script",
					"type": "bytes"
				},
				{
					"indexed": false,
					"name": "input",
					"type": "bytes"
				},
				{
					"indexed": false,
					"name": "returnData",
					"type": "bytes"
				}
			],
			"name": "ScriptResult",
			"type": "event"
		},
		{
			"anonymous": false,
			"inputs": [
				{
					"indexed": true,
					"name": "vault",
					"type": "address"
				},
				{
					"indexed": true,
					"name": "token",
					"type": "address"
				},
				{
					"indexed": false,
					"name": "amount",
					"type": "uint256"
				}
			],
			"name": "RecoverToVault",
			"type": "event"
		}
	]
}