{
	"data": {
		"bytecode": {
			"linkReferences": {},
			"object": "60806040523480156200001157600080fd5b506040516020806200318f833981016040525180156200003e576200003e64010000000062000045810204565b5062000263565b620000586401000000006200014d810204565b60408051808201909152601881527f494e49545f414c52454144595f494e495449414c495a454400000000000000006020820152901562000134576040517f08c379a00000000000000000000000000000000000000000000000000000000081526004018080602001828103825283818151815260200191508051906020019080838360005b83811015620000f8578181015183820152602001620000de565b50505050905090810190601f168015620001265780820380516001836020036101000a031916815260200191505b509250505060405180910390fd5b506200014b6000196401000000006200017c810204565b565b6000620001776000805160206200316f83398151915264010000000062001dcf6200025b82021704565b905090565b6200018f6401000000006200014d810204565b60408051808201909152601881527f494e49545f414c52454144595f494e495449414c495a45440000000000000000602082015290156200022e576040517f08c379a000000000000000000000000000000000000000000000000000000000815260040180806020018281038252838181518152602001915080519060200190808383600083811015620000f8578181015183820152602001620000de565b50620002586000805160206200316f833981519152826401000000006200203b6200025f82021704565b50565b5490565b9055565b612efc80620002736000396000f300608060405260043610620001865763ffffffff7c01000000000000000000000000000000000000000000000000000000006000350416630803fac081146200018b5780631113ed0d14620001b7578063178e607914620001e157806332f0a3b514620001f9578063397edd41146200023a5780634558850c14620002b7578063485cc95514620002d5578063756f6049146200030e5780637e7db6e1146200032657806380cd5ac3146200035757806386070cfe146200038b5780638b3dd74914620003a35780638c61757d14620003bb5780638ea8dc9d14620003d6578063958fde8214620003ee5780639d4941d81462000422578063ae5b25401462000453578063be00bbd8146200048a578063c050a7a614620004a8578063d162f8b01462000525578063db8a61d4146200059e578063de28735914620005b6578063de4796ed14620005ce578063e156a8f314620005e6578063e8187ff0146200061a578063ede658b01462000632578063fdef910614620006ab578063ff289fc5146200072a575b600080fd5b3480156200019857600080fd5b50620001a36200075e565b604080519115158252519081900360200190f35b348015620001c457600080fd5b50620001cf6200078c565b60408051918252519081900360200190f35b348015620001ee57600080fd5b50620001cf620007b0565b3480156200020657600080fd5b5062000211620007d4565b6040805173ffffffffffffffffffffffffffffffffffffffff9092168252519081900360200190f35b3480156200024757600080fd5b50604080516020600460443581810135601f810184900484028501840190955284845262000211948235946024803573ffffffffffffffffffffffffffffffffffffffff16953695946064949201919081908401838280828437509497505050509135151592506200081e915050565b348015620002c457600080fd5b5062000211600435602435620009dd565b348015620002e257600080fd5b506200030c73ffffffffffffffffffffffffffffffffffffffff6004358116906024351662000a0d565b005b3480156200031b57600080fd5b50620001cf62000c6c565b3480156200033357600080fd5b50620001a373ffffffffffffffffffffffffffffffffffffffff6004351662000c90565b3480156200036457600080fd5b506200021160043573ffffffffffffffffffffffffffffffffffffffff6024351662000c96565b3480156200039857600080fd5b50620001cf62000dc0565b348015620003b057600080fd5b50620001cf62000dc6565b348015620003c857600080fd5b506200030c60043562000df8565b348015620003e357600080fd5b50620001cf62000eff565b348015620003fb57600080fd5b506200021160043573ffffffffffffffffffffffffffffffffffffffff6024351662000f23565b3480156200042f57600080fd5b506200030c73ffffffffffffffffffffffffffffffffffffffff6004351662001044565b3480156200046057600080fd5b506200030c60043560243573ffffffffffffffffffffffffffffffffffffffff604435166200137c565b3480156200049757600080fd5b506200021160043560243562001470565b348015620004b557600080fd5b50604080516020600460443581810135601f810184900484028501840190955284845262000211948235946024803573ffffffffffffffffffffffffffffffffffffffff1695369594606494920191908190840183828082843750949750505050913515159250620014a1915050565b3480156200053257600080fd5b50604080516020600460443581810135601f81018490048402850184019095528484526200021194823573ffffffffffffffffffffffffffffffffffffffff16946024803595369594606494920191908190840183828082843750949750620015d89650505050505050565b348015620005ab57600080fd5b50620001cf620016fd565b348015620005c357600080fd5b506200021162001721565b348015620005db57600080fd5b50620001a36200176f565b348015620005f357600080fd5b506200021173ffffffffffffffffffffffffffffffffffffffff60043516602435620017a2565b3480156200062757600080fd5b50620001cf620017c8565b3480156200063f57600080fd5b50604080516020600460443581810135601f81018490048402850184019095528484526200021194823573ffffffffffffffffffffffffffffffffffffffff16946024803595369594606494920191908190840183828082843750949750620017ec9650505050505050565b348015620006b857600080fd5b50604080516020601f606435600481810135928301849004840285018401909552818452620001a39473ffffffffffffffffffffffffffffffffffffffff8135811695602480359092169560443595369560849401918190840183828082843750949750620019119650505050505050565b3480156200073757600080fd5b506200021173ffffffffffffffffffffffffffffffffffffffff6004351660243562001a6e565b6000806200076b62000dc6565b90508015801590620007865750806200078362001a8d565b10155b91505090565b7f3b4bf6bf3ad5000ecf0f989d5befde585c6860fea3e574a4fab4c49d1c177d9c90565b7fd6f028ca0e8edb4a8c9757ca4fdccab25fa1e0317da1188108f7d2dee14902fb90565b60015460009081527f9e3eae70920eeef6013879bf9155b985893698c145361c31365929723678b257602052604090205473ffffffffffffffffffffffffffffffffffffffff1690565b60007fb6d92708f3d4817afc106147d969e229ced5c46e65e0a5002a0d391287762bd06200086d7ff1f3eb40f5bc1ad1344716ced8b8a0431d840b5783aea1fd01786bc26f35ac0f8762001a91565b620008853330846200087f8562001a9f565b62001911565b60408051808201909152601281527f4b45524e454c5f415554485f4641494c45440000000000000000000000000000602082015290151562000962576040517f08c379a00000000000000000000000000000000000000000000000000000000081526004018080602001828103825283818151815260200191508051906020019080838360005b83811015620009265781810151838201526020016200090c565b50505050905090810190601f168015620009545780820380516001836020036101000a031916815260200191505b509250505060405180910390fd5b50620009907ff1f3eb40f5bc1ad1344716ced8b8a0431d840b5783aea1fd01786bc26f35ac0f888862001aa9565b6200099d308887620017ec565b92508315620009d357620009d37fd6f028ca0e8edb4a8c9757ca4fdccab25fa1e0317da1188108f7d2dee14902fb88856200137c565b5050949350505050565b600060208181529281526040808220909352908152205473ffffffffffffffffffffffffffffffffffffffff1681565b600062000a1962000dc6565b60408051808201909152601881527f494e49545f414c52454144595f494e495449414c495a454400000000000000006020820152901562000ab8576040517f08c379a000000000000000000000000000000000000000000000000000000000815260040180806020018281038252838181518152602001915080519060200190808383600083811015620009265781810151838201526020016200090c565b5062000ac362001ba9565b62000b107ff1f3eb40f5bc1ad1344716ced8b8a0431d840b5783aea1fd01786bc26f35ac0f7fe3262375f45a6e2026b7e7b18c2b807434f2508fe1a2a3dfb493c7df8f4aad6a8562001c91565b62000b3c307fe3262375f45a6e2026b7e7b18c2b807434f2508fe1a2a3dfb493c7df8f4aad6a620017a2565b90508073ffffffffffffffffffffffffffffffffffffffff1663c4d66de8836040518263ffffffff167c0100000000000000000000000000000000000000000000000000000000028152600401808273ffffffffffffffffffffffffffffffffffffffff1673ffffffffffffffffffffffffffffffffffffffff168152602001915050600060405180830381600087803b15801562000bda57600080fd5b505af115801562000bef573d6000803e3d6000fd5b5062000c4392507fd6f028ca0e8edb4a8c9757ca4fdccab25fa1e0317da1188108f7d2dee14902fb91507fe3262375f45a6e2026b7e7b18c2b807434f2508fe1a2a3dfb493c7df8f4aad6a90508362001c91565b50507f7e852e0fcfce6551c13800f1e7476f982525c2b5277ba14b24339c68416336d160015550565b7fc681a85306374a5ab27f0bbc385296a54bcd314a1948b6cf61c4ea1bc44bb9f890565b50600190565b60007fb6d92708f3d4817afc106147d969e229ced5c46e65e0a5002a0d391287762bd062000ce57ff1f3eb40f5bc1ad1344716ced8b8a0431d840b5783aea1fd01786bc26f35ac0f8562001a91565b62000cf73330846200087f8562001a9f565b60408051808201909152601281527f4b45524e454c5f415554485f4641494c45440000000000000000000000000000602082015290151562000d97576040517f08c379a000000000000000000000000000000000000000000000000000000000815260040180806020018281038252838181518152602001915080519060200190808383600083811015620009265781810151838201526020016200090c565b506040805160008082526020820190925262000db791879187916200081e565b95945050505050565b60015481565b600062000df37febb05b386a8d34882b8711d156f463690983dc47815980fb82aeeff1aa43579e62001dcf565b905090565b7fb6d92708f3d4817afc106147d969e229ced5c46e65e0a5002a0d391287762bd062000e457fd6f028ca0e8edb4a8c9757ca4fdccab25fa1e0317da1188108f7d2dee14902fb8362001a91565b62000e573330846200087f8562001a9f565b60408051808201909152601281527f4b45524e454c5f415554485f4641494c45440000000000000000000000000000602082015290151562000ef7576040517f08c379a000000000000000000000000000000000000000000000000000000000815260040180806020018281038252838181518152602001915080519060200190808383600083811015620009265781810151838201526020016200090c565b505050600155565b7fb6d92708f3d4817afc106147d969e229ced5c46e65e0a5002a0d391287762bd081565b60007fb6d92708f3d4817afc106147d969e229ced5c46e65e0a5002a0d391287762bd062000f727ff1f3eb40f5bc1ad1344716ced8b8a0431d840b5783aea1fd01786bc26f35ac0f8562001a91565b62000f843330846200087f8562001a9f565b60408051808201909152601281527f4b45524e454c5f415554485f4641494c45440000000000000000000000000000602082015290151562001024576040517f08c379a000000000000000000000000000000000000000000000000000000000815260040180806020018281038252838181518152602001915080519060200190808383600083811015620009265781810151838201526020016200090c565b506040805160008082526020820190925262000db79187918791620014a1565b6000806000620010548462000c90565b60408051808201909152601281527f5245434f5645525f444953414c4c4f57454400000000000000000000000000006020820152901515620010f4576040517f08c379a000000000000000000000000000000000000000000000000000000000815260040180806020018281038252838181518152602001915080519060200190808383600083811015620009265781810151838201526020016200090c565b50620010ff620007d4565b92506200110c8362001dd3565b60408051808201909152601a81527f5245434f5645525f5641554c545f4e4f545f434f4e54524143540000000000006020820152901515620011ac576040517f08c379a000000000000000000000000000000000000000000000000000000000815260040180806020018281038252838181518152602001915080519060200190808383600083811015620009265781810151838201526020016200090c565b5073ffffffffffffffffffffffffffffffffffffffff841615156200121a576040513031925073ffffffffffffffffffffffffffffffffffffffff84169083156108fc029084906000818181858888f1935050505015801562001213573d6000803e3d6000fd5b5062001311565b50826200124473ffffffffffffffffffffffffffffffffffffffff82163063ffffffff62001e0f16565b91506200126f73ffffffffffffffffffffffffffffffffffffffff8216848463ffffffff62001f4d16565b60408051808201909152601d81527f5245434f5645525f544f4b454e5f5452414e534645525f4641494c454400000060208201529015156200130f576040517f08c379a000000000000000000000000000000000000000000000000000000000815260040180806020018281038252838181518152602001915080519060200190808383600083811015620009265781810151838201526020016200090c565b505b8373ffffffffffffffffffffffffffffffffffffffff168373ffffffffffffffffffffffffffffffffffffffff167f596caf56044b55fb8c4ca640089bbc2b63cae3e978b851f5745cbb7c5b288e02846040518082815260200191505060405180910390a350505050565b7fb6d92708f3d4817afc106147d969e229ced5c46e65e0a5002a0d391287762bd0620013a9848462001a91565b620013bb3330846200087f8562001a9f565b60408051808201909152601281527f4b45524e454c5f415554485f4641494c4544000000000000000000000000000060208201529015156200145b576040517f08c379a000000000000000000000000000000000000000000000000000000000815260040180806020018281038252838181518152602001915080519060200190808383600083811015620009265781810151838201526020016200090c565b506200146985858562001c91565b5050505050565b60009182526020828152604080842092845291905290205473ffffffffffffffffffffffffffffffffffffffff1690565b60007fb6d92708f3d4817afc106147d969e229ced5c46e65e0a5002a0d391287762bd0620014f07ff1f3eb40f5bc1ad1344716ced8b8a0431d840b5783aea1fd01786bc26f35ac0f8762001a91565b620015023330846200087f8562001a9f565b60408051808201909152601281527f4b45524e454c5f415554485f4641494c454400000000000000000000000000006020820152901515620015a2576040517f08c379a000000000000000000000000000000000000000000000000000000000815260040180806020018281038252838181518152602001915080519060200190808383600083811015620009265781810151838201526020016200090c565b50620015d07ff1f3eb40f5bc1ad1344716ced8b8a0431d840b5783aea1fd01786bc26f35ac0f888862001aa9565b6200099d3088875b600080848484620015e8620020c4565b73ffffffffffffffffffffffffffffffffffffffff8416815260208082018490526060604083018181528451918401919091528351909160808401919085019080838360005b83811015620016485781810151838201526020016200162e565b50505050905090810190601f168015620016765780820380516001836020036101000a031916815260200191505b50945050505050604051809103906000f0801580156200169a573d6000803e3d6000fd5b506040805173ffffffffffffffffffffffffffffffffffffffff831681526000602082015280820187905290519192507fd880e726dced8808d727f02dd0e6fdd3a945b24bfee77e13367bcbe61ddbaf47919081900360600190a1949350505050565b7ff1f3eb40f5bc1ad1344716ced8b8a0431d840b5783aea1fd01786bc26f35ac0f90565b600062000df37fd6f028ca0e8edb4a8c9757ca4fdccab25fa1e0317da1188108f7d2dee14902fb7fe3262375f45a6e2026b7e7b18c2b807434f2508fe1a2a3dfb493c7df8f4aad6a62001470565b60007fffffffffffffffffffffffffffffffffffffffffffffffffffffffffffffffff6200179c62000dc6565b14905090565b60408051600080825260208201909252620017c19084908490620017ec565b9392505050565b7fe3262375f45a6e2026b7e7b18c2b807434f2508fe1a2a3dfb493c7df8f4aad6a90565b600080848484620017fc620020d5565b73ffffffffffffffffffffffffffffffffffffffff8416815260208082018490526060604083018181528451918401919091528351909160808401919085019080838360005b838110156200185c57818101518382015260200162001842565b50505050905090810190601f1680156200188a5780820380516001836020036101000a031916815260200191505b50945050505050604051809103906000f080158015620018ae573d6000803e3d6000fd5b506040805173ffffffffffffffffffffffffffffffffffffffff831681526001602082015280820187905290519192507fd880e726dced8808d727f02dd0e6fdd3a945b24bfee77e13367bcbe61ddbaf47919081900360600190a1949350505050565b6000806200191e62001721565b905073ffffffffffffffffffffffffffffffffffffffff81161580159062001a6457506040517ffdef910600000000000000000000000000000000000000000000000000000000815273ffffffffffffffffffffffffffffffffffffffff878116600483019081528782166024840152604483018790526080606484019081528651608485015286519285169363fdef9106938b938b938b938b9360a490910190602085019080838360005b83811015620019e4578181015183820152602001620019ca565b50505050905090810190601f16801562001a125780820380516001836020036101000a031916815260200191505b5095505050505050602060405180830381600087803b15801562001a3557600080fd5b505af115801562001a4a573d6000803e3d6000fd5b505050506040513d602081101562001a6157600080fd5b50515b9695505050505050565b60408051600080825260208201909252620017c19084908490620015d8565b4390565b6060620017c1838362001fde565b8051602002815290565b600062001ab7848462001470565b905073ffffffffffffffffffffffffffffffffffffffff81161562001b965760408051808201909152601981527f4b45524e454c5f494e56414c49445f4150505f4348414e474500000000000000602082015273ffffffffffffffffffffffffffffffffffffffff8281169084161462001b8f576040517f08c379a000000000000000000000000000000000000000000000000000000000815260040180806020018281038252838181518152602001915080519060200190808383600083811015620009265781810151838201526020016200090c565b5062001ba3565b62001ba384848462001c91565b50505050565b62001bb362000dc6565b60408051808201909152601881527f494e49545f414c52454144595f494e495449414c495a454400000000000000006020820152901562001c52576040517f08c379a000000000000000000000000000000000000000000000000000000000815260040180806020018281038252838181518152602001915080519060200190808383600083811015620009265781810151838201526020016200090c565b5062001c8f62001c6162001a8d565b7febb05b386a8d34882b8711d156f463690983dc47815980fb82aeeff1aa43579e9063ffffffff6200203b16565b565b62001c9c8162001dd3565b60408051808201909152601781527f4b45524e454c5f4150505f4e4f545f434f4e5452414354000000000000000000602082015290151562001d3c576040517f08c379a000000000000000000000000000000000000000000000000000000000815260040180806020018281038252838181518152602001915080519060200190808383600083811015620009265781810151838201526020016200090c565b5060008381526020818152604080832085845282529182902080547fffffffffffffffffffffffff00000000000000000000000000000000000000001673ffffffffffffffffffffffffffffffffffffffff851690811790915582519081529151849286927f2ec1ae0a449b7ae354b9dacfb3ade6b6332ba26b7fcbb935835fa39dd7263b2392918290030190a3505050565b5490565b60008073ffffffffffffffffffffffffffffffffffffffff8316151562001dfe576000915062001e09565b823b90506000811191505b50919050565b6040805173ffffffffffffffffffffffffffffffffffffffff83166024808301919091528251808303909101815260449091019091526020810180517bffffffffffffffffffffffffffffffffffffffffffffffffffffffff167f70a0823100000000000000000000000000000000000000000000000000000000179052600090818062001e9e86846200203f565b60408051808201909152601c81527f534146455f4552435f32305f42414c414e43455f5245564552544544000000006020820152919350915082151562001f43576040517f08c379a000000000000000000000000000000000000000000000000000000000815260040180806020018281038252838181518152602001915080519060200190808383600083811015620009265781810151838201526020016200090c565b5095945050505050565b6040805173ffffffffffffffffffffffffffffffffffffffff8416602482015260448082018490528251808303909101815260649091019091526020810180517bffffffffffffffffffffffffffffffffffffffffffffffffffffffff167fa9059cbb0000000000000000000000000000000000000000000000000000000017905260009062000db7858262002071565b6040805160028082526060808301845292602083019080388339019050509050828160008151811015156200200f57fe5b6020908102909101015280518290829060019081106200202b57fe5b6020908102909101015292915050565b9055565b6000806000806040516020818751602089018a5afa925060008311156200206557805191505b50909590945092505050565b6000806040516020818551602087016000895af16000811115620020ba573d8015620020a65760208114620020b057620020b8565b60019350620020b8565b600183511493505b505b5090949350505050565b6040516106fd80620020e783390190565b6040516106ed80620027e4833901905600608060405234801561001057600080fd5b506040516106fd3803806106fd8339810160409081528151602083015191830151909201828282600061004b8464010000000061017a810204565b61005d836401000000006101a2810204565b61006f836401000000006101d9810204565b90506000825111156101185761008d816401000000006102a9810204565b151561009857600080fd5b80600160a060020a03168260405180828051906020019080838360005b838110156100cd5781810151838201526020016100b5565b50505050905090810190601f1680156100fa5780820380516001836020036101000a031916815260200191505b50915050600060405180830381855af4915050151561011857600080fd5b50505050610145610137836101d9640100000000026401000000009004565b6401000000006102d6810204565b6101676101596401000000006102fb810204565b6401000000006102a9810204565b151561017257600080fd5b505050610354565b61019f6000805160206106bd8339815191528264010000000061032661032682021704565b50565b61019f7fd625496217aa6a3453eecb9c3489dc5a53e6c67b444329ea2b2cbc9ff547639b8264010000000061032661032682021704565b60006101ec64010000000061032a810204565b604080517fbe00bbd80000000000000000000000000000000000000000000000000000000081527ff1f3eb40f5bc1ad1344716ced8b8a0431d840b5783aea1fd01786bc26f35ac0f6004820152602481018590529051600160a060020a03929092169163be00bbd8916044808201926020929091908290030181600087803b15801561027757600080fd5b505af115801561028b573d6000803e3d6000fd5b505050506040513d60208110156102a157600080fd5b505192915050565b600080600160a060020a03831615156102c557600091506102d0565b823b90506000811191505b50919050565b61019f6000805160206106dd8339815191528264010000000061032661032682021704565b60006103216000805160206106dd83398151915264010000000061031e61035082021704565b905090565b9055565b60006103216000805160206106bd83398151915264010000000061031e61035082021704565b5490565b61035a806103636000396000f30060806040526004361061006c5763ffffffff7c01000000000000000000000000000000000000000000000000000000006000350416634555d5c9811461012b57806348a0c8dd146101525780635c60da1b1461017b57806380afdea8146101b9578063d4aae0c4146101ce575b6127107f665fd576fbbe6f247aff98f5c94a561e3f71ec2d3c988d56f12d342396c50cea6000825a10156100e15760003411361583541616156100dc576040513381523460208201527f15eeaa57c7bd188c1388020bcadc2c436ec60d647d36ef5b9eb3c742217ddee1604082a1005b600080fd5b6100e96101e3565b9050610126816000368080601f016020809104026020016040519081016040528093929190818152602001838380828437506101f2945050505050565b505050005b34801561013757600080fd5b50610140610233565b60408051918252519081900360200190f35b34801561015e57600080fd5b50610167610238565b604080519115158252519081900360200190f35b34801561018757600080fd5b506101906101e3565b6040805173ffffffffffffffffffffffffffffffffffffffff9092168252519081900360200190f35b3480156101c557600080fd5b50610140610263565b3480156101da57600080fd5b5061019061028e565b60006101ed6102b9565b905090565b60006101fd836102e4565b151561020857600080fd5b612710905060008083516020850186855a03f43d604051816000823e82801561022f578282f35b8282fd5b600190565b60006101ed7f665fd576fbbe6f247aff98f5c94a561e3f71ec2d3c988d56f12d342396c50cea61031e565b60006101ed7fd625496217aa6a3453eecb9c3489dc5a53e6c67b444329ea2b2cbc9ff547639b61031e565b60006101ed7f4172f0f7d2289153072b0a6ca36959e0cbe2efc3afe50fc81636caa96338137b61031e565b60006101ed7fdee64df20d65e53d7f51cb6ab6d921a0a6a638a91e942e1d8d02df28e31c038e61031e565b60008073ffffffffffffffffffffffffffffffffffffffff8316151561030d5760009150610318565b823b90506000811191505b50919050565b5490565b5490565b9055565b90555600a165627a7a723058201d1df5e606e426fd43f873be17b7b8d71192ce436cf915b43cb8bcec7dbd2ba700294172f0f7d2289153072b0a6ca36959e0cbe2efc3afe50fc81636caa96338137bdee64df20d65e53d7f51cb6ab6d921a0a6a638a91e942e1d8d02df28e31c038e608060405234801561001057600080fd5b506040516106ed3803806106ed8339810160409081528151602083015191830151909201828282600061004b84640100000000610124810204565b61005d8364010000000061014c810204565b61006f83640100000000610183810204565b90506000825111156101185761008d81640100000000610253810204565b151561009857600080fd5b80600160a060020a03168260405180828051906020019080838360005b838110156100cd5781810151838201526020016100b5565b50505050905090810190601f1680156100fa5780820380516001836020036101000a031916815260200191505b50915050600060405180830381855af4915050151561011857600080fd5b505050505050506102b3565b6101496000805160206106cd833981519152826401000000006103d761028082021704565b50565b6101497fd625496217aa6a3453eecb9c3489dc5a53e6c67b444329ea2b2cbc9ff547639b826401000000006103d761028082021704565b6000610196640100000000610284810204565b604080517fbe00bbd80000000000000000000000000000000000000000000000000000000081527ff1f3eb40f5bc1ad1344716ced8b8a0431d840b5783aea1fd01786bc26f35ac0f6004820152602481018590529051600160a060020a03929092169163be00bbd8916044808201926020929091908290030181600087803b15801561022157600080fd5b505af1158015610235573d6000803e3d6000fd5b505050506040513d602081101561024b57600080fd5b505192915050565b600080600160a060020a038316151561026f576000915061027a565b823b90506000811191505b50919050565b9055565b60006102aa6000805160206106cd8339815191526401000000006103cf6102af82021704565b905090565b5490565b61040b806102c26000396000f30060806040526004361061006c5763ffffffff7c01000000000000000000000000000000000000000000000000000000006000350416634555d5c9811461012b57806348a0c8dd146101525780635c60da1b1461017b57806380afdea8146101b9578063d4aae0c4146101ce575b6127107f665fd576fbbe6f247aff98f5c94a561e3f71ec2d3c988d56f12d342396c50cea6000825a10156100e15760003411361583541616156100dc576040513381523460208201527f15eeaa57c7bd188c1388020bcadc2c436ec60d647d36ef5b9eb3c742217ddee1604082a1005b600080fd5b6100e96101e3565b9050610126816000368080601f016020809104026020016040519081016040528093929190818152602001838380828437506101fa945050505050565b505050005b34801561013757600080fd5b5061014061023b565b60408051918252519081900360200190f35b34801561015e57600080fd5b50610167610240565b604080519115158252519081900360200190f35b34801561018757600080fd5b506101906101e3565b6040805173ffffffffffffffffffffffffffffffffffffffff9092168252519081900360200190f35b3480156101c557600080fd5b5061014061026b565b3480156101da57600080fd5b50610190610296565b60006101f56101f061026b565b6102c1565b905090565b600061020583610395565b151561021057600080fd5b612710905060008083516020850186855a03f43d604051816000823e828015610237578282f35b8282fd5b600290565b60006101f57f665fd576fbbe6f247aff98f5c94a561e3f71ec2d3c988d56f12d342396c50cea6103cf565b60006101f57fd625496217aa6a3453eecb9c3489dc5a53e6c67b444329ea2b2cbc9ff547639b6103cf565b60006101f57f4172f0f7d2289153072b0a6ca36959e0cbe2efc3afe50fc81636caa96338137b6103cf565b60006102cb610296565b604080517fbe00bbd80000000000000000000000000000000000000000000000000000000081527ff1f3eb40f5bc1ad1344716ced8b8a0431d840b5783aea1fd01786bc26f35ac0f600482015260248101859052905173ffffffffffffffffffffffffffffffffffffffff929092169163be00bbd8916044808201926020929091908290030181600087803b15801561036357600080fd5b505af1158015610377573d6000803e3d6000fd5b505050506040513d602081101561038d57600080fd5b505192915050565b60008073ffffffffffffffffffffffffffffffffffffffff831615156103be57600091506103c9565b823b90506000811191505b50919050565b5490565b5490565b9055565b90555600a165627a7a7230582068b3fae2a99656126b4e4eb2916ecaa7d2a0163b62626bddb6ae2093bf46876900294172f0f7d2289153072b0a6ca36959e0cbe2efc3afe50fc81636caa96338137ba165627a7a72305820d8e283917958aac3c29fb89fc3fdf28535841e2c3de5c34f8157a73f361dd0f90029ebb05b386a8d34882b8711d156f463690983dc47815980fb82aeeff1aa43579e",
			"opcodes": "PUSH1 0x80 PUSH1 0x40 MSTORE CALLVALUE DUP1 ISZERO PUSH3 0x11 JUMPI PUSH1 0x0 DUP1 REVERT JUMPDEST POP PUSH1 0x40 MLOAD PUSH1 0x20 DUP1 PUSH3 0x318F DUP4 CODECOPY DUP2 ADD PUSH1 0x40 MSTORE MLOAD DUP1 ISZERO PUSH3 0x3E JUMPI PUSH3 0x3E PUSH5 0x100000000 PUSH3 0x45 DUP2 MUL DIV JUMP JUMPDEST POP PUSH3 0x263 JUMP JUMPDEST PUSH3 0x58 PUSH5 0x100000000 PUSH3 0x14D DUP2 MUL DIV JUMP JUMPDEST PUSH1 0x40 DUP1 MLOAD DUP1 DUP3 ADD SWAP1 SWAP2 MSTORE PUSH1 0x18 DUP2 MSTORE PUSH32 0x494E49545F414C52454144595F494E495449414C495A45440000000000000000 PUSH1 0x20 DUP3 ADD MSTORE SWAP1 ISZERO PUSH3 0x134 JUMPI PUSH1 0x40 MLOAD PUSH32 0x8C379A000000000000000000000000000000000000000000000000000000000 DUP2 MSTORE PUSH1 0x4 ADD DUP1 DUP1 PUSH1 0x20 ADD DUP3 DUP2 SUB DUP3 MSTORE DUP4 DUP2 DUP2 MLOAD DUP2 MSTORE PUSH1 0x20 ADD SWAP2 POP DUP1 MLOAD SWAP1 PUSH1 0x20 ADD SWAP1 DUP1 DUP4 DUP4 PUSH1 0x0 JUMPDEST DUP4 DUP2 LT ISZERO PUSH3 0xF8 JUMPI DUP2 DUP2 ADD MLOAD DUP4 DUP3 ADD MSTORE PUSH1 0x20 ADD PUSH3 0xDE JUMP JUMPDEST POP POP POP POP SWAP1 POP SWAP1 DUP2 ADD SWAP1 PUSH1 0x1F AND DUP1 ISZERO PUSH3 0x126 JUMPI DUP1 DUP3 SUB DUP1 MLOAD PUSH1 0x1 DUP4 PUSH1 0x20 SUB PUSH2 0x100 EXP SUB NOT AND DUP2 MSTORE PUSH1 0x20 ADD SWAP2 POP JUMPDEST POP SWAP3 POP POP POP PUSH1 0x40 MLOAD DUP1 SWAP2 SUB SWAP1 REVERT JUMPDEST POP PUSH3 0x14B PUSH1 0x0 NOT PUSH5 0x100000000 PUSH3 0x17C DUP2 MUL DIV JUMP JUMPDEST JUMP JUMPDEST PUSH1 0x0 PUSH3 0x177 PUSH1 0x0 DUP1 MLOAD PUSH1 0x20 PUSH3 0x316F DUP4 CODECOPY DUP2 MLOAD SWAP2 MSTORE PUSH5 0x100000000 PUSH3 0x1DCF PUSH3 0x25B DUP3 MUL OR DIV JUMP JUMPDEST SWAP1 POP SWAP1 JUMP JUMPDEST PUSH3 0x18F PUSH5 0x100000000 PUSH3 0x14D DUP2 MUL DIV JUMP JUMPDEST PUSH1 0x40 DUP1 MLOAD DUP1 DUP3 ADD SWAP1 SWAP2 MSTORE PUSH1 0x18 DUP2 MSTORE PUSH32 0x494E49545F414C52454144595F494E495449414C495A45440000000000000000 PUSH1 0x20 DUP3 ADD MSTORE SWAP1 ISZERO PUSH3 0x22E JUMPI PUSH1 0x40 MLOAD PUSH32 0x8C379A000000000000000000000000000000000000000000000000000000000 DUP2 MSTORE PUSH1 0x4 ADD DUP1 DUP1 PUSH1 0x20 ADD DUP3 DUP2 SUB DUP3 MSTORE DUP4 DUP2 DUP2 MLOAD DUP2 MSTORE PUSH1 0x20 ADD SWAP2 POP DUP1 MLOAD SWAP1 PUSH1 0x20 ADD SWAP1 DUP1 DUP4 DUP4 PUSH1 0x0 DUP4 DUP2 LT ISZERO PUSH3 0xF8 JUMPI DUP2 DUP2 ADD MLOAD DUP4 DUP3 ADD MSTORE PUSH1 0x20 ADD PUSH3 0xDE JUMP JUMPDEST POP PUSH3 0x258 PUSH1 0x0 DUP1 MLOAD PUSH1 0x20 PUSH3 0x316F DUP4 CODECOPY DUP2 MLOAD SWAP2 MSTORE DUP3 PUSH5 0x100000000 PUSH3 0x203B PUSH3 0x25F DUP3 MUL OR DIV JUMP JUMPDEST POP JUMP JUMPDEST SLOAD SWAP1 JUMP JUMPDEST SWAP1 SSTORE JUMP JUMPDEST PUSH2 0x2EFC DUP1 PUSH3 0x273 PUSH1 0x0 CODECOPY PUSH1 0x0 RETURN STOP PUSH1 0x80 PUSH1 0x40 MSTORE PUSH1 0x4 CALLDATASIZE LT PUSH3 0x186 JUMPI PUSH4 0xFFFFFFFF PUSH29 0x100000000000000000000000000000000000000000000000000000000 PUSH1 0x0 CALLDATALOAD DIV AND PUSH4 0x803FAC0 DUP2 EQ PUSH3 0x18B JUMPI DUP1 PUSH4 0x1113ED0D EQ PUSH3 0x1B7 JUMPI DUP1 PUSH4 0x178E6079 EQ PUSH3 0x1E1 JUMPI DUP1 PUSH4 0x32F0A3B5 EQ PUSH3 0x1F9 JUMPI DUP1 PUSH4 0x397EDD41 EQ PUSH3 0x23A JUMPI DUP1 PUSH4 0x4558850C EQ PUSH3 0x2B7 JUMPI DUP1 PUSH4 0x485CC955 EQ PUSH3 0x2D5 JUMPI DUP1 PUSH4 0x756F6049 EQ PUSH3 0x30E JUMPI DUP1 PUSH4 0x7E7DB6E1 EQ PUSH3 0x326 JUMPI DUP1 PUSH4 0x80CD5AC3 EQ PUSH3 0x357 JUMPI DUP1 PUSH4 0x86070CFE EQ PUSH3 0x38B JUMPI DUP1 PUSH4 0x8B3DD749 EQ PUSH3 0x3A3 JUMPI DUP1 PUSH4 0x8C61757D EQ PUSH3 0x3BB JUMPI DUP1 PUSH4 0x8EA8DC9D EQ PUSH3 0x3D6 JUMPI DUP1 PUSH4 0x958FDE82 EQ PUSH3 0x3EE JUMPI DUP1 PUSH4 0x9D4941D8 EQ PUSH3 0x422 JUMPI DUP1 PUSH4 0xAE5B2540 EQ PUSH3 0x453 JUMPI DUP1 PUSH4 0xBE00BBD8 EQ PUSH3 0x48A JUMPI DUP1 PUSH4 0xC050A7A6 EQ PUSH3 0x4A8 JUMPI DUP1 PUSH4 0xD162F8B0 EQ PUSH3 0x525 JUMPI DUP1 PUSH4 0xDB8A61D4 EQ PUSH3 0x59E JUMPI DUP1 PUSH4 0xDE287359 EQ PUSH3 0x5B6 JUMPI DUP1 PUSH4 0xDE4796ED EQ PUSH3 0x5CE JUMPI DUP1 PUSH4 0xE156A8F3 EQ PUSH3 0x5E6 JUMPI DUP1 PUSH4 0xE8187FF0 EQ PUSH3 0x61A JUMPI DUP1 PUSH4 0xEDE658B0 EQ PUSH3 0x632 JUMPI DUP1 PUSH4 0xFDEF9106 EQ PUSH3 0x6AB JUMPI DUP1 PUSH4 0xFF289FC5 EQ PUSH3 0x72A JUMPI JUMPDEST PUSH1 0x0 DUP1 REVERT JUMPDEST CALLVALUE DUP1 ISZERO PUSH3 0x198 JUMPI PUSH1 0x0 DUP1 REVERT JUMPDEST POP PUSH3 0x1A3 PUSH3 0x75E JUMP JUMPDEST PUSH1 0x40 DUP1 MLOAD SWAP2 ISZERO ISZERO DUP3 MSTORE MLOAD SWAP1 DUP2 SWAP1 SUB PUSH1 0x20 ADD SWAP1 RETURN JUMPDEST CALLVALUE DUP1 ISZERO PUSH3 0x1C4 JUMPI PUSH1 0x0 DUP1 REVERT JUMPDEST POP PUSH3 0x1CF PUSH3 0x78C JUMP JUMPDEST PUSH1 0x40 DUP1 MLOAD SWAP2 DUP3 MSTORE MLOAD SWAP1 DUP2 SWAP1 SUB PUSH1 0x20 ADD SWAP1 RETURN JUMPDEST CALLVALUE DUP1 ISZERO PUSH3 0x1EE JUMPI PUSH1 0x0 DUP1 REVERT JUMPDEST POP PUSH3 0x1CF PUSH3 0x7B0 JUMP JUMPDEST CALLVALUE DUP1 ISZERO PUSH3 0x206 JUMPI PUSH1 0x0 DUP1 REVERT JUMPDEST POP PUSH3 0x211 PUSH3 0x7D4 JUMP JUMPDEST PUSH1 0x40 DUP1 MLOAD PUSH20 0xFFFFFFFFFFFFFFFFFFFFFFFFFFFFFFFFFFFFFFFF SWAP1 SWAP3 AND DUP3 MSTORE MLOAD SWAP1 DUP2 SWAP1 SUB PUSH1 0x20 ADD SWAP1 RETURN JUMPDEST CALLVALUE DUP1 ISZERO PUSH3 0x247 JUMPI PUSH1 0x0 DUP1 REVERT JUMPDEST POP PUSH1 0x40 DUP1 MLOAD PUSH1 0x20 PUSH1 0x4 PUSH1 0x44 CALLDATALOAD DUP2 DUP2 ADD CALLDATALOAD PUSH1 0x1F DUP2 ADD DUP5 SWAP1 DIV DUP5 MUL DUP6 ADD DUP5 ADD SWAP1 SWAP6 MSTORE DUP5 DUP5 MSTORE PUSH3 0x211 SWAP5 DUP3 CALLDATALOAD SWAP5 PUSH1 0x24 DUP1 CALLDATALOAD PUSH20 0xFFFFFFFFFFFFFFFFFFFFFFFFFFFFFFFFFFFFFFFF AND SWAP6 CALLDATASIZE SWAP6 SWAP5 PUSH1 0x64 SWAP5 SWAP3 ADD SWAP2 SWAP1 DUP2 SWAP1 DUP5 ADD DUP4 DUP3 DUP1 DUP3 DUP5 CALLDATACOPY POP SWAP5 SWAP8 POP POP POP POP SWAP2 CALLDATALOAD ISZERO ISZERO SWAP3 POP PUSH3 0x81E SWAP2 POP POP JUMP JUMPDEST CALLVALUE DUP1 ISZERO PUSH3 0x2C4 JUMPI PUSH1 0x0 DUP1 REVERT JUMPDEST POP PUSH3 0x211 PUSH1 0x4 CALLDATALOAD PUSH1 0x24 CALLDATALOAD PUSH3 0x9DD JUMP JUMPDEST CALLVALUE DUP1 ISZERO PUSH3 0x2E2 JUMPI PUSH1 0x0 DUP1 REVERT JUMPDEST POP PUSH3 0x30C PUSH20 0xFFFFFFFFFFFFFFFFFFFFFFFFFFFFFFFFFFFFFFFF PUSH1 0x4 CALLDATALOAD DUP2 AND SWAP1 PUSH1 0x24 CALLDATALOAD AND PUSH3 0xA0D JUMP JUMPDEST STOP JUMPDEST CALLVALUE DUP1 ISZERO PUSH3 0x31B JUMPI PUSH1 0x0 DUP1 REVERT JUMPDEST POP PUSH3 0x1CF PUSH3 0xC6C JUMP JUMPDEST CALLVALUE DUP1 ISZERO PUSH3 0x333 JUMPI PUSH1 0x0 DUP1 REVERT JUMPDEST POP PUSH3 0x1A3 PUSH20 0xFFFFFFFFFFFFFFFFFFFFFFFFFFFFFFFFFFFFFFFF PUSH1 0x4 CALLDATALOAD AND PUSH3 0xC90 JUMP JUMPDEST CALLVALUE DUP1 ISZERO PUSH3 0x364 JUMPI PUSH1 0x0 DUP1 REVERT JUMPDEST POP PUSH3 0x211 PUSH1 0x4 CALLDATALOAD PUSH20 0xFFFFFFFFFFFFFFFFFFFFFFFFFFFFFFFFFFFFFFFF PUSH1 0x24 CALLDATALOAD AND PUSH3 0xC96 JUMP JUMPDEST CALLVALUE DUP1 ISZERO PUSH3 0x398 JUMPI PUSH1 0x0 DUP1 REVERT JUMPDEST POP PUSH3 0x1CF PUSH3 0xDC0 JUMP JUMPDEST CALLVALUE DUP1 ISZERO PUSH3 0x3B0 JUMPI PUSH1 0x0 DUP1 REVERT JUMPDEST POP PUSH3 0x1CF PUSH3 0xDC6 JUMP JUMPDEST CALLVALUE DUP1 ISZERO PUSH3 0x3C8 JUMPI PUSH1 0x0 DUP1 REVERT JUMPDEST POP PUSH3 0x30C PUSH1 0x4 CALLDATALOAD PUSH3 0xDF8 JUMP JUMPDEST CALLVALUE DUP1 ISZERO PUSH3 0x3E3 JUMPI PUSH1 0x0 DUP1 REVERT JUMPDEST POP PUSH3 0x1CF PUSH3 0xEFF JUMP JUMPDEST CALLVALUE DUP1 ISZERO PUSH3 0x3FB JUMPI PUSH1 0x0 DUP1 REVERT JUMPDEST POP PUSH3 0x211 PUSH1 0x4 CALLDATALOAD PUSH20 0xFFFFFFFFFFFFFFFFFFFFFFFFFFFFFFFFFFFFFFFF PUSH1 0x24 CALLDATALOAD AND PUSH3 0xF23 JUMP JUMPDEST CALLVALUE DUP1 ISZERO PUSH3 0x42F JUMPI PUSH1 0x0 DUP1 REVERT JUMPDEST POP PUSH3 0x30C PUSH20 0xFFFFFFFFFFFFFFFFFFFFFFFFFFFFFFFFFFFFFFFF PUSH1 0x4 CALLDATALOAD AND PUSH3 0x1044 JUMP JUMPDEST CALLVALUE DUP1 ISZERO PUSH3 0x460 JUMPI PUSH1 0x0 DUP1 REVERT JUMPDEST POP PUSH3 0x30C PUSH1 0x4 CALLDATALOAD PUSH1 0x24 CALLDATALOAD PUSH20 0xFFFFFFFFFFFFFFFFFFFFFFFFFFFFFFFFFFFFFFFF PUSH1 0x44 CALLDATALOAD AND PUSH3 0x137C JUMP JUMPDEST CALLVALUE DUP1 ISZERO PUSH3 0x497 JUMPI PUSH1 0x0 DUP1 REVERT JUMPDEST POP PUSH3 0x211 PUSH1 0x4 CALLDATALOAD PUSH1 0x24 CALLDATALOAD PUSH3 0x1470 JUMP JUMPDEST CALLVALUE DUP1 ISZERO PUSH3 0x4B5 JUMPI PUSH1 0x0 DUP1 REVERT JUMPDEST POP PUSH1 0x40 DUP1 MLOAD PUSH1 0x20 PUSH1 0x4 PUSH1 0x44 CALLDATALOAD DUP2 DUP2 ADD CALLDATALOAD PUSH1 0x1F DUP2 ADD DUP5 SWAP1 DIV DUP5 MUL DUP6 ADD DUP5 ADD SWAP1 SWAP6 MSTORE DUP5 DUP5 MSTORE PUSH3 0x211 SWAP5 DUP3 CALLDATALOAD SWAP5 PUSH1 0x24 DUP1 CALLDATALOAD PUSH20 0xFFFFFFFFFFFFFFFFFFFFFFFFFFFFFFFFFFFFFFFF AND SWAP6 CALLDATASIZE SWAP6 SWAP5 PUSH1 0x64 SWAP5 SWAP3 ADD SWAP2 SWAP1 DUP2 SWAP1 DUP5 ADD DUP4 DUP3 DUP1 DUP3 DUP5 CALLDATACOPY POP SWAP5 SWAP8 POP POP POP POP SWAP2 CALLDATALOAD ISZERO ISZERO SWAP3 POP PUSH3 0x14A1 SWAP2 POP POP JUMP JUMPDEST CALLVALUE DUP1 ISZERO PUSH3 0x532 JUMPI PUSH1 0x0 DUP1 REVERT JUMPDEST POP PUSH1 0x40 DUP1 MLOAD PUSH1 0x20 PUSH1 0x4 PUSH1 0x44 CALLDATALOAD DUP2 DUP2 ADD CALLDATALOAD PUSH1 0x1F DUP2 ADD DUP5 SWAP1 DIV DUP5 MUL DUP6 ADD DUP5 ADD SWAP1 SWAP6 MSTORE DUP5 DUP5 MSTORE PUSH3 0x211 SWAP5 DUP3 CALLDATALOAD PUSH20 0xFFFFFFFFFFFFFFFFFFFFFFFFFFFFFFFFFFFFFFFF AND SWAP5 PUSH1 0x24 DUP1 CALLDATALOAD SWAP6 CALLDATASIZE SWAP6 SWAP5 PUSH1 0x64 SWAP5 SWAP3 ADD SWAP2 SWAP1 DUP2 SWAP1 DUP5 ADD DUP4 DUP3 DUP1 DUP3 DUP5 CALLDATACOPY POP SWAP5 SWAP8 POP PUSH3 0x15D8 SWAP7 POP POP POP POP POP POP POP JUMP JUMPDEST CALLVALUE DUP1 ISZERO PUSH3 0x5AB JUMPI PUSH1 0x0 DUP1 REVERT JUMPDEST POP PUSH3 0x1CF PUSH3 0x16FD JUMP JUMPDEST CALLVALUE DUP1 ISZERO PUSH3 0x5C3 JUMPI PUSH1 0x0 DUP1 REVERT JUMPDEST POP PUSH3 0x211 PUSH3 0x1721 JUMP JUMPDEST CALLVALUE DUP1 ISZERO PUSH3 0x5DB JUMPI PUSH1 0x0 DUP1 REVERT JUMPDEST POP PUSH3 0x1A3 PUSH3 0x176F JUMP JUMPDEST CALLVALUE DUP1 ISZERO PUSH3 0x5F3 JUMPI PUSH1 0x0 DUP1 REVERT JUMPDEST POP PUSH3 0x211 PUSH20 0xFFFFFFFFFFFFFFFFFFFFFFFFFFFFFFFFFFFFFFFF PUSH1 0x4 CALLDATALOAD AND PUSH1 0x24 CALLDATALOAD PUSH3 0x17A2 JUMP JUMPDEST CALLVALUE DUP1 ISZERO PUSH3 0x627 JUMPI PUSH1 0x0 DUP1 REVERT JUMPDEST POP PUSH3 0x1CF PUSH3 0x17C8 JUMP JUMPDEST CALLVALUE DUP1 ISZERO PUSH3 0x63F JUMPI PUSH1 0x0 DUP1 REVERT JUMPDEST POP PUSH1 0x40 DUP1 MLOAD PUSH1 0x20 PUSH1 0x4 PUSH1 0x44 CALLDATALOAD DUP2 DUP2 ADD CALLDATALOAD PUSH1 0x1F DUP2 ADD DUP5 SWAP1 DIV DUP5 MUL DUP6 ADD DUP5 ADD SWAP1 SWAP6 MSTORE DUP5 DUP5 MSTORE PUSH3 0x211 SWAP5 DUP3 CALLDATALOAD PUSH20 0xFFFFFFFFFFFFFFFFFFFFFFFFFFFFFFFFFFFFFFFF AND SWAP5 PUSH1 0x24 DUP1 CALLDATALOAD SWAP6 CALLDATASIZE SWAP6 SWAP5 PUSH1 0x64 SWAP5 SWAP3 ADD SWAP2 SWAP1 DUP2 SWAP1 DUP5 ADD DUP4 DUP3 DUP1 DUP3 DUP5 CALLDATACOPY POP SWAP5 SWAP8 POP PUSH3 0x17EC SWAP7 POP POP POP POP POP POP POP JUMP JUMPDEST CALLVALUE DUP1 ISZERO PUSH3 0x6B8 JUMPI PUSH1 0x0 DUP1 REVERT JUMPDEST POP PUSH1 0x40 DUP1 MLOAD PUSH1 0x20 PUSH1 0x1F PUSH1 0x64 CALLDATALOAD PUSH1 0x4 DUP2 DUP2 ADD CALLDATALOAD SWAP3 DUP4 ADD DUP5 SWAP1 DIV DUP5 MUL DUP6 ADD DUP5 ADD SWAP1 SWAP6 MSTORE DUP2 DUP5 MSTORE PUSH3 0x1A3 SWAP5 PUSH20 0xFFFFFFFFFFFFFFFFFFFFFFFFFFFFFFFFFFFFFFFF DUP2 CALLDATALOAD DUP2 AND SWAP6 PUSH1 0x24 DUP1 CALLDATALOAD SWAP1 SWAP3 AND SWAP6 PUSH1 0x44 CALLDATALOAD SWAP6 CALLDATASIZE SWAP6 PUSH1 0x84 SWAP5 ADD SWAP2 DUP2 SWAP1 DUP5 ADD DUP4 DUP3 DUP1 DUP3 DUP5 CALLDATACOPY POP SWAP5 SWAP8 POP PUSH3 0x1911 SWAP7 POP POP POP POP POP POP POP JUMP JUMPDEST CALLVALUE DUP1 ISZERO PUSH3 0x737 JUMPI PUSH1 0x0 DUP1 REVERT JUMPDEST POP PUSH3 0x211 PUSH20 0xFFFFFFFFFFFFFFFFFFFFFFFFFFFFFFFFFFFFFFFF PUSH1 0x4 CALLDATALOAD AND PUSH1 0x24 CALLDATALOAD PUSH3 0x1A6E JUMP JUMPDEST PUSH1 0x0 DUP1 PUSH3 0x76B PUSH3 0xDC6 JUMP JUMPDEST SWAP1 POP DUP1 ISZERO DUP1 ISZERO SWAP1 PUSH3 0x786 JUMPI POP DUP1 PUSH3 0x783 PUSH3 0x1A8D JUMP JUMPDEST LT ISZERO JUMPDEST SWAP2 POP POP SWAP1 JUMP JUMPDEST PUSH32 0x3B4BF6BF3AD5000ECF0F989D5BEFDE585C6860FEA3E574A4FAB4C49D1C177D9C SWAP1 JUMP JUMPDEST PUSH32 0xD6F028CA0E8EDB4A8C9757CA4FDCCAB25FA1E0317DA1188108F7D2DEE14902FB SWAP1 JUMP JUMPDEST PUSH1 0x1 SLOAD PUSH1 0x0 SWAP1 DUP2 MSTORE PUSH32 0x9E3EAE70920EEEF6013879BF9155B985893698C145361C31365929723678B257 PUSH1 0x20 MSTORE PUSH1 0x40 SWAP1 KECCAK256 SLOAD PUSH20 0xFFFFFFFFFFFFFFFFFFFFFFFFFFFFFFFFFFFFFFFF AND SWAP1 JUMP JUMPDEST PUSH1 0x0 PUSH32 0xB6D92708F3D4817AFC106147D969E229CED5C46E65E0A5002A0D391287762BD0 PUSH3 0x86D PUSH32 0xF1F3EB40F5BC1AD1344716CED8B8A0431D840B5783AEA1FD01786BC26F35AC0F DUP8 PUSH3 0x1A91 JUMP JUMPDEST PUSH3 0x885 CALLER ADDRESS DUP5 PUSH3 0x87F DUP6 PUSH3 0x1A9F JUMP JUMPDEST PUSH3 0x1911 JUMP JUMPDEST PUSH1 0x40 DUP1 MLOAD DUP1 DUP3 ADD SWAP1 SWAP2 MSTORE PUSH1 0x12 DUP2 MSTORE PUSH32 0x4B45524E454C5F415554485F4641494C45440000000000000000000000000000 PUSH1 0x20 DUP3 ADD MSTORE SWAP1 ISZERO ISZERO PUSH3 0x962 JUMPI PUSH1 0x40 MLOAD PUSH32 0x8C379A000000000000000000000000000000000000000000000000000000000 DUP2 MSTORE PUSH1 0x4 ADD DUP1 DUP1 PUSH1 0x20 ADD DUP3 DUP2 SUB DUP3 MSTORE DUP4 DUP2 DUP2 MLOAD DUP2 MSTORE PUSH1 0x20 ADD SWAP2 POP DUP1 MLOAD SWAP1 PUSH1 0x20 ADD SWAP1 DUP1 DUP4 DUP4 PUSH1 0x0 JUMPDEST DUP4 DUP2 LT ISZERO PUSH3 0x926 JUMPI DUP2 DUP2 ADD MLOAD DUP4 DUP3 ADD MSTORE PUSH1 0x20 ADD PUSH3 0x90C JUMP JUMPDEST POP POP POP POP SWAP1 POP SWAP1 DUP2 ADD SWAP1 PUSH1 0x1F AND DUP1 ISZERO PUSH3 0x954 JUMPI DUP1 DUP3 SUB DUP1 MLOAD PUSH1 0x1 DUP4 PUSH1 0x20 SUB PUSH2 0x100 EXP SUB NOT AND DUP2 MSTORE PUSH1 0x20 ADD SWAP2 POP JUMPDEST POP SWAP3 POP POP POP PUSH1 0x40 MLOAD DUP1 SWAP2 SUB SWAP1 REVERT JUMPDEST POP PUSH3 0x990 PUSH32 0xF1F3EB40F5BC1AD1344716CED8B8A0431D840B5783AEA1FD01786BC26F35AC0F DUP9 DUP9 PUSH3 0x1AA9 JUMP JUMPDEST PUSH3 0x99D ADDRESS DUP9 DUP8 PUSH3 0x17EC JUMP JUMPDEST SWAP3 POP DUP4 ISZERO PUSH3 0x9D3 JUMPI PUSH3 0x9D3 PUSH32 0xD6F028CA0E8EDB4A8C9757CA4FDCCAB25FA1E0317DA1188108F7D2DEE14902FB DUP9 DUP6 PUSH3 0x137C JUMP JUMPDEST POP POP SWAP5 SWAP4 POP POP POP POP JUMP JUMPDEST PUSH1 0x0 PUSH1 0x20 DUP2 DUP2 MSTORE SWAP3 DUP2 MSTORE PUSH1 0x40 DUP1 DUP3 KECCAK256 SWAP1 SWAP4 MSTORE SWAP1 DUP2 MSTORE KECCAK256 SLOAD PUSH20 0xFFFFFFFFFFFFFFFFFFFFFFFFFFFFFFFFFFFFFFFF AND DUP2 JUMP JUMPDEST PUSH1 0x0 PUSH3 0xA19 PUSH3 0xDC6 JUMP JUMPDEST PUSH1 0x40 DUP1 MLOAD DUP1 DUP3 ADD SWAP1 SWAP2 MSTORE PUSH1 0x18 DUP2 MSTORE PUSH32 0x494E49545F414C52454144595F494E495449414C495A45440000000000000000 PUSH1 0x20 DUP3 ADD MSTORE SWAP1 ISZERO PUSH3 0xAB8 JUMPI PUSH1 0x40 MLOAD PUSH32 0x8C379A000000000000000000000000000000000000000000000000000000000 DUP2 MSTORE PUSH1 0x4 ADD DUP1 DUP1 PUSH1 0x20 ADD DUP3 DUP2 SUB DUP3 MSTORE DUP4 DUP2 DUP2 MLOAD DUP2 MSTORE PUSH1 0x20 ADD SWAP2 POP DUP1 MLOAD SWAP1 PUSH1 0x20 ADD SWAP1 DUP1 DUP4 DUP4 PUSH1 0x0 DUP4 DUP2 LT ISZERO PUSH3 0x926 JUMPI DUP2 DUP2 ADD MLOAD DUP4 DUP3 ADD MSTORE PUSH1 0x20 ADD PUSH3 0x90C JUMP JUMPDEST POP PUSH3 0xAC3 PUSH3 0x1BA9 JUMP JUMPDEST PUSH3 0xB10 PUSH32 0xF1F3EB40F5BC1AD1344716CED8B8A0431D840B5783AEA1FD01786BC26F35AC0F PUSH32 0xE3262375F45A6E2026B7E7B18C2B807434F2508FE1A2A3DFB493C7DF8F4AAD6A DUP6 PUSH3 0x1C91 JUMP JUMPDEST PUSH3 0xB3C ADDRESS PUSH32 0xE3262375F45A6E2026B7E7B18C2B807434F2508FE1A2A3DFB493C7DF8F4AAD6A PUSH3 0x17A2 JUMP JUMPDEST SWAP1 POP DUP1 PUSH20 0xFFFFFFFFFFFFFFFFFFFFFFFFFFFFFFFFFFFFFFFF AND PUSH4 0xC4D66DE8 DUP4 PUSH1 0x40 MLOAD DUP3 PUSH4 0xFFFFFFFF AND PUSH29 0x100000000000000000000000000000000000000000000000000000000 MUL DUP2 MSTORE PUSH1 0x4 ADD DUP1 DUP3 PUSH20 0xFFFFFFFFFFFFFFFFFFFFFFFFFFFFFFFFFFFFFFFF AND PUSH20 0xFFFFFFFFFFFFFFFFFFFFFFFFFFFFFFFFFFFFFFFF AND DUP2 MSTORE PUSH1 0x20 ADD SWAP2 POP POP PUSH1 0x0 PUSH1 0x40 MLOAD DUP1 DUP4 SUB DUP2 PUSH1 0x0 DUP8 DUP1 EXTCODESIZE ISZERO DUP1 ISZERO PUSH3 0xBDA JUMPI PUSH1 0x0 DUP1 REVERT JUMPDEST POP GAS CALL ISZERO DUP1 ISZERO PUSH3 0xBEF JUMPI RETURNDATASIZE PUSH1 0x0 DUP1 RETURNDATACOPY RETURNDATASIZE PUSH1 0x0 REVERT JUMPDEST POP PUSH3 0xC43 SWAP3 POP PUSH32 0xD6F028CA0E8EDB4A8C9757CA4FDCCAB25FA1E0317DA1188108F7D2DEE14902FB SWAP2 POP PUSH32 0xE3262375F45A6E2026B7E7B18C2B807434F2508FE1A2A3DFB493C7DF8F4AAD6A SWAP1 POP DUP4 PUSH3 0x1C91 JUMP JUMPDEST POP POP PUSH32 0x7E852E0FCFCE6551C13800F1E7476F982525C2B5277BA14B24339C68416336D1 PUSH1 0x1 SSTORE POP JUMP JUMPDEST PUSH32 0xC681A85306374A5AB27F0BBC385296A54BCD314A1948B6CF61C4EA1BC44BB9F8 SWAP1 JUMP JUMPDEST POP PUSH1 0x1 SWAP1 JUMP JUMPDEST PUSH1 0x0 PUSH32 0xB6D92708F3D4817AFC106147D969E229CED5C46E65E0A5002A0D391287762BD0 PUSH3 0xCE5 PUSH32 0xF1F3EB40F5BC1AD1344716CED8B8A0431D840B5783AEA1FD01786BC26F35AC0F DUP6 PUSH3 0x1A91 JUMP JUMPDEST PUSH3 0xCF7 CALLER ADDRESS DUP5 PUSH3 0x87F DUP6 PUSH3 0x1A9F JUMP JUMPDEST PUSH1 0x40 DUP1 MLOAD DUP1 DUP3 ADD SWAP1 SWAP2 MSTORE PUSH1 0x12 DUP2 MSTORE PUSH32 0x4B45524E454C5F415554485F4641494C45440000000000000000000000000000 PUSH1 0x20 DUP3 ADD MSTORE SWAP1 ISZERO ISZERO PUSH3 0xD97 JUMPI PUSH1 0x40 MLOAD PUSH32 0x8C379A000000000000000000000000000000000000000000000000000000000 DUP2 MSTORE PUSH1 0x4 ADD DUP1 DUP1 PUSH1 0x20 ADD DUP3 DUP2 SUB DUP3 MSTORE DUP4 DUP2 DUP2 MLOAD DUP2 MSTORE PUSH1 0x20 ADD SWAP2 POP DUP1 MLOAD SWAP1 PUSH1 0x20 ADD SWAP1 DUP1 DUP4 DUP4 PUSH1 0x0 DUP4 DUP2 LT ISZERO PUSH3 0x926 JUMPI DUP2 DUP2 ADD MLOAD DUP4 DUP3 ADD MSTORE PUSH1 0x20 ADD PUSH3 0x90C JUMP JUMPDEST POP PUSH1 0x40 DUP1 MLOAD PUSH1 0x0 DUP1 DUP3 MSTORE PUSH1 0x20 DUP3 ADD SWAP1 SWAP3 MSTORE PUSH3 0xDB7 SWAP2 DUP8 SWAP2 DUP8 SWAP2 PUSH3 0x81E JUMP JUMPDEST SWAP6 SWAP5 POP POP POP POP POP JUMP JUMPDEST PUSH1 0x1 SLOAD DUP2 JUMP JUMPDEST PUSH1 0x0 PUSH3 0xDF3 PUSH32 0xEBB05B386A8D34882B8711D156F463690983DC47815980FB82AEEFF1AA43579E PUSH3 0x1DCF JUMP JUMPDEST SWAP1 POP SWAP1 JUMP JUMPDEST PUSH32 0xB6D92708F3D4817AFC106147D969E229CED5C46E65E0A5002A0D391287762BD0 PUSH3 0xE45 PUSH32 0xD6F028CA0E8EDB4A8C9757CA4FDCCAB25FA1E0317DA1188108F7D2DEE14902FB DUP4 PUSH3 0x1A91 JUMP JUMPDEST PUSH3 0xE57 CALLER ADDRESS DUP5 PUSH3 0x87F DUP6 PUSH3 0x1A9F JUMP JUMPDEST PUSH1 0x40 DUP1 MLOAD DUP1 DUP3 ADD SWAP1 SWAP2 MSTORE PUSH1 0x12 DUP2 MSTORE PUSH32 0x4B45524E454C5F415554485F4641494C45440000000000000000000000000000 PUSH1 0x20 DUP3 ADD MSTORE SWAP1 ISZERO ISZERO PUSH3 0xEF7 JUMPI PUSH1 0x40 MLOAD PUSH32 0x8C379A000000000000000000000000000000000000000000000000000000000 DUP2 MSTORE PUSH1 0x4 ADD DUP1 DUP1 PUSH1 0x20 ADD DUP3 DUP2 SUB DUP3 MSTORE DUP4 DUP2 DUP2 MLOAD DUP2 MSTORE PUSH1 0x20 ADD SWAP2 POP DUP1 MLOAD SWAP1 PUSH1 0x20 ADD SWAP1 DUP1 DUP4 DUP4 PUSH1 0x0 DUP4 DUP2 LT ISZERO PUSH3 0x926 JUMPI DUP2 DUP2 ADD MLOAD DUP4 DUP3 ADD MSTORE PUSH1 0x20 ADD PUSH3 0x90C JUMP JUMPDEST POP POP POP PUSH1 0x1 SSTORE JUMP JUMPDEST PUSH32 0xB6D92708F3D4817AFC106147D969E229CED5C46E65E0A5002A0D391287762BD0 DUP2 JUMP JUMPDEST PUSH1 0x0 PUSH32 0xB6D92708F3D4817AFC106147D969E229CED5C46E65E0A5002A0D391287762BD0 PUSH3 0xF72 PUSH32 0xF1F3EB40F5BC1AD1344716CED8B8A0431D840B5783AEA1FD01786BC26F35AC0F DUP6 PUSH3 0x1A91 JUMP JUMPDEST PUSH3 0xF84 CALLER ADDRESS DUP5 PUSH3 0x87F DUP6 PUSH3 0x1A9F JUMP JUMPDEST PUSH1 0x40 DUP1 MLOAD DUP1 DUP3 ADD SWAP1 SWAP2 MSTORE PUSH1 0x12 DUP2 MSTORE PUSH32 0x4B45524E454C5F415554485F4641494C45440000000000000000000000000000 PUSH1 0x20 DUP3 ADD MSTORE SWAP1 ISZERO ISZERO PUSH3 0x1024 JUMPI PUSH1 0x40 MLOAD PUSH32 0x8C379A000000000000000000000000000000000000000000000000000000000 DUP2 MSTORE PUSH1 0x4 ADD DUP1 DUP1 PUSH1 0x20 ADD DUP3 DUP2 SUB DUP3 MSTORE DUP4 DUP2 DUP2 MLOAD DUP2 MSTORE PUSH1 0x20 ADD SWAP2 POP DUP1 MLOAD SWAP1 PUSH1 0x20 ADD SWAP1 DUP1 DUP4 DUP4 PUSH1 0x0 DUP4 DUP2 LT ISZERO PUSH3 0x926 JUMPI DUP2 DUP2 ADD MLOAD DUP4 DUP3 ADD MSTORE PUSH1 0x20 ADD PUSH3 0x90C JUMP JUMPDEST POP PUSH1 0x40 DUP1 MLOAD PUSH1 0x0 DUP1 DUP3 MSTORE PUSH1 0x20 DUP3 ADD SWAP1 SWAP3 MSTORE PUSH3 0xDB7 SWAP2 DUP8 SWAP2 DUP8 SWAP2 PUSH3 0x14A1 JUMP JUMPDEST PUSH1 0x0 DUP1 PUSH1 0x0 PUSH3 0x1054 DUP5 PUSH3 0xC90 JUMP JUMPDEST PUSH1 0x40 DUP1 MLOAD DUP1 DUP3 ADD SWAP1 SWAP2 MSTORE PUSH1 0x12 DUP2 MSTORE PUSH32 0x5245434F5645525F444953414C4C4F5745440000000000000000000000000000 PUSH1 0x20 DUP3 ADD MSTORE SWAP1 ISZERO ISZERO PUSH3 0x10F4 JUMPI PUSH1 0x40 MLOAD PUSH32 0x8C379A000000000000000000000000000000000000000000000000000000000 DUP2 MSTORE PUSH1 0x4 ADD DUP1 DUP1 PUSH1 0x20 ADD DUP3 DUP2 SUB DUP3 MSTORE DUP4 DUP2 DUP2 MLOAD DUP2 MSTORE PUSH1 0x20 ADD SWAP2 POP DUP1 MLOAD SWAP1 PUSH1 0x20 ADD SWAP1 DUP1 DUP4 DUP4 PUSH1 0x0 DUP4 DUP2 LT ISZERO PUSH3 0x926 JUMPI DUP2 DUP2 ADD MLOAD DUP4 DUP3 ADD MSTORE PUSH1 0x20 ADD PUSH3 0x90C JUMP JUMPDEST POP PUSH3 0x10FF PUSH3 0x7D4 JUMP JUMPDEST SWAP3 POP PUSH3 0x110C DUP4 PUSH3 0x1DD3 JUMP JUMPDEST PUSH1 0x40 DUP1 MLOAD DUP1 DUP3 ADD SWAP1 SWAP2 MSTORE PUSH1 0x1A DUP2 MSTORE PUSH32 0x5245434F5645525F5641554C545F4E4F545F434F4E5452414354000000000000 PUSH1 0x20 DUP3 ADD MSTORE SWAP1 ISZERO ISZERO PUSH3 0x11AC JUMPI PUSH1 0x40 MLOAD PUSH32 0x8C379A000000000000000000000000000000000000000000000000000000000 DUP2 MSTORE PUSH1 0x4 ADD DUP1 DUP1 PUSH1 0x20 ADD DUP3 DUP2 SUB DUP3 MSTORE DUP4 DUP2 DUP2 MLOAD DUP2 MSTORE PUSH1 0x20 ADD SWAP2 POP DUP1 MLOAD SWAP1 PUSH1 0x20 ADD SWAP1 DUP1 DUP4 DUP4 PUSH1 0x0 DUP4 DUP2 LT ISZERO PUSH3 0x926 JUMPI DUP2 DUP2 ADD MLOAD DUP4 DUP3 ADD MSTORE PUSH1 0x20 ADD PUSH3 0x90C JUMP JUMPDEST POP PUSH20 0xFFFFFFFFFFFFFFFFFFFFFFFFFFFFFFFFFFFFFFFF DUP5 AND ISZERO ISZERO PUSH3 0x121A JUMPI PUSH1 0x40 MLOAD ADDRESS BALANCE SWAP3 POP PUSH20 0xFFFFFFFFFFFFFFFFFFFFFFFFFFFFFFFFFFFFFFFF DUP5 AND SWAP1 DUP4 ISZERO PUSH2 0x8FC MUL SWAP1 DUP5 SWAP1 PUSH1 0x0 DUP2 DUP2 DUP2 DUP6 DUP9 DUP9 CALL SWAP4 POP POP POP POP ISZERO DUP1 ISZERO PUSH3 0x1213 JUMPI RETURNDATASIZE PUSH1 0x0 DUP1 RETURNDATACOPY RETURNDATASIZE PUSH1 0x0 REVERT JUMPDEST POP PUSH3 0x1311 JUMP JUMPDEST POP DUP3 PUSH3 0x1244 PUSH20 0xFFFFFFFFFFFFFFFFFFFFFFFFFFFFFFFFFFFFFFFF DUP3 AND ADDRESS PUSH4 0xFFFFFFFF PUSH3 0x1E0F AND JUMP JUMPDEST SWAP2 POP PUSH3 0x126F PUSH20 0xFFFFFFFFFFFFFFFFFFFFFFFFFFFFFFFFFFFFFFFF DUP3 AND DUP5 DUP5 PUSH4 0xFFFFFFFF PUSH3 0x1F4D AND JUMP JUMPDEST PUSH1 0x40 DUP1 MLOAD DUP1 DUP3 ADD SWAP1 SWAP2 MSTORE PUSH1 0x1D DUP2 MSTORE PUSH32 0x5245434F5645525F544F4B454E5F5452414E534645525F4641494C4544000000 PUSH1 0x20 DUP3 ADD MSTORE SWAP1 ISZERO ISZERO PUSH3 0x130F JUMPI PUSH1 0x40 MLOAD PUSH32 0x8C379A000000000000000000000000000000000000000000000000000000000 DUP2 MSTORE PUSH1 0x4 ADD DUP1 DUP1 PUSH1 0x20 ADD DUP3 DUP2 SUB DUP3 MSTORE DUP4 DUP2 DUP2 MLOAD DUP2 MSTORE PUSH1 0x20 ADD SWAP2 POP DUP1 MLOAD SWAP1 PUSH1 0x20 ADD SWAP1 DUP1 DUP4 DUP4 PUSH1 0x0 DUP4 DUP2 LT ISZERO PUSH3 0x926 JUMPI DUP2 DUP2 ADD MLOAD DUP4 DUP3 ADD MSTORE PUSH1 0x20 ADD PUSH3 0x90C JUMP JUMPDEST POP JUMPDEST DUP4 PUSH20 0xFFFFFFFFFFFFFFFFFFFFFFFFFFFFFFFFFFFFFFFF AND DUP4 PUSH20 0xFFFFFFFFFFFFFFFFFFFFFFFFFFFFFFFFFFFFFFFF AND PUSH32 0x596CAF56044B55FB8C4CA640089BBC2B63CAE3E978B851F5745CBB7C5B288E02 DUP5 PUSH1 0x40 MLOAD DUP1 DUP3 DUP2 MSTORE PUSH1 0x20 ADD SWAP2 POP POP PUSH1 0x40 MLOAD DUP1 SWAP2 SUB SWAP1 LOG3 POP POP POP POP JUMP JUMPDEST PUSH32 0xB6D92708F3D4817AFC106147D969E229CED5C46E65E0A5002A0D391287762BD0 PUSH3 0x13A9 DUP5 DUP5 PUSH3 0x1A91 JUMP JUMPDEST PUSH3 0x13BB CALLER ADDRESS DUP5 PUSH3 0x87F DUP6 PUSH3 0x1A9F JUMP JUMPDEST PUSH1 0x40 DUP1 MLOAD DUP1 DUP3 ADD SWAP1 SWAP2 MSTORE PUSH1 0x12 DUP2 MSTORE PUSH32 0x4B45524E454C5F415554485F4641494C45440000000000000000000000000000 PUSH1 0x20 DUP3 ADD MSTORE SWAP1 ISZERO ISZERO PUSH3 0x145B JUMPI PUSH1 0x40 MLOAD PUSH32 0x8C379A000000000000000000000000000000000000000000000000000000000 DUP2 MSTORE PUSH1 0x4 ADD DUP1 DUP1 PUSH1 0x20 ADD DUP3 DUP2 SUB DUP3 MSTORE DUP4 DUP2 DUP2 MLOAD DUP2 MSTORE PUSH1 0x20 ADD SWAP2 POP DUP1 MLOAD SWAP1 PUSH1 0x20 ADD SWAP1 DUP1 DUP4 DUP4 PUSH1 0x0 DUP4 DUP2 LT ISZERO PUSH3 0x926 JUMPI DUP2 DUP2 ADD MLOAD DUP4 DUP3 ADD MSTORE PUSH1 0x20 ADD PUSH3 0x90C JUMP JUMPDEST POP PUSH3 0x1469 DUP6 DUP6 DUP6 PUSH3 0x1C91 JUMP JUMPDEST POP POP POP POP POP JUMP JUMPDEST PUSH1 0x0 SWAP2 DUP3 MSTORE PUSH1 0x20 DUP3 DUP2 MSTORE PUSH1 0x40 DUP1 DUP5 KECCAK256 SWAP3 DUP5 MSTORE SWAP2 SWAP1 MSTORE SWAP1 KECCAK256 SLOAD PUSH20 0xFFFFFFFFFFFFFFFFFFFFFFFFFFFFFFFFFFFFFFFF AND SWAP1 JUMP JUMPDEST PUSH1 0x0 PUSH32 0xB6D92708F3D4817AFC106147D969E229CED5C46E65E0A5002A0D391287762BD0 PUSH3 0x14F0 PUSH32 0xF1F3EB40F5BC1AD1344716CED8B8A0431D840B5783AEA1FD01786BC26F35AC0F DUP8 PUSH3 0x1A91 JUMP JUMPDEST PUSH3 0x1502 CALLER ADDRESS DUP5 PUSH3 0x87F DUP6 PUSH3 0x1A9F JUMP JUMPDEST PUSH1 0x40 DUP1 MLOAD DUP1 DUP3 ADD SWAP1 SWAP2 MSTORE PUSH1 0x12 DUP2 MSTORE PUSH32 0x4B45524E454C5F415554485F4641494C45440000000000000000000000000000 PUSH1 0x20 DUP3 ADD MSTORE SWAP1 ISZERO ISZERO PUSH3 0x15A2 JUMPI PUSH1 0x40 MLOAD PUSH32 0x8C379A000000000000000000000000000000000000000000000000000000000 DUP2 MSTORE PUSH1 0x4 ADD DUP1 DUP1 PUSH1 0x20 ADD DUP3 DUP2 SUB DUP3 MSTORE DUP4 DUP2 DUP2 MLOAD DUP2 MSTORE PUSH1 0x20 ADD SWAP2 POP DUP1 MLOAD SWAP1 PUSH1 0x20 ADD SWAP1 DUP1 DUP4 DUP4 PUSH1 0x0 DUP4 DUP2 LT ISZERO PUSH3 0x926 JUMPI DUP2 DUP2 ADD MLOAD DUP4 DUP3 ADD MSTORE PUSH1 0x20 ADD PUSH3 0x90C JUMP JUMPDEST POP PUSH3 0x15D0 PUSH32 0xF1F3EB40F5BC1AD1344716CED8B8A0431D840B5783AEA1FD01786BC26F35AC0F DUP9 DUP9 PUSH3 0x1AA9 JUMP JUMPDEST PUSH3 0x99D ADDRESS DUP9 DUP8 JUMPDEST PUSH1 0x0 DUP1 DUP5 DUP5 DUP5 PUSH3 0x15E8 PUSH3 0x20C4 JUMP JUMPDEST PUSH20 0xFFFFFFFFFFFFFFFFFFFFFFFFFFFFFFFFFFFFFFFF DUP5 AND DUP2 MSTORE PUSH1 0x20 DUP1 DUP3 ADD DUP5 SWAP1 MSTORE PUSH1 0x60 PUSH1 0x40 DUP4 ADD DUP2 DUP2 MSTORE DUP5 MLOAD SWAP2 DUP5 ADD SWAP2 SWAP1 SWAP2 MSTORE DUP4 MLOAD SWAP1 SWAP2 PUSH1 0x80 DUP5 ADD SWAP2 SWAP1 DUP6 ADD SWAP1 DUP1 DUP4 DUP4 PUSH1 0x0 JUMPDEST DUP4 DUP2 LT ISZERO PUSH3 0x1648 JUMPI DUP2 DUP2 ADD MLOAD DUP4 DUP3 ADD MSTORE PUSH1 0x20 ADD PUSH3 0x162E JUMP JUMPDEST POP POP POP POP SWAP1 POP SWAP1 DUP2 ADD SWAP1 PUSH1 0x1F AND DUP1 ISZERO PUSH3 0x1676 JUMPI DUP1 DUP3 SUB DUP1 MLOAD PUSH1 0x1 DUP4 PUSH1 0x20 SUB PUSH2 0x100 EXP SUB NOT AND DUP2 MSTORE PUSH1 0x20 ADD SWAP2 POP JUMPDEST POP SWAP5 POP POP POP POP POP PUSH1 0x40 MLOAD DUP1 SWAP2 SUB SWAP1 PUSH1 0x0 CREATE DUP1 ISZERO DUP1 ISZERO PUSH3 0x169A JUMPI RETURNDATASIZE PUSH1 0x0 DUP1 RETURNDATACOPY RETURNDATASIZE PUSH1 0x0 REVERT JUMPDEST POP PUSH1 0x40 DUP1 MLOAD PUSH20 0xFFFFFFFFFFFFFFFFFFFFFFFFFFFFFFFFFFFFFFFF DUP4 AND DUP2 MSTORE PUSH1 0x0 PUSH1 0x20 DUP3 ADD MSTORE DUP1 DUP3 ADD DUP8 SWAP1 MSTORE SWAP1 MLOAD SWAP2 SWAP3 POP PUSH32 0xD880E726DCED8808D727F02DD0E6FDD3A945B24BFEE77E13367BCBE61DDBAF47 SWAP2 SWAP1 DUP2 SWAP1 SUB PUSH1 0x60 ADD SWAP1 LOG1 SWAP5 SWAP4 POP POP POP POP JUMP JUMPDEST PUSH32 0xF1F3EB40F5BC1AD1344716CED8B8A0431D840B5783AEA1FD01786BC26F35AC0F SWAP1 JUMP JUMPDEST PUSH1 0x0 PUSH3 0xDF3 PUSH32 0xD6F028CA0E8EDB4A8C9757CA4FDCCAB25FA1E0317DA1188108F7D2DEE14902FB PUSH32 0xE3262375F45A6E2026B7E7B18C2B807434F2508FE1A2A3DFB493C7DF8F4AAD6A PUSH3 0x1470 JUMP JUMPDEST PUSH1 0x0 PUSH32 0xFFFFFFFFFFFFFFFFFFFFFFFFFFFFFFFFFFFFFFFFFFFFFFFFFFFFFFFFFFFFFFFF PUSH3 0x179C PUSH3 0xDC6 JUMP JUMPDEST EQ SWAP1 POP SWAP1 JUMP JUMPDEST PUSH1 0x40 DUP1 MLOAD PUSH1 0x0 DUP1 DUP3 MSTORE PUSH1 0x20 DUP3 ADD SWAP1 SWAP3 MSTORE PUSH3 0x17C1 SWAP1 DUP5 SWAP1 DUP5 SWAP1 PUSH3 0x17EC JUMP JUMPDEST SWAP4 SWAP3 POP POP POP JUMP JUMPDEST PUSH32 0xE3262375F45A6E2026B7E7B18C2B807434F2508FE1A2A3DFB493C7DF8F4AAD6A SWAP1 JUMP JUMPDEST PUSH1 0x0 DUP1 DUP5 DUP5 DUP5 PUSH3 0x17FC PUSH3 0x20D5 JUMP JUMPDEST PUSH20 0xFFFFFFFFFFFFFFFFFFFFFFFFFFFFFFFFFFFFFFFF DUP5 AND DUP2 MSTORE PUSH1 0x20 DUP1 DUP3 ADD DUP5 SWAP1 MSTORE PUSH1 0x60 PUSH1 0x40 DUP4 ADD DUP2 DUP2 MSTORE DUP5 MLOAD SWAP2 DUP5 ADD SWAP2 SWAP1 SWAP2 MSTORE DUP4 MLOAD SWAP1 SWAP2 PUSH1 0x80 DUP5 ADD SWAP2 SWAP1 DUP6 ADD SWAP1 DUP1 DUP4 DUP4 PUSH1 0x0 JUMPDEST DUP4 DUP2 LT ISZERO PUSH3 0x185C JUMPI DUP2 DUP2 ADD MLOAD DUP4 DUP3 ADD MSTORE PUSH1 0x20 ADD PUSH3 0x1842 JUMP JUMPDEST POP POP POP POP SWAP1 POP SWAP1 DUP2 ADD SWAP1 PUSH1 0x1F AND DUP1 ISZERO PUSH3 0x188A JUMPI DUP1 DUP3 SUB DUP1 MLOAD PUSH1 0x1 DUP4 PUSH1 0x20 SUB PUSH2 0x100 EXP SUB NOT AND DUP2 MSTORE PUSH1 0x20 ADD SWAP2 POP JUMPDEST POP SWAP5 POP POP POP POP POP PUSH1 0x40 MLOAD DUP1 SWAP2 SUB SWAP1 PUSH1 0x0 CREATE DUP1 ISZERO DUP1 ISZERO PUSH3 0x18AE JUMPI RETURNDATASIZE PUSH1 0x0 DUP1 RETURNDATACOPY RETURNDATASIZE PUSH1 0x0 REVERT JUMPDEST POP PUSH1 0x40 DUP1 MLOAD PUSH20 0xFFFFFFFFFFFFFFFFFFFFFFFFFFFFFFFFFFFFFFFF DUP4 AND DUP2 MSTORE PUSH1 0x1 PUSH1 0x20 DUP3 ADD MSTORE DUP1 DUP3 ADD DUP8 SWAP1 MSTORE SWAP1 MLOAD SWAP2 SWAP3 POP PUSH32 0xD880E726DCED8808D727F02DD0E6FDD3A945B24BFEE77E13367BCBE61DDBAF47 SWAP2 SWAP1 DUP2 SWAP1 SUB PUSH1 0x60 ADD SWAP1 LOG1 SWAP5 SWAP4 POP POP POP POP JUMP JUMPDEST PUSH1 0x0 DUP1 PUSH3 0x191E PUSH3 0x1721 JUMP JUMPDEST SWAP1 POP PUSH20 0xFFFFFFFFFFFFFFFFFFFFFFFFFFFFFFFFFFFFFFFF DUP2 AND ISZERO DUP1 ISZERO SWAP1 PUSH3 0x1A64 JUMPI POP PUSH1 0x40 MLOAD PUSH32 0xFDEF910600000000000000000000000000000000000000000000000000000000 DUP2 MSTORE PUSH20 0xFFFFFFFFFFFFFFFFFFFFFFFFFFFFFFFFFFFFFFFF DUP8 DUP2 AND PUSH1 0x4 DUP4 ADD SWAP1 DUP2 MSTORE DUP8 DUP3 AND PUSH1 0x24 DUP5 ADD MSTORE PUSH1 0x44 DUP4 ADD DUP8 SWAP1 MSTORE PUSH1 0x80 PUSH1 0x64 DUP5 ADD SWAP1 DUP2 MSTORE DUP7 MLOAD PUSH1 0x84 DUP6 ADD MSTORE DUP7 MLOAD SWAP3 DUP6 AND SWAP4 PUSH4 0xFDEF9106 SWAP4 DUP12 SWAP4 DUP12 SWAP4 DUP12 SWAP4 DUP12 SWAP4 PUSH1 0xA4 SWAP1 SWAP2 ADD SWAP1 PUSH1 0x20 DUP6 ADD SWAP1 DUP1 DUP4 DUP4 PUSH1 0x0 JUMPDEST DUP4 DUP2 LT ISZERO PUSH3 0x19E4 JUMPI DUP2 DUP2 ADD MLOAD DUP4 DUP3 ADD MSTORE PUSH1 0x20 ADD PUSH3 0x19CA JUMP JUMPDEST POP POP POP POP SWAP1 POP SWAP1 DUP2 ADD SWAP1 PUSH1 0x1F AND DUP1 ISZERO PUSH3 0x1A12 JUMPI DUP1 DUP3 SUB DUP1 MLOAD PUSH1 0x1 DUP4 PUSH1 0x20 SUB PUSH2 0x100 EXP SUB NOT AND DUP2 MSTORE PUSH1 0x20 ADD SWAP2 POP JUMPDEST POP SWAP6 POP POP POP POP POP POP PUSH1 0x20 PUSH1 0x40 MLOAD DUP1 DUP4 SUB DUP2 PUSH1 0x0 DUP8 DUP1 EXTCODESIZE ISZERO DUP1 ISZERO PUSH3 0x1A35 JUMPI PUSH1 0x0 DUP1 REVERT JUMPDEST POP GAS CALL ISZERO DUP1 ISZERO PUSH3 0x1A4A JUMPI RETURNDATASIZE PUSH1 0x0 DUP1 RETURNDATACOPY RETURNDATASIZE PUSH1 0x0 REVERT JUMPDEST POP POP POP POP PUSH1 0x40 MLOAD RETURNDATASIZE PUSH1 0x20 DUP2 LT ISZERO PUSH3 0x1A61 JUMPI PUSH1 0x0 DUP1 REVERT JUMPDEST POP MLOAD JUMPDEST SWAP7 SWAP6 POP POP POP POP POP POP JUMP JUMPDEST PUSH1 0x40 DUP1 MLOAD PUSH1 0x0 DUP1 DUP3 MSTORE PUSH1 0x20 DUP3 ADD SWAP1 SWAP3 MSTORE PUSH3 0x17C1 SWAP1 DUP5 SWAP1 DUP5 SWAP1 PUSH3 0x15D8 JUMP JUMPDEST NUMBER SWAP1 JUMP JUMPDEST PUSH1 0x60 PUSH3 0x17C1 DUP4 DUP4 PUSH3 0x1FDE JUMP JUMPDEST DUP1 MLOAD PUSH1 0x20 MUL DUP2 MSTORE SWAP1 JUMP JUMPDEST PUSH1 0x0 PUSH3 0x1AB7 DUP5 DUP5 PUSH3 0x1470 JUMP JUMPDEST SWAP1 POP PUSH20 0xFFFFFFFFFFFFFFFFFFFFFFFFFFFFFFFFFFFFFFFF DUP2 AND ISZERO PUSH3 0x1B96 JUMPI PUSH1 0x40 DUP1 MLOAD DUP1 DUP3 ADD SWAP1 SWAP2 MSTORE PUSH1 0x19 DUP2 MSTORE PUSH32 0x4B45524E454C5F494E56414C49445F4150505F4348414E474500000000000000 PUSH1 0x20 DUP3 ADD MSTORE PUSH20 0xFFFFFFFFFFFFFFFFFFFFFFFFFFFFFFFFFFFFFFFF DUP3 DUP2 AND SWAP1 DUP5 AND EQ PUSH3 0x1B8F JUMPI PUSH1 0x40 MLOAD PUSH32 0x8C379A000000000000000000000000000000000000000000000000000000000 DUP2 MSTORE PUSH1 0x4 ADD DUP1 DUP1 PUSH1 0x20 ADD DUP3 DUP2 SUB DUP3 MSTORE DUP4 DUP2 DUP2 MLOAD DUP2 MSTORE PUSH1 0x20 ADD SWAP2 POP DUP1 MLOAD SWAP1 PUSH1 0x20 ADD SWAP1 DUP1 DUP4 DUP4 PUSH1 0x0 DUP4 DUP2 LT ISZERO PUSH3 0x926 JUMPI DUP2 DUP2 ADD MLOAD DUP4 DUP3 ADD MSTORE PUSH1 0x20 ADD PUSH3 0x90C JUMP JUMPDEST POP PUSH3 0x1BA3 JUMP JUMPDEST PUSH3 0x1BA3 DUP5 DUP5 DUP5 PUSH3 0x1C91 JUMP JUMPDEST POP POP POP POP JUMP JUMPDEST PUSH3 0x1BB3 PUSH3 0xDC6 JUMP JUMPDEST PUSH1 0x40 DUP1 MLOAD DUP1 DUP3 ADD SWAP1 SWAP2 MSTORE PUSH1 0x18 DUP2 MSTORE PUSH32 0x494E49545F414C52454144595F494E495449414C495A45440000000000000000 PUSH1 0x20 DUP3 ADD MSTORE SWAP1 ISZERO PUSH3 0x1C52 JUMPI PUSH1 0x40 MLOAD PUSH32 0x8C379A000000000000000000000000000000000000000000000000000000000 DUP2 MSTORE PUSH1 0x4 ADD DUP1 DUP1 PUSH1 0x20 ADD DUP3 DUP2 SUB DUP3 MSTORE DUP4 DUP2 DUP2 MLOAD DUP2 MSTORE PUSH1 0x20 ADD SWAP2 POP DUP1 MLOAD SWAP1 PUSH1 0x20 ADD SWAP1 DUP1 DUP4 DUP4 PUSH1 0x0 DUP4 DUP2 LT ISZERO PUSH3 0x926 JUMPI DUP2 DUP2 ADD MLOAD DUP4 DUP3 ADD MSTORE PUSH1 0x20 ADD PUSH3 0x90C JUMP JUMPDEST POP PUSH3 0x1C8F PUSH3 0x1C61 PUSH3 0x1A8D JUMP JUMPDEST PUSH32 0xEBB05B386A8D34882B8711D156F463690983DC47815980FB82AEEFF1AA43579E SWAP1 PUSH4 0xFFFFFFFF PUSH3 0x203B AND JUMP JUMPDEST JUMP JUMPDEST PUSH3 0x1C9C DUP2 PUSH3 0x1DD3 JUMP JUMPDEST PUSH1 0x40 DUP1 MLOAD DUP1 DUP3 ADD SWAP1 SWAP2 MSTORE PUSH1 0x17 DUP2 MSTORE PUSH32 0x4B45524E454C5F4150505F4E4F545F434F4E5452414354000000000000000000 PUSH1 0x20 DUP3 ADD MSTORE SWAP1 ISZERO ISZERO PUSH3 0x1D3C JUMPI PUSH1 0x40 MLOAD PUSH32 0x8C379A000000000000000000000000000000000000000000000000000000000 DUP2 MSTORE PUSH1 0x4 ADD DUP1 DUP1 PUSH1 0x20 ADD DUP3 DUP2 SUB DUP3 MSTORE DUP4 DUP2 DUP2 MLOAD DUP2 MSTORE PUSH1 0x20 ADD SWAP2 POP DUP1 MLOAD SWAP1 PUSH1 0x20 ADD SWAP1 DUP1 DUP4 DUP4 PUSH1 0x0 DUP4 DUP2 LT ISZERO PUSH3 0x926 JUMPI DUP2 DUP2 ADD MLOAD DUP4 DUP3 ADD MSTORE PUSH1 0x20 ADD PUSH3 0x90C JUMP JUMPDEST POP PUSH1 0x0 DUP4 DUP2 MSTORE PUSH1 0x20 DUP2 DUP2 MSTORE PUSH1 0x40 DUP1 DUP4 KECCAK256 DUP6 DUP5 MSTORE DUP3 MSTORE SWAP2 DUP3 SWAP1 KECCAK256 DUP1 SLOAD PUSH32 0xFFFFFFFFFFFFFFFFFFFFFFFF0000000000000000000000000000000000000000 AND PUSH20 0xFFFFFFFFFFFFFFFFFFFFFFFFFFFFFFFFFFFFFFFF DUP6 AND SWAP1 DUP2 OR SWAP1 SWAP2 SSTORE DUP3 MLOAD SWAP1 DUP2 MSTORE SWAP2 MLOAD DUP5 SWAP3 DUP7 SWAP3 PUSH32 0x2EC1AE0A449B7AE354B9DACFB3ADE6B6332BA26B7FCBB935835FA39DD7263B23 SWAP3 SWAP2 DUP3 SWAP1 SUB ADD SWAP1 LOG3 POP POP POP JUMP JUMPDEST SLOAD SWAP1 JUMP JUMPDEST PUSH1 0x0 DUP1 PUSH20 0xFFFFFFFFFFFFFFFFFFFFFFFFFFFFFFFFFFFFFFFF DUP4 AND ISZERO ISZERO PUSH3 0x1DFE JUMPI PUSH1 0x0 SWAP2 POP PUSH3 0x1E09 JUMP JUMPDEST DUP3 EXTCODESIZE SWAP1 POP PUSH1 0x0 DUP2 GT SWAP2 POP JUMPDEST POP SWAP2 SWAP1 POP JUMP JUMPDEST PUSH1 0x40 DUP1 MLOAD PUSH20 0xFFFFFFFFFFFFFFFFFFFFFFFFFFFFFFFFFFFFFFFF DUP4 AND PUSH1 0x24 DUP1 DUP4 ADD SWAP2 SWAP1 SWAP2 MSTORE DUP3 MLOAD DUP1 DUP4 SUB SWAP1 SWAP2 ADD DUP2 MSTORE PUSH1 0x44 SWAP1 SWAP2 ADD SWAP1 SWAP2 MSTORE PUSH1 0x20 DUP2 ADD DUP1 MLOAD PUSH28 0xFFFFFFFFFFFFFFFFFFFFFFFFFFFFFFFFFFFFFFFFFFFFFFFFFFFFFFFF AND PUSH32 0x70A0823100000000000000000000000000000000000000000000000000000000 OR SWAP1 MSTORE PUSH1 0x0 SWAP1 DUP2 DUP1 PUSH3 0x1E9E DUP7 DUP5 PUSH3 0x203F JUMP JUMPDEST PUSH1 0x40 DUP1 MLOAD DUP1 DUP3 ADD SWAP1 SWAP2 MSTORE PUSH1 0x1C DUP2 MSTORE PUSH32 0x534146455F4552435F32305F42414C414E43455F524556455254454400000000 PUSH1 0x20 DUP3 ADD MSTORE SWAP2 SWAP4 POP SWAP2 POP DUP3 ISZERO ISZERO PUSH3 0x1F43 JUMPI PUSH1 0x40 MLOAD PUSH32 0x8C379A000000000000000000000000000000000000000000000000000000000 DUP2 MSTORE PUSH1 0x4 ADD DUP1 DUP1 PUSH1 0x20 ADD DUP3 DUP2 SUB DUP3 MSTORE DUP4 DUP2 DUP2 MLOAD DUP2 MSTORE PUSH1 0x20 ADD SWAP2 POP DUP1 MLOAD SWAP1 PUSH1 0x20 ADD SWAP1 DUP1 DUP4 DUP4 PUSH1 0x0 DUP4 DUP2 LT ISZERO PUSH3 0x926 JUMPI DUP2 DUP2 ADD MLOAD DUP4 DUP3 ADD MSTORE PUSH1 0x20 ADD PUSH3 0x90C JUMP JUMPDEST POP SWAP6 SWAP5 POP POP POP POP POP JUMP JUMPDEST PUSH1 0x40 DUP1 MLOAD PUSH20 0xFFFFFFFFFFFFFFFFFFFFFFFFFFFFFFFFFFFFFFFF DUP5 AND PUSH1 0x24 DUP3 ADD MSTORE PUSH1 0x44 DUP1 DUP3 ADD DUP5 SWAP1 MSTORE DUP3 MLOAD DUP1 DUP4 SUB SWAP1 SWAP2 ADD DUP2 MSTORE PUSH1 0x64 SWAP1 SWAP2 ADD SWAP1 SWAP2 MSTORE PUSH1 0x20 DUP2 ADD DUP1 MLOAD PUSH28 0xFFFFFFFFFFFFFFFFFFFFFFFFFFFFFFFFFFFFFFFFFFFFFFFFFFFFFFFF AND PUSH32 0xA9059CBB00000000000000000000000000000000000000000000000000000000 OR SWAP1 MSTORE PUSH1 0x0 SWAP1 PUSH3 0xDB7 DUP6 DUP3 PUSH3 0x2071 JUMP JUMPDEST PUSH1 0x40 DUP1 MLOAD PUSH1 0x2 DUP1 DUP3 MSTORE PUSH1 0x60 DUP1 DUP4 ADD DUP5 MSTORE SWAP3 PUSH1 0x20 DUP4 ADD SWAP1 DUP1 CODESIZE DUP4 CODECOPY ADD SWAP1 POP POP SWAP1 POP DUP3 DUP2 PUSH1 0x0 DUP2 MLOAD DUP2 LT ISZERO ISZERO PUSH3 0x200F JUMPI INVALID JUMPDEST PUSH1 0x20 SWAP1 DUP2 MUL SWAP1 SWAP2 ADD ADD MSTORE DUP1 MLOAD DUP3 SWAP1 DUP3 SWAP1 PUSH1 0x1 SWAP1 DUP2 LT PUSH3 0x202B JUMPI INVALID JUMPDEST PUSH1 0x20 SWAP1 DUP2 MUL SWAP1 SWAP2 ADD ADD MSTORE SWAP3 SWAP2 POP POP JUMP JUMPDEST SWAP1 SSTORE JUMP JUMPDEST PUSH1 0x0 DUP1 PUSH1 0x0 DUP1 PUSH1 0x40 MLOAD PUSH1 0x20 DUP2 DUP8 MLOAD PUSH1 0x20 DUP10 ADD DUP11 GAS STATICCALL SWAP3 POP PUSH1 0x0 DUP4 GT ISZERO PUSH3 0x2065 JUMPI DUP1 MLOAD SWAP2 POP JUMPDEST POP SWAP1 SWAP6 SWAP1 SWAP5 POP SWAP3 POP POP POP JUMP JUMPDEST PUSH1 0x0 DUP1 PUSH1 0x40 MLOAD PUSH1 0x20 DUP2 DUP6 MLOAD PUSH1 0x20 DUP8 ADD PUSH1 0x0 DUP10 GAS CALL PUSH1 0x0 DUP2 GT ISZERO PUSH3 0x20BA JUMPI RETURNDATASIZE DUP1 ISZERO PUSH3 0x20A6 JUMPI PUSH1 0x20 DUP2 EQ PUSH3 0x20B0 JUMPI PUSH3 0x20B8 JUMP JUMPDEST PUSH1 0x1 SWAP4 POP PUSH3 0x20B8 JUMP JUMPDEST PUSH1 0x1 DUP4 MLOAD EQ SWAP4 POP JUMPDEST POP JUMPDEST POP SWAP1 SWAP5 SWAP4 POP POP POP POP JUMP JUMPDEST PUSH1 0x40 MLOAD PUSH2 0x6FD DUP1 PUSH3 0x20E7 DUP4 CODECOPY ADD SWAP1 JUMP JUMPDEST PUSH1 0x40 MLOAD PUSH2 0x6ED DUP1 PUSH3 0x27E4 DUP4 CODECOPY ADD SWAP1 JUMP STOP PUSH1 0x80 PUSH1 0x40 MSTORE CALLVALUE DUP1 ISZERO PUSH2 0x10 JUMPI PUSH1 0x0 DUP1 REVERT JUMPDEST POP PUSH1 0x40 MLOAD PUSH2 0x6FD CODESIZE SUB DUP1 PUSH2 0x6FD DUP4 CODECOPY DUP2 ADD PUSH1 0x40 SWAP1 DUP2 MSTORE DUP2 MLOAD PUSH1 0x20 DUP4 ADD MLOAD SWAP2 DUP4 ADD MLOAD SWAP1 SWAP3 ADD DUP3 DUP3 DUP3 PUSH1 0x0 PUSH2 0x4B DUP5 PUSH5 0x100000000 PUSH2 0x17A DUP2 MUL DIV JUMP JUMPDEST PUSH2 0x5D DUP4 PUSH5 0x100000000 PUSH2 0x1A2 DUP2 MUL DIV JUMP JUMPDEST PUSH2 0x6F DUP4 PUSH5 0x100000000 PUSH2 0x1D9 DUP2 MUL DIV JUMP JUMPDEST SWAP1 POP PUSH1 0x0 DUP3 MLOAD GT ISZERO PUSH2 0x118 JUMPI PUSH2 0x8D DUP2 PUSH5 0x100000000 PUSH2 0x2A9 DUP2 MUL DIV JUMP JUMPDEST ISZERO ISZERO PUSH2 0x98 JUMPI PUSH1 0x0 DUP1 REVERT JUMPDEST DUP1 PUSH1 0x1 PUSH1 0xA0 PUSH1 0x2 EXP SUB AND DUP3 PUSH1 0x40 MLOAD DUP1 DUP3 DUP1 MLOAD SWAP1 PUSH1 0x20 ADD SWAP1 DUP1 DUP4 DUP4 PUSH1 0x0 JUMPDEST DUP4 DUP2 LT ISZERO PUSH2 0xCD JUMPI DUP2 DUP2 ADD MLOAD DUP4 DUP3 ADD MSTORE PUSH1 0x20 ADD PUSH2 0xB5 JUMP JUMPDEST POP POP POP POP SWAP1 POP SWAP1 DUP2 ADD SWAP1 PUSH1 0x1F AND DUP1 ISZERO PUSH2 0xFA JUMPI DUP1 DUP3 SUB DUP1 MLOAD PUSH1 0x1 DUP4 PUSH1 0x20 SUB PUSH2 0x100 EXP SUB NOT AND DUP2 MSTORE PUSH1 0x20 ADD SWAP2 POP JUMPDEST POP SWAP2 POP POP PUSH1 0x0 PUSH1 0x40 MLOAD DUP1 DUP4 SUB DUP2 DUP6 GAS DELEGATECALL SWAP2 POP POP ISZERO ISZERO PUSH2 0x118 JUMPI PUSH1 0x0 DUP1 REVERT JUMPDEST POP POP POP POP PUSH2 0x145 PUSH2 0x137 DUP4 PUSH2 0x1D9 PUSH5 0x100000000 MUL PUSH5 0x100000000 SWAP1 DIV JUMP JUMPDEST PUSH5 0x100000000 PUSH2 0x2D6 DUP2 MUL DIV JUMP JUMPDEST PUSH2 0x167 PUSH2 0x159 PUSH5 0x100000000 PUSH2 0x2FB DUP2 MUL DIV JUMP JUMPDEST PUSH5 0x100000000 PUSH2 0x2A9 DUP2 MUL DIV JUMP JUMPDEST ISZERO ISZERO PUSH2 0x172 JUMPI PUSH1 0x0 DUP1 REVERT JUMPDEST POP POP POP PUSH2 0x354 JUMP JUMPDEST PUSH2 0x19F PUSH1 0x0 DUP1 MLOAD PUSH1 0x20 PUSH2 0x6BD DUP4 CODECOPY DUP2 MLOAD SWAP2 MSTORE DUP3 PUSH5 0x100000000 PUSH2 0x326 PUSH2 0x326 DUP3 MUL OR DIV JUMP JUMPDEST POP JUMP JUMPDEST PUSH2 0x19F PUSH32 0xD625496217AA6A3453EECB9C3489DC5A53E6C67B444329EA2B2CBC9FF547639B DUP3 PUSH5 0x100000000 PUSH2 0x326 PUSH2 0x326 DUP3 MUL OR DIV JUMP JUMPDEST PUSH1 0x0 PUSH2 0x1EC PUSH5 0x100000000 PUSH2 0x32A DUP2 MUL DIV JUMP JUMPDEST PUSH1 0x40 DUP1 MLOAD PUSH32 0xBE00BBD800000000000000000000000000000000000000000000000000000000 DUP2 MSTORE PUSH32 0xF1F3EB40F5BC1AD1344716CED8B8A0431D840B5783AEA1FD01786BC26F35AC0F PUSH1 0x4 DUP3 ADD MSTORE PUSH1 0x24 DUP2 ADD DUP6 SWAP1 MSTORE SWAP1 MLOAD PUSH1 0x1 PUSH1 0xA0 PUSH1 0x2 EXP SUB SWAP3 SWAP1 SWAP3 AND SWAP2 PUSH4 0xBE00BBD8 SWAP2 PUSH1 0x44 DUP1 DUP3 ADD SWAP3 PUSH1 0x20 SWAP3 SWAP1 SWAP2 SWAP1 DUP3 SWAP1 SUB ADD DUP2 PUSH1 0x0 DUP8 DUP1 EXTCODESIZE ISZERO DUP1 ISZERO PUSH2 0x277 JUMPI PUSH1 0x0 DUP1 REVERT JUMPDEST POP GAS CALL ISZERO DUP1 ISZERO PUSH2 0x28B JUMPI RETURNDATASIZE PUSH1 0x0 DUP1 RETURNDATACOPY RETURNDATASIZE PUSH1 0x0 REVERT JUMPDEST POP POP POP POP PUSH1 0x40 MLOAD RETURNDATASIZE PUSH1 0x20 DUP2 LT ISZERO PUSH2 0x2A1 JUMPI PUSH1 0x0 DUP1 REVERT JUMPDEST POP MLOAD SWAP3 SWAP2 POP POP JUMP JUMPDEST PUSH1 0x0 DUP1 PUSH1 0x1 PUSH1 0xA0 PUSH1 0x2 EXP SUB DUP4 AND ISZERO ISZERO PUSH2 0x2C5 JUMPI PUSH1 0x0 SWAP2 POP PUSH2 0x2D0 JUMP JUMPDEST DUP3 EXTCODESIZE SWAP1 POP PUSH1 0x0 DUP2 GT SWAP2 POP JUMPDEST POP SWAP2 SWAP1 POP JUMP JUMPDEST PUSH2 0x19F PUSH1 0x0 DUP1 MLOAD PUSH1 0x20 PUSH2 0x6DD DUP4 CODECOPY DUP2 MLOAD SWAP2 MSTORE DUP3 PUSH5 0x100000000 PUSH2 0x326 PUSH2 0x326 DUP3 MUL OR DIV JUMP JUMPDEST PUSH1 0x0 PUSH2 0x321 PUSH1 0x0 DUP1 MLOAD PUSH1 0x20 PUSH2 0x6DD DUP4 CODECOPY DUP2 MLOAD SWAP2 MSTORE PUSH5 0x100000000 PUSH2 0x31E PUSH2 0x350 DUP3 MUL OR DIV JUMP JUMPDEST SWAP1 POP SWAP1 JUMP JUMPDEST SWAP1 SSTORE JUMP JUMPDEST PUSH1 0x0 PUSH2 0x321 PUSH1 0x0 DUP1 MLOAD PUSH1 0x20 PUSH2 0x6BD DUP4 CODECOPY DUP2 MLOAD SWAP2 MSTORE PUSH5 0x100000000 PUSH2 0x31E PUSH2 0x350 DUP3 MUL OR DIV JUMP JUMPDEST SLOAD SWAP1 JUMP JUMPDEST PUSH2 0x35A DUP1 PUSH2 0x363 PUSH1 0x0 CODECOPY PUSH1 0x0 RETURN STOP PUSH1 0x80 PUSH1 0x40 MSTORE PUSH1 0x4 CALLDATASIZE LT PUSH2 0x6C JUMPI PUSH4 0xFFFFFFFF PUSH29 0x100000000000000000000000000000000000000000000000000000000 PUSH1 0x0 CALLDATALOAD DIV AND PUSH4 0x4555D5C9 DUP2 EQ PUSH2 0x12B JUMPI DUP1 PUSH4 0x48A0C8DD EQ PUSH2 0x152 JUMPI DUP1 PUSH4 0x5C60DA1B EQ PUSH2 0x17B JUMPI DUP1 PUSH4 0x80AFDEA8 EQ PUSH2 0x1B9 JUMPI DUP1 PUSH4 0xD4AAE0C4 EQ PUSH2 0x1CE JUMPI JUMPDEST PUSH2 0x2710 PUSH32 0x665FD576FBBE6F247AFF98F5C94A561E3F71EC2D3C988D56F12D342396C50CEA PUSH1 0x0 DUP3 GAS LT ISZERO PUSH2 0xE1 JUMPI PUSH1 0x0 CALLVALUE GT CALLDATASIZE ISZERO DUP4 SLOAD AND AND ISZERO PUSH2 0xDC JUMPI PUSH1 0x40 MLOAD CALLER DUP2 MSTORE CALLVALUE PUSH1 0x20 DUP3 ADD MSTORE PUSH32 0x15EEAA57C7BD188C1388020BCADC2C436EC60D647D36EF5B9EB3C742217DDEE1 PUSH1 0x40 DUP3 LOG1 STOP JUMPDEST PUSH1 0x0 DUP1 REVERT JUMPDEST PUSH2 0xE9 PUSH2 0x1E3 JUMP JUMPDEST SWAP1 POP PUSH2 0x126 DUP2 PUSH1 0x0 CALLDATASIZE DUP1 DUP1 PUSH1 0x1F ADD PUSH1 0x20 DUP1 SWAP2 DIV MUL PUSH1 0x20 ADD PUSH1 0x40 MLOAD SWAP1 DUP2 ADD PUSH1 0x40 MSTORE DUP1 SWAP4 SWAP3 SWAP2 SWAP1 DUP2 DUP2 MSTORE PUSH1 0x20 ADD DUP4 DUP4 DUP1 DUP3 DUP5 CALLDATACOPY POP PUSH2 0x1F2 SWAP5 POP POP POP POP POP JUMP JUMPDEST POP POP POP STOP JUMPDEST CALLVALUE DUP1 ISZERO PUSH2 0x137 JUMPI PUSH1 0x0 DUP1 REVERT JUMPDEST POP PUSH2 0x140 PUSH2 0x233 JUMP JUMPDEST PUSH1 0x40 DUP1 MLOAD SWAP2 DUP3 MSTORE MLOAD SWAP1 DUP2 SWAP1 SUB PUSH1 0x20 ADD SWAP1 RETURN JUMPDEST CALLVALUE DUP1 ISZERO PUSH2 0x15E JUMPI PUSH1 0x0 DUP1 REVERT JUMPDEST POP PUSH2 0x167 PUSH2 0x238 JUMP JUMPDEST PUSH1 0x40 DUP1 MLOAD SWAP2 ISZERO ISZERO DUP3 MSTORE MLOAD SWAP1 DUP2 SWAP1 SUB PUSH1 0x20 ADD SWAP1 RETURN JUMPDEST CALLVALUE DUP1 ISZERO PUSH2 0x187 JUMPI PUSH1 0x0 DUP1 REVERT JUMPDEST POP PUSH2 0x190 PUSH2 0x1E3 JUMP JUMPDEST PUSH1 0x40 DUP1 MLOAD PUSH20 0xFFFFFFFFFFFFFFFFFFFFFFFFFFFFFFFFFFFFFFFF SWAP1 SWAP3 AND DUP3 MSTORE MLOAD SWAP1 DUP2 SWAP1 SUB PUSH1 0x20 ADD SWAP1 RETURN JUMPDEST CALLVALUE DUP1 ISZERO PUSH2 0x1C5 JUMPI PUSH1 0x0 DUP1 REVERT JUMPDEST POP PUSH2 0x140 PUSH2 0x263 JUMP JUMPDEST CALLVALUE DUP1 ISZERO PUSH2 0x1DA JUMPI PUSH1 0x0 DUP1 REVERT JUMPDEST POP PUSH2 0x190 PUSH2 0x28E JUMP JUMPDEST PUSH1 0x0 PUSH2 0x1ED PUSH2 0x2B9 JUMP JUMPDEST SWAP1 POP SWAP1 JUMP JUMPDEST PUSH1 0x0 PUSH2 0x1FD DUP4 PUSH2 0x2E4 JUMP JUMPDEST ISZERO ISZERO PUSH2 0x208 JUMPI PUSH1 0x0 DUP1 REVERT JUMPDEST PUSH2 0x2710 SWAP1 POP PUSH1 0x0 DUP1 DUP4 MLOAD PUSH1 0x20 DUP6 ADD DUP7 DUP6 GAS SUB DELEGATECALL RETURNDATASIZE PUSH1 0x40 MLOAD DUP2 PUSH1 0x0 DUP3 RETURNDATACOPY DUP3 DUP1 ISZERO PUSH2 0x22F JUMPI DUP3 DUP3 RETURN JUMPDEST DUP3 DUP3 REVERT JUMPDEST PUSH1 0x1 SWAP1 JUMP JUMPDEST PUSH1 0x0 PUSH2 0x1ED PUSH32 0x665FD576FBBE6F247AFF98F5C94A561E3F71EC2D3C988D56F12D342396C50CEA PUSH2 0x31E JUMP JUMPDEST PUSH1 0x0 PUSH2 0x1ED PUSH32 0xD625496217AA6A3453EECB9C3489DC5A53E6C67B444329EA2B2CBC9FF547639B PUSH2 0x31E JUMP JUMPDEST PUSH1 0x0 PUSH2 0x1ED PUSH32 0x4172F0F7D2289153072B0A6CA36959E0CBE2EFC3AFE50FC81636CAA96338137B PUSH2 0x31E JUMP JUMPDEST PUSH1 0x0 PUSH2 0x1ED PUSH32 0xDEE64DF20D65E53D7F51CB6AB6D921A0A6A638A91E942E1D8D02DF28E31C038E PUSH2 0x31E JUMP JUMPDEST PUSH1 0x0 DUP1 PUSH20 0xFFFFFFFFFFFFFFFFFFFFFFFFFFFFFFFFFFFFFFFF DUP4 AND ISZERO ISZERO PUSH2 0x30D JUMPI PUSH1 0x0 SWAP2 POP PUSH2 0x318 JUMP JUMPDEST DUP3 EXTCODESIZE SWAP1 POP PUSH1 0x0 DUP2 GT SWAP2 POP JUMPDEST POP SWAP2 SWAP1 POP JUMP JUMPDEST SLOAD SWAP1 JUMP JUMPDEST SLOAD SWAP1 JUMP JUMPDEST SWAP1 SSTORE JUMP JUMPDEST SWAP1 SSTORE JUMP STOP LOG1 PUSH6 0x627A7A723058 KECCAK256 SAR SAR 0xf5 0xe6 MOD 0xe4 0x26 REVERT NUMBER 0xf8 PUSH20 0xBE17B7B8D71192CE436CF915B43CB8BCEC7DBD2B 0xa7 STOP 0x29 COINBASE PUSH19 0xF0F7D2289153072B0A6CA36959E0CBE2EFC3AF 0xe5 0xf 0xc8 AND CALLDATASIZE 0xca 0xa9 PUSH4 0x38137BDE 0xe6 0x4d CALLCODE 0xd PUSH6 0xE53D7F51CB6A 0xb6 0xd9 0x21 LOG0 0xa6 0xa6 CODESIZE 0xa9 0x1e SWAP5 0x2e SAR DUP14 MUL 0xdf 0x28 0xe3 SHR SUB DUP15 PUSH1 0x80 PUSH1 0x40 MSTORE CALLVALUE DUP1 ISZERO PUSH2 0x10 JUMPI PUSH1 0x0 DUP1 REVERT JUMPDEST POP PUSH1 0x40 MLOAD PUSH2 0x6ED CODESIZE SUB DUP1 PUSH2 0x6ED DUP4 CODECOPY DUP2 ADD PUSH1 0x40 SWAP1 DUP2 MSTORE DUP2 MLOAD PUSH1 0x20 DUP4 ADD MLOAD SWAP2 DUP4 ADD MLOAD SWAP1 SWAP3 ADD DUP3 DUP3 DUP3 PUSH1 0x0 PUSH2 0x4B DUP5 PUSH5 0x100000000 PUSH2 0x124 DUP2 MUL DIV JUMP JUMPDEST PUSH2 0x5D DUP4 PUSH5 0x100000000 PUSH2 0x14C DUP2 MUL DIV JUMP JUMPDEST PUSH2 0x6F DUP4 PUSH5 0x100000000 PUSH2 0x183 DUP2 MUL DIV JUMP JUMPDEST SWAP1 POP PUSH1 0x0 DUP3 MLOAD GT ISZERO PUSH2 0x118 JUMPI PUSH2 0x8D DUP2 PUSH5 0x100000000 PUSH2 0x253 DUP2 MUL DIV JUMP JUMPDEST ISZERO ISZERO PUSH2 0x98 JUMPI PUSH1 0x0 DUP1 REVERT JUMPDEST DUP1 PUSH1 0x1 PUSH1 0xA0 PUSH1 0x2 EXP SUB AND DUP3 PUSH1 0x40 MLOAD DUP1 DUP3 DUP1 MLOAD SWAP1 PUSH1 0x20 ADD SWAP1 DUP1 DUP4 DUP4 PUSH1 0x0 JUMPDEST DUP4 DUP2 LT ISZERO PUSH2 0xCD JUMPI DUP2 DUP2 ADD MLOAD DUP4 DUP3 ADD MSTORE PUSH1 0x20 ADD PUSH2 0xB5 JUMP JUMPDEST POP POP POP POP SWAP1 POP SWAP1 DUP2 ADD SWAP1 PUSH1 0x1F AND DUP1 ISZERO PUSH2 0xFA JUMPI DUP1 DUP3 SUB DUP1 MLOAD PUSH1 0x1 DUP4 PUSH1 0x20 SUB PUSH2 0x100 EXP SUB NOT AND DUP2 MSTORE PUSH1 0x20 ADD SWAP2 POP JUMPDEST POP SWAP2 POP POP PUSH1 0x0 PUSH1 0x40 MLOAD DUP1 DUP4 SUB DUP2 DUP6 GAS DELEGATECALL SWAP2 POP POP ISZERO ISZERO PUSH2 0x118 JUMPI PUSH1 0x0 DUP1 REVERT JUMPDEST POP POP POP POP POP POP POP PUSH2 0x2B3 JUMP JUMPDEST PUSH2 0x149 PUSH1 0x0 DUP1 MLOAD PUSH1 0x20 PUSH2 0x6CD DUP4 CODECOPY DUP2 MLOAD SWAP2 MSTORE DUP3 PUSH5 0x100000000 PUSH2 0x3D7 PUSH2 0x280 DUP3 MUL OR DIV JUMP JUMPDEST POP JUMP JUMPDEST PUSH2 0x149 PUSH32 0xD625496217AA6A3453EECB9C3489DC5A53E6C67B444329EA2B2CBC9FF547639B DUP3 PUSH5 0x100000000 PUSH2 0x3D7 PUSH2 0x280 DUP3 MUL OR DIV JUMP JUMPDEST PUSH1 0x0 PUSH2 0x196 PUSH5 0x100000000 PUSH2 0x284 DUP2 MUL DIV JUMP JUMPDEST PUSH1 0x40 DUP1 MLOAD PUSH32 0xBE00BBD800000000000000000000000000000000000000000000000000000000 DUP2 MSTORE PUSH32 0xF1F3EB40F5BC1AD1344716CED8B8A0431D840B5783AEA1FD01786BC26F35AC0F PUSH1 0x4 DUP3 ADD MSTORE PUSH1 0x24 DUP2 ADD DUP6 SWAP1 MSTORE SWAP1 MLOAD PUSH1 0x1 PUSH1 0xA0 PUSH1 0x2 EXP SUB SWAP3 SWAP1 SWAP3 AND SWAP2 PUSH4 0xBE00BBD8 SWAP2 PUSH1 0x44 DUP1 DUP3 ADD SWAP3 PUSH1 0x20 SWAP3 SWAP1 SWAP2 SWAP1 DUP3 SWAP1 SUB ADD DUP2 PUSH1 0x0 DUP8 DUP1 EXTCODESIZE ISZERO DUP1 ISZERO PUSH2 0x221 JUMPI PUSH1 0x0 DUP1 REVERT JUMPDEST POP GAS CALL ISZERO DUP1 ISZERO PUSH2 0x235 JUMPI RETURNDATASIZE PUSH1 0x0 DUP1 RETURNDATACOPY RETURNDATASIZE PUSH1 0x0 REVERT JUMPDEST POP POP POP POP PUSH1 0x40 MLOAD RETURNDATASIZE PUSH1 0x20 DUP2 LT ISZERO PUSH2 0x24B JUMPI PUSH1 0x0 DUP1 REVERT JUMPDEST POP MLOAD SWAP3 SWAP2 POP POP JUMP JUMPDEST PUSH1 0x0 DUP1 PUSH1 0x1 PUSH1 0xA0 PUSH1 0x2 EXP SUB DUP4 AND ISZERO ISZERO PUSH2 0x26F JUMPI PUSH1 0x0 SWAP2 POP PUSH2 0x27A JUMP JUMPDEST DUP3 EXTCODESIZE SWAP1 POP PUSH1 0x0 DUP2 GT SWAP2 POP JUMPDEST POP SWAP2 SWAP1 POP JUMP JUMPDEST SWAP1 SSTORE JUMP JUMPDEST PUSH1 0x0 PUSH2 0x2AA PUSH1 0x0 DUP1 MLOAD PUSH1 0x20 PUSH2 0x6CD DUP4 CODECOPY DUP2 MLOAD SWAP2 MSTORE PUSH5 0x100000000 PUSH2 0x3CF PUSH2 0x2AF DUP3 MUL OR DIV JUMP JUMPDEST SWAP1 POP SWAP1 JUMP JUMPDEST SLOAD SWAP1 JUMP JUMPDEST PUSH2 0x40B DUP1 PUSH2 0x2C2 PUSH1 0x0 CODECOPY PUSH1 0x0 RETURN STOP PUSH1 0x80 PUSH1 0x40 MSTORE PUSH1 0x4 CALLDATASIZE LT PUSH2 0x6C JUMPI PUSH4 0xFFFFFFFF PUSH29 0x100000000000000000000000000000000000000000000000000000000 PUSH1 0x0 CALLDATALOAD DIV AND PUSH4 0x4555D5C9 DUP2 EQ PUSH2 0x12B JUMPI DUP1 PUSH4 0x48A0C8DD EQ PUSH2 0x152 JUMPI DUP1 PUSH4 0x5C60DA1B EQ PUSH2 0x17B JUMPI DUP1 PUSH4 0x80AFDEA8 EQ PUSH2 0x1B9 JUMPI DUP1 PUSH4 0xD4AAE0C4 EQ PUSH2 0x1CE JUMPI JUMPDEST PUSH2 0x2710 PUSH32 0x665FD576FBBE6F247AFF98F5C94A561E3F71EC2D3C988D56F12D342396C50CEA PUSH1 0x0 DUP3 GAS LT ISZERO PUSH2 0xE1 JUMPI PUSH1 0x0 CALLVALUE GT CALLDATASIZE ISZERO DUP4 SLOAD AND AND ISZERO PUSH2 0xDC JUMPI PUSH1 0x40 MLOAD CALLER DUP2 MSTORE CALLVALUE PUSH1 0x20 DUP3 ADD MSTORE PUSH32 0x15EEAA57C7BD188C1388020BCADC2C436EC60D647D36EF5B9EB3C742217DDEE1 PUSH1 0x40 DUP3 LOG1 STOP JUMPDEST PUSH1 0x0 DUP1 REVERT JUMPDEST PUSH2 0xE9 PUSH2 0x1E3 JUMP JUMPDEST SWAP1 POP PUSH2 0x126 DUP2 PUSH1 0x0 CALLDATASIZE DUP1 DUP1 PUSH1 0x1F ADD PUSH1 0x20 DUP1 SWAP2 DIV MUL PUSH1 0x20 ADD PUSH1 0x40 MLOAD SWAP1 DUP2 ADD PUSH1 0x40 MSTORE DUP1 SWAP4 SWAP3 SWAP2 SWAP1 DUP2 DUP2 MSTORE PUSH1 0x20 ADD DUP4 DUP4 DUP1 DUP3 DUP5 CALLDATACOPY POP PUSH2 0x1FA SWAP5 POP POP POP POP POP JUMP JUMPDEST POP POP POP STOP JUMPDEST CALLVALUE DUP1 ISZERO PUSH2 0x137 JUMPI PUSH1 0x0 DUP1 REVERT JUMPDEST POP PUSH2 0x140 PUSH2 0x23B JUMP JUMPDEST PUSH1 0x40 DUP1 MLOAD SWAP2 DUP3 MSTORE MLOAD SWAP1 DUP2 SWAP1 SUB PUSH1 0x20 ADD SWAP1 RETURN JUMPDEST CALLVALUE DUP1 ISZERO PUSH2 0x15E JUMPI PUSH1 0x0 DUP1 REVERT JUMPDEST POP PUSH2 0x167 PUSH2 0x240 JUMP JUMPDEST PUSH1 0x40 DUP1 MLOAD SWAP2 ISZERO ISZERO DUP3 MSTORE MLOAD SWAP1 DUP2 SWAP1 SUB PUSH1 0x20 ADD SWAP1 RETURN JUMPDEST CALLVALUE DUP1 ISZERO PUSH2 0x187 JUMPI PUSH1 0x0 DUP1 REVERT JUMPDEST POP PUSH2 0x190 PUSH2 0x1E3 JUMP JUMPDEST PUSH1 0x40 DUP1 MLOAD PUSH20 0xFFFFFFFFFFFFFFFFFFFFFFFFFFFFFFFFFFFFFFFF SWAP1 SWAP3 AND DUP3 MSTORE MLOAD SWAP1 DUP2 SWAP1 SUB PUSH1 0x20 ADD SWAP1 RETURN JUMPDEST CALLVALUE DUP1 ISZERO PUSH2 0x1C5 JUMPI PUSH1 0x0 DUP1 REVERT JUMPDEST POP PUSH2 0x140 PUSH2 0x26B JUMP JUMPDEST CALLVALUE DUP1 ISZERO PUSH2 0x1DA JUMPI PUSH1 0x0 DUP1 REVERT JUMPDEST POP PUSH2 0x190 PUSH2 0x296 JUMP JUMPDEST PUSH1 0x0 PUSH2 0x1F5 PUSH2 0x1F0 PUSH2 0x26B JUMP JUMPDEST PUSH2 0x2C1 JUMP JUMPDEST SWAP1 POP SWAP1 JUMP JUMPDEST PUSH1 0x0 PUSH2 0x205 DUP4 PUSH2 0x395 JUMP JUMPDEST ISZERO ISZERO PUSH2 0x210 JUMPI PUSH1 0x0 DUP1 REVERT JUMPDEST PUSH2 0x2710 SWAP1 POP PUSH1 0x0 DUP1 DUP4 MLOAD PUSH1 0x20 DUP6 ADD DUP7 DUP6 GAS SUB DELEGATECALL RETURNDATASIZE PUSH1 0x40 MLOAD DUP2 PUSH1 0x0 DUP3 RETURNDATACOPY DUP3 DUP1 ISZERO PUSH2 0x237 JUMPI DUP3 DUP3 RETURN JUMPDEST DUP3 DUP3 REVERT JUMPDEST PUSH1 0x2 SWAP1 JUMP JUMPDEST PUSH1 0x0 PUSH2 0x1F5 PUSH32 0x665FD576FBBE6F247AFF98F5C94A561E3F71EC2D3C988D56F12D342396C50CEA PUSH2 0x3CF JUMP JUMPDEST PUSH1 0x0 PUSH2 0x1F5 PUSH32 0xD625496217AA6A3453EECB9C3489DC5A53E6C67B444329EA2B2CBC9FF547639B PUSH2 0x3CF JUMP JUMPDEST PUSH1 0x0 PUSH2 0x1F5 PUSH32 0x4172F0F7D2289153072B0A6CA36959E0CBE2EFC3AFE50FC81636CAA96338137B PUSH2 0x3CF JUMP JUMPDEST PUSH1 0x0 PUSH2 0x2CB PUSH2 0x296 JUMP JUMPDEST PUSH1 0x40 DUP1 MLOAD PUSH32 0xBE00BBD800000000000000000000000000000000000000000000000000000000 DUP2 MSTORE PUSH32 0xF1F3EB40F5BC1AD1344716CED8B8A0431D840B5783AEA1FD01786BC26F35AC0F PUSH1 0x4 DUP3 ADD MSTORE PUSH1 0x24 DUP2 ADD DUP6 SWAP1 MSTORE SWAP1 MLOAD PUSH20 0xFFFFFFFFFFFFFFFFFFFFFFFFFFFFFFFFFFFFFFFF SWAP3 SWAP1 SWAP3 AND SWAP2 PUSH4 0xBE00BBD8 SWAP2 PUSH1 0x44 DUP1 DUP3 ADD SWAP3 PUSH1 0x20 SWAP3 SWAP1 SWAP2 SWAP1 DUP3 SWAP1 SUB ADD DUP2 PUSH1 0x0 DUP8 DUP1 EXTCODESIZE ISZERO DUP1 ISZERO PUSH2 0x363 JUMPI PUSH1 0x0 DUP1 REVERT JUMPDEST POP GAS CALL ISZERO DUP1 ISZERO PUSH2 0x377 JUMPI RETURNDATASIZE PUSH1 0x0 DUP1 RETURNDATACOPY RETURNDATASIZE PUSH1 0x0 REVERT JUMPDEST POP POP POP POP PUSH1 0x40 MLOAD RETURNDATASIZE PUSH1 0x20 DUP2 LT ISZERO PUSH2 0x38D JUMPI PUSH1 0x0 DUP1 REVERT JUMPDEST POP MLOAD SWAP3 SWAP2 POP POP JUMP JUMPDEST PUSH1 0x0 DUP1 PUSH20 0xFFFFFFFFFFFFFFFFFFFFFFFFFFFFFFFFFFFFFFFF DUP4 AND ISZERO ISZERO PUSH2 0x3BE JUMPI PUSH1 0x0 SWAP2 POP PUSH2 0x3C9 JUMP JUMPDEST DUP3 EXTCODESIZE SWAP1 POP PUSH1 0x0 DUP2 GT SWAP2 POP JUMPDEST POP SWAP2 SWAP1 POP JUMP JUMPDEST SLOAD SWAP1 JUMP JUMPDEST SLOAD SWAP1 JUMP JUMPDEST SWAP1 SSTORE JUMP JUMPDEST SWAP1 SSTORE JUMP STOP LOG1 PUSH6 0x627A7A723058 KECCAK256 PUSH9 0xB3FAE2A99656126B4E 0x4e 0xb2 SWAP2 PUSH15 0xCAA7D2A0163B62626BDDB6AE2093BF 0x46 DUP8 PUSH10 0x294172F0F7D2289153 SMOD 0x2b EXP PUSH13 0xA36959E0CBE2EFC3AFE50FC816 CALLDATASIZE 0xca 0xa9 PUSH4 0x38137BA1 PUSH6 0x627A7A723058 KECCAK256 0xd8 0xe2 DUP4 SWAP2 PUSH26 0x58AAC3C29FB89FC3FDF28535841E2C3DE5C34F8157A73F361DD0 0xf9 STOP 0x29 0xeb 0xb0 JUMPDEST CODESIZE PUSH11 0x8D34882B8711D156F46369 MULMOD DUP4 0xdc 0x47 DUP2 MSIZE DUP1 CREATE2 DUP3 0xae 0xef CALL 0xaa NUMBER JUMPI SWAP15 "
		},
		"gasEstimates": {
			"creation": {
				"codeDepositCost": "2405600",
				"executionCost": "infinite",
				"totalCost": "infinite"
			},
			"external": {
				"APP_ADDR_NAMESPACE()": "228",
				"APP_BASES_NAMESPACE()": "624",
				"APP_MANAGER_ROLE()": "470",
				"CORE_NAMESPACE()": "338",
				"DEFAULT_ACL_APP_ID()": "712",
				"KERNEL_APP_ID()": "206",
				"acl()": "1037",
				"allowRecoverability(address)": "380",
				"apps(bytes32,bytes32)": "653",
				"getApp(bytes32,bytes32)": "920",
				"getInitializationBlock()": "661",
				"getRecoveryVault()": "734",
				"hasInitialized()": "539",
				"hasPermission(address,address,bytes32,bytes)": "infinite",
				"initialize(address,address)": "infinite",
				"isPetrified()": "950",
				"newAppInstance(bytes32,address)": "infinite",
				"newAppInstance(bytes32,address,bytes,bool)": "infinite",
				"newAppProxy(address,bytes32)": "infinite",
				"newAppProxy(address,bytes32,bytes)": "infinite",
				"newAppProxyPinned(address,bytes32)": "infinite",
				"newAppProxyPinned(address,bytes32,bytes)": "infinite",
				"newPinnedAppInstance(bytes32,address)": "infinite",
				"newPinnedAppInstance(bytes32,address,bytes,bool)": "infinite",
				"recoveryVaultAppId()": "604",
				"setApp(bytes32,bytes32,address)": "infinite",
				"setRecoveryVaultAppId(bytes32)": "infinite",
				"transferToVault(address)": "infinite"
			},
			"internal": {
				"_setApp(bytes32,bytes32,address)": "infinite",
				"_setAppIfNew(bytes32,bytes32,address)": "infinite"
			}
		},
		"methodIdentifiers": {
			"APP_ADDR_NAMESPACE()": "178e6079",
			"APP_BASES_NAMESPACE()": "db8a61d4",
			"APP_MANAGER_ROLE()": "8ea8dc9d",
			"CORE_NAMESPACE()": "756f6049",
			"DEFAULT_ACL_APP_ID()": "e8187ff0",
			"KERNEL_APP_ID()": "1113ed0d",
			"acl()": "de287359",
			"allowRecoverability(address)": "7e7db6e1",
			"apps(bytes32,bytes32)": "4558850c",
			"getApp(bytes32,bytes32)": "be00bbd8",
			"getInitializationBlock()": "8b3dd749",
			"getRecoveryVault()": "32f0a3b5",
			"hasInitialized()": "0803fac0",
			"hasPermission(address,address,bytes32,bytes)": "fdef9106",
			"initialize(address,address)": "485cc955",
			"isPetrified()": "de4796ed",
			"newAppInstance(bytes32,address)": "80cd5ac3",
			"newAppInstance(bytes32,address,bytes,bool)": "397edd41",
			"newAppProxy(address,bytes32)": "e156a8f3",
			"newAppProxy(address,bytes32,bytes)": "ede658b0",
			"newAppProxyPinned(address,bytes32)": "ff289fc5",
			"newAppProxyPinned(address,bytes32,bytes)": "d162f8b0",
			"newPinnedAppInstance(bytes32,address)": "958fde82",
			"newPinnedAppInstance(bytes32,address,bytes,bool)": "c050a7a6",
			"recoveryVaultAppId()": "86070cfe",
			"setApp(bytes32,bytes32,address)": "ae5b2540",
			"setRecoveryVaultAppId(bytes32)": "8c61757d",
			"transferToVault(address)": "9d4941d8"
		}
	},
	"abi": [
		{
			"constant": true,
			"inputs": [],
			"name": "hasInitialized",
			"outputs": [
				{
					"name": "",
					"type": "bool"
				}
			],
			"payable": false,
			"stateMutability": "view",
			"type": "function"
		},
		{
			"constant": true,
			"inputs": [],
			"name": "KERNEL_APP_ID",
			"outputs": [
				{
					"name": "",
					"type": "bytes32"
				}
			],
			"payable": false,
			"stateMutability": "view",
			"type": "function"
		},
		{
			"constant": true,
			"inputs": [],
			"name": "APP_ADDR_NAMESPACE",
			"outputs": [
				{
					"name": "",
					"type": "bytes32"
				}
			],
			"payable": false,
			"stateMutability": "view",
			"type": "function"
		},
		{
			"constant": true,
			"inputs": [],
			"name": "getRecoveryVault",
			"outputs": [
				{
					"name": "",
					"type": "address"
				}
			],
			"payable": false,
			"stateMutability": "view",
			"type": "function"
		},
		{
			"constant": false,
			"inputs": [
				{
					"name": "_appId",
					"type": "bytes32"
				},
				{
					"name": "_appBase",
					"type": "address"
				},
				{
					"name": "_initializePayload",
					"type": "bytes"
				},
				{
					"name": "_setDefault",
					"type": "bool"
				}
			],
			"name": "newAppInstance",
			"outputs": [
				{
					"name": "appProxy",
					"type": "address"
				}
			],
			"payable": false,
			"stateMutability": "nonpayable",
			"type": "function"
		},
		{
			"constant": true,
			"inputs": [
				{
					"name": "",
					"type": "bytes32"
				},
				{
					"name": "",
					"type": "bytes32"
				}
			],
			"name": "apps",
			"outputs": [
				{
					"name": "",
					"type": "address"
				}
			],
			"payable": false,
			"stateMutability": "view",
			"type": "function"
		},
		{
			"constant": false,
			"inputs": [
				{
					"name": "_baseAcl",
					"type": "address"
				},
				{
					"name": "_permissionsCreator",
					"type": "address"
				}
			],
			"name": "initialize",
			"outputs": [],
			"payable": false,
			"stateMutability": "nonpayable",
			"type": "function"
		},
		{
			"constant": true,
			"inputs": [],
			"name": "CORE_NAMESPACE",
			"outputs": [
				{
					"name": "",
					"type": "bytes32"
				}
			],
			"payable": false,
			"stateMutability": "view",
			"type": "function"
		},
		{
			"constant": true,
			"inputs": [
				{
					"name": "token",
					"type": "address"
				}
			],
			"name": "allowRecoverability",
			"outputs": [
				{
					"name": "",
					"type": "bool"
				}
			],
			"payable": false,
			"stateMutability": "view",
			"type": "function"
		},
		{
			"constant": false,
			"inputs": [
				{
					"name": "_appId",
					"type": "bytes32"
				},
				{
					"name": "_appBase",
					"type": "address"
				}
			],
			"name": "newAppInstance",
			"outputs": [
				{
					"name": "appProxy",
					"type": "address"
				}
			],
			"payable": false,
			"stateMutability": "nonpayable",
			"type": "function"
		},
		{
			"constant": true,
			"inputs": [],
			"name": "recoveryVaultAppId",
			"outputs": [
				{
					"name": "",
					"type": "bytes32"
				}
			],
			"payable": false,
			"stateMutability": "view",
			"type": "function"
		},
		{
			"constant": true,
			"inputs": [],
			"name": "getInitializationBlock",
			"outputs": [
				{
					"name": "",
					"type": "uint256"
				}
			],
			"payable": false,
			"stateMutability": "view",
			"type": "function"
		},
		{
			"constant": false,
			"inputs": [
				{
					"name": "_recoveryVaultAppId",
					"type": "bytes32"
				}
			],
			"name": "setRecoveryVaultAppId",
			"outputs": [],
			"payable": false,
			"stateMutability": "nonpayable",
			"type": "function"
		},
		{
			"constant": true,
			"inputs": [],
			"name": "APP_MANAGER_ROLE",
			"outputs": [
				{
					"name": "",
					"type": "bytes32"
				}
			],
			"payable": false,
			"stateMutability": "view",
			"type": "function"
		},
		{
			"constant": false,
			"inputs": [
				{
					"name": "_appId",
					"type": "bytes32"
				},
				{
					"name": "_appBase",
					"type": "address"
				}
			],
			"name": "newPinnedAppInstance",
			"outputs": [
				{
					"name": "appProxy",
					"type": "address"
				}
			],
			"payable": false,
			"stateMutability": "nonpayable",
			"type": "function"
		},
		{
			"constant": false,
			"inputs": [
				{
					"name": "_token",
					"type": "address"
				}
			],
			"name": "transferToVault",
			"outputs": [],
			"payable": false,
			"stateMutability": "nonpayable",
			"type": "function"
		},
		{
			"constant": false,
			"inputs": [
				{
					"name": "_namespace",
					"type": "bytes32"
				},
				{
					"name": "_appId",
					"type": "bytes32"
				},
				{
					"name": "_app",
					"type": "address"
				}
			],
			"name": "setApp",
			"outputs": [],
			"payable": false,
			"stateMutability": "nonpayable",
			"type": "function"
		},
		{
			"constant": true,
			"inputs": [
				{
					"name": "_namespace",
					"type": "bytes32"
				},
				{
					"name": "_appId",
					"type": "bytes32"
				}
			],
			"name": "getApp",
			"outputs": [
				{
					"name": "",
					"type": "address"
				}
			],
			"payable": false,
			"stateMutability": "view",
			"type": "function"
		},
		{
			"constant": false,
			"inputs": [
				{
					"name": "_appId",
					"type": "bytes32"
				},
				{
					"name": "_appBase",
					"type": "address"
				},
				{
					"name": "_initializePayload",
					"type": "bytes"
				},
				{
					"name": "_setDefault",
					"type": "bool"
				}
			],
			"name": "newPinnedAppInstance",
			"outputs": [
				{
					"name": "appProxy",
					"type": "address"
				}
			],
			"payable": false,
			"stateMutability": "nonpayable",
			"type": "function"
		},
		{
			"constant": false,
			"inputs": [
				{
					"name": "_kernel",
					"type": "address"
				},
				{
					"name": "_appId",
					"type": "bytes32"
				},
				{
					"name": "_initializePayload",
					"type": "bytes"
				}
			],
			"name": "newAppProxyPinned",
			"outputs": [
				{
					"name": "",
					"type": "address"
				}
			],
			"payable": false,
			"stateMutability": "nonpayable",
			"type": "function"
		},
		{
			"constant": true,
			"inputs": [],
			"name": "APP_BASES_NAMESPACE",
			"outputs": [
				{
					"name": "",
					"type": "bytes32"
				}
			],
			"payable": false,
			"stateMutability": "view",
			"type": "function"
		},
		{
			"constant": true,
			"inputs": [],
			"name": "acl",
			"outputs": [
				{
					"name": "",
					"type": "address"
				}
			],
			"payable": false,
			"stateMutability": "view",
			"type": "function"
		},
		{
			"constant": true,
			"inputs": [],
			"name": "isPetrified",
			"outputs": [
				{
					"name": "",
					"type": "bool"
				}
			],
			"payable": false,
			"stateMutability": "view",
			"type": "function"
		},
		{
			"constant": false,
			"inputs": [
				{
					"name": "_kernel",
					"type": "address"
				},
				{
					"name": "_appId",
					"type": "bytes32"
				}
			],
			"name": "newAppProxy",
			"outputs": [
				{
					"name": "",
					"type": "address"
				}
			],
			"payable": false,
			"stateMutability": "nonpayable",
			"type": "function"
		},
		{
			"constant": true,
			"inputs": [],
			"name": "DEFAULT_ACL_APP_ID",
			"outputs": [
				{
					"name": "",
					"type": "bytes32"
				}
			],
			"payable": false,
			"stateMutability": "view",
			"type": "function"
		},
		{
			"constant": false,
			"inputs": [
				{
					"name": "_kernel",
					"type": "address"
				},
				{
					"name": "_appId",
					"type": "bytes32"
				},
				{
					"name": "_initializePayload",
					"type": "bytes"
				}
			],
			"name": "newAppProxy",
			"outputs": [
				{
					"name": "",
					"type": "address"
				}
			],
			"payable": false,
			"stateMutability": "nonpayable",
			"type": "function"
		},
		{
			"constant": true,
			"inputs": [
				{
					"name": "_who",
					"type": "address"
				},
				{
					"name": "_where",
					"type": "address"
				},
				{
					"name": "_what",
					"type": "bytes32"
				},
				{
					"name": "_how",
					"type": "bytes"
				}
			],
			"name": "hasPermission",
			"outputs": [
				{
					"name": "",
					"type": "bool"
				}
			],
			"payable": false,
			"stateMutability": "view",
			"type": "function"
		},
		{
			"constant": false,
			"inputs": [
				{
					"name": "_kernel",
					"type": "address"
				},
				{
					"name": "_appId",
					"type": "bytes32"
				}
			],
			"name": "newAppProxyPinned",
			"outputs": [
				{
					"name": "",
					"type": "address"
				}
			],
			"payable": false,
			"stateMutability": "nonpayable",
			"type": "function"
		},
		{
			"inputs": [
				{
					"name": "_shouldPetrify",
					"type": "bool"
				}
			],
			"payable": false,
			"stateMutability": "nonpayable",
			"type": "constructor"
		},
		{
			"anonymous": false,
			"inputs": [
				{
					"indexed": false,
					"name": "proxy",
					"type": "address"
				},
				{
					"indexed": false,
					"name": "isUpgradeable",
					"type": "bool"
				},
				{
					"indexed": false,
					"name": "appId",
					"type": "bytes32"
				}
			],
			"name": "NewAppProxy",
			"type": "event"
		},
		{
			"anonymous": false,
			"inputs": [
				{
					"indexed": true,
					"name": "vault",
					"type": "address"
				},
				{
					"indexed": true,
					"name": "token",
					"type": "address"
				},
				{
					"indexed": false,
					"name": "amount",
					"type": "uint256"
				}
			],
			"name": "RecoverToVault",
			"type": "event"
		},
		{
			"anonymous": false,
			"inputs": [
				{
					"indexed": true,
					"name": "namespace",
					"type": "bytes32"
				},
				{
					"indexed": true,
					"name": "appId",
					"type": "bytes32"
				},
				{
					"indexed": false,
					"name": "app",
					"type": "address"
				}
			],
			"name": "SetApp",
			"type": "event"
		}
	]
}