{
	"data": {
		"bytecode": {
			"linkReferences": {},
			"object": "608060405234801561001057600080fd5b5060405160208061129a833981016040525160018054600160a060020a031916600160a060020a0390921691909117905561124a806100506000396000f3006080604052600436106100cf5763ffffffff7c0100000000000000000000000000000000000000000000000000000000600035041663158ef93e81146100d45780631785f53c146100fd5780632a709b141461012d57806331ae450b1461016b57806340c10f19146101d0578063429b62e514610201578063481c6a7514610241578063704802751461025657806375ed57ce146102845780637ba39fb3146102be5780639dc29fac146102d6578063ba0e930a14610307578063c4d66de814610335578063ccf012b314610363575b600080fd5b3480156100e057600080fd5b506100e961039d565b604080519115158252519081900360200190f35b34801561010957600080fd5b5061012b73ffffffffffffffffffffffffffffffffffffffff600435166103a6565b005b34801561013957600080fd5b50610142610632565b6040805173ffffffffffffffffffffffffffffffffffffffff9092168252519081900360200190f35b34801561017757600080fd5b50610180610653565b60408051602080825283518183015283519192839290830191858101910280838360005b838110156101bc5781810151838201526020016101a4565b505050509050019250505060405180910390f35b3480156101dc57600080fd5b5061012b73ffffffffffffffffffffffffffffffffffffffff600435166024356106c3565b34801561020d57600080fd5b5061022f73ffffffffffffffffffffffffffffffffffffffff600435166108e7565b60408051918252519081900360200190f35b34801561024d57600080fd5b506101426108f9565b34801561026257600080fd5b5061012b73ffffffffffffffffffffffffffffffffffffffff60043516610915565b34801561029057600080fd5b5061012b6004803573ffffffffffffffffffffffffffffffffffffffff169060248035908101910135610a8b565b3480156102ca57600080fd5b50610142600435610c33565b3480156102e257600080fd5b5061012b73ffffffffffffffffffffffffffffffffffffffff60043516602435610c68565b34801561031357600080fd5b5061012b73ffffffffffffffffffffffffffffffffffffffff60043516610e90565b34801561034157600080fd5b5061012b73ffffffffffffffffffffffffffffffffffffffff60043516610f5d565b34801561036f57600080fd5b5061012b6004803573ffffffffffffffffffffffffffffffffffffffff169060248035908101910135611057565b60005460ff1681565b33600081815260026020526040902054600154909173ffffffffffffffffffffffffffffffffffffffff90911614806104285750600081101580156103ec575060035481105b80156104285750600380543391908390811061040457fe5b60009182526020909120015473ffffffffffffffffffffffffffffffffffffffff16145b151561049557604080517f08c379a000000000000000000000000000000000000000000000000000000000815260206004820152601660248201527f43616c6c6572206973206e6f7420616e2061646d696e00000000000000000000604482015290519081900360640190fd5b60015473ffffffffffffffffffffffffffffffffffffffff8381169116141561051f57604080517f08c379a000000000000000000000000000000000000000000000000000000000815260206004820152601760248201527f43616e742072656d6f766520746865206d616e61676572000000000000000000604482015290519081900360640190fd5b600354600110156105fc57600380547fffffffffffffffffffffffffffffffffffffffffffffffffffffffffffffffff810190811061055a57fe5b600091825260208083209091015473ffffffffffffffffffffffffffffffffffffffff8581168452600290925260409092205460038054929093169291811061059f57fe5b600091825260208083209190910180547fffffffffffffffffffffffff00000000000000000000000000000000000000001673ffffffffffffffffffffffffffffffffffffffff9485161790559184168152600290915260408120555b600380549061062d907fffffffffffffffffffffffffffffffffffffffffffffffffffffffffffffffff83016111e1565b505050565b600054610100900473ffffffffffffffffffffffffffffffffffffffff1681565b606060038054806020026020016040519081016040528092919081815260200182805480156106b857602002820191906000526020600020905b815473ffffffffffffffffffffffffffffffffffffffff16815260019091019060200180831161068d575b505050505090505b90565b33600081815260026020526040902054600154909173ffffffffffffffffffffffffffffffffffffffff9091161480610745575060008110158015610709575060035481105b80156107455750600380543391908390811061072157fe5b60009182526020909120015473ffffffffffffffffffffffffffffffffffffffff16145b15156107b257604080517f08c379a000000000000000000000000000000000000000000000000000000000815260206004820152601660248201527f43616c6c6572206973206e6f7420616e2061646d696e00000000000000000000604482015290519081900360640190fd5b60005460ff16151560011461084e57604080517f08c379a000000000000000000000000000000000000000000000000000000000815260206004820152602360248201527f54686520636f6e7472616374206973206e6f742079657420696e697469616c6960448201527f7a65640000000000000000000000000000000000000000000000000000000000606482015290519081900360840190fd5b60008054604080517f40c10f1900000000000000000000000000000000000000000000000000000000815273ffffffffffffffffffffffffffffffffffffffff8781166004830152602482018790529151610100909304909116926340c10f199260448084019382900301818387803b1580156108ca57600080fd5b505af11580156108de573d6000803e3d6000fd5b50505050505050565b60026020526000908152604090205481565b60015473ffffffffffffffffffffffffffffffffffffffff1681565b33600081815260026020526040902054600154909173ffffffffffffffffffffffffffffffffffffffff909116148061099757506000811015801561095b575060035481105b80156109975750600380543391908390811061097357fe5b60009182526020909120015473ffffffffffffffffffffffffffffffffffffffff16145b1515610a0457604080517f08c379a000000000000000000000000000000000000000000000000000000000815260206004820152601660248201527f43616c6c6572206973206e6f7420616e2061646d696e00000000000000000000604482015290519081900360640190fd5b506003805473ffffffffffffffffffffffffffffffffffffffff9092166000818152600260205260408120849055600184018355919091527fc2575a0e9e593c00f959f8c92f12db2869c3395a3b0502d05e2516446f71f85b90910180547fffffffffffffffffffffffff0000000000000000000000000000000000000000169091179055565b33600081815260026020526040902054600154909173ffffffffffffffffffffffffffffffffffffffff9091161480610b0d575060008110158015610ad1575060035481105b8015610b0d57506003805433919083908110610ae957fe5b60009182526020909120015473ffffffffffffffffffffffffffffffffffffffff16145b1515610b7a57604080517f08c379a000000000000000000000000000000000000000000000000000000000815260206004820152601660248201527f43616c6c6572206973206e6f7420616e2061646d696e00000000000000000000604482015290519081900360640190fd5b600054604080517f75ed57ce00000000000000000000000000000000000000000000000000000000815273ffffffffffffffffffffffffffffffffffffffff87811660048301908152602483019384526044830187905261010090940416926375ed57ce9288928892889290916064018484808284378201915050945050505050600060405180830381600087803b158015610c1557600080fd5b505af1158015610c29573d6000803e3d6000fd5b5050505050505050565b6003805482908110610c4157fe5b60009182526020909120015473ffffffffffffffffffffffffffffffffffffffff16905081565b33600081815260026020526040902054600154909173ffffffffffffffffffffffffffffffffffffffff9091161480610cea575060008110158015610cae575060035481105b8015610cea57506003805433919083908110610cc657fe5b60009182526020909120015473ffffffffffffffffffffffffffffffffffffffff16145b1515610d5757604080517f08c379a000000000000000000000000000000000000000000000000000000000815260206004820152601660248201527f43616c6c6572206973206e6f7420616e2061646d696e00000000000000000000604482015290519081900360640190fd5b60005460ff161515600114610df357604080517f08c379a000000000000000000000000000000000000000000000000000000000815260206004820152602360248201527f54686520636f6e7472616374206973206e6f742079657420696e697469616c6960448201527f7a65640000000000000000000000000000000000000000000000000000000000606482015290519081900360840190fd5b60008054604080517f9dc29fac00000000000000000000000000000000000000000000000000000000815273ffffffffffffffffffffffffffffffffffffffff878116600483015260248201879052915161010090930490911692639dc29fac9260448084019382900301818387803b158015610e6f57600080fd5b505af1158015610e83573d6000803e3d6000fd5b5050505061062d836103a6565b60015473ffffffffffffffffffffffffffffffffffffffff163314610f1657604080517f08c379a000000000000000000000000000000000000000000000000000000000815260206004820152601960248201527f43616c6c6572206973206e6f7420746865206d616e6167657200000000000000604482015290519081900360640190fd5b600180547fffffffffffffffffffffffff00000000000000000000000000000000000000001673ffffffffffffffffffffffffffffffffffffffff92909216919091179055565b60015473ffffffffffffffffffffffffffffffffffffffff163314610fe357604080517f08c379a000000000000000000000000000000000000000000000000000000000815260206004820152601960248201527f43616c6c6572206973206e6f7420746865206d616e6167657200000000000000604482015290519081900360640190fd5b6000805473ffffffffffffffffffffffffffffffffffffffff909216610100027fffffffffffffffffffffff0000000000000000000000000000000000000000ff7fffffffffffffffffffffffffffffffffffffffffffffffffffffffffffffff0090931660011792909216919091179055565b33600081815260026020526040902054600154909173ffffffffffffffffffffffffffffffffffffffff90911614806110d957506000811015801561109d575060035481105b80156110d9575060038054339190839081106110b557fe5b60009182526020909120015473ffffffffffffffffffffffffffffffffffffffff16145b151561114657604080517f08c379a000000000000000000000000000000000000000000000000000000000815260206004820152601660248201527f43616c6c6572206973206e6f7420616e2061646d696e00000000000000000000604482015290519081900360640190fd5b600054604080517fccf012b300000000000000000000000000000000000000000000000000000000815273ffffffffffffffffffffffffffffffffffffffff878116600483019081526024830193845260448301879052610100909404169263ccf012b39288928892889290916064018484808284378201915050945050505050600060405180830381600087803b158015610c1557600080fd5b81548183558181111561062d5760008381526020902061062d9181019083016106c091905b8082111561121a5760008155600101611206565b50905600a165627a7a72305820c6edb886ce9e65692440aa2605aff5b6a81a45a1e6eb1fd70b051513e87fc1890029",
			"opcodes": "PUSH1 0x80 PUSH1 0x40 MSTORE CALLVALUE DUP1 ISZERO PUSH2 0x10 JUMPI PUSH1 0x0 DUP1 REVERT JUMPDEST POP PUSH1 0x40 MLOAD PUSH1 0x20 DUP1 PUSH2 0x129A DUP4 CODECOPY DUP2 ADD PUSH1 0x40 MSTORE MLOAD PUSH1 0x1 DUP1 SLOAD PUSH1 0x1 PUSH1 0xA0 PUSH1 0x2 EXP SUB NOT AND PUSH1 0x1 PUSH1 0xA0 PUSH1 0x2 EXP SUB SWAP1 SWAP3 AND SWAP2 SWAP1 SWAP2 OR SWAP1 SSTORE PUSH2 0x124A DUP1 PUSH2 0x50 PUSH1 0x0 CODECOPY PUSH1 0x0 RETURN STOP PUSH1 0x80 PUSH1 0x40 MSTORE PUSH1 0x4 CALLDATASIZE LT PUSH2 0xCF JUMPI PUSH4 0xFFFFFFFF PUSH29 0x100000000000000000000000000000000000000000000000000000000 PUSH1 0x0 CALLDATALOAD DIV AND PUSH4 0x158EF93E DUP2 EQ PUSH2 0xD4 JUMPI DUP1 PUSH4 0x1785F53C EQ PUSH2 0xFD JUMPI DUP1 PUSH4 0x2A709B14 EQ PUSH2 0x12D JUMPI DUP1 PUSH4 0x31AE450B EQ PUSH2 0x16B JUMPI DUP1 PUSH4 0x40C10F19 EQ PUSH2 0x1D0 JUMPI DUP1 PUSH4 0x429B62E5 EQ PUSH2 0x201 JUMPI DUP1 PUSH4 0x481C6A75 EQ PUSH2 0x241 JUMPI DUP1 PUSH4 0x70480275 EQ PUSH2 0x256 JUMPI DUP1 PUSH4 0x75ED57CE EQ PUSH2 0x284 JUMPI DUP1 PUSH4 0x7BA39FB3 EQ PUSH2 0x2BE JUMPI DUP1 PUSH4 0x9DC29FAC EQ PUSH2 0x2D6 JUMPI DUP1 PUSH4 0xBA0E930A EQ PUSH2 0x307 JUMPI DUP1 PUSH4 0xC4D66DE8 EQ PUSH2 0x335 JUMPI DUP1 PUSH4 0xCCF012B3 EQ PUSH2 0x363 JUMPI JUMPDEST PUSH1 0x0 DUP1 REVERT JUMPDEST CALLVALUE DUP1 ISZERO PUSH2 0xE0 JUMPI PUSH1 0x0 DUP1 REVERT JUMPDEST POP PUSH2 0xE9 PUSH2 0x39D JUMP JUMPDEST PUSH1 0x40 DUP1 MLOAD SWAP2 ISZERO ISZERO DUP3 MSTORE MLOAD SWAP1 DUP2 SWAP1 SUB PUSH1 0x20 ADD SWAP1 RETURN JUMPDEST CALLVALUE DUP1 ISZERO PUSH2 0x109 JUMPI PUSH1 0x0 DUP1 REVERT JUMPDEST POP PUSH2 0x12B PUSH20 0xFFFFFFFFFFFFFFFFFFFFFFFFFFFFFFFFFFFFFFFF PUSH1 0x4 CALLDATALOAD AND PUSH2 0x3A6 JUMP JUMPDEST STOP JUMPDEST CALLVALUE DUP1 ISZERO PUSH2 0x139 JUMPI PUSH1 0x0 DUP1 REVERT JUMPDEST POP PUSH2 0x142 PUSH2 0x632 JUMP JUMPDEST PUSH1 0x40 DUP1 MLOAD PUSH20 0xFFFFFFFFFFFFFFFFFFFFFFFFFFFFFFFFFFFFFFFF SWAP1 SWAP3 AND DUP3 MSTORE MLOAD SWAP1 DUP2 SWAP1 SUB PUSH1 0x20 ADD SWAP1 RETURN JUMPDEST CALLVALUE DUP1 ISZERO PUSH2 0x177 JUMPI PUSH1 0x0 DUP1 REVERT JUMPDEST POP PUSH2 0x180 PUSH2 0x653 JUMP JUMPDEST PUSH1 0x40 DUP1 MLOAD PUSH1 0x20 DUP1 DUP3 MSTORE DUP4 MLOAD DUP2 DUP4 ADD MSTORE DUP4 MLOAD SWAP2 SWAP3 DUP4 SWAP3 SWAP1 DUP4 ADD SWAP2 DUP6 DUP2 ADD SWAP2 MUL DUP1 DUP4 DUP4 PUSH1 0x0 JUMPDEST DUP4 DUP2 LT ISZERO PUSH2 0x1BC JUMPI DUP2 DUP2 ADD MLOAD DUP4 DUP3 ADD MSTORE PUSH1 0x20 ADD PUSH2 0x1A4 JUMP JUMPDEST POP POP POP POP SWAP1 POP ADD SWAP3 POP POP POP PUSH1 0x40 MLOAD DUP1 SWAP2 SUB SWAP1 RETURN JUMPDEST CALLVALUE DUP1 ISZERO PUSH2 0x1DC JUMPI PUSH1 0x0 DUP1 REVERT JUMPDEST POP PUSH2 0x12B PUSH20 0xFFFFFFFFFFFFFFFFFFFFFFFFFFFFFFFFFFFFFFFF PUSH1 0x4 CALLDATALOAD AND PUSH1 0x24 CALLDATALOAD PUSH2 0x6C3 JUMP JUMPDEST CALLVALUE DUP1 ISZERO PUSH2 0x20D JUMPI PUSH1 0x0 DUP1 REVERT JUMPDEST POP PUSH2 0x22F PUSH20 0xFFFFFFFFFFFFFFFFFFFFFFFFFFFFFFFFFFFFFFFF PUSH1 0x4 CALLDATALOAD AND PUSH2 0x8E7 JUMP JUMPDEST PUSH1 0x40 DUP1 MLOAD SWAP2 DUP3 MSTORE MLOAD SWAP1 DUP2 SWAP1 SUB PUSH1 0x20 ADD SWAP1 RETURN JUMPDEST CALLVALUE DUP1 ISZERO PUSH2 0x24D JUMPI PUSH1 0x0 DUP1 REVERT JUMPDEST POP PUSH2 0x142 PUSH2 0x8F9 JUMP JUMPDEST CALLVALUE DUP1 ISZERO PUSH2 0x262 JUMPI PUSH1 0x0 DUP1 REVERT JUMPDEST POP PUSH2 0x12B PUSH20 0xFFFFFFFFFFFFFFFFFFFFFFFFFFFFFFFFFFFFFFFF PUSH1 0x4 CALLDATALOAD AND PUSH2 0x915 JUMP JUMPDEST CALLVALUE DUP1 ISZERO PUSH2 0x290 JUMPI PUSH1 0x0 DUP1 REVERT JUMPDEST POP PUSH2 0x12B PUSH1 0x4 DUP1 CALLDATALOAD PUSH20 0xFFFFFFFFFFFFFFFFFFFFFFFFFFFFFFFFFFFFFFFF AND SWAP1 PUSH1 0x24 DUP1 CALLDATALOAD SWAP1 DUP2 ADD SWAP2 ADD CALLDATALOAD PUSH2 0xA8B JUMP JUMPDEST CALLVALUE DUP1 ISZERO PUSH2 0x2CA JUMPI PUSH1 0x0 DUP1 REVERT JUMPDEST POP PUSH2 0x142 PUSH1 0x4 CALLDATALOAD PUSH2 0xC33 JUMP JUMPDEST CALLVALUE DUP1 ISZERO PUSH2 0x2E2 JUMPI PUSH1 0x0 DUP1 REVERT JUMPDEST POP PUSH2 0x12B PUSH20 0xFFFFFFFFFFFFFFFFFFFFFFFFFFFFFFFFFFFFFFFF PUSH1 0x4 CALLDATALOAD AND PUSH1 0x24 CALLDATALOAD PUSH2 0xC68 JUMP JUMPDEST CALLVALUE DUP1 ISZERO PUSH2 0x313 JUMPI PUSH1 0x0 DUP1 REVERT JUMPDEST POP PUSH2 0x12B PUSH20 0xFFFFFFFFFFFFFFFFFFFFFFFFFFFFFFFFFFFFFFFF PUSH1 0x4 CALLDATALOAD AND PUSH2 0xE90 JUMP JUMPDEST CALLVALUE DUP1 ISZERO PUSH2 0x341 JUMPI PUSH1 0x0 DUP1 REVERT JUMPDEST POP PUSH2 0x12B PUSH20 0xFFFFFFFFFFFFFFFFFFFFFFFFFFFFFFFFFFFFFFFF PUSH1 0x4 CALLDATALOAD AND PUSH2 0xF5D JUMP JUMPDEST CALLVALUE DUP1 ISZERO PUSH2 0x36F JUMPI PUSH1 0x0 DUP1 REVERT JUMPDEST POP PUSH2 0x12B PUSH1 0x4 DUP1 CALLDATALOAD PUSH20 0xFFFFFFFFFFFFFFFFFFFFFFFFFFFFFFFFFFFFFFFF AND SWAP1 PUSH1 0x24 DUP1 CALLDATALOAD SWAP1 DUP2 ADD SWAP2 ADD CALLDATALOAD PUSH2 0x1057 JUMP JUMPDEST PUSH1 0x0 SLOAD PUSH1 0xFF AND DUP2 JUMP JUMPDEST CALLER PUSH1 0x0 DUP2 DUP2 MSTORE PUSH1 0x2 PUSH1 0x20 MSTORE PUSH1 0x40 SWAP1 KECCAK256 SLOAD PUSH1 0x1 SLOAD SWAP1 SWAP2 PUSH20 0xFFFFFFFFFFFFFFFFFFFFFFFFFFFFFFFFFFFFFFFF SWAP1 SWAP2 AND EQ DUP1 PUSH2 0x428 JUMPI POP PUSH1 0x0 DUP2 LT ISZERO DUP1 ISZERO PUSH2 0x3EC JUMPI POP PUSH1 0x3 SLOAD DUP2 LT JUMPDEST DUP1 ISZERO PUSH2 0x428 JUMPI POP PUSH1 0x3 DUP1 SLOAD CALLER SWAP2 SWAP1 DUP4 SWAP1 DUP2 LT PUSH2 0x404 JUMPI INVALID JUMPDEST PUSH1 0x0 SWAP2 DUP3 MSTORE PUSH1 0x20 SWAP1 SWAP2 KECCAK256 ADD SLOAD PUSH20 0xFFFFFFFFFFFFFFFFFFFFFFFFFFFFFFFFFFFFFFFF AND EQ JUMPDEST ISZERO ISZERO PUSH2 0x495 JUMPI PUSH1 0x40 DUP1 MLOAD PUSH32 0x8C379A000000000000000000000000000000000000000000000000000000000 DUP2 MSTORE PUSH1 0x20 PUSH1 0x4 DUP3 ADD MSTORE PUSH1 0x16 PUSH1 0x24 DUP3 ADD MSTORE PUSH32 0x43616C6C6572206973206E6F7420616E2061646D696E00000000000000000000 PUSH1 0x44 DUP3 ADD MSTORE SWAP1 MLOAD SWAP1 DUP2 SWAP1 SUB PUSH1 0x64 ADD SWAP1 REVERT JUMPDEST PUSH1 0x1 SLOAD PUSH20 0xFFFFFFFFFFFFFFFFFFFFFFFFFFFFFFFFFFFFFFFF DUP4 DUP2 AND SWAP2 AND EQ ISZERO PUSH2 0x51F JUMPI PUSH1 0x40 DUP1 MLOAD PUSH32 0x8C379A000000000000000000000000000000000000000000000000000000000 DUP2 MSTORE PUSH1 0x20 PUSH1 0x4 DUP3 ADD MSTORE PUSH1 0x17 PUSH1 0x24 DUP3 ADD MSTORE PUSH32 0x43616E742072656D6F766520746865206D616E61676572000000000000000000 PUSH1 0x44 DUP3 ADD MSTORE SWAP1 MLOAD SWAP1 DUP2 SWAP1 SUB PUSH1 0x64 ADD SWAP1 REVERT JUMPDEST PUSH1 0x3 SLOAD PUSH1 0x1 LT ISZERO PUSH2 0x5FC JUMPI PUSH1 0x3 DUP1 SLOAD PUSH32 0xFFFFFFFFFFFFFFFFFFFFFFFFFFFFFFFFFFFFFFFFFFFFFFFFFFFFFFFFFFFFFFFF DUP2 ADD SWAP1 DUP2 LT PUSH2 0x55A JUMPI INVALID JUMPDEST PUSH1 0x0 SWAP2 DUP3 MSTORE PUSH1 0x20 DUP1 DUP4 KECCAK256 SWAP1 SWAP2 ADD SLOAD PUSH20 0xFFFFFFFFFFFFFFFFFFFFFFFFFFFFFFFFFFFFFFFF DUP6 DUP2 AND DUP5 MSTORE PUSH1 0x2 SWAP1 SWAP3 MSTORE PUSH1 0x40 SWAP1 SWAP3 KECCAK256 SLOAD PUSH1 0x3 DUP1 SLOAD SWAP3 SWAP1 SWAP4 AND SWAP3 SWAP2 DUP2 LT PUSH2 0x59F JUMPI INVALID JUMPDEST PUSH1 0x0 SWAP2 DUP3 MSTORE PUSH1 0x20 DUP1 DUP4 KECCAK256 SWAP2 SWAP1 SWAP2 ADD DUP1 SLOAD PUSH32 0xFFFFFFFFFFFFFFFFFFFFFFFF0000000000000000000000000000000000000000 AND PUSH20 0xFFFFFFFFFFFFFFFFFFFFFFFFFFFFFFFFFFFFFFFF SWAP5 DUP6 AND OR SWAP1 SSTORE SWAP2 DUP5 AND DUP2 MSTORE PUSH1 0x2 SWAP1 SWAP2 MSTORE PUSH1 0x40 DUP2 KECCAK256 SSTORE JUMPDEST PUSH1 0x3 DUP1 SLOAD SWAP1 PUSH2 0x62D SWAP1 PUSH32 0xFFFFFFFFFFFFFFFFFFFFFFFFFFFFFFFFFFFFFFFFFFFFFFFFFFFFFFFFFFFFFFFF DUP4 ADD PUSH2 0x11E1 JUMP JUMPDEST POP POP POP JUMP JUMPDEST PUSH1 0x0 SLOAD PUSH2 0x100 SWAP1 DIV PUSH20 0xFFFFFFFFFFFFFFFFFFFFFFFFFFFFFFFFFFFFFFFF AND DUP2 JUMP JUMPDEST PUSH1 0x60 PUSH1 0x3 DUP1 SLOAD DUP1 PUSH1 0x20 MUL PUSH1 0x20 ADD PUSH1 0x40 MLOAD SWAP1 DUP2 ADD PUSH1 0x40 MSTORE DUP1 SWAP3 SWAP2 SWAP1 DUP2 DUP2 MSTORE PUSH1 0x20 ADD DUP3 DUP1 SLOAD DUP1 ISZERO PUSH2 0x6B8 JUMPI PUSH1 0x20 MUL DUP3 ADD SWAP2 SWAP1 PUSH1 0x0 MSTORE PUSH1 0x20 PUSH1 0x0 KECCAK256 SWAP1 JUMPDEST DUP2 SLOAD PUSH20 0xFFFFFFFFFFFFFFFFFFFFFFFFFFFFFFFFFFFFFFFF AND DUP2 MSTORE PUSH1 0x1 SWAP1 SWAP2 ADD SWAP1 PUSH1 0x20 ADD DUP1 DUP4 GT PUSH2 0x68D JUMPI JUMPDEST POP POP POP POP POP SWAP1 POP JUMPDEST SWAP1 JUMP JUMPDEST CALLER PUSH1 0x0 DUP2 DUP2 MSTORE PUSH1 0x2 PUSH1 0x20 MSTORE PUSH1 0x40 SWAP1 KECCAK256 SLOAD PUSH1 0x1 SLOAD SWAP1 SWAP2 PUSH20 0xFFFFFFFFFFFFFFFFFFFFFFFFFFFFFFFFFFFFFFFF SWAP1 SWAP2 AND EQ DUP1 PUSH2 0x745 JUMPI POP PUSH1 0x0 DUP2 LT ISZERO DUP1 ISZERO PUSH2 0x709 JUMPI POP PUSH1 0x3 SLOAD DUP2 LT JUMPDEST DUP1 ISZERO PUSH2 0x745 JUMPI POP PUSH1 0x3 DUP1 SLOAD CALLER SWAP2 SWAP1 DUP4 SWAP1 DUP2 LT PUSH2 0x721 JUMPI INVALID JUMPDEST PUSH1 0x0 SWAP2 DUP3 MSTORE PUSH1 0x20 SWAP1 SWAP2 KECCAK256 ADD SLOAD PUSH20 0xFFFFFFFFFFFFFFFFFFFFFFFFFFFFFFFFFFFFFFFF AND EQ JUMPDEST ISZERO ISZERO PUSH2 0x7B2 JUMPI PUSH1 0x40 DUP1 MLOAD PUSH32 0x8C379A000000000000000000000000000000000000000000000000000000000 DUP2 MSTORE PUSH1 0x20 PUSH1 0x4 DUP3 ADD MSTORE PUSH1 0x16 PUSH1 0x24 DUP3 ADD MSTORE PUSH32 0x43616C6C6572206973206E6F7420616E2061646D696E00000000000000000000 PUSH1 0x44 DUP3 ADD MSTORE SWAP1 MLOAD SWAP1 DUP2 SWAP1 SUB PUSH1 0x64 ADD SWAP1 REVERT JUMPDEST PUSH1 0x0 SLOAD PUSH1 0xFF AND ISZERO ISZERO PUSH1 0x1 EQ PUSH2 0x84E JUMPI PUSH1 0x40 DUP1 MLOAD PUSH32 0x8C379A000000000000000000000000000000000000000000000000000000000 DUP2 MSTORE PUSH1 0x20 PUSH1 0x4 DUP3 ADD MSTORE PUSH1 0x23 PUSH1 0x24 DUP3 ADD MSTORE PUSH32 0x54686520636F6E7472616374206973206E6F742079657420696E697469616C69 PUSH1 0x44 DUP3 ADD MSTORE PUSH32 0x7A65640000000000000000000000000000000000000000000000000000000000 PUSH1 0x64 DUP3 ADD MSTORE SWAP1 MLOAD SWAP1 DUP2 SWAP1 SUB PUSH1 0x84 ADD SWAP1 REVERT JUMPDEST PUSH1 0x0 DUP1 SLOAD PUSH1 0x40 DUP1 MLOAD PUSH32 0x40C10F1900000000000000000000000000000000000000000000000000000000 DUP2 MSTORE PUSH20 0xFFFFFFFFFFFFFFFFFFFFFFFFFFFFFFFFFFFFFFFF DUP8 DUP2 AND PUSH1 0x4 DUP4 ADD MSTORE PUSH1 0x24 DUP3 ADD DUP8 SWAP1 MSTORE SWAP2 MLOAD PUSH2 0x100 SWAP1 SWAP4 DIV SWAP1 SWAP2 AND SWAP3 PUSH4 0x40C10F19 SWAP3 PUSH1 0x44 DUP1 DUP5 ADD SWAP4 DUP3 SWAP1 SUB ADD DUP2 DUP4 DUP8 DUP1 EXTCODESIZE ISZERO DUP1 ISZERO PUSH2 0x8CA JUMPI PUSH1 0x0 DUP1 REVERT JUMPDEST POP GAS CALL ISZERO DUP1 ISZERO PUSH2 0x8DE JUMPI RETURNDATASIZE PUSH1 0x0 DUP1 RETURNDATACOPY RETURNDATASIZE PUSH1 0x0 REVERT JUMPDEST POP POP POP POP POP POP POP JUMP JUMPDEST PUSH1 0x2 PUSH1 0x20 MSTORE PUSH1 0x0 SWAP1 DUP2 MSTORE PUSH1 0x40 SWAP1 KECCAK256 SLOAD DUP2 JUMP JUMPDEST PUSH1 0x1 SLOAD PUSH20 0xFFFFFFFFFFFFFFFFFFFFFFFFFFFFFFFFFFFFFFFF AND DUP2 JUMP JUMPDEST CALLER PUSH1 0x0 DUP2 DUP2 MSTORE PUSH1 0x2 PUSH1 0x20 MSTORE PUSH1 0x40 SWAP1 KECCAK256 SLOAD PUSH1 0x1 SLOAD SWAP1 SWAP2 PUSH20 0xFFFFFFFFFFFFFFFFFFFFFFFFFFFFFFFFFFFFFFFF SWAP1 SWAP2 AND EQ DUP1 PUSH2 0x997 JUMPI POP PUSH1 0x0 DUP2 LT ISZERO DUP1 ISZERO PUSH2 0x95B JUMPI POP PUSH1 0x3 SLOAD DUP2 LT JUMPDEST DUP1 ISZERO PUSH2 0x997 JUMPI POP PUSH1 0x3 DUP1 SLOAD CALLER SWAP2 SWAP1 DUP4 SWAP1 DUP2 LT PUSH2 0x973 JUMPI INVALID JUMPDEST PUSH1 0x0 SWAP2 DUP3 MSTORE PUSH1 0x20 SWAP1 SWAP2 KECCAK256 ADD SLOAD PUSH20 0xFFFFFFFFFFFFFFFFFFFFFFFFFFFFFFFFFFFFFFFF AND EQ JUMPDEST ISZERO ISZERO PUSH2 0xA04 JUMPI PUSH1 0x40 DUP1 MLOAD PUSH32 0x8C379A000000000000000000000000000000000000000000000000000000000 DUP2 MSTORE PUSH1 0x20 PUSH1 0x4 DUP3 ADD MSTORE PUSH1 0x16 PUSH1 0x24 DUP3 ADD MSTORE PUSH32 0x43616C6C6572206973206E6F7420616E2061646D696E00000000000000000000 PUSH1 0x44 DUP3 ADD MSTORE SWAP1 MLOAD SWAP1 DUP2 SWAP1 SUB PUSH1 0x64 ADD SWAP1 REVERT JUMPDEST POP PUSH1 0x3 DUP1 SLOAD PUSH20 0xFFFFFFFFFFFFFFFFFFFFFFFFFFFFFFFFFFFFFFFF SWAP1 SWAP3 AND PUSH1 0x0 DUP2 DUP2 MSTORE PUSH1 0x2 PUSH1 0x20 MSTORE PUSH1 0x40 DUP2 KECCAK256 DUP5 SWAP1 SSTORE PUSH1 0x1 DUP5 ADD DUP4 SSTORE SWAP2 SWAP1 SWAP2 MSTORE PUSH32 0xC2575A0E9E593C00F959F8C92F12DB2869C3395A3B0502D05E2516446F71F85B SWAP1 SWAP2 ADD DUP1 SLOAD PUSH32 0xFFFFFFFFFFFFFFFFFFFFFFFF0000000000000000000000000000000000000000 AND SWAP1 SWAP2 OR SWAP1 SSTORE JUMP JUMPDEST CALLER PUSH1 0x0 DUP2 DUP2 MSTORE PUSH1 0x2 PUSH1 0x20 MSTORE PUSH1 0x40 SWAP1 KECCAK256 SLOAD PUSH1 0x1 SLOAD SWAP1 SWAP2 PUSH20 0xFFFFFFFFFFFFFFFFFFFFFFFFFFFFFFFFFFFFFFFF SWAP1 SWAP2 AND EQ DUP1 PUSH2 0xB0D JUMPI POP PUSH1 0x0 DUP2 LT ISZERO DUP1 ISZERO PUSH2 0xAD1 JUMPI POP PUSH1 0x3 SLOAD DUP2 LT JUMPDEST DUP1 ISZERO PUSH2 0xB0D JUMPI POP PUSH1 0x3 DUP1 SLOAD CALLER SWAP2 SWAP1 DUP4 SWAP1 DUP2 LT PUSH2 0xAE9 JUMPI INVALID JUMPDEST PUSH1 0x0 SWAP2 DUP3 MSTORE PUSH1 0x20 SWAP1 SWAP2 KECCAK256 ADD SLOAD PUSH20 0xFFFFFFFFFFFFFFFFFFFFFFFFFFFFFFFFFFFFFFFF AND EQ JUMPDEST ISZERO ISZERO PUSH2 0xB7A JUMPI PUSH1 0x40 DUP1 MLOAD PUSH32 0x8C379A000000000000000000000000000000000000000000000000000000000 DUP2 MSTORE PUSH1 0x20 PUSH1 0x4 DUP3 ADD MSTORE PUSH1 0x16 PUSH1 0x24 DUP3 ADD MSTORE PUSH32 0x43616C6C6572206973206E6F7420616E2061646D696E00000000000000000000 PUSH1 0x44 DUP3 ADD MSTORE SWAP1 MLOAD SWAP1 DUP2 SWAP1 SUB PUSH1 0x64 ADD SWAP1 REVERT JUMPDEST PUSH1 0x0 SLOAD PUSH1 0x40 DUP1 MLOAD PUSH32 0x75ED57CE00000000000000000000000000000000000000000000000000000000 DUP2 MSTORE PUSH20 0xFFFFFFFFFFFFFFFFFFFFFFFFFFFFFFFFFFFFFFFF DUP8 DUP2 AND PUSH1 0x4 DUP4 ADD SWAP1 DUP2 MSTORE PUSH1 0x24 DUP4 ADD SWAP4 DUP5 MSTORE PUSH1 0x44 DUP4 ADD DUP8 SWAP1 MSTORE PUSH2 0x100 SWAP1 SWAP5 DIV AND SWAP3 PUSH4 0x75ED57CE SWAP3 DUP9 SWAP3 DUP9 SWAP3 DUP9 SWAP3 SWAP1 SWAP2 PUSH1 0x64 ADD DUP5 DUP5 DUP1 DUP3 DUP5 CALLDATACOPY DUP3 ADD SWAP2 POP POP SWAP5 POP POP POP POP POP PUSH1 0x0 PUSH1 0x40 MLOAD DUP1 DUP4 SUB DUP2 PUSH1 0x0 DUP8 DUP1 EXTCODESIZE ISZERO DUP1 ISZERO PUSH2 0xC15 JUMPI PUSH1 0x0 DUP1 REVERT JUMPDEST POP GAS CALL ISZERO DUP1 ISZERO PUSH2 0xC29 JUMPI RETURNDATASIZE PUSH1 0x0 DUP1 RETURNDATACOPY RETURNDATASIZE PUSH1 0x0 REVERT JUMPDEST POP POP POP POP POP POP POP POP JUMP JUMPDEST PUSH1 0x3 DUP1 SLOAD DUP3 SWAP1 DUP2 LT PUSH2 0xC41 JUMPI INVALID JUMPDEST PUSH1 0x0 SWAP2 DUP3 MSTORE PUSH1 0x20 SWAP1 SWAP2 KECCAK256 ADD SLOAD PUSH20 0xFFFFFFFFFFFFFFFFFFFFFFFFFFFFFFFFFFFFFFFF AND SWAP1 POP DUP2 JUMP JUMPDEST CALLER PUSH1 0x0 DUP2 DUP2 MSTORE PUSH1 0x2 PUSH1 0x20 MSTORE PUSH1 0x40 SWAP1 KECCAK256 SLOAD PUSH1 0x1 SLOAD SWAP1 SWAP2 PUSH20 0xFFFFFFFFFFFFFFFFFFFFFFFFFFFFFFFFFFFFFFFF SWAP1 SWAP2 AND EQ DUP1 PUSH2 0xCEA JUMPI POP PUSH1 0x0 DUP2 LT ISZERO DUP1 ISZERO PUSH2 0xCAE JUMPI POP PUSH1 0x3 SLOAD DUP2 LT JUMPDEST DUP1 ISZERO PUSH2 0xCEA JUMPI POP PUSH1 0x3 DUP1 SLOAD CALLER SWAP2 SWAP1 DUP4 SWAP1 DUP2 LT PUSH2 0xCC6 JUMPI INVALID JUMPDEST PUSH1 0x0 SWAP2 DUP3 MSTORE PUSH1 0x20 SWAP1 SWAP2 KECCAK256 ADD SLOAD PUSH20 0xFFFFFFFFFFFFFFFFFFFFFFFFFFFFFFFFFFFFFFFF AND EQ JUMPDEST ISZERO ISZERO PUSH2 0xD57 JUMPI PUSH1 0x40 DUP1 MLOAD PUSH32 0x8C379A000000000000000000000000000000000000000000000000000000000 DUP2 MSTORE PUSH1 0x20 PUSH1 0x4 DUP3 ADD MSTORE PUSH1 0x16 PUSH1 0x24 DUP3 ADD MSTORE PUSH32 0x43616C6C6572206973206E6F7420616E2061646D696E00000000000000000000 PUSH1 0x44 DUP3 ADD MSTORE SWAP1 MLOAD SWAP1 DUP2 SWAP1 SUB PUSH1 0x64 ADD SWAP1 REVERT JUMPDEST PUSH1 0x0 SLOAD PUSH1 0xFF AND ISZERO ISZERO PUSH1 0x1 EQ PUSH2 0xDF3 JUMPI PUSH1 0x40 DUP1 MLOAD PUSH32 0x8C379A000000000000000000000000000000000000000000000000000000000 DUP2 MSTORE PUSH1 0x20 PUSH1 0x4 DUP3 ADD MSTORE PUSH1 0x23 PUSH1 0x24 DUP3 ADD MSTORE PUSH32 0x54686520636F6E7472616374206973206E6F742079657420696E697469616C69 PUSH1 0x44 DUP3 ADD MSTORE PUSH32 0x7A65640000000000000000000000000000000000000000000000000000000000 PUSH1 0x64 DUP3 ADD MSTORE SWAP1 MLOAD SWAP1 DUP2 SWAP1 SUB PUSH1 0x84 ADD SWAP1 REVERT JUMPDEST PUSH1 0x0 DUP1 SLOAD PUSH1 0x40 DUP1 MLOAD PUSH32 0x9DC29FAC00000000000000000000000000000000000000000000000000000000 DUP2 MSTORE PUSH20 0xFFFFFFFFFFFFFFFFFFFFFFFFFFFFFFFFFFFFFFFF DUP8 DUP2 AND PUSH1 0x4 DUP4 ADD MSTORE PUSH1 0x24 DUP3 ADD DUP8 SWAP1 MSTORE SWAP2 MLOAD PUSH2 0x100 SWAP1 SWAP4 DIV SWAP1 SWAP2 AND SWAP3 PUSH4 0x9DC29FAC SWAP3 PUSH1 0x44 DUP1 DUP5 ADD SWAP4 DUP3 SWAP1 SUB ADD DUP2 DUP4 DUP8 DUP1 EXTCODESIZE ISZERO DUP1 ISZERO PUSH2 0xE6F JUMPI PUSH1 0x0 DUP1 REVERT JUMPDEST POP GAS CALL ISZERO DUP1 ISZERO PUSH2 0xE83 JUMPI RETURNDATASIZE PUSH1 0x0 DUP1 RETURNDATACOPY RETURNDATASIZE PUSH1 0x0 REVERT JUMPDEST POP POP POP POP PUSH2 0x62D DUP4 PUSH2 0x3A6 JUMP JUMPDEST PUSH1 0x1 SLOAD PUSH20 0xFFFFFFFFFFFFFFFFFFFFFFFFFFFFFFFFFFFFFFFF AND CALLER EQ PUSH2 0xF16 JUMPI PUSH1 0x40 DUP1 MLOAD PUSH32 0x8C379A000000000000000000000000000000000000000000000000000000000 DUP2 MSTORE PUSH1 0x20 PUSH1 0x4 DUP3 ADD MSTORE PUSH1 0x19 PUSH1 0x24 DUP3 ADD MSTORE PUSH32 0x43616C6C6572206973206E6F7420746865206D616E6167657200000000000000 PUSH1 0x44 DUP3 ADD MSTORE SWAP1 MLOAD SWAP1 DUP2 SWAP1 SUB PUSH1 0x64 ADD SWAP1 REVERT JUMPDEST PUSH1 0x1 DUP1 SLOAD PUSH32 0xFFFFFFFFFFFFFFFFFFFFFFFF0000000000000000000000000000000000000000 AND PUSH20 0xFFFFFFFFFFFFFFFFFFFFFFFFFFFFFFFFFFFFFFFF SWAP3 SWAP1 SWAP3 AND SWAP2 SWAP1 SWAP2 OR SWAP1 SSTORE JUMP JUMPDEST PUSH1 0x1 SLOAD PUSH20 0xFFFFFFFFFFFFFFFFFFFFFFFFFFFFFFFFFFFFFFFF AND CALLER EQ PUSH2 0xFE3 JUMPI PUSH1 0x40 DUP1 MLOAD PUSH32 0x8C379A000000000000000000000000000000000000000000000000000000000 DUP2 MSTORE PUSH1 0x20 PUSH1 0x4 DUP3 ADD MSTORE PUSH1 0x19 PUSH1 0x24 DUP3 ADD MSTORE PUSH32 0x43616C6C6572206973206E6F7420746865206D616E6167657200000000000000 PUSH1 0x44 DUP3 ADD MSTORE SWAP1 MLOAD SWAP1 DUP2 SWAP1 SUB PUSH1 0x64 ADD SWAP1 REVERT JUMPDEST PUSH1 0x0 DUP1 SLOAD PUSH20 0xFFFFFFFFFFFFFFFFFFFFFFFFFFFFFFFFFFFFFFFF SWAP1 SWAP3 AND PUSH2 0x100 MUL PUSH32 0xFFFFFFFFFFFFFFFFFFFFFF0000000000000000000000000000000000000000FF PUSH32 0xFFFFFFFFFFFFFFFFFFFFFFFFFFFFFFFFFFFFFFFFFFFFFFFFFFFFFFFFFFFFFF00 SWAP1 SWAP4 AND PUSH1 0x1 OR SWAP3 SWAP1 SWAP3 AND SWAP2 SWAP1 SWAP2 OR SWAP1 SSTORE JUMP JUMPDEST CALLER PUSH1 0x0 DUP2 DUP2 MSTORE PUSH1 0x2 PUSH1 0x20 MSTORE PUSH1 0x40 SWAP1 KECCAK256 SLOAD PUSH1 0x1 SLOAD SWAP1 SWAP2 PUSH20 0xFFFFFFFFFFFFFFFFFFFFFFFFFFFFFFFFFFFFFFFF SWAP1 SWAP2 AND EQ DUP1 PUSH2 0x10D9 JUMPI POP PUSH1 0x0 DUP2 LT ISZERO DUP1 ISZERO PUSH2 0x109D JUMPI POP PUSH1 0x3 SLOAD DUP2 LT JUMPDEST DUP1 ISZERO PUSH2 0x10D9 JUMPI POP PUSH1 0x3 DUP1 SLOAD CALLER SWAP2 SWAP1 DUP4 SWAP1 DUP2 LT PUSH2 0x10B5 JUMPI INVALID JUMPDEST PUSH1 0x0 SWAP2 DUP3 MSTORE PUSH1 0x20 SWAP1 SWAP2 KECCAK256 ADD SLOAD PUSH20 0xFFFFFFFFFFFFFFFFFFFFFFFFFFFFFFFFFFFFFFFF AND EQ JUMPDEST ISZERO ISZERO PUSH2 0x1146 JUMPI PUSH1 0x40 DUP1 MLOAD PUSH32 0x8C379A000000000000000000000000000000000000000000000000000000000 DUP2 MSTORE PUSH1 0x20 PUSH1 0x4 DUP3 ADD MSTORE PUSH1 0x16 PUSH1 0x24 DUP3 ADD MSTORE PUSH32 0x43616C6C6572206973206E6F7420616E2061646D696E00000000000000000000 PUSH1 0x44 DUP3 ADD MSTORE SWAP1 MLOAD SWAP1 DUP2 SWAP1 SUB PUSH1 0x64 ADD SWAP1 REVERT JUMPDEST PUSH1 0x0 SLOAD PUSH1 0x40 DUP1 MLOAD PUSH32 0xCCF012B300000000000000000000000000000000000000000000000000000000 DUP2 MSTORE PUSH20 0xFFFFFFFFFFFFFFFFFFFFFFFFFFFFFFFFFFFFFFFF DUP8 DUP2 AND PUSH1 0x4 DUP4 ADD SWAP1 DUP2 MSTORE PUSH1 0x24 DUP4 ADD SWAP4 DUP5 MSTORE PUSH1 0x44 DUP4 ADD DUP8 SWAP1 MSTORE PUSH2 0x100 SWAP1 SWAP5 DIV AND SWAP3 PUSH4 0xCCF012B3 SWAP3 DUP9 SWAP3 DUP9 SWAP3 DUP9 SWAP3 SWAP1 SWAP2 PUSH1 0x64 ADD DUP5 DUP5 DUP1 DUP3 DUP5 CALLDATACOPY DUP3 ADD SWAP2 POP POP SWAP5 POP POP POP POP POP PUSH1 0x0 PUSH1 0x40 MLOAD DUP1 DUP4 SUB DUP2 PUSH1 0x0 DUP8 DUP1 EXTCODESIZE ISZERO DUP1 ISZERO PUSH2 0xC15 JUMPI PUSH1 0x0 DUP1 REVERT JUMPDEST DUP2 SLOAD DUP2 DUP4 SSTORE DUP2 DUP2 GT ISZERO PUSH2 0x62D JUMPI PUSH1 0x0 DUP4 DUP2 MSTORE PUSH1 0x20 SWAP1 KECCAK256 PUSH2 0x62D SWAP2 DUP2 ADD SWAP1 DUP4 ADD PUSH2 0x6C0 SWAP2 SWAP1 JUMPDEST DUP1 DUP3 GT ISZERO PUSH2 0x121A JUMPI PUSH1 0x0 DUP2 SSTORE PUSH1 0x1 ADD PUSH2 0x1206 JUMP JUMPDEST POP SWAP1 JUMP STOP LOG1 PUSH6 0x627A7A723058 KECCAK256 0xc6 0xed 0xb8 DUP7 0xce SWAP15 PUSH6 0x692440AA2605 0xaf 0xf5 0xb6 0xa8 BYTE GASLIMIT LOG1 0xe6 0xeb 0x1f 0xd7 SIGNEXTEND SDIV ISZERO SGT 0xe8 PUSH32 0xC189002900000000000000000000000000000000000000000000000000000000 "
		},
		"gasEstimates": {
			"creation": {
				"codeDepositCost": "936400",
				"executionCost": "21394",
				"totalCost": "957794"
			},
			"external": {
				"addAdmin(address)": "62155",
				"admins(address)": "572",
				"adminsArr(uint256)": "897",
				"assignName(address,string)": "infinite",
				"assignPosition(address,string)": "infinite",
				"burn(address,uint256)": "infinite",
				"getAdmins()": "infinite",
				"initialize(address)": "20908",
				"initialized()": "396",
				"manager()": "531",
				"mint(address,uint256)": "infinite",
				"removeAdmin(address)": "infinite",
				"tokenManager()": "454",
				"transferManager(address)": "20854"
			}
		},
		"methodIdentifiers": {
			"addAdmin(address)": "70480275",
			"admins(address)": "429b62e5",
			"adminsArr(uint256)": "7ba39fb3",
			"assignName(address,string)": "75ed57ce",
			"assignPosition(address,string)": "ccf012b3",
			"burn(address,uint256)": "9dc29fac",
			"getAdmins()": "31ae450b",
			"initialize(address)": "c4d66de8",
			"initialized()": "158ef93e",
			"manager()": "481c6a75",
			"mint(address,uint256)": "40c10f19",
			"removeAdmin(address)": "1785f53c",
			"tokenManager()": "2a709b14",
			"transferManager(address)": "ba0e930a"
		}
	},
	"abi": [
		{
			"constant": true,
			"inputs": [],
			"name": "initialized",
			"outputs": [
				{
					"name": "",
					"type": "bool"
				}
			],
			"payable": false,
			"stateMutability": "view",
			"type": "function"
		},
		{
			"constant": false,
			"inputs": [
				{
					"name": "admin",
					"type": "address"
				}
			],
			"name": "removeAdmin",
			"outputs": [],
			"payable": false,
			"stateMutability": "nonpayable",
			"type": "function"
		},
		{
			"constant": true,
			"inputs": [],
			"name": "tokenManager",
			"outputs": [
				{
					"name": "",
					"type": "address"
				}
			],
			"payable": false,
			"stateMutability": "view",
			"type": "function"
		},
		{
			"constant": true,
			"inputs": [],
			"name": "getAdmins",
			"outputs": [
				{
					"name": "",
					"type": "address[]"
				}
			],
			"payable": false,
			"stateMutability": "view",
			"type": "function"
		},
		{
			"constant": false,
			"inputs": [
				{
					"name": "_receiver",
					"type": "address"
				},
				{
					"name": "_amount",
					"type": "uint256"
				}
			],
			"name": "mint",
			"outputs": [],
			"payable": false,
			"stateMutability": "nonpayable",
			"type": "function"
		},
		{
			"constant": true,
			"inputs": [
				{
					"name": "",
					"type": "address"
				}
			],
			"name": "admins",
			"outputs": [
				{
					"name": "",
					"type": "uint256"
				}
			],
			"payable": false,
			"stateMutability": "view",
			"type": "function"
		},
		{
			"constant": true,
			"inputs": [],
			"name": "manager",
			"outputs": [
				{
					"name": "",
					"type": "address"
				}
			],
			"payable": false,
			"stateMutability": "view",
			"type": "function"
		},
		{
			"constant": false,
			"inputs": [
				{
					"name": "admin",
					"type": "address"
				}
			],
			"name": "addAdmin",
			"outputs": [],
			"payable": false,
			"stateMutability": "nonpayable",
			"type": "function"
		},
		{
			"constant": false,
			"inputs": [
				{
					"name": "_receiver",
					"type": "address"
				},
				{
					"name": "_name",
					"type": "string"
				}
			],
			"name": "assignName",
			"outputs": [],
			"payable": false,
			"stateMutability": "nonpayable",
			"type": "function"
		},
		{
			"constant": true,
			"inputs": [
				{
					"name": "",
					"type": "uint256"
				}
			],
			"name": "adminsArr",
			"outputs": [
				{
					"name": "",
					"type": "address"
				}
			],
			"payable": false,
			"stateMutability": "view",
			"type": "function"
		},
		{
			"constant": false,
			"inputs": [
				{
					"name": "_holder",
					"type": "address"
				},
				{
					"name": "_amount",
					"type": "uint256"
				}
			],
			"name": "burn",
			"outputs": [],
			"payable": false,
			"stateMutability": "nonpayable",
			"type": "function"
		},
		{
			"constant": false,
			"inputs": [
				{
					"name": "newManager",
					"type": "address"
				}
			],
			"name": "transferManager",
			"outputs": [],
			"payable": false,
			"stateMutability": "nonpayable",
			"type": "function"
		},
		{
			"constant": false,
			"inputs": [
				{
					"name": "_tokenManager",
					"type": "address"
				}
			],
			"name": "initialize",
			"outputs": [],
			"payable": false,
			"stateMutability": "nonpayable",
			"type": "function"
		},
		{
			"constant": false,
			"inputs": [
				{
					"name": "_receiver",
					"type": "address"
				},
				{
					"name": "_position",
					"type": "string"
				}
			],
			"name": "assignPosition",
			"outputs": [],
			"payable": false,
			"stateMutability": "nonpayable",
			"type": "function"
		},
		{
			"inputs": [
				{
					"name": "_manager",
					"type": "address"
				}
			],
			"payable": false,
			"stateMutability": "nonpayable",
			"type": "constructor"
		}
	]
}