{
	"data": {
		"bytecode": {
			"linkReferences": {},
			"object": "60806040523480156200001157600080fd5b5060405160808062002902833981016040908152815160208301519183015160609093015190929083838383620000518364010000000062000261810204565b60408051808201909152601981527f54454d504c4154455f454e535f4e4f545f434f4e54524143540000000000000060208201529015156200012e576040517f08c379a00000000000000000000000000000000000000000000000000000000081526004018080602001828103825283818151815260200191508051906020019080838360005b83811015620000f2578181015183820152602001620000d8565b50505050905090810190601f168015620001205780820380516001836020036101000a031916815260200191505b509250505060405180910390fd5b50620001438464010000000062000261810204565b60408051808201909152601d81527f54454d504c4154455f44414f5f4641435f4e4f545f434f4e54524143540000006020820152901515620001e3576040517f08c379a000000000000000000000000000000000000000000000000000000000815260040180806020018281038252838181518152602001915080519060200190808383600083811015620000f2578181015183820152602001620000d8565b5060008054600160a060020a0319908116600160a060020a03958616179091556003805482169285169290921790915560018054821694841694909417909355600280549093169116179055620002438164010000000062000290810204565b620002578264010000000062000348810204565b50505050620003fe565b600080600160a060020a03831615156200027f57600091506200028a565b823b90506000811191505b50919050565b620002a48164010000000062000261810204565b60408051808201909152601f81527f54454d504c4154455f415241474f4e5f49445f4e4f545f434f4e545241435400602082015290151562000344576040517f08c379a000000000000000000000000000000000000000000000000000000000815260040180806020018281038252838181518152602001915080519060200190808383600083811015620000f2578181015183820152602001620000d8565b5050565b6200035c8164010000000062000261810204565b6040805190810160405280602081526020017f54454d504c4154455f4d494e494d455f4641435f4e4f545f434f4e545241435481525090151562000344576040517f08c379a000000000000000000000000000000000000000000000000000000000815260040180806020018281038252838181518152602001915080519060200190808383600083811015620000f2578181015183820152602001620000d8565b6124f4806200040e6000396000f3006080604052600436106100565763ffffffff7c010000000000000000000000000000000000000000000000000000000060003504166301036114811461005b5780634629ffea1461012d578063f51a812b146101ed575b600080fd5b34801561006757600080fd5b506040805160206004803580820135601f810184900484028501840190955284845261012b943694929360249392840191908190840183828082843750506040805187358901803560208181028481018201909552818452989b9a9989019892975090820195509350839250850190849080828437505060408051606081810190925295989796818101969550935060039250849150839080828437509396505050913573ffffffffffffffffffffffffffffffffffffffff16925061024c915050565b005b34801561013957600080fd5b506040805160206004803580820135601f81018490048402850184019095528484526101c494369492936024939284019190819084018382808284375050604080516020601f89358b018035918201839004830284018301909452808352979a99988101979196509182019450925082915084018382808284375094975061029c9650505050505050565b6040805173ffffffffffffffffffffffffffffffffffffffff9092168252519081900360200190f35b3480156101f957600080fd5b5061012b6024600480358281019290820135918135808301929082013591604435808301929082013591606435918201910135608473ffffffffffffffffffffffffffffffffffffffff60e435166102be565b600080600061025a876103bc565b610264868661049c565b61026c610576565b9250925061027d838388888861079e565b905061028983826107f1565b61029387846107fc565b50505050505050565b6000806102ab84846000610a7e565b90506102b78133610d20565b9392505050565b61032a8a8a8080601f01602080910402602001604051908101604052809392919081815260200183838082843782019150505050505089898080601f0160208091040260200160405190810160405280939291908181526020018383808284375061029c945050505050565b506103b086868080601f0160208091040260200160405190810160405280939291908181526020018383808284375050604080516020808c0282810182019093528b82529095508b94508a935083925085019084908082843750506040805160608181019092529450899350600392508491508390808284375088935061024c92505050565b50505050505050505050565b805160408051808201909152601381527f54454d504c4154455f494e56414c49445f494400000000000000000000000000602082015290600010610498576040517f08c379a00000000000000000000000000000000000000000000000000000000081526004018080602001828103825283818151815260200191508051906020019080838360005b8381101561045d578181015183820152602001610445565b50505050905090810190601f16801561048a5780820380516001836020036101000a031916815260200191505b509250505060405180910390fd5b5050565b815160408051808201909152601a81527f4d454d424552534849505f4d495353494e475f4d454d4245525300000000000060208201529060001061053c576040517f08c379a00000000000000000000000000000000000000000000000000000000081526004018080602001828103825283818151815260200191508051906020019080838360008381101561045d578181015183820152602001610445565b5060408051808201909152601c81527f4d454d424552534849505f4241445f564f54455f53455454494e4753000000006020820152505050565b600154604080517f216874440000000000000000000000000000000000000000000000000000000081523060048201529051600092839273ffffffffffffffffffffffffffffffffffffffff9091169163216874449160248082019260209290919082900301818787803b1580156105ed57600080fd5b505af1158015610601573d6000803e3d6000fd5b505050506040513d602081101561061757600080fd5b50516040805173ffffffffffffffffffffffffffffffffffffffff8316815290519193507f0b13a9ab90735191cd544fd95ba68d1385144561cbdeb8acb8035de9a86432f5919081900360200190a18173ffffffffffffffffffffffffffffffffffffffff1663de2873596040518163ffffffff167c0100000000000000000000000000000000000000000000000000000000028152600401602060405180830381600087803b1580156106ca57600080fd5b505af11580156106de573d6000803e3d6000fd5b505050506040513d60208110156106f457600080fd5b5051604080517f8ea8dc9d000000000000000000000000000000000000000000000000000000008152905191925061079a918391859173ffffffffffffffffffffffffffffffffffffffff831691638ea8dc9d9160048083019260209291908290030181600087803b15801561076957600080fd5b505af115801561077d573d6000803e3d6000fd5b505050506040513d602081101561079357600080fd5b5051610d75565b9091565b6000806000806107ad33610e11565b92506107bd898460006001610f32565b91506107ca8984886110b6565b90506107d988838960016110dc565b6107e5888284886112d3565b98975050505050505050565b6104988282836112fd565b60035460408051808201909152601f81527f54454d504c4154455f415241474f4e5f49445f4e4f545f50524f56494445440060208201529073ffffffffffffffffffffffffffffffffffffffff1615156108b2576040517f08c379a00000000000000000000000000000000000000000000000000000000081526004018080602001828103825283818151815260200191508051906020019080838360008381101561045d578181015183820152602001610445565b50600354604051835173ffffffffffffffffffffffffffffffffffffffff9092169163d22057a99185916020918201918291908401908083835b6020831061092957805182527fffffffffffffffffffffffffffffffffffffffffffffffffffffffffffffffe090920191602091820191016108ec565b6001836020036101000a0380198251168184511680821785525050505050509050019150506040516020818303038152906040526040518082805190602001908083835b602083106109aa57805182527fffffffffffffffffffffffffffffffffffffffffffffffffffffffffffffffe0909201916020918201910161096d565b5181516020939093036101000a7fffffffffffffffffffffffffffffffffffffffffffffffffffffffffffffffff01801990911692169190911790526040805191909301819003812063ffffffff87167c0100000000000000000000000000000000000000000000000000000000028252600482015273ffffffffffffffffffffffffffffffffffffffff88166024820152915160448084019550600094509092839003019050818387803b158015610a6257600080fd5b505af1158015610a76573d6000803e3d6000fd5b505050505050565b6002546040805180820190915260208082527f54454d504c4154455f4d494e494d455f4641435f4e4f545f50524f56494445449082015260009182919073ffffffffffffffffffffffffffffffffffffffff161515610b39576040517f08c379a00000000000000000000000000000000000000000000000000000000081526004018080602001828103825283818151815260200191508051906020019080838360008381101561045d578181015183820152602001610445565b506002546040517f5b7b72c10000000000000000000000000000000000000000000000000000000081526000600482018181526024830182905260ff87166064840152600160a4840181905260c0604485019081528a5160c48601528a5173ffffffffffffffffffffffffffffffffffffffff90961695635b7b72c19585948d948c948e9491939091608482019160e4019060208901908083838d5b83811015610bed578181015183820152602001610bd5565b50505050905090810190601f168015610c1a5780820380516001836020036101000a031916815260200191505b50838103825285518152855160209182019187019080838360005b83811015610c4d578181015183820152602001610c35565b50505050905090810190601f168015610c7a5780820380516001836020036101000a031916815260200191505b5098505050505050505050602060405180830381600087803b158015610c9f57600080fd5b505af1158015610cb3573d6000803e3d6000fd5b505050506040513d6020811015610cc957600080fd5b50516040805173ffffffffffffffffffffffffffffffffffffffff8316815290519192507fd18525bc6595a90cc21e9fbd517ada6fc07a7e87b7d2cdb6ee9284c450ebffa4919081900360200190a1949350505050565b73ffffffffffffffffffffffffffffffffffffffff90811660009081526004602052604090208054919092167fffffffffffffffffffffffff0000000000000000000000000000000000000000909116179055565b604080517fbe038478000000000000000000000000000000000000000000000000000000008152306004820181905273ffffffffffffffffffffffffffffffffffffffff858116602484015260448301859052606483019190915291519185169163be0384789160848082019260009290919082900301818387803b158015610dfd57600080fd5b505af1158015610293573d6000803e3d6000fd5b73ffffffffffffffffffffffffffffffffffffffff8181166000908152600460209081526040808320548151808301909252601c82527f54454d504c4154455f4d495353494e475f544f4b454e5f434143484500000000928201929092529192839291161515610edd576040517f08c379a00000000000000000000000000000000000000000000000000000000081526004018080602001828103825283818151815260200191508051906020019080838360008381101561045d578181015183820152602001610445565b50505073ffffffffffffffffffffffffffffffffffffffff908116600090815260046020526040902080547fffffffffffffffffffffffff000000000000000000000000000000000000000081169091551690565b600080610f5f867f6b20a3010614eeebf2138ccec99f028a61c811b3b1a3343b6ff635985c75c91f6114f0565b90508473ffffffffffffffffffffffffffffffffffffffff16633cebb823826040518263ffffffff167c0100000000000000000000000000000000000000000000000000000000028152600401808273ffffffffffffffffffffffffffffffffffffffff1673ffffffffffffffffffffffffffffffffffffffff168152602001915050600060405180830381600087803b158015610ffc57600080fd5b505af1158015611010573d6000803e3d6000fd5b5050604080517fe37ff29f00000000000000000000000000000000000000000000000000000000815273ffffffffffffffffffffffffffffffffffffffff89811660048301528815156024830152604482018890529151918516935063e37ff29f925060648082019260009290919082900301818387803b15801561109457600080fd5b505af11580156110a8573d6000803e3d6000fd5b509298975050505050505050565b8051602082015160408301516000926110d49287928792919061150d565b949350505050565b600061114785858673ffffffffffffffffffffffffffffffffffffffff166375b238fc6040518163ffffffff167c0100000000000000000000000000000000000000000000000000000000028152600401602060405180830381600087803b15801561076957600080fd5b5060005b8251811015611232578373ffffffffffffffffffffffffffffffffffffffff166340c10f19848381518110151561117e57fe5b90602001906020020151846040518363ffffffff167c0100000000000000000000000000000000000000000000000000000000028152600401808373ffffffffffffffffffffffffffffffffffffffff1673ffffffffffffffffffffffffffffffffffffffff16815260200182815260200192505050600060405180830381600087803b15801561120e57600080fd5b505af1158015611222573d6000803e3d6000fd5b50506001909201915061114b9050565b6112cc85858673ffffffffffffffffffffffffffffffffffffffff166375b238fc6040518163ffffffff167c0100000000000000000000000000000000000000000000000000000000028152600401602060405180830381600087803b15801561129b57600080fd5b505af11580156112af573d6000803e3d6000fd5b505050506040513d60208110156112c557600080fd5b50516115e4565b5050505050565b6112de8484856116f2565b6112eb8484858587611a14565b6112f784838384611df6565b50505050565b60008373ffffffffffffffffffffffffffffffffffffffff1663de2873596040518163ffffffff167c0100000000000000000000000000000000000000000000000000000000028152600401602060405180830381600087803b15801561136357600080fd5b505af1158015611377573d6000803e3d6000fd5b505050506040513d602081101561138d57600080fd5b5051604080517f8ea8dc9d00000000000000000000000000000000000000000000000000000000815290519192506114379183918791879173ffffffffffffffffffffffffffffffffffffffff841691638ea8dc9d916004808201926020929091908290030181600087803b15801561140557600080fd5b505af1158015611419573d6000803e3d6000fd5b505050506040513d602081101561142f57600080fd5b505186611f27565b6114a18182858473ffffffffffffffffffffffffffffffffffffffff16633d6ab68f6040518163ffffffff167c0100000000000000000000000000000000000000000000000000000000028152600401602060405180830381600087803b15801561140557600080fd5b6040805173ffffffffffffffffffffffffffffffffffffffff8616815290517f17592627a66846ce06d92a1708275bc653b2a3f34aec855584b819872a8ba4139181900360200190a150505050565b604080516000808252602082019092526102b790849084906120d5565b6040805173ffffffffffffffffffffffffffffffffffffffff8616602482015267ffffffffffffffff8086166044830152808516606483015283166084808301919091528251808303909101815260a49091019091526020810180517bffffffffffffffffffffffffffffffffffffffffffffffffffffffff167fdf3d3305000000000000000000000000000000000000000000000000000000001790526000906115d9877f9fa3927f639745e587912d4b0fea7ef9013bf93fb907d29faeab57417ba6e1d4836120d5565b979650505050505050565b604080517f9d0effdb00000000000000000000000000000000000000000000000000000000815230600482015273ffffffffffffffffffffffffffffffffffffffff848116602483015260448201849052915191851691639d0effdb9160648082019260009290919082900301818387803b15801561166257600080fd5b505af1158015611676573d6000803e3d6000fd5b5050604080517fa885508a00000000000000000000000000000000000000000000000000000000815273ffffffffffffffffffffffffffffffffffffffff8681166004830152602482018690529151918716935063a885508a925060448082019260009290919082900301818387803b158015610dfd57600080fd5b60008373ffffffffffffffffffffffffffffffffffffffff1663a479e5086040518163ffffffff167c0100000000000000000000000000000000000000000000000000000000028152600401602060405180830381600087803b15801561175857600080fd5b505af115801561176c573d6000803e3d6000fd5b505050506040513d602081101561178257600080fd5b5051604080517fbd8fde1c000000000000000000000000000000000000000000000000000000008152905191925073ffffffffffffffffffffffffffffffffffffffff8087169263be03847892879286929083169163bd8fde1c9160048083019260209291908290030181600087803b1580156117fe57600080fd5b505af1158015611812573d6000803e3d6000fd5b505050506040513d602081101561182857600080fd5b5051604080517c010000000000000000000000000000000000000000000000000000000063ffffffff871602815273ffffffffffffffffffffffffffffffffffffffff94851660048201529284166024840152604483019190915291861660648201529051608480830192600092919082900301818387803b1580156118ad57600080fd5b505af11580156118c1573d6000803e3d6000fd5b505050508373ffffffffffffffffffffffffffffffffffffffff1663be03847884838473ffffffffffffffffffffffffffffffffffffffff166319f3d10f6040518163ffffffff167c0100000000000000000000000000000000000000000000000000000000028152600401602060405180830381600087803b15801561194757600080fd5b505af115801561195b573d6000803e3d6000fd5b505050506040513d602081101561197157600080fd5b5051604080517c010000000000000000000000000000000000000000000000000000000063ffffffff871602815273ffffffffffffffffffffffffffffffffffffffff94851660048201529284166024840152604483019190915291861660648201529051608480830192600092919082900301818387803b1580156119f657600080fd5b505af1158015611a0a573d6000803e3d6000fd5b5050505050505050565b8473ffffffffffffffffffffffffffffffffffffffff1663be03847884868773ffffffffffffffffffffffffffffffffffffffff16633c624c756040518163ffffffff167c0100000000000000000000000000000000000000000000000000000000028152600401602060405180830381600087803b158015611a9657600080fd5b505af1158015611aaa573d6000803e3d6000fd5b505050506040513d6020811015611ac057600080fd5b5051604080517c010000000000000000000000000000000000000000000000000000000063ffffffff871602815273ffffffffffffffffffffffffffffffffffffffff94851660048201529284166024840152604483019190915291851660648201529051608480830192600092919082900301818387803b158015611b4557600080fd5b505af1158015611b59573d6000803e3d6000fd5b505050508473ffffffffffffffffffffffffffffffffffffffff1663be03847884868773ffffffffffffffffffffffffffffffffffffffff166362de7e5a6040518163ffffffff167c0100000000000000000000000000000000000000000000000000000000028152600401602060405180830381600087803b158015611bdf57600080fd5b505af1158015611bf3573d6000803e3d6000fd5b505050506040513d6020811015611c0957600080fd5b5051604080517c010000000000000000000000000000000000000000000000000000000063ffffffff871602815273ffffffffffffffffffffffffffffffffffffffff94851660048201529284166024840152604483019190915291851660648201529051608480830192600092919082900301818387803b158015611c8e57600080fd5b505af1158015611ca2573d6000803e3d6000fd5b505050508473ffffffffffffffffffffffffffffffffffffffff1663be03847883868773ffffffffffffffffffffffffffffffffffffffff1663be2c64d46040518163ffffffff167c0100000000000000000000000000000000000000000000000000000000028152600401602060405180830381600087803b158015611d2857600080fd5b505af1158015611d3c573d6000803e3d6000fd5b505050506040513d6020811015611d5257600080fd5b5051604080517c010000000000000000000000000000000000000000000000000000000063ffffffff871602815273ffffffffffffffffffffffffffffffffffffffff94851660048201529284166024840152604483019190915291851660648201529051608480830192600092919082900301818387803b158015611dd757600080fd5b505af1158015611deb573d6000803e3d6000fd5b505050505050505050565b8373ffffffffffffffffffffffffffffffffffffffff1663be03847883858673ffffffffffffffffffffffffffffffffffffffff166375b238fc6040518163ffffffff167c0100000000000000000000000000000000000000000000000000000000028152600401602060405180830381600087803b158015611e7857600080fd5b505af1158015611e8c573d6000803e3d6000fd5b505050506040513d6020811015611ea257600080fd5b5051604080517c010000000000000000000000000000000000000000000000000000000063ffffffff871602815273ffffffffffffffffffffffffffffffffffffffff94851660048201529284166024840152604483019190915291851660648201529051608480830192600092919082900301818387803b1580156119f657600080fd5b604080517f0a8ed3db00000000000000000000000000000000000000000000000000000000815273ffffffffffffffffffffffffffffffffffffffff8581166004830152868116602483015260448201859052915191871691630a8ed3db9160648082019260009290919082900301818387803b158015611fa757600080fd5b505af1158015611fbb573d6000803e3d6000fd5b5050604080517f9d0effdb00000000000000000000000000000000000000000000000000000000815230600482015273ffffffffffffffffffffffffffffffffffffffff88811660248301526044820187905291519189169350639d0effdb925060648082019260009290919082900301818387803b15801561203d57600080fd5b505af1158015612051573d6000803e3d6000fd5b5050604080517fafd925df00000000000000000000000000000000000000000000000000000000815273ffffffffffffffffffffffffffffffffffffffff85811660048301528881166024830152604482018790529151918916935063afd925df925060648082019260009290919082900301818387803b158015611dd757600080fd5b60006110d48484846000808060006120ec86612265565b6040517f397edd410000000000000000000000000000000000000000000000000000000081526004810188815273ffffffffffffffffffffffffffffffffffffffff80841660248401528715156064840152608060448401908152895160848501528951949650908b169363397edd41938b9388938c938c9360a40190602086019080838360005b8381101561218c578181015183820152602001612174565b50505050905090810190601f1680156121b95780820380516001836020036101000a031916815260200191505b5095505050505050602060405180830381600087803b1580156121db57600080fd5b505af11580156121ef573d6000803e3d6000fd5b505050506040513d602081101561220557600080fd5b50516040805173ffffffffffffffffffffffffffffffffffffffff831681526020810189905281519293507f2b183a501d4b1bbd30e6611ebac40ab18a00390e6c6bed324bf92a265c9ce6e3929081900390910190a19695505050505050565b60008054604080517f0178b8bf000000000000000000000000000000000000000000000000000000008152600481018590529051839273ffffffffffffffffffffffffffffffffffffffff1691630178b8bf91602480830192602092919082900301818787803b1580156122d857600080fd5b505af11580156122ec573d6000803e3d6000fd5b505050506040513d602081101561230257600080fd5b5051604080517f3b3b57de00000000000000000000000000000000000000000000000000000000815260048101869052905173ffffffffffffffffffffffffffffffffffffffff90921691633b3b57de916024808201926020929091908290030181600087803b15801561237557600080fd5b505af1158015612389573d6000803e3d6000fd5b505050506040513d602081101561239f57600080fd5b5051604080517fc36af460000000000000000000000000000000000000000000000000000000008152905191925073ffffffffffffffffffffffffffffffffffffffff83169163c36af4609160048082019260009290919082900301818387803b15801561240c57600080fd5b505af1158015612420573d6000803e3d6000fd5b505050506040513d6000823e601f3d9081017fffffffffffffffffffffffffffffffffffffffffffffffffffffffffffffffe016820160405260a081101561246757600080fd5b6060820151608083018051919284019184919064010000000081111561248c57600080fd5b8201602081018481111561249f57600080fd5b81516401000000008111828201871017156124b957600080fd5b509499985050505050505050505600a165627a7a72305820f696dc623ea005dc9c1e7b618dbf94e357b4aaba5db13717f308ec2a97897e060029",
			"opcodes": "PUSH1 0x80 PUSH1 0x40 MSTORE CALLVALUE DUP1 ISZERO PUSH3 0x11 JUMPI PUSH1 0x0 DUP1 REVERT JUMPDEST POP PUSH1 0x40 MLOAD PUSH1 0x80 DUP1 PUSH3 0x2902 DUP4 CODECOPY DUP2 ADD PUSH1 0x40 SWAP1 DUP2 MSTORE DUP2 MLOAD PUSH1 0x20 DUP4 ADD MLOAD SWAP2 DUP4 ADD MLOAD PUSH1 0x60 SWAP1 SWAP4 ADD MLOAD SWAP1 SWAP3 SWAP1 DUP4 DUP4 DUP4 DUP4 PUSH3 0x51 DUP4 PUSH5 0x100000000 PUSH3 0x261 DUP2 MUL DIV JUMP JUMPDEST PUSH1 0x40 DUP1 MLOAD DUP1 DUP3 ADD SWAP1 SWAP2 MSTORE PUSH1 0x19 DUP2 MSTORE PUSH32 0x54454D504C4154455F454E535F4E4F545F434F4E545241435400000000000000 PUSH1 0x20 DUP3 ADD MSTORE SWAP1 ISZERO ISZERO PUSH3 0x12E JUMPI PUSH1 0x40 MLOAD PUSH32 0x8C379A000000000000000000000000000000000000000000000000000000000 DUP2 MSTORE PUSH1 0x4 ADD DUP1 DUP1 PUSH1 0x20 ADD DUP3 DUP2 SUB DUP3 MSTORE DUP4 DUP2 DUP2 MLOAD DUP2 MSTORE PUSH1 0x20 ADD SWAP2 POP DUP1 MLOAD SWAP1 PUSH1 0x20 ADD SWAP1 DUP1 DUP4 DUP4 PUSH1 0x0 JUMPDEST DUP4 DUP2 LT ISZERO PUSH3 0xF2 JUMPI DUP2 DUP2 ADD MLOAD DUP4 DUP3 ADD MSTORE PUSH1 0x20 ADD PUSH3 0xD8 JUMP JUMPDEST POP POP POP POP SWAP1 POP SWAP1 DUP2 ADD SWAP1 PUSH1 0x1F AND DUP1 ISZERO PUSH3 0x120 JUMPI DUP1 DUP3 SUB DUP1 MLOAD PUSH1 0x1 DUP4 PUSH1 0x20 SUB PUSH2 0x100 EXP SUB NOT AND DUP2 MSTORE PUSH1 0x20 ADD SWAP2 POP JUMPDEST POP SWAP3 POP POP POP PUSH1 0x40 MLOAD DUP1 SWAP2 SUB SWAP1 REVERT JUMPDEST POP PUSH3 0x143 DUP5 PUSH5 0x100000000 PUSH3 0x261 DUP2 MUL DIV JUMP JUMPDEST PUSH1 0x40 DUP1 MLOAD DUP1 DUP3 ADD SWAP1 SWAP2 MSTORE PUSH1 0x1D DUP2 MSTORE PUSH32 0x54454D504C4154455F44414F5F4641435F4E4F545F434F4E5452414354000000 PUSH1 0x20 DUP3 ADD MSTORE SWAP1 ISZERO ISZERO PUSH3 0x1E3 JUMPI PUSH1 0x40 MLOAD PUSH32 0x8C379A000000000000000000000000000000000000000000000000000000000 DUP2 MSTORE PUSH1 0x4 ADD DUP1 DUP1 PUSH1 0x20 ADD DUP3 DUP2 SUB DUP3 MSTORE DUP4 DUP2 DUP2 MLOAD DUP2 MSTORE PUSH1 0x20 ADD SWAP2 POP DUP1 MLOAD SWAP1 PUSH1 0x20 ADD SWAP1 DUP1 DUP4 DUP4 PUSH1 0x0 DUP4 DUP2 LT ISZERO PUSH3 0xF2 JUMPI DUP2 DUP2 ADD MLOAD DUP4 DUP3 ADD MSTORE PUSH1 0x20 ADD PUSH3 0xD8 JUMP JUMPDEST POP PUSH1 0x0 DUP1 SLOAD PUSH1 0x1 PUSH1 0xA0 PUSH1 0x2 EXP SUB NOT SWAP1 DUP2 AND PUSH1 0x1 PUSH1 0xA0 PUSH1 0x2 EXP SUB SWAP6 DUP7 AND OR SWAP1 SWAP2 SSTORE PUSH1 0x3 DUP1 SLOAD DUP3 AND SWAP3 DUP6 AND SWAP3 SWAP1 SWAP3 OR SWAP1 SWAP2 SSTORE PUSH1 0x1 DUP1 SLOAD DUP3 AND SWAP5 DUP5 AND SWAP5 SWAP1 SWAP5 OR SWAP1 SWAP4 SSTORE PUSH1 0x2 DUP1 SLOAD SWAP1 SWAP4 AND SWAP2 AND OR SWAP1 SSTORE PUSH3 0x243 DUP2 PUSH5 0x100000000 PUSH3 0x290 DUP2 MUL DIV JUMP JUMPDEST PUSH3 0x257 DUP3 PUSH5 0x100000000 PUSH3 0x348 DUP2 MUL DIV JUMP JUMPDEST POP POP POP POP PUSH3 0x3FE JUMP JUMPDEST PUSH1 0x0 DUP1 PUSH1 0x1 PUSH1 0xA0 PUSH1 0x2 EXP SUB DUP4 AND ISZERO ISZERO PUSH3 0x27F JUMPI PUSH1 0x0 SWAP2 POP PUSH3 0x28A JUMP JUMPDEST DUP3 EXTCODESIZE SWAP1 POP PUSH1 0x0 DUP2 GT SWAP2 POP JUMPDEST POP SWAP2 SWAP1 POP JUMP JUMPDEST PUSH3 0x2A4 DUP2 PUSH5 0x100000000 PUSH3 0x261 DUP2 MUL DIV JUMP JUMPDEST PUSH1 0x40 DUP1 MLOAD DUP1 DUP3 ADD SWAP1 SWAP2 MSTORE PUSH1 0x1F DUP2 MSTORE PUSH32 0x54454D504C4154455F415241474F4E5F49445F4E4F545F434F4E545241435400 PUSH1 0x20 DUP3 ADD MSTORE SWAP1 ISZERO ISZERO PUSH3 0x344 JUMPI PUSH1 0x40 MLOAD PUSH32 0x8C379A000000000000000000000000000000000000000000000000000000000 DUP2 MSTORE PUSH1 0x4 ADD DUP1 DUP1 PUSH1 0x20 ADD DUP3 DUP2 SUB DUP3 MSTORE DUP4 DUP2 DUP2 MLOAD DUP2 MSTORE PUSH1 0x20 ADD SWAP2 POP DUP1 MLOAD SWAP1 PUSH1 0x20 ADD SWAP1 DUP1 DUP4 DUP4 PUSH1 0x0 DUP4 DUP2 LT ISZERO PUSH3 0xF2 JUMPI DUP2 DUP2 ADD MLOAD DUP4 DUP3 ADD MSTORE PUSH1 0x20 ADD PUSH3 0xD8 JUMP JUMPDEST POP POP JUMP JUMPDEST PUSH3 0x35C DUP2 PUSH5 0x100000000 PUSH3 0x261 DUP2 MUL DIV JUMP JUMPDEST PUSH1 0x40 DUP1 MLOAD SWAP1 DUP2 ADD PUSH1 0x40 MSTORE DUP1 PUSH1 0x20 DUP2 MSTORE PUSH1 0x20 ADD PUSH32 0x54454D504C4154455F4D494E494D455F4641435F4E4F545F434F4E5452414354 DUP2 MSTORE POP SWAP1 ISZERO ISZERO PUSH3 0x344 JUMPI PUSH1 0x40 MLOAD PUSH32 0x8C379A000000000000000000000000000000000000000000000000000000000 DUP2 MSTORE PUSH1 0x4 ADD DUP1 DUP1 PUSH1 0x20 ADD DUP3 DUP2 SUB DUP3 MSTORE DUP4 DUP2 DUP2 MLOAD DUP2 MSTORE PUSH1 0x20 ADD SWAP2 POP DUP1 MLOAD SWAP1 PUSH1 0x20 ADD SWAP1 DUP1 DUP4 DUP4 PUSH1 0x0 DUP4 DUP2 LT ISZERO PUSH3 0xF2 JUMPI DUP2 DUP2 ADD MLOAD DUP4 DUP3 ADD MSTORE PUSH1 0x20 ADD PUSH3 0xD8 JUMP JUMPDEST PUSH2 0x24F4 DUP1 PUSH3 0x40E PUSH1 0x0 CODECOPY PUSH1 0x0 RETURN STOP PUSH1 0x80 PUSH1 0x40 MSTORE PUSH1 0x4 CALLDATASIZE LT PUSH2 0x56 JUMPI PUSH4 0xFFFFFFFF PUSH29 0x100000000000000000000000000000000000000000000000000000000 PUSH1 0x0 CALLDATALOAD DIV AND PUSH4 0x1036114 DUP2 EQ PUSH2 0x5B JUMPI DUP1 PUSH4 0x4629FFEA EQ PUSH2 0x12D JUMPI DUP1 PUSH4 0xF51A812B EQ PUSH2 0x1ED JUMPI JUMPDEST PUSH1 0x0 DUP1 REVERT JUMPDEST CALLVALUE DUP1 ISZERO PUSH2 0x67 JUMPI PUSH1 0x0 DUP1 REVERT JUMPDEST POP PUSH1 0x40 DUP1 MLOAD PUSH1 0x20 PUSH1 0x4 DUP1 CALLDATALOAD DUP1 DUP3 ADD CALLDATALOAD PUSH1 0x1F DUP2 ADD DUP5 SWAP1 DIV DUP5 MUL DUP6 ADD DUP5 ADD SWAP1 SWAP6 MSTORE DUP5 DUP5 MSTORE PUSH2 0x12B SWAP5 CALLDATASIZE SWAP5 SWAP3 SWAP4 PUSH1 0x24 SWAP4 SWAP3 DUP5 ADD SWAP2 SWAP1 DUP2 SWAP1 DUP5 ADD DUP4 DUP3 DUP1 DUP3 DUP5 CALLDATACOPY POP POP PUSH1 0x40 DUP1 MLOAD DUP8 CALLDATALOAD DUP10 ADD DUP1 CALLDATALOAD PUSH1 0x20 DUP2 DUP2 MUL DUP5 DUP2 ADD DUP3 ADD SWAP1 SWAP6 MSTORE DUP2 DUP5 MSTORE SWAP9 SWAP12 SWAP11 SWAP10 DUP10 ADD SWAP9 SWAP3 SWAP8 POP SWAP1 DUP3 ADD SWAP6 POP SWAP4 POP DUP4 SWAP3 POP DUP6 ADD SWAP1 DUP5 SWAP1 DUP1 DUP3 DUP5 CALLDATACOPY POP POP PUSH1 0x40 DUP1 MLOAD PUSH1 0x60 DUP2 DUP2 ADD SWAP1 SWAP3 MSTORE SWAP6 SWAP9 SWAP8 SWAP7 DUP2 DUP2 ADD SWAP7 SWAP6 POP SWAP4 POP PUSH1 0x3 SWAP3 POP DUP5 SWAP2 POP DUP4 SWAP1 DUP1 DUP3 DUP5 CALLDATACOPY POP SWAP4 SWAP7 POP POP POP SWAP2 CALLDATALOAD PUSH20 0xFFFFFFFFFFFFFFFFFFFFFFFFFFFFFFFFFFFFFFFF AND SWAP3 POP PUSH2 0x24C SWAP2 POP POP JUMP JUMPDEST STOP JUMPDEST CALLVALUE DUP1 ISZERO PUSH2 0x139 JUMPI PUSH1 0x0 DUP1 REVERT JUMPDEST POP PUSH1 0x40 DUP1 MLOAD PUSH1 0x20 PUSH1 0x4 DUP1 CALLDATALOAD DUP1 DUP3 ADD CALLDATALOAD PUSH1 0x1F DUP2 ADD DUP5 SWAP1 DIV DUP5 MUL DUP6 ADD DUP5 ADD SWAP1 SWAP6 MSTORE DUP5 DUP5 MSTORE PUSH2 0x1C4 SWAP5 CALLDATASIZE SWAP5 SWAP3 SWAP4 PUSH1 0x24 SWAP4 SWAP3 DUP5 ADD SWAP2 SWAP1 DUP2 SWAP1 DUP5 ADD DUP4 DUP3 DUP1 DUP3 DUP5 CALLDATACOPY POP POP PUSH1 0x40 DUP1 MLOAD PUSH1 0x20 PUSH1 0x1F DUP10 CALLDATALOAD DUP12 ADD DUP1 CALLDATALOAD SWAP2 DUP3 ADD DUP4 SWAP1 DIV DUP4 MUL DUP5 ADD DUP4 ADD SWAP1 SWAP5 MSTORE DUP1 DUP4 MSTORE SWAP8 SWAP11 SWAP10 SWAP9 DUP2 ADD SWAP8 SWAP2 SWAP7 POP SWAP2 DUP3 ADD SWAP5 POP SWAP3 POP DUP3 SWAP2 POP DUP5 ADD DUP4 DUP3 DUP1 DUP3 DUP5 CALLDATACOPY POP SWAP5 SWAP8 POP PUSH2 0x29C SWAP7 POP POP POP POP POP POP POP JUMP JUMPDEST PUSH1 0x40 DUP1 MLOAD PUSH20 0xFFFFFFFFFFFFFFFFFFFFFFFFFFFFFFFFFFFFFFFF SWAP1 SWAP3 AND DUP3 MSTORE MLOAD SWAP1 DUP2 SWAP1 SUB PUSH1 0x20 ADD SWAP1 RETURN JUMPDEST CALLVALUE DUP1 ISZERO PUSH2 0x1F9 JUMPI PUSH1 0x0 DUP1 REVERT JUMPDEST POP PUSH2 0x12B PUSH1 0x24 PUSH1 0x4 DUP1 CALLDATALOAD DUP3 DUP2 ADD SWAP3 SWAP1 DUP3 ADD CALLDATALOAD SWAP2 DUP2 CALLDATALOAD DUP1 DUP4 ADD SWAP3 SWAP1 DUP3 ADD CALLDATALOAD SWAP2 PUSH1 0x44 CALLDATALOAD DUP1 DUP4 ADD SWAP3 SWAP1 DUP3 ADD CALLDATALOAD SWAP2 PUSH1 0x64 CALLDATALOAD SWAP2 DUP3 ADD SWAP2 ADD CALLDATALOAD PUSH1 0x84 PUSH20 0xFFFFFFFFFFFFFFFFFFFFFFFFFFFFFFFFFFFFFFFF PUSH1 0xE4 CALLDATALOAD AND PUSH2 0x2BE JUMP JUMPDEST PUSH1 0x0 DUP1 PUSH1 0x0 PUSH2 0x25A DUP8 PUSH2 0x3BC JUMP JUMPDEST PUSH2 0x264 DUP7 DUP7 PUSH2 0x49C JUMP JUMPDEST PUSH2 0x26C PUSH2 0x576 JUMP JUMPDEST SWAP3 POP SWAP3 POP PUSH2 0x27D DUP4 DUP4 DUP9 DUP9 DUP9 PUSH2 0x79E JUMP JUMPDEST SWAP1 POP PUSH2 0x289 DUP4 DUP3 PUSH2 0x7F1 JUMP JUMPDEST PUSH2 0x293 DUP8 DUP5 PUSH2 0x7FC JUMP JUMPDEST POP POP POP POP POP POP POP JUMP JUMPDEST PUSH1 0x0 DUP1 PUSH2 0x2AB DUP5 DUP5 PUSH1 0x0 PUSH2 0xA7E JUMP JUMPDEST SWAP1 POP PUSH2 0x2B7 DUP2 CALLER PUSH2 0xD20 JUMP JUMPDEST SWAP4 SWAP3 POP POP POP JUMP JUMPDEST PUSH2 0x32A DUP11 DUP11 DUP1 DUP1 PUSH1 0x1F ADD PUSH1 0x20 DUP1 SWAP2 DIV MUL PUSH1 0x20 ADD PUSH1 0x40 MLOAD SWAP1 DUP2 ADD PUSH1 0x40 MSTORE DUP1 SWAP4 SWAP3 SWAP2 SWAP1 DUP2 DUP2 MSTORE PUSH1 0x20 ADD DUP4 DUP4 DUP1 DUP3 DUP5 CALLDATACOPY DUP3 ADD SWAP2 POP POP POP POP POP POP DUP10 DUP10 DUP1 DUP1 PUSH1 0x1F ADD PUSH1 0x20 DUP1 SWAP2 DIV MUL PUSH1 0x20 ADD PUSH1 0x40 MLOAD SWAP1 DUP2 ADD PUSH1 0x40 MSTORE DUP1 SWAP4 SWAP3 SWAP2 SWAP1 DUP2 DUP2 MSTORE PUSH1 0x20 ADD DUP4 DUP4 DUP1 DUP3 DUP5 CALLDATACOPY POP PUSH2 0x29C SWAP5 POP POP POP POP POP JUMP JUMPDEST POP PUSH2 0x3B0 DUP7 DUP7 DUP1 DUP1 PUSH1 0x1F ADD PUSH1 0x20 DUP1 SWAP2 DIV MUL PUSH1 0x20 ADD PUSH1 0x40 MLOAD SWAP1 DUP2 ADD PUSH1 0x40 MSTORE DUP1 SWAP4 SWAP3 SWAP2 SWAP1 DUP2 DUP2 MSTORE PUSH1 0x20 ADD DUP4 DUP4 DUP1 DUP3 DUP5 CALLDATACOPY POP POP PUSH1 0x40 DUP1 MLOAD PUSH1 0x20 DUP1 DUP13 MUL DUP3 DUP2 ADD DUP3 ADD SWAP1 SWAP4 MSTORE DUP12 DUP3 MSTORE SWAP1 SWAP6 POP DUP12 SWAP5 POP DUP11 SWAP4 POP DUP4 SWAP3 POP DUP6 ADD SWAP1 DUP5 SWAP1 DUP1 DUP3 DUP5 CALLDATACOPY POP POP PUSH1 0x40 DUP1 MLOAD PUSH1 0x60 DUP2 DUP2 ADD SWAP1 SWAP3 MSTORE SWAP5 POP DUP10 SWAP4 POP PUSH1 0x3 SWAP3 POP DUP5 SWAP2 POP DUP4 SWAP1 DUP1 DUP3 DUP5 CALLDATACOPY POP DUP9 SWAP4 POP PUSH2 0x24C SWAP3 POP POP POP JUMP JUMPDEST POP POP POP POP POP POP POP POP POP POP JUMP JUMPDEST DUP1 MLOAD PUSH1 0x40 DUP1 MLOAD DUP1 DUP3 ADD SWAP1 SWAP2 MSTORE PUSH1 0x13 DUP2 MSTORE PUSH32 0x54454D504C4154455F494E56414C49445F494400000000000000000000000000 PUSH1 0x20 DUP3 ADD MSTORE SWAP1 PUSH1 0x0 LT PUSH2 0x498 JUMPI PUSH1 0x40 MLOAD PUSH32 0x8C379A000000000000000000000000000000000000000000000000000000000 DUP2 MSTORE PUSH1 0x4 ADD DUP1 DUP1 PUSH1 0x20 ADD DUP3 DUP2 SUB DUP3 MSTORE DUP4 DUP2 DUP2 MLOAD DUP2 MSTORE PUSH1 0x20 ADD SWAP2 POP DUP1 MLOAD SWAP1 PUSH1 0x20 ADD SWAP1 DUP1 DUP4 DUP4 PUSH1 0x0 JUMPDEST DUP4 DUP2 LT ISZERO PUSH2 0x45D JUMPI DUP2 DUP2 ADD MLOAD DUP4 DUP3 ADD MSTORE PUSH1 0x20 ADD PUSH2 0x445 JUMP JUMPDEST POP POP POP POP SWAP1 POP SWAP1 DUP2 ADD SWAP1 PUSH1 0x1F AND DUP1 ISZERO PUSH2 0x48A JUMPI DUP1 DUP3 SUB DUP1 MLOAD PUSH1 0x1 DUP4 PUSH1 0x20 SUB PUSH2 0x100 EXP SUB NOT AND DUP2 MSTORE PUSH1 0x20 ADD SWAP2 POP JUMPDEST POP SWAP3 POP POP POP PUSH1 0x40 MLOAD DUP1 SWAP2 SUB SWAP1 REVERT JUMPDEST POP POP JUMP JUMPDEST DUP2 MLOAD PUSH1 0x40 DUP1 MLOAD DUP1 DUP3 ADD SWAP1 SWAP2 MSTORE PUSH1 0x1A DUP2 MSTORE PUSH32 0x4D454D424552534849505F4D495353494E475F4D454D42455253000000000000 PUSH1 0x20 DUP3 ADD MSTORE SWAP1 PUSH1 0x0 LT PUSH2 0x53C JUMPI PUSH1 0x40 MLOAD PUSH32 0x8C379A000000000000000000000000000000000000000000000000000000000 DUP2 MSTORE PUSH1 0x4 ADD DUP1 DUP1 PUSH1 0x20 ADD DUP3 DUP2 SUB DUP3 MSTORE DUP4 DUP2 DUP2 MLOAD DUP2 MSTORE PUSH1 0x20 ADD SWAP2 POP DUP1 MLOAD SWAP1 PUSH1 0x20 ADD SWAP1 DUP1 DUP4 DUP4 PUSH1 0x0 DUP4 DUP2 LT ISZERO PUSH2 0x45D JUMPI DUP2 DUP2 ADD MLOAD DUP4 DUP3 ADD MSTORE PUSH1 0x20 ADD PUSH2 0x445 JUMP JUMPDEST POP PUSH1 0x40 DUP1 MLOAD DUP1 DUP3 ADD SWAP1 SWAP2 MSTORE PUSH1 0x1C DUP2 MSTORE PUSH32 0x4D454D424552534849505F4241445F564F54455F53455454494E475300000000 PUSH1 0x20 DUP3 ADD MSTORE POP POP POP JUMP JUMPDEST PUSH1 0x1 SLOAD PUSH1 0x40 DUP1 MLOAD PUSH32 0x2168744400000000000000000000000000000000000000000000000000000000 DUP2 MSTORE ADDRESS PUSH1 0x4 DUP3 ADD MSTORE SWAP1 MLOAD PUSH1 0x0 SWAP3 DUP4 SWAP3 PUSH20 0xFFFFFFFFFFFFFFFFFFFFFFFFFFFFFFFFFFFFFFFF SWAP1 SWAP2 AND SWAP2 PUSH4 0x21687444 SWAP2 PUSH1 0x24 DUP1 DUP3 ADD SWAP3 PUSH1 0x20 SWAP3 SWAP1 SWAP2 SWAP1 DUP3 SWAP1 SUB ADD DUP2 DUP8 DUP8 DUP1 EXTCODESIZE ISZERO DUP1 ISZERO PUSH2 0x5ED JUMPI PUSH1 0x0 DUP1 REVERT JUMPDEST POP GAS CALL ISZERO DUP1 ISZERO PUSH2 0x601 JUMPI RETURNDATASIZE PUSH1 0x0 DUP1 RETURNDATACOPY RETURNDATASIZE PUSH1 0x0 REVERT JUMPDEST POP POP POP POP PUSH1 0x40 MLOAD RETURNDATASIZE PUSH1 0x20 DUP2 LT ISZERO PUSH2 0x617 JUMPI PUSH1 0x0 DUP1 REVERT JUMPDEST POP MLOAD PUSH1 0x40 DUP1 MLOAD PUSH20 0xFFFFFFFFFFFFFFFFFFFFFFFFFFFFFFFFFFFFFFFF DUP4 AND DUP2 MSTORE SWAP1 MLOAD SWAP2 SWAP4 POP PUSH32 0xB13A9AB90735191CD544FD95BA68D1385144561CBDEB8ACB8035DE9A86432F5 SWAP2 SWAP1 DUP2 SWAP1 SUB PUSH1 0x20 ADD SWAP1 LOG1 DUP2 PUSH20 0xFFFFFFFFFFFFFFFFFFFFFFFFFFFFFFFFFFFFFFFF AND PUSH4 0xDE287359 PUSH1 0x40 MLOAD DUP2 PUSH4 0xFFFFFFFF AND PUSH29 0x100000000000000000000000000000000000000000000000000000000 MUL DUP2 MSTORE PUSH1 0x4 ADD PUSH1 0x20 PUSH1 0x40 MLOAD DUP1 DUP4 SUB DUP2 PUSH1 0x0 DUP8 DUP1 EXTCODESIZE ISZERO DUP1 ISZERO PUSH2 0x6CA JUMPI PUSH1 0x0 DUP1 REVERT JUMPDEST POP GAS CALL ISZERO DUP1 ISZERO PUSH2 0x6DE JUMPI RETURNDATASIZE PUSH1 0x0 DUP1 RETURNDATACOPY RETURNDATASIZE PUSH1 0x0 REVERT JUMPDEST POP POP POP POP PUSH1 0x40 MLOAD RETURNDATASIZE PUSH1 0x20 DUP2 LT ISZERO PUSH2 0x6F4 JUMPI PUSH1 0x0 DUP1 REVERT JUMPDEST POP MLOAD PUSH1 0x40 DUP1 MLOAD PUSH32 0x8EA8DC9D00000000000000000000000000000000000000000000000000000000 DUP2 MSTORE SWAP1 MLOAD SWAP2 SWAP3 POP PUSH2 0x79A SWAP2 DUP4 SWAP2 DUP6 SWAP2 PUSH20 0xFFFFFFFFFFFFFFFFFFFFFFFFFFFFFFFFFFFFFFFF DUP4 AND SWAP2 PUSH4 0x8EA8DC9D SWAP2 PUSH1 0x4 DUP1 DUP4 ADD SWAP3 PUSH1 0x20 SWAP3 SWAP2 SWAP1 DUP3 SWAP1 SUB ADD DUP2 PUSH1 0x0 DUP8 DUP1 EXTCODESIZE ISZERO DUP1 ISZERO PUSH2 0x769 JUMPI PUSH1 0x0 DUP1 REVERT JUMPDEST POP GAS CALL ISZERO DUP1 ISZERO PUSH2 0x77D JUMPI RETURNDATASIZE PUSH1 0x0 DUP1 RETURNDATACOPY RETURNDATASIZE PUSH1 0x0 REVERT JUMPDEST POP POP POP POP PUSH1 0x40 MLOAD RETURNDATASIZE PUSH1 0x20 DUP2 LT ISZERO PUSH2 0x793 JUMPI PUSH1 0x0 DUP1 REVERT JUMPDEST POP MLOAD PUSH2 0xD75 JUMP JUMPDEST SWAP1 SWAP2 JUMP JUMPDEST PUSH1 0x0 DUP1 PUSH1 0x0 DUP1 PUSH2 0x7AD CALLER PUSH2 0xE11 JUMP JUMPDEST SWAP3 POP PUSH2 0x7BD DUP10 DUP5 PUSH1 0x0 PUSH1 0x1 PUSH2 0xF32 JUMP JUMPDEST SWAP2 POP PUSH2 0x7CA DUP10 DUP5 DUP9 PUSH2 0x10B6 JUMP JUMPDEST SWAP1 POP PUSH2 0x7D9 DUP9 DUP4 DUP10 PUSH1 0x1 PUSH2 0x10DC JUMP JUMPDEST PUSH2 0x7E5 DUP9 DUP3 DUP5 DUP9 PUSH2 0x12D3 JUMP JUMPDEST SWAP9 SWAP8 POP POP POP POP POP POP POP POP JUMP JUMPDEST PUSH2 0x498 DUP3 DUP3 DUP4 PUSH2 0x12FD JUMP JUMPDEST PUSH1 0x3 SLOAD PUSH1 0x40 DUP1 MLOAD DUP1 DUP3 ADD SWAP1 SWAP2 MSTORE PUSH1 0x1F DUP2 MSTORE PUSH32 0x54454D504C4154455F415241474F4E5F49445F4E4F545F50524F564944454400 PUSH1 0x20 DUP3 ADD MSTORE SWAP1 PUSH20 0xFFFFFFFFFFFFFFFFFFFFFFFFFFFFFFFFFFFFFFFF AND ISZERO ISZERO PUSH2 0x8B2 JUMPI PUSH1 0x40 MLOAD PUSH32 0x8C379A000000000000000000000000000000000000000000000000000000000 DUP2 MSTORE PUSH1 0x4 ADD DUP1 DUP1 PUSH1 0x20 ADD DUP3 DUP2 SUB DUP3 MSTORE DUP4 DUP2 DUP2 MLOAD DUP2 MSTORE PUSH1 0x20 ADD SWAP2 POP DUP1 MLOAD SWAP1 PUSH1 0x20 ADD SWAP1 DUP1 DUP4 DUP4 PUSH1 0x0 DUP4 DUP2 LT ISZERO PUSH2 0x45D JUMPI DUP2 DUP2 ADD MLOAD DUP4 DUP3 ADD MSTORE PUSH1 0x20 ADD PUSH2 0x445 JUMP JUMPDEST POP PUSH1 0x3 SLOAD PUSH1 0x40 MLOAD DUP4 MLOAD PUSH20 0xFFFFFFFFFFFFFFFFFFFFFFFFFFFFFFFFFFFFFFFF SWAP1 SWAP3 AND SWAP2 PUSH4 0xD22057A9 SWAP2 DUP6 SWAP2 PUSH1 0x20 SWAP2 DUP3 ADD SWAP2 DUP3 SWAP2 SWAP1 DUP5 ADD SWAP1 DUP1 DUP4 DUP4 JUMPDEST PUSH1 0x20 DUP4 LT PUSH2 0x929 JUMPI DUP1 MLOAD DUP3 MSTORE PUSH32 0xFFFFFFFFFFFFFFFFFFFFFFFFFFFFFFFFFFFFFFFFFFFFFFFFFFFFFFFFFFFFFFE0 SWAP1 SWAP3 ADD SWAP2 PUSH1 0x20 SWAP2 DUP3 ADD SWAP2 ADD PUSH2 0x8EC JUMP JUMPDEST PUSH1 0x1 DUP4 PUSH1 0x20 SUB PUSH2 0x100 EXP SUB DUP1 NOT DUP3 MLOAD AND DUP2 DUP5 MLOAD AND DUP1 DUP3 OR DUP6 MSTORE POP POP POP POP POP POP SWAP1 POP ADD SWAP2 POP POP PUSH1 0x40 MLOAD PUSH1 0x20 DUP2 DUP4 SUB SUB DUP2 MSTORE SWAP1 PUSH1 0x40 MSTORE PUSH1 0x40 MLOAD DUP1 DUP3 DUP1 MLOAD SWAP1 PUSH1 0x20 ADD SWAP1 DUP1 DUP4 DUP4 JUMPDEST PUSH1 0x20 DUP4 LT PUSH2 0x9AA JUMPI DUP1 MLOAD DUP3 MSTORE PUSH32 0xFFFFFFFFFFFFFFFFFFFFFFFFFFFFFFFFFFFFFFFFFFFFFFFFFFFFFFFFFFFFFFE0 SWAP1 SWAP3 ADD SWAP2 PUSH1 0x20 SWAP2 DUP3 ADD SWAP2 ADD PUSH2 0x96D JUMP JUMPDEST MLOAD DUP2 MLOAD PUSH1 0x20 SWAP4 SWAP1 SWAP4 SUB PUSH2 0x100 EXP PUSH32 0xFFFFFFFFFFFFFFFFFFFFFFFFFFFFFFFFFFFFFFFFFFFFFFFFFFFFFFFFFFFFFFFF ADD DUP1 NOT SWAP1 SWAP2 AND SWAP3 AND SWAP2 SWAP1 SWAP2 OR SWAP1 MSTORE PUSH1 0x40 DUP1 MLOAD SWAP2 SWAP1 SWAP4 ADD DUP2 SWAP1 SUB DUP2 KECCAK256 PUSH4 0xFFFFFFFF DUP8 AND PUSH29 0x100000000000000000000000000000000000000000000000000000000 MUL DUP3 MSTORE PUSH1 0x4 DUP3 ADD MSTORE PUSH20 0xFFFFFFFFFFFFFFFFFFFFFFFFFFFFFFFFFFFFFFFF DUP9 AND PUSH1 0x24 DUP3 ADD MSTORE SWAP2 MLOAD PUSH1 0x44 DUP1 DUP5 ADD SWAP6 POP PUSH1 0x0 SWAP5 POP SWAP1 SWAP3 DUP4 SWAP1 SUB ADD SWAP1 POP DUP2 DUP4 DUP8 DUP1 EXTCODESIZE ISZERO DUP1 ISZERO PUSH2 0xA62 JUMPI PUSH1 0x0 DUP1 REVERT JUMPDEST POP GAS CALL ISZERO DUP1 ISZERO PUSH2 0xA76 JUMPI RETURNDATASIZE PUSH1 0x0 DUP1 RETURNDATACOPY RETURNDATASIZE PUSH1 0x0 REVERT JUMPDEST POP POP POP POP POP POP JUMP JUMPDEST PUSH1 0x2 SLOAD PUSH1 0x40 DUP1 MLOAD DUP1 DUP3 ADD SWAP1 SWAP2 MSTORE PUSH1 0x20 DUP1 DUP3 MSTORE PUSH32 0x54454D504C4154455F4D494E494D455F4641435F4E4F545F50524F5649444544 SWAP1 DUP3 ADD MSTORE PUSH1 0x0 SWAP2 DUP3 SWAP2 SWAP1 PUSH20 0xFFFFFFFFFFFFFFFFFFFFFFFFFFFFFFFFFFFFFFFF AND ISZERO ISZERO PUSH2 0xB39 JUMPI PUSH1 0x40 MLOAD PUSH32 0x8C379A000000000000000000000000000000000000000000000000000000000 DUP2 MSTORE PUSH1 0x4 ADD DUP1 DUP1 PUSH1 0x20 ADD DUP3 DUP2 SUB DUP3 MSTORE DUP4 DUP2 DUP2 MLOAD DUP2 MSTORE PUSH1 0x20 ADD SWAP2 POP DUP1 MLOAD SWAP1 PUSH1 0x20 ADD SWAP1 DUP1 DUP4 DUP4 PUSH1 0x0 DUP4 DUP2 LT ISZERO PUSH2 0x45D JUMPI DUP2 DUP2 ADD MLOAD DUP4 DUP3 ADD MSTORE PUSH1 0x20 ADD PUSH2 0x445 JUMP JUMPDEST POP PUSH1 0x2 SLOAD PUSH1 0x40 MLOAD PUSH32 0x5B7B72C100000000000000000000000000000000000000000000000000000000 DUP2 MSTORE PUSH1 0x0 PUSH1 0x4 DUP3 ADD DUP2 DUP2 MSTORE PUSH1 0x24 DUP4 ADD DUP3 SWAP1 MSTORE PUSH1 0xFF DUP8 AND PUSH1 0x64 DUP5 ADD MSTORE PUSH1 0x1 PUSH1 0xA4 DUP5 ADD DUP2 SWAP1 MSTORE PUSH1 0xC0 PUSH1 0x44 DUP6 ADD SWAP1 DUP2 MSTORE DUP11 MLOAD PUSH1 0xC4 DUP7 ADD MSTORE DUP11 MLOAD PUSH20 0xFFFFFFFFFFFFFFFFFFFFFFFFFFFFFFFFFFFFFFFF SWAP1 SWAP7 AND SWAP6 PUSH4 0x5B7B72C1 SWAP6 DUP6 SWAP5 DUP14 SWAP5 DUP13 SWAP5 DUP15 SWAP5 SWAP2 SWAP4 SWAP1 SWAP2 PUSH1 0x84 DUP3 ADD SWAP2 PUSH1 0xE4 ADD SWAP1 PUSH1 0x20 DUP10 ADD SWAP1 DUP1 DUP4 DUP4 DUP14 JUMPDEST DUP4 DUP2 LT ISZERO PUSH2 0xBED JUMPI DUP2 DUP2 ADD MLOAD DUP4 DUP3 ADD MSTORE PUSH1 0x20 ADD PUSH2 0xBD5 JUMP JUMPDEST POP POP POP POP SWAP1 POP SWAP1 DUP2 ADD SWAP1 PUSH1 0x1F AND DUP1 ISZERO PUSH2 0xC1A JUMPI DUP1 DUP3 SUB DUP1 MLOAD PUSH1 0x1 DUP4 PUSH1 0x20 SUB PUSH2 0x100 EXP SUB NOT AND DUP2 MSTORE PUSH1 0x20 ADD SWAP2 POP JUMPDEST POP DUP4 DUP2 SUB DUP3 MSTORE DUP6 MLOAD DUP2 MSTORE DUP6 MLOAD PUSH1 0x20 SWAP2 DUP3 ADD SWAP2 DUP8 ADD SWAP1 DUP1 DUP4 DUP4 PUSH1 0x0 JUMPDEST DUP4 DUP2 LT ISZERO PUSH2 0xC4D JUMPI DUP2 DUP2 ADD MLOAD DUP4 DUP3 ADD MSTORE PUSH1 0x20 ADD PUSH2 0xC35 JUMP JUMPDEST POP POP POP POP SWAP1 POP SWAP1 DUP2 ADD SWAP1 PUSH1 0x1F AND DUP1 ISZERO PUSH2 0xC7A JUMPI DUP1 DUP3 SUB DUP1 MLOAD PUSH1 0x1 DUP4 PUSH1 0x20 SUB PUSH2 0x100 EXP SUB NOT AND DUP2 MSTORE PUSH1 0x20 ADD SWAP2 POP JUMPDEST POP SWAP9 POP POP POP POP POP POP POP POP POP PUSH1 0x20 PUSH1 0x40 MLOAD DUP1 DUP4 SUB DUP2 PUSH1 0x0 DUP8 DUP1 EXTCODESIZE ISZERO DUP1 ISZERO PUSH2 0xC9F JUMPI PUSH1 0x0 DUP1 REVERT JUMPDEST POP GAS CALL ISZERO DUP1 ISZERO PUSH2 0xCB3 JUMPI RETURNDATASIZE PUSH1 0x0 DUP1 RETURNDATACOPY RETURNDATASIZE PUSH1 0x0 REVERT JUMPDEST POP POP POP POP PUSH1 0x40 MLOAD RETURNDATASIZE PUSH1 0x20 DUP2 LT ISZERO PUSH2 0xCC9 JUMPI PUSH1 0x0 DUP1 REVERT JUMPDEST POP MLOAD PUSH1 0x40 DUP1 MLOAD PUSH20 0xFFFFFFFFFFFFFFFFFFFFFFFFFFFFFFFFFFFFFFFF DUP4 AND DUP2 MSTORE SWAP1 MLOAD SWAP2 SWAP3 POP PUSH32 0xD18525BC6595A90CC21E9FBD517ADA6FC07A7E87B7D2CDB6EE9284C450EBFFA4 SWAP2 SWAP1 DUP2 SWAP1 SUB PUSH1 0x20 ADD SWAP1 LOG1 SWAP5 SWAP4 POP POP POP POP JUMP JUMPDEST PUSH20 0xFFFFFFFFFFFFFFFFFFFFFFFFFFFFFFFFFFFFFFFF SWAP1 DUP2 AND PUSH1 0x0 SWAP1 DUP2 MSTORE PUSH1 0x4 PUSH1 0x20 MSTORE PUSH1 0x40 SWAP1 KECCAK256 DUP1 SLOAD SWAP2 SWAP1 SWAP3 AND PUSH32 0xFFFFFFFFFFFFFFFFFFFFFFFF0000000000000000000000000000000000000000 SWAP1 SWAP2 AND OR SWAP1 SSTORE JUMP JUMPDEST PUSH1 0x40 DUP1 MLOAD PUSH32 0xBE03847800000000000000000000000000000000000000000000000000000000 DUP2 MSTORE ADDRESS PUSH1 0x4 DUP3 ADD DUP2 SWAP1 MSTORE PUSH20 0xFFFFFFFFFFFFFFFFFFFFFFFFFFFFFFFFFFFFFFFF DUP6 DUP2 AND PUSH1 0x24 DUP5 ADD MSTORE PUSH1 0x44 DUP4 ADD DUP6 SWAP1 MSTORE PUSH1 0x64 DUP4 ADD SWAP2 SWAP1 SWAP2 MSTORE SWAP2 MLOAD SWAP2 DUP6 AND SWAP2 PUSH4 0xBE038478 SWAP2 PUSH1 0x84 DUP1 DUP3 ADD SWAP3 PUSH1 0x0 SWAP3 SWAP1 SWAP2 SWAP1 DUP3 SWAP1 SUB ADD DUP2 DUP4 DUP8 DUP1 EXTCODESIZE ISZERO DUP1 ISZERO PUSH2 0xDFD JUMPI PUSH1 0x0 DUP1 REVERT JUMPDEST POP GAS CALL ISZERO DUP1 ISZERO PUSH2 0x293 JUMPI RETURNDATASIZE PUSH1 0x0 DUP1 RETURNDATACOPY RETURNDATASIZE PUSH1 0x0 REVERT JUMPDEST PUSH20 0xFFFFFFFFFFFFFFFFFFFFFFFFFFFFFFFFFFFFFFFF DUP2 DUP2 AND PUSH1 0x0 SWAP1 DUP2 MSTORE PUSH1 0x4 PUSH1 0x20 SWAP1 DUP2 MSTORE PUSH1 0x40 DUP1 DUP4 KECCAK256 SLOAD DUP2 MLOAD DUP1 DUP4 ADD SWAP1 SWAP3 MSTORE PUSH1 0x1C DUP3 MSTORE PUSH32 0x54454D504C4154455F4D495353494E475F544F4B454E5F434143484500000000 SWAP3 DUP3 ADD SWAP3 SWAP1 SWAP3 MSTORE SWAP2 SWAP3 DUP4 SWAP3 SWAP2 AND ISZERO ISZERO PUSH2 0xEDD JUMPI PUSH1 0x40 MLOAD PUSH32 0x8C379A000000000000000000000000000000000000000000000000000000000 DUP2 MSTORE PUSH1 0x4 ADD DUP1 DUP1 PUSH1 0x20 ADD DUP3 DUP2 SUB DUP3 MSTORE DUP4 DUP2 DUP2 MLOAD DUP2 MSTORE PUSH1 0x20 ADD SWAP2 POP DUP1 MLOAD SWAP1 PUSH1 0x20 ADD SWAP1 DUP1 DUP4 DUP4 PUSH1 0x0 DUP4 DUP2 LT ISZERO PUSH2 0x45D JUMPI DUP2 DUP2 ADD MLOAD DUP4 DUP3 ADD MSTORE PUSH1 0x20 ADD PUSH2 0x445 JUMP JUMPDEST POP POP POP PUSH20 0xFFFFFFFFFFFFFFFFFFFFFFFFFFFFFFFFFFFFFFFF SWAP1 DUP2 AND PUSH1 0x0 SWAP1 DUP2 MSTORE PUSH1 0x4 PUSH1 0x20 MSTORE PUSH1 0x40 SWAP1 KECCAK256 DUP1 SLOAD PUSH32 0xFFFFFFFFFFFFFFFFFFFFFFFF0000000000000000000000000000000000000000 DUP2 AND SWAP1 SWAP2 SSTORE AND SWAP1 JUMP JUMPDEST PUSH1 0x0 DUP1 PUSH2 0xF5F DUP7 PUSH32 0x6B20A3010614EEEBF2138CCEC99F028A61C811B3B1A3343B6FF635985C75C91F PUSH2 0x14F0 JUMP JUMPDEST SWAP1 POP DUP5 PUSH20 0xFFFFFFFFFFFFFFFFFFFFFFFFFFFFFFFFFFFFFFFF AND PUSH4 0x3CEBB823 DUP3 PUSH1 0x40 MLOAD DUP3 PUSH4 0xFFFFFFFF AND PUSH29 0x100000000000000000000000000000000000000000000000000000000 MUL DUP2 MSTORE PUSH1 0x4 ADD DUP1 DUP3 PUSH20 0xFFFFFFFFFFFFFFFFFFFFFFFFFFFFFFFFFFFFFFFF AND PUSH20 0xFFFFFFFFFFFFFFFFFFFFFFFFFFFFFFFFFFFFFFFF AND DUP2 MSTORE PUSH1 0x20 ADD SWAP2 POP POP PUSH1 0x0 PUSH1 0x40 MLOAD DUP1 DUP4 SUB DUP2 PUSH1 0x0 DUP8 DUP1 EXTCODESIZE ISZERO DUP1 ISZERO PUSH2 0xFFC JUMPI PUSH1 0x0 DUP1 REVERT JUMPDEST POP GAS CALL ISZERO DUP1 ISZERO PUSH2 0x1010 JUMPI RETURNDATASIZE PUSH1 0x0 DUP1 RETURNDATACOPY RETURNDATASIZE PUSH1 0x0 REVERT JUMPDEST POP POP PUSH1 0x40 DUP1 MLOAD PUSH32 0xE37FF29F00000000000000000000000000000000000000000000000000000000 DUP2 MSTORE PUSH20 0xFFFFFFFFFFFFFFFFFFFFFFFFFFFFFFFFFFFFFFFF DUP10 DUP2 AND PUSH1 0x4 DUP4 ADD MSTORE DUP9 ISZERO ISZERO PUSH1 0x24 DUP4 ADD MSTORE PUSH1 0x44 DUP3 ADD DUP9 SWAP1 MSTORE SWAP2 MLOAD SWAP2 DUP6 AND SWAP4 POP PUSH4 0xE37FF29F SWAP3 POP PUSH1 0x64 DUP1 DUP3 ADD SWAP3 PUSH1 0x0 SWAP3 SWAP1 SWAP2 SWAP1 DUP3 SWAP1 SUB ADD DUP2 DUP4 DUP8 DUP1 EXTCODESIZE ISZERO DUP1 ISZERO PUSH2 0x1094 JUMPI PUSH1 0x0 DUP1 REVERT JUMPDEST POP GAS CALL ISZERO DUP1 ISZERO PUSH2 0x10A8 JUMPI RETURNDATASIZE PUSH1 0x0 DUP1 RETURNDATACOPY RETURNDATASIZE PUSH1 0x0 REVERT JUMPDEST POP SWAP3 SWAP9 SWAP8 POP POP POP POP POP POP POP POP JUMP JUMPDEST DUP1 MLOAD PUSH1 0x20 DUP3 ADD MLOAD PUSH1 0x40 DUP4 ADD MLOAD PUSH1 0x0 SWAP3 PUSH2 0x10D4 SWAP3 DUP8 SWAP3 DUP8 SWAP3 SWAP2 SWAP1 PUSH2 0x150D JUMP JUMPDEST SWAP5 SWAP4 POP POP POP POP JUMP JUMPDEST PUSH1 0x0 PUSH2 0x1147 DUP6 DUP6 DUP7 PUSH20 0xFFFFFFFFFFFFFFFFFFFFFFFFFFFFFFFFFFFFFFFF AND PUSH4 0x75B238FC PUSH1 0x40 MLOAD DUP2 PUSH4 0xFFFFFFFF AND PUSH29 0x100000000000000000000000000000000000000000000000000000000 MUL DUP2 MSTORE PUSH1 0x4 ADD PUSH1 0x20 PUSH1 0x40 MLOAD DUP1 DUP4 SUB DUP2 PUSH1 0x0 DUP8 DUP1 EXTCODESIZE ISZERO DUP1 ISZERO PUSH2 0x769 JUMPI PUSH1 0x0 DUP1 REVERT JUMPDEST POP PUSH1 0x0 JUMPDEST DUP3 MLOAD DUP2 LT ISZERO PUSH2 0x1232 JUMPI DUP4 PUSH20 0xFFFFFFFFFFFFFFFFFFFFFFFFFFFFFFFFFFFFFFFF AND PUSH4 0x40C10F19 DUP5 DUP4 DUP2 MLOAD DUP2 LT ISZERO ISZERO PUSH2 0x117E JUMPI INVALID JUMPDEST SWAP1 PUSH1 0x20 ADD SWAP1 PUSH1 0x20 MUL ADD MLOAD DUP5 PUSH1 0x40 MLOAD DUP4 PUSH4 0xFFFFFFFF AND PUSH29 0x100000000000000000000000000000000000000000000000000000000 MUL DUP2 MSTORE PUSH1 0x4 ADD DUP1 DUP4 PUSH20 0xFFFFFFFFFFFFFFFFFFFFFFFFFFFFFFFFFFFFFFFF AND PUSH20 0xFFFFFFFFFFFFFFFFFFFFFFFFFFFFFFFFFFFFFFFF AND DUP2 MSTORE PUSH1 0x20 ADD DUP3 DUP2 MSTORE PUSH1 0x20 ADD SWAP3 POP POP POP PUSH1 0x0 PUSH1 0x40 MLOAD DUP1 DUP4 SUB DUP2 PUSH1 0x0 DUP8 DUP1 EXTCODESIZE ISZERO DUP1 ISZERO PUSH2 0x120E JUMPI PUSH1 0x0 DUP1 REVERT JUMPDEST POP GAS CALL ISZERO DUP1 ISZERO PUSH2 0x1222 JUMPI RETURNDATASIZE PUSH1 0x0 DUP1 RETURNDATACOPY RETURNDATASIZE PUSH1 0x0 REVERT JUMPDEST POP POP PUSH1 0x1 SWAP1 SWAP3 ADD SWAP2 POP PUSH2 0x114B SWAP1 POP JUMP JUMPDEST PUSH2 0x12CC DUP6 DUP6 DUP7 PUSH20 0xFFFFFFFFFFFFFFFFFFFFFFFFFFFFFFFFFFFFFFFF AND PUSH4 0x75B238FC PUSH1 0x40 MLOAD DUP2 PUSH4 0xFFFFFFFF AND PUSH29 0x100000000000000000000000000000000000000000000000000000000 MUL DUP2 MSTORE PUSH1 0x4 ADD PUSH1 0x20 PUSH1 0x40 MLOAD DUP1 DUP4 SUB DUP2 PUSH1 0x0 DUP8 DUP1 EXTCODESIZE ISZERO DUP1 ISZERO PUSH2 0x129B JUMPI PUSH1 0x0 DUP1 REVERT JUMPDEST POP GAS CALL ISZERO DUP1 ISZERO PUSH2 0x12AF JUMPI RETURNDATASIZE PUSH1 0x0 DUP1 RETURNDATACOPY RETURNDATASIZE PUSH1 0x0 REVERT JUMPDEST POP POP POP POP PUSH1 0x40 MLOAD RETURNDATASIZE PUSH1 0x20 DUP2 LT ISZERO PUSH2 0x12C5 JUMPI PUSH1 0x0 DUP1 REVERT JUMPDEST POP MLOAD PUSH2 0x15E4 JUMP JUMPDEST POP POP POP POP POP JUMP JUMPDEST PUSH2 0x12DE DUP5 DUP5 DUP6 PUSH2 0x16F2 JUMP JUMPDEST PUSH2 0x12EB DUP5 DUP5 DUP6 DUP6 DUP8 PUSH2 0x1A14 JUMP JUMPDEST PUSH2 0x12F7 DUP5 DUP4 DUP4 DUP5 PUSH2 0x1DF6 JUMP JUMPDEST POP POP POP POP JUMP JUMPDEST PUSH1 0x0 DUP4 PUSH20 0xFFFFFFFFFFFFFFFFFFFFFFFFFFFFFFFFFFFFFFFF AND PUSH4 0xDE287359 PUSH1 0x40 MLOAD DUP2 PUSH4 0xFFFFFFFF AND PUSH29 0x100000000000000000000000000000000000000000000000000000000 MUL DUP2 MSTORE PUSH1 0x4 ADD PUSH1 0x20 PUSH1 0x40 MLOAD DUP1 DUP4 SUB DUP2 PUSH1 0x0 DUP8 DUP1 EXTCODESIZE ISZERO DUP1 ISZERO PUSH2 0x1363 JUMPI PUSH1 0x0 DUP1 REVERT JUMPDEST POP GAS CALL ISZERO DUP1 ISZERO PUSH2 0x1377 JUMPI RETURNDATASIZE PUSH1 0x0 DUP1 RETURNDATACOPY RETURNDATASIZE PUSH1 0x0 REVERT JUMPDEST POP POP POP POP PUSH1 0x40 MLOAD RETURNDATASIZE PUSH1 0x20 DUP2 LT ISZERO PUSH2 0x138D JUMPI PUSH1 0x0 DUP1 REVERT JUMPDEST POP MLOAD PUSH1 0x40 DUP1 MLOAD PUSH32 0x8EA8DC9D00000000000000000000000000000000000000000000000000000000 DUP2 MSTORE SWAP1 MLOAD SWAP2 SWAP3 POP PUSH2 0x1437 SWAP2 DUP4 SWAP2 DUP8 SWAP2 DUP8 SWAP2 PUSH20 0xFFFFFFFFFFFFFFFFFFFFFFFFFFFFFFFFFFFFFFFF DUP5 AND SWAP2 PUSH4 0x8EA8DC9D SWAP2 PUSH1 0x4 DUP1 DUP3 ADD SWAP3 PUSH1 0x20 SWAP3 SWAP1 SWAP2 SWAP1 DUP3 SWAP1 SUB ADD DUP2 PUSH1 0x0 DUP8 DUP1 EXTCODESIZE ISZERO DUP1 ISZERO PUSH2 0x1405 JUMPI PUSH1 0x0 DUP1 REVERT JUMPDEST POP GAS CALL ISZERO DUP1 ISZERO PUSH2 0x1419 JUMPI RETURNDATASIZE PUSH1 0x0 DUP1 RETURNDATACOPY RETURNDATASIZE PUSH1 0x0 REVERT JUMPDEST POP POP POP POP PUSH1 0x40 MLOAD RETURNDATASIZE PUSH1 0x20 DUP2 LT ISZERO PUSH2 0x142F JUMPI PUSH1 0x0 DUP1 REVERT JUMPDEST POP MLOAD DUP7 PUSH2 0x1F27 JUMP JUMPDEST PUSH2 0x14A1 DUP2 DUP3 DUP6 DUP5 PUSH20 0xFFFFFFFFFFFFFFFFFFFFFFFFFFFFFFFFFFFFFFFF AND PUSH4 0x3D6AB68F PUSH1 0x40 MLOAD DUP2 PUSH4 0xFFFFFFFF AND PUSH29 0x100000000000000000000000000000000000000000000000000000000 MUL DUP2 MSTORE PUSH1 0x4 ADD PUSH1 0x20 PUSH1 0x40 MLOAD DUP1 DUP4 SUB DUP2 PUSH1 0x0 DUP8 DUP1 EXTCODESIZE ISZERO DUP1 ISZERO PUSH2 0x1405 JUMPI PUSH1 0x0 DUP1 REVERT JUMPDEST PUSH1 0x40 DUP1 MLOAD PUSH20 0xFFFFFFFFFFFFFFFFFFFFFFFFFFFFFFFFFFFFFFFF DUP7 AND DUP2 MSTORE SWAP1 MLOAD PUSH32 0x17592627A66846CE06D92A1708275BC653B2A3F34AEC855584B819872A8BA413 SWAP2 DUP2 SWAP1 SUB PUSH1 0x20 ADD SWAP1 LOG1 POP POP POP POP JUMP JUMPDEST PUSH1 0x40 DUP1 MLOAD PUSH1 0x0 DUP1 DUP3 MSTORE PUSH1 0x20 DUP3 ADD SWAP1 SWAP3 MSTORE PUSH2 0x2B7 SWAP1 DUP5 SWAP1 DUP5 SWAP1 PUSH2 0x20D5 JUMP JUMPDEST PUSH1 0x40 DUP1 MLOAD PUSH20 0xFFFFFFFFFFFFFFFFFFFFFFFFFFFFFFFFFFFFFFFF DUP7 AND PUSH1 0x24 DUP3 ADD MSTORE PUSH8 0xFFFFFFFFFFFFFFFF DUP1 DUP7 AND PUSH1 0x44 DUP4 ADD MSTORE DUP1 DUP6 AND PUSH1 0x64 DUP4 ADD MSTORE DUP4 AND PUSH1 0x84 DUP1 DUP4 ADD SWAP2 SWAP1 SWAP2 MSTORE DUP3 MLOAD DUP1 DUP4 SUB SWAP1 SWAP2 ADD DUP2 MSTORE PUSH1 0xA4 SWAP1 SWAP2 ADD SWAP1 SWAP2 MSTORE PUSH1 0x20 DUP2 ADD DUP1 MLOAD PUSH28 0xFFFFFFFFFFFFFFFFFFFFFFFFFFFFFFFFFFFFFFFFFFFFFFFFFFFFFFFF AND PUSH32 0xDF3D330500000000000000000000000000000000000000000000000000000000 OR SWAP1 MSTORE PUSH1 0x0 SWAP1 PUSH2 0x15D9 DUP8 PUSH32 0x9FA3927F639745E587912D4B0FEA7EF9013BF93FB907D29FAEAB57417BA6E1D4 DUP4 PUSH2 0x20D5 JUMP JUMPDEST SWAP8 SWAP7 POP POP POP POP POP POP POP JUMP JUMPDEST PUSH1 0x40 DUP1 MLOAD PUSH32 0x9D0EFFDB00000000000000000000000000000000000000000000000000000000 DUP2 MSTORE ADDRESS PUSH1 0x4 DUP3 ADD MSTORE PUSH20 0xFFFFFFFFFFFFFFFFFFFFFFFFFFFFFFFFFFFFFFFF DUP5 DUP2 AND PUSH1 0x24 DUP4 ADD MSTORE PUSH1 0x44 DUP3 ADD DUP5 SWAP1 MSTORE SWAP2 MLOAD SWAP2 DUP6 AND SWAP2 PUSH4 0x9D0EFFDB SWAP2 PUSH1 0x64 DUP1 DUP3 ADD SWAP3 PUSH1 0x0 SWAP3 SWAP1 SWAP2 SWAP1 DUP3 SWAP1 SUB ADD DUP2 DUP4 DUP8 DUP1 EXTCODESIZE ISZERO DUP1 ISZERO PUSH2 0x1662 JUMPI PUSH1 0x0 DUP1 REVERT JUMPDEST POP GAS CALL ISZERO DUP1 ISZERO PUSH2 0x1676 JUMPI RETURNDATASIZE PUSH1 0x0 DUP1 RETURNDATACOPY RETURNDATASIZE PUSH1 0x0 REVERT JUMPDEST POP POP PUSH1 0x40 DUP1 MLOAD PUSH32 0xA885508A00000000000000000000000000000000000000000000000000000000 DUP2 MSTORE PUSH20 0xFFFFFFFFFFFFFFFFFFFFFFFFFFFFFFFFFFFFFFFF DUP7 DUP2 AND PUSH1 0x4 DUP4 ADD MSTORE PUSH1 0x24 DUP3 ADD DUP7 SWAP1 MSTORE SWAP2 MLOAD SWAP2 DUP8 AND SWAP4 POP PUSH4 0xA885508A SWAP3 POP PUSH1 0x44 DUP1 DUP3 ADD SWAP3 PUSH1 0x0 SWAP3 SWAP1 SWAP2 SWAP1 DUP3 SWAP1 SUB ADD DUP2 DUP4 DUP8 DUP1 EXTCODESIZE ISZERO DUP1 ISZERO PUSH2 0xDFD JUMPI PUSH1 0x0 DUP1 REVERT JUMPDEST PUSH1 0x0 DUP4 PUSH20 0xFFFFFFFFFFFFFFFFFFFFFFFFFFFFFFFFFFFFFFFF AND PUSH4 0xA479E508 PUSH1 0x40 MLOAD DUP2 PUSH4 0xFFFFFFFF AND PUSH29 0x100000000000000000000000000000000000000000000000000000000 MUL DUP2 MSTORE PUSH1 0x4 ADD PUSH1 0x20 PUSH1 0x40 MLOAD DUP1 DUP4 SUB DUP2 PUSH1 0x0 DUP8 DUP1 EXTCODESIZE ISZERO DUP1 ISZERO PUSH2 0x1758 JUMPI PUSH1 0x0 DUP1 REVERT JUMPDEST POP GAS CALL ISZERO DUP1 ISZERO PUSH2 0x176C JUMPI RETURNDATASIZE PUSH1 0x0 DUP1 RETURNDATACOPY RETURNDATASIZE PUSH1 0x0 REVERT JUMPDEST POP POP POP POP PUSH1 0x40 MLOAD RETURNDATASIZE PUSH1 0x20 DUP2 LT ISZERO PUSH2 0x1782 JUMPI PUSH1 0x0 DUP1 REVERT JUMPDEST POP MLOAD PUSH1 0x40 DUP1 MLOAD PUSH32 0xBD8FDE1C00000000000000000000000000000000000000000000000000000000 DUP2 MSTORE SWAP1 MLOAD SWAP2 SWAP3 POP PUSH20 0xFFFFFFFFFFFFFFFFFFFFFFFFFFFFFFFFFFFFFFFF DUP1 DUP8 AND SWAP3 PUSH4 0xBE038478 SWAP3 DUP8 SWAP3 DUP7 SWAP3 SWAP1 DUP4 AND SWAP2 PUSH4 0xBD8FDE1C SWAP2 PUSH1 0x4 DUP1 DUP4 ADD SWAP3 PUSH1 0x20 SWAP3 SWAP2 SWAP1 DUP3 SWAP1 SUB ADD DUP2 PUSH1 0x0 DUP8 DUP1 EXTCODESIZE ISZERO DUP1 ISZERO PUSH2 0x17FE JUMPI PUSH1 0x0 DUP1 REVERT JUMPDEST POP GAS CALL ISZERO DUP1 ISZERO PUSH2 0x1812 JUMPI RETURNDATASIZE PUSH1 0x0 DUP1 RETURNDATACOPY RETURNDATASIZE PUSH1 0x0 REVERT JUMPDEST POP POP POP POP PUSH1 0x40 MLOAD RETURNDATASIZE PUSH1 0x20 DUP2 LT ISZERO PUSH2 0x1828 JUMPI PUSH1 0x0 DUP1 REVERT JUMPDEST POP MLOAD PUSH1 0x40 DUP1 MLOAD PUSH29 0x100000000000000000000000000000000000000000000000000000000 PUSH4 0xFFFFFFFF DUP8 AND MUL DUP2 MSTORE PUSH20 0xFFFFFFFFFFFFFFFFFFFFFFFFFFFFFFFFFFFFFFFF SWAP5 DUP6 AND PUSH1 0x4 DUP3 ADD MSTORE SWAP3 DUP5 AND PUSH1 0x24 DUP5 ADD MSTORE PUSH1 0x44 DUP4 ADD SWAP2 SWAP1 SWAP2 MSTORE SWAP2 DUP7 AND PUSH1 0x64 DUP3 ADD MSTORE SWAP1 MLOAD PUSH1 0x84 DUP1 DUP4 ADD SWAP3 PUSH1 0x0 SWAP3 SWAP2 SWAP1 DUP3 SWAP1 SUB ADD DUP2 DUP4 DUP8 DUP1 EXTCODESIZE ISZERO DUP1 ISZERO PUSH2 0x18AD JUMPI PUSH1 0x0 DUP1 REVERT JUMPDEST POP GAS CALL ISZERO DUP1 ISZERO PUSH2 0x18C1 JUMPI RETURNDATASIZE PUSH1 0x0 DUP1 RETURNDATACOPY RETURNDATASIZE PUSH1 0x0 REVERT JUMPDEST POP POP POP POP DUP4 PUSH20 0xFFFFFFFFFFFFFFFFFFFFFFFFFFFFFFFFFFFFFFFF AND PUSH4 0xBE038478 DUP5 DUP4 DUP5 PUSH20 0xFFFFFFFFFFFFFFFFFFFFFFFFFFFFFFFFFFFFFFFF AND PUSH4 0x19F3D10F PUSH1 0x40 MLOAD DUP2 PUSH4 0xFFFFFFFF AND PUSH29 0x100000000000000000000000000000000000000000000000000000000 MUL DUP2 MSTORE PUSH1 0x4 ADD PUSH1 0x20 PUSH1 0x40 MLOAD DUP1 DUP4 SUB DUP2 PUSH1 0x0 DUP8 DUP1 EXTCODESIZE ISZERO DUP1 ISZERO PUSH2 0x1947 JUMPI PUSH1 0x0 DUP1 REVERT JUMPDEST POP GAS CALL ISZERO DUP1 ISZERO PUSH2 0x195B JUMPI RETURNDATASIZE PUSH1 0x0 DUP1 RETURNDATACOPY RETURNDATASIZE PUSH1 0x0 REVERT JUMPDEST POP POP POP POP PUSH1 0x40 MLOAD RETURNDATASIZE PUSH1 0x20 DUP2 LT ISZERO PUSH2 0x1971 JUMPI PUSH1 0x0 DUP1 REVERT JUMPDEST POP MLOAD PUSH1 0x40 DUP1 MLOAD PUSH29 0x100000000000000000000000000000000000000000000000000000000 PUSH4 0xFFFFFFFF DUP8 AND MUL DUP2 MSTORE PUSH20 0xFFFFFFFFFFFFFFFFFFFFFFFFFFFFFFFFFFFFFFFF SWAP5 DUP6 AND PUSH1 0x4 DUP3 ADD MSTORE SWAP3 DUP5 AND PUSH1 0x24 DUP5 ADD MSTORE PUSH1 0x44 DUP4 ADD SWAP2 SWAP1 SWAP2 MSTORE SWAP2 DUP7 AND PUSH1 0x64 DUP3 ADD MSTORE SWAP1 MLOAD PUSH1 0x84 DUP1 DUP4 ADD SWAP3 PUSH1 0x0 SWAP3 SWAP2 SWAP1 DUP3 SWAP1 SUB ADD DUP2 DUP4 DUP8 DUP1 EXTCODESIZE ISZERO DUP1 ISZERO PUSH2 0x19F6 JUMPI PUSH1 0x0 DUP1 REVERT JUMPDEST POP GAS CALL ISZERO DUP1 ISZERO PUSH2 0x1A0A JUMPI RETURNDATASIZE PUSH1 0x0 DUP1 RETURNDATACOPY RETURNDATASIZE PUSH1 0x0 REVERT JUMPDEST POP POP POP POP POP POP POP POP JUMP JUMPDEST DUP5 PUSH20 0xFFFFFFFFFFFFFFFFFFFFFFFFFFFFFFFFFFFFFFFF AND PUSH4 0xBE038478 DUP5 DUP7 DUP8 PUSH20 0xFFFFFFFFFFFFFFFFFFFFFFFFFFFFFFFFFFFFFFFF AND PUSH4 0x3C624C75 PUSH1 0x40 MLOAD DUP2 PUSH4 0xFFFFFFFF AND PUSH29 0x100000000000000000000000000000000000000000000000000000000 MUL DUP2 MSTORE PUSH1 0x4 ADD PUSH1 0x20 PUSH1 0x40 MLOAD DUP1 DUP4 SUB DUP2 PUSH1 0x0 DUP8 DUP1 EXTCODESIZE ISZERO DUP1 ISZERO PUSH2 0x1A96 JUMPI PUSH1 0x0 DUP1 REVERT JUMPDEST POP GAS CALL ISZERO DUP1 ISZERO PUSH2 0x1AAA JUMPI RETURNDATASIZE PUSH1 0x0 DUP1 RETURNDATACOPY RETURNDATASIZE PUSH1 0x0 REVERT JUMPDEST POP POP POP POP PUSH1 0x40 MLOAD RETURNDATASIZE PUSH1 0x20 DUP2 LT ISZERO PUSH2 0x1AC0 JUMPI PUSH1 0x0 DUP1 REVERT JUMPDEST POP MLOAD PUSH1 0x40 DUP1 MLOAD PUSH29 0x100000000000000000000000000000000000000000000000000000000 PUSH4 0xFFFFFFFF DUP8 AND MUL DUP2 MSTORE PUSH20 0xFFFFFFFFFFFFFFFFFFFFFFFFFFFFFFFFFFFFFFFF SWAP5 DUP6 AND PUSH1 0x4 DUP3 ADD MSTORE SWAP3 DUP5 AND PUSH1 0x24 DUP5 ADD MSTORE PUSH1 0x44 DUP4 ADD SWAP2 SWAP1 SWAP2 MSTORE SWAP2 DUP6 AND PUSH1 0x64 DUP3 ADD MSTORE SWAP1 MLOAD PUSH1 0x84 DUP1 DUP4 ADD SWAP3 PUSH1 0x0 SWAP3 SWAP2 SWAP1 DUP3 SWAP1 SUB ADD DUP2 DUP4 DUP8 DUP1 EXTCODESIZE ISZERO DUP1 ISZERO PUSH2 0x1B45 JUMPI PUSH1 0x0 DUP1 REVERT JUMPDEST POP GAS CALL ISZERO DUP1 ISZERO PUSH2 0x1B59 JUMPI RETURNDATASIZE PUSH1 0x0 DUP1 RETURNDATACOPY RETURNDATASIZE PUSH1 0x0 REVERT JUMPDEST POP POP POP POP DUP5 PUSH20 0xFFFFFFFFFFFFFFFFFFFFFFFFFFFFFFFFFFFFFFFF AND PUSH4 0xBE038478 DUP5 DUP7 DUP8 PUSH20 0xFFFFFFFFFFFFFFFFFFFFFFFFFFFFFFFFFFFFFFFF AND PUSH4 0x62DE7E5A PUSH1 0x40 MLOAD DUP2 PUSH4 0xFFFFFFFF AND PUSH29 0x100000000000000000000000000000000000000000000000000000000 MUL DUP2 MSTORE PUSH1 0x4 ADD PUSH1 0x20 PUSH1 0x40 MLOAD DUP1 DUP4 SUB DUP2 PUSH1 0x0 DUP8 DUP1 EXTCODESIZE ISZERO DUP1 ISZERO PUSH2 0x1BDF JUMPI PUSH1 0x0 DUP1 REVERT JUMPDEST POP GAS CALL ISZERO DUP1 ISZERO PUSH2 0x1BF3 JUMPI RETURNDATASIZE PUSH1 0x0 DUP1 RETURNDATACOPY RETURNDATASIZE PUSH1 0x0 REVERT JUMPDEST POP POP POP POP PUSH1 0x40 MLOAD RETURNDATASIZE PUSH1 0x20 DUP2 LT ISZERO PUSH2 0x1C09 JUMPI PUSH1 0x0 DUP1 REVERT JUMPDEST POP MLOAD PUSH1 0x40 DUP1 MLOAD PUSH29 0x100000000000000000000000000000000000000000000000000000000 PUSH4 0xFFFFFFFF DUP8 AND MUL DUP2 MSTORE PUSH20 0xFFFFFFFFFFFFFFFFFFFFFFFFFFFFFFFFFFFFFFFF SWAP5 DUP6 AND PUSH1 0x4 DUP3 ADD MSTORE SWAP3 DUP5 AND PUSH1 0x24 DUP5 ADD MSTORE PUSH1 0x44 DUP4 ADD SWAP2 SWAP1 SWAP2 MSTORE SWAP2 DUP6 AND PUSH1 0x64 DUP3 ADD MSTORE SWAP1 MLOAD PUSH1 0x84 DUP1 DUP4 ADD SWAP3 PUSH1 0x0 SWAP3 SWAP2 SWAP1 DUP3 SWAP1 SUB ADD DUP2 DUP4 DUP8 DUP1 EXTCODESIZE ISZERO DUP1 ISZERO PUSH2 0x1C8E JUMPI PUSH1 0x0 DUP1 REVERT JUMPDEST POP GAS CALL ISZERO DUP1 ISZERO PUSH2 0x1CA2 JUMPI RETURNDATASIZE PUSH1 0x0 DUP1 RETURNDATACOPY RETURNDATASIZE PUSH1 0x0 REVERT JUMPDEST POP POP POP POP DUP5 PUSH20 0xFFFFFFFFFFFFFFFFFFFFFFFFFFFFFFFFFFFFFFFF AND PUSH4 0xBE038478 DUP4 DUP7 DUP8 PUSH20 0xFFFFFFFFFFFFFFFFFFFFFFFFFFFFFFFFFFFFFFFF AND PUSH4 0xBE2C64D4 PUSH1 0x40 MLOAD DUP2 PUSH4 0xFFFFFFFF AND PUSH29 0x100000000000000000000000000000000000000000000000000000000 MUL DUP2 MSTORE PUSH1 0x4 ADD PUSH1 0x20 PUSH1 0x40 MLOAD DUP1 DUP4 SUB DUP2 PUSH1 0x0 DUP8 DUP1 EXTCODESIZE ISZERO DUP1 ISZERO PUSH2 0x1D28 JUMPI PUSH1 0x0 DUP1 REVERT JUMPDEST POP GAS CALL ISZERO DUP1 ISZERO PUSH2 0x1D3C JUMPI RETURNDATASIZE PUSH1 0x0 DUP1 RETURNDATACOPY RETURNDATASIZE PUSH1 0x0 REVERT JUMPDEST POP POP POP POP PUSH1 0x40 MLOAD RETURNDATASIZE PUSH1 0x20 DUP2 LT ISZERO PUSH2 0x1D52 JUMPI PUSH1 0x0 DUP1 REVERT JUMPDEST POP MLOAD PUSH1 0x40 DUP1 MLOAD PUSH29 0x100000000000000000000000000000000000000000000000000000000 PUSH4 0xFFFFFFFF DUP8 AND MUL DUP2 MSTORE PUSH20 0xFFFFFFFFFFFFFFFFFFFFFFFFFFFFFFFFFFFFFFFF SWAP5 DUP6 AND PUSH1 0x4 DUP3 ADD MSTORE SWAP3 DUP5 AND PUSH1 0x24 DUP5 ADD MSTORE PUSH1 0x44 DUP4 ADD SWAP2 SWAP1 SWAP2 MSTORE SWAP2 DUP6 AND PUSH1 0x64 DUP3 ADD MSTORE SWAP1 MLOAD PUSH1 0x84 DUP1 DUP4 ADD SWAP3 PUSH1 0x0 SWAP3 SWAP2 SWAP1 DUP3 SWAP1 SUB ADD DUP2 DUP4 DUP8 DUP1 EXTCODESIZE ISZERO DUP1 ISZERO PUSH2 0x1DD7 JUMPI PUSH1 0x0 DUP1 REVERT JUMPDEST POP GAS CALL ISZERO DUP1 ISZERO PUSH2 0x1DEB JUMPI RETURNDATASIZE PUSH1 0x0 DUP1 RETURNDATACOPY RETURNDATASIZE PUSH1 0x0 REVERT JUMPDEST POP POP POP POP POP POP POP POP POP JUMP JUMPDEST DUP4 PUSH20 0xFFFFFFFFFFFFFFFFFFFFFFFFFFFFFFFFFFFFFFFF AND PUSH4 0xBE038478 DUP4 DUP6 DUP7 PUSH20 0xFFFFFFFFFFFFFFFFFFFFFFFFFFFFFFFFFFFFFFFF AND PUSH4 0x75B238FC PUSH1 0x40 MLOAD DUP2 PUSH4 0xFFFFFFFF AND PUSH29 0x100000000000000000000000000000000000000000000000000000000 MUL DUP2 MSTORE PUSH1 0x4 ADD PUSH1 0x20 PUSH1 0x40 MLOAD DUP1 DUP4 SUB DUP2 PUSH1 0x0 DUP8 DUP1 EXTCODESIZE ISZERO DUP1 ISZERO PUSH2 0x1E78 JUMPI PUSH1 0x0 DUP1 REVERT JUMPDEST POP GAS CALL ISZERO DUP1 ISZERO PUSH2 0x1E8C JUMPI RETURNDATASIZE PUSH1 0x0 DUP1 RETURNDATACOPY RETURNDATASIZE PUSH1 0x0 REVERT JUMPDEST POP POP POP POP PUSH1 0x40 MLOAD RETURNDATASIZE PUSH1 0x20 DUP2 LT ISZERO PUSH2 0x1EA2 JUMPI PUSH1 0x0 DUP1 REVERT JUMPDEST POP MLOAD PUSH1 0x40 DUP1 MLOAD PUSH29 0x100000000000000000000000000000000000000000000000000000000 PUSH4 0xFFFFFFFF DUP8 AND MUL DUP2 MSTORE PUSH20 0xFFFFFFFFFFFFFFFFFFFFFFFFFFFFFFFFFFFFFFFF SWAP5 DUP6 AND PUSH1 0x4 DUP3 ADD MSTORE SWAP3 DUP5 AND PUSH1 0x24 DUP5 ADD MSTORE PUSH1 0x44 DUP4 ADD SWAP2 SWAP1 SWAP2 MSTORE SWAP2 DUP6 AND PUSH1 0x64 DUP3 ADD MSTORE SWAP1 MLOAD PUSH1 0x84 DUP1 DUP4 ADD SWAP3 PUSH1 0x0 SWAP3 SWAP2 SWAP1 DUP3 SWAP1 SUB ADD DUP2 DUP4 DUP8 DUP1 EXTCODESIZE ISZERO DUP1 ISZERO PUSH2 0x19F6 JUMPI PUSH1 0x0 DUP1 REVERT JUMPDEST PUSH1 0x40 DUP1 MLOAD PUSH32 0xA8ED3DB00000000000000000000000000000000000000000000000000000000 DUP2 MSTORE PUSH20 0xFFFFFFFFFFFFFFFFFFFFFFFFFFFFFFFFFFFFFFFF DUP6 DUP2 AND PUSH1 0x4 DUP4 ADD MSTORE DUP7 DUP2 AND PUSH1 0x24 DUP4 ADD MSTORE PUSH1 0x44 DUP3 ADD DUP6 SWAP1 MSTORE SWAP2 MLOAD SWAP2 DUP8 AND SWAP2 PUSH4 0xA8ED3DB SWAP2 PUSH1 0x64 DUP1 DUP3 ADD SWAP3 PUSH1 0x0 SWAP3 SWAP1 SWAP2 SWAP1 DUP3 SWAP1 SUB ADD DUP2 DUP4 DUP8 DUP1 EXTCODESIZE ISZERO DUP1 ISZERO PUSH2 0x1FA7 JUMPI PUSH1 0x0 DUP1 REVERT JUMPDEST POP GAS CALL ISZERO DUP1 ISZERO PUSH2 0x1FBB JUMPI RETURNDATASIZE PUSH1 0x0 DUP1 RETURNDATACOPY RETURNDATASIZE PUSH1 0x0 REVERT JUMPDEST POP POP PUSH1 0x40 DUP1 MLOAD PUSH32 0x9D0EFFDB00000000000000000000000000000000000000000000000000000000 DUP2 MSTORE ADDRESS PUSH1 0x4 DUP3 ADD MSTORE PUSH20 0xFFFFFFFFFFFFFFFFFFFFFFFFFFFFFFFFFFFFFFFF DUP9 DUP2 AND PUSH1 0x24 DUP4 ADD MSTORE PUSH1 0x44 DUP3 ADD DUP8 SWAP1 MSTORE SWAP2 MLOAD SWAP2 DUP10 AND SWAP4 POP PUSH4 0x9D0EFFDB SWAP3 POP PUSH1 0x64 DUP1 DUP3 ADD SWAP3 PUSH1 0x0 SWAP3 SWAP1 SWAP2 SWAP1 DUP3 SWAP1 SUB ADD DUP2 DUP4 DUP8 DUP1 EXTCODESIZE ISZERO DUP1 ISZERO PUSH2 0x203D JUMPI PUSH1 0x0 DUP1 REVERT JUMPDEST POP GAS CALL ISZERO DUP1 ISZERO PUSH2 0x2051 JUMPI RETURNDATASIZE PUSH1 0x0 DUP1 RETURNDATACOPY RETURNDATASIZE PUSH1 0x0 REVERT JUMPDEST POP POP PUSH1 0x40 DUP1 MLOAD PUSH32 0xAFD925DF00000000000000000000000000000000000000000000000000000000 DUP2 MSTORE PUSH20 0xFFFFFFFFFFFFFFFFFFFFFFFFFFFFFFFFFFFFFFFF DUP6 DUP2 AND PUSH1 0x4 DUP4 ADD MSTORE DUP9 DUP2 AND PUSH1 0x24 DUP4 ADD MSTORE PUSH1 0x44 DUP3 ADD DUP8 SWAP1 MSTORE SWAP2 MLOAD SWAP2 DUP10 AND SWAP4 POP PUSH4 0xAFD925DF SWAP3 POP PUSH1 0x64 DUP1 DUP3 ADD SWAP3 PUSH1 0x0 SWAP3 SWAP1 SWAP2 SWAP1 DUP3 SWAP1 SUB ADD DUP2 DUP4 DUP8 DUP1 EXTCODESIZE ISZERO DUP1 ISZERO PUSH2 0x1DD7 JUMPI PUSH1 0x0 DUP1 REVERT JUMPDEST PUSH1 0x0 PUSH2 0x10D4 DUP5 DUP5 DUP5 PUSH1 0x0 DUP1 DUP1 PUSH1 0x0 PUSH2 0x20EC DUP7 PUSH2 0x2265 JUMP JUMPDEST PUSH1 0x40 MLOAD PUSH32 0x397EDD4100000000000000000000000000000000000000000000000000000000 DUP2 MSTORE PUSH1 0x4 DUP2 ADD DUP9 DUP2 MSTORE PUSH20 0xFFFFFFFFFFFFFFFFFFFFFFFFFFFFFFFFFFFFFFFF DUP1 DUP5 AND PUSH1 0x24 DUP5 ADD MSTORE DUP8 ISZERO ISZERO PUSH1 0x64 DUP5 ADD MSTORE PUSH1 0x80 PUSH1 0x44 DUP5 ADD SWAP1 DUP2 MSTORE DUP10 MLOAD PUSH1 0x84 DUP6 ADD MSTORE DUP10 MLOAD SWAP5 SWAP7 POP SWAP1 DUP12 AND SWAP4 PUSH4 0x397EDD41 SWAP4 DUP12 SWAP4 DUP9 SWAP4 DUP13 SWAP4 DUP13 SWAP4 PUSH1 0xA4 ADD SWAP1 PUSH1 0x20 DUP7 ADD SWAP1 DUP1 DUP4 DUP4 PUSH1 0x0 JUMPDEST DUP4 DUP2 LT ISZERO PUSH2 0x218C JUMPI DUP2 DUP2 ADD MLOAD DUP4 DUP3 ADD MSTORE PUSH1 0x20 ADD PUSH2 0x2174 JUMP JUMPDEST POP POP POP POP SWAP1 POP SWAP1 DUP2 ADD SWAP1 PUSH1 0x1F AND DUP1 ISZERO PUSH2 0x21B9 JUMPI DUP1 DUP3 SUB DUP1 MLOAD PUSH1 0x1 DUP4 PUSH1 0x20 SUB PUSH2 0x100 EXP SUB NOT AND DUP2 MSTORE PUSH1 0x20 ADD SWAP2 POP JUMPDEST POP SWAP6 POP POP POP POP POP POP PUSH1 0x20 PUSH1 0x40 MLOAD DUP1 DUP4 SUB DUP2 PUSH1 0x0 DUP8 DUP1 EXTCODESIZE ISZERO DUP1 ISZERO PUSH2 0x21DB JUMPI PUSH1 0x0 DUP1 REVERT JUMPDEST POP GAS CALL ISZERO DUP1 ISZERO PUSH2 0x21EF JUMPI RETURNDATASIZE PUSH1 0x0 DUP1 RETURNDATACOPY RETURNDATASIZE PUSH1 0x0 REVERT JUMPDEST POP POP POP POP PUSH1 0x40 MLOAD RETURNDATASIZE PUSH1 0x20 DUP2 LT ISZERO PUSH2 0x2205 JUMPI PUSH1 0x0 DUP1 REVERT JUMPDEST POP MLOAD PUSH1 0x40 DUP1 MLOAD PUSH20 0xFFFFFFFFFFFFFFFFFFFFFFFFFFFFFFFFFFFFFFFF DUP4 AND DUP2 MSTORE PUSH1 0x20 DUP2 ADD DUP10 SWAP1 MSTORE DUP2 MLOAD SWAP3 SWAP4 POP PUSH32 0x2B183A501D4B1BBD30E6611EBAC40AB18A00390E6C6BED324BF92A265C9CE6E3 SWAP3 SWAP1 DUP2 SWAP1 SUB SWAP1 SWAP2 ADD SWAP1 LOG1 SWAP7 SWAP6 POP POP POP POP POP POP JUMP JUMPDEST PUSH1 0x0 DUP1 SLOAD PUSH1 0x40 DUP1 MLOAD PUSH32 0x178B8BF00000000000000000000000000000000000000000000000000000000 DUP2 MSTORE PUSH1 0x4 DUP2 ADD DUP6 SWAP1 MSTORE SWAP1 MLOAD DUP4 SWAP3 PUSH20 0xFFFFFFFFFFFFFFFFFFFFFFFFFFFFFFFFFFFFFFFF AND SWAP2 PUSH4 0x178B8BF SWAP2 PUSH1 0x24 DUP1 DUP4 ADD SWAP3 PUSH1 0x20 SWAP3 SWAP2 SWAP1 DUP3 SWAP1 SUB ADD DUP2 DUP8 DUP8 DUP1 EXTCODESIZE ISZERO DUP1 ISZERO PUSH2 0x22D8 JUMPI PUSH1 0x0 DUP1 REVERT JUMPDEST POP GAS CALL ISZERO DUP1 ISZERO PUSH2 0x22EC JUMPI RETURNDATASIZE PUSH1 0x0 DUP1 RETURNDATACOPY RETURNDATASIZE PUSH1 0x0 REVERT JUMPDEST POP POP POP POP PUSH1 0x40 MLOAD RETURNDATASIZE PUSH1 0x20 DUP2 LT ISZERO PUSH2 0x2302 JUMPI PUSH1 0x0 DUP1 REVERT JUMPDEST POP MLOAD PUSH1 0x40 DUP1 MLOAD PUSH32 0x3B3B57DE00000000000000000000000000000000000000000000000000000000 DUP2 MSTORE PUSH1 0x4 DUP2 ADD DUP7 SWAP1 MSTORE SWAP1 MLOAD PUSH20 0xFFFFFFFFFFFFFFFFFFFFFFFFFFFFFFFFFFFFFFFF SWAP1 SWAP3 AND SWAP2 PUSH4 0x3B3B57DE SWAP2 PUSH1 0x24 DUP1 DUP3 ADD SWAP3 PUSH1 0x20 SWAP3 SWAP1 SWAP2 SWAP1 DUP3 SWAP1 SUB ADD DUP2 PUSH1 0x0 DUP8 DUP1 EXTCODESIZE ISZERO DUP1 ISZERO PUSH2 0x2375 JUMPI PUSH1 0x0 DUP1 REVERT JUMPDEST POP GAS CALL ISZERO DUP1 ISZERO PUSH2 0x2389 JUMPI RETURNDATASIZE PUSH1 0x0 DUP1 RETURNDATACOPY RETURNDATASIZE PUSH1 0x0 REVERT JUMPDEST POP POP POP POP PUSH1 0x40 MLOAD RETURNDATASIZE PUSH1 0x20 DUP2 LT ISZERO PUSH2 0x239F JUMPI PUSH1 0x0 DUP1 REVERT JUMPDEST POP MLOAD PUSH1 0x40 DUP1 MLOAD PUSH32 0xC36AF46000000000000000000000000000000000000000000000000000000000 DUP2 MSTORE SWAP1 MLOAD SWAP2 SWAP3 POP PUSH20 0xFFFFFFFFFFFFFFFFFFFFFFFFFFFFFFFFFFFFFFFF DUP4 AND SWAP2 PUSH4 0xC36AF460 SWAP2 PUSH1 0x4 DUP1 DUP3 ADD SWAP3 PUSH1 0x0 SWAP3 SWAP1 SWAP2 SWAP1 DUP3 SWAP1 SUB ADD DUP2 DUP4 DUP8 DUP1 EXTCODESIZE ISZERO DUP1 ISZERO PUSH2 0x240C JUMPI PUSH1 0x0 DUP1 REVERT JUMPDEST POP GAS CALL ISZERO DUP1 ISZERO PUSH2 0x2420 JUMPI RETURNDATASIZE PUSH1 0x0 DUP1 RETURNDATACOPY RETURNDATASIZE PUSH1 0x0 REVERT JUMPDEST POP POP POP POP PUSH1 0x40 MLOAD RETURNDATASIZE PUSH1 0x0 DUP3 RETURNDATACOPY PUSH1 0x1F RETURNDATASIZE SWAP1 DUP2 ADD PUSH32 0xFFFFFFFFFFFFFFFFFFFFFFFFFFFFFFFFFFFFFFFFFFFFFFFFFFFFFFFFFFFFFFE0 AND DUP3 ADD PUSH1 0x40 MSTORE PUSH1 0xA0 DUP2 LT ISZERO PUSH2 0x2467 JUMPI PUSH1 0x0 DUP1 REVERT JUMPDEST PUSH1 0x60 DUP3 ADD MLOAD PUSH1 0x80 DUP4 ADD DUP1 MLOAD SWAP2 SWAP3 DUP5 ADD SWAP2 DUP5 SWAP2 SWAP1 PUSH5 0x100000000 DUP2 GT ISZERO PUSH2 0x248C JUMPI PUSH1 0x0 DUP1 REVERT JUMPDEST DUP3 ADD PUSH1 0x20 DUP2 ADD DUP5 DUP2 GT ISZERO PUSH2 0x249F JUMPI PUSH1 0x0 DUP1 REVERT JUMPDEST DUP2 MLOAD PUSH5 0x100000000 DUP2 GT DUP3 DUP3 ADD DUP8 LT OR ISZERO PUSH2 0x24B9 JUMPI PUSH1 0x0 DUP1 REVERT JUMPDEST POP SWAP5 SWAP10 SWAP9 POP POP POP POP POP POP POP POP POP JUMP STOP LOG1 PUSH6 0x627A7A723058 KECCAK256 0xf6 SWAP7 0xdc PUSH3 0x3EA005 0xdc SWAP13 0x1e PUSH28 0x618DBF94E357B4AABA5DB13717F308EC2A97897E0600290000000000 "
		},
		"gasEstimates": {
			"creation": {
				"codeDepositCost": "1892000",
				"executionCost": "infinite",
				"totalCost": "infinite"
			},
			"external": {
				"newInstance(string,address[],uint64[3],address)": "infinite",
				"newToken(string,string)": "infinite",
				"newTokenAndInstance(string,string,string,address[],uint64[3],address)": "infinite"
			},
			"internal": {
				"_ensureMembershipSettings(address[] memory,uint64[3] memory)": "infinite",
				"_setupApps(contract Kernel,contract ACL,address[] memory,uint64[3] memory,address)": "infinite",
				"_setupPermissions(contract ACL,contract Voting,contract TokenManager,address)": "infinite"
			}
		},
		"methodIdentifiers": {
			"newInstance(string,address[],uint64[3],address)": "01036114",
			"newToken(string,string)": "4629ffea",
			"newTokenAndInstance(string,string,string,address[],uint64[3],address)": "f51a812b"
		}
	},
	"abi": [
		{
			"constant": false,
			"inputs": [
				{
					"name": "_id",
					"type": "string"
				},
				{
					"name": "_members",
					"type": "address[]"
				},
				{
					"name": "_votingSettings",
					"type": "uint64[3]"
				},
				{
					"name": "admin",
					"type": "address"
				}
			],
			"name": "newInstance",
			"outputs": [],
			"payable": false,
			"stateMutability": "nonpayable",
			"type": "function"
		},
		{
			"constant": false,
			"inputs": [
				{
					"name": "_name",
					"type": "string"
				},
				{
					"name": "_symbol",
					"type": "string"
				}
			],
			"name": "newToken",
			"outputs": [
				{
					"name": "",
					"type": "address"
				}
			],
			"payable": false,
			"stateMutability": "nonpayable",
			"type": "function"
		},
		{
			"constant": false,
			"inputs": [
				{
					"name": "_tokenName",
					"type": "string"
				},
				{
					"name": "_tokenSymbol",
					"type": "string"
				},
				{
					"name": "_id",
					"type": "string"
				},
				{
					"name": "_members",
					"type": "address[]"
				},
				{
					"name": "_votingSettings",
					"type": "uint64[3]"
				},
				{
					"name": "admin",
					"type": "address"
				}
			],
			"name": "newTokenAndInstance",
			"outputs": [],
			"payable": false,
			"stateMutability": "nonpayable",
			"type": "function"
		},
		{
			"inputs": [
				{
					"name": "_daoFactory",
					"type": "address"
				},
				{
					"name": "_ens",
					"type": "address"
				},
				{
					"name": "_miniMeFactory",
					"type": "address"
				},
				{
					"name": "_aragonID",
					"type": "address"
				}
			],
			"payable": false,
			"stateMutability": "nonpayable",
			"type": "constructor"
		},
		{
			"anonymous": false,
			"inputs": [
				{
					"indexed": false,
					"name": "dao",
					"type": "address"
				}
			],
			"name": "DeployDao",
			"type": "event"
		},
		{
			"anonymous": false,
			"inputs": [
				{
					"indexed": false,
					"name": "dao",
					"type": "address"
				}
			],
			"name": "SetupDao",
			"type": "event"
		},
		{
			"anonymous": false,
			"inputs": [
				{
					"indexed": false,
					"name": "token",
					"type": "address"
				}
			],
			"name": "DeployToken",
			"type": "event"
		},
		{
			"anonymous": false,
			"inputs": [
				{
					"indexed": false,
					"name": "appProxy",
					"type": "address"
				},
				{
					"indexed": false,
					"name": "appId",
					"type": "bytes32"
				}
			],
			"name": "InstalledApp",
			"type": "event"
		}
	]
}