{
	"data": {
		"bytecode": {
			"linkReferences": {},
			"object": "608060405234801561001057600080fd5b5060405160608061107d833981016040908152815160208301519190920151600160a060020a0381161561005a5760028054600160a060020a031916600160a060020a0383161790555b5060008054600160a060020a03938416600160a060020a03199182161790915560018054929093169116179055610fe7806100966000396000f3006080604052600436106100615763ffffffff7c0100000000000000000000000000000000000000000000000000000000600035041663086b339e811461006657806321687444146100a4578063656362b5146100d2578063b16dd130146100e7575b600080fd5b34801561007257600080fd5b5061007b6100fc565b6040805173ffffffffffffffffffffffffffffffffffffffff9092168252519081900360200190f35b3480156100b057600080fd5b5061007b73ffffffffffffffffffffffffffffffffffffffff60043516610118565b3480156100de57600080fd5b5061007b610a95565b3480156100f357600080fd5b5061007b610ab1565b60015473ffffffffffffffffffffffffffffffffffffffff1681565b600080548190819081908190819073ffffffffffffffffffffffffffffffffffffffff16610144610acd565b73ffffffffffffffffffffffffffffffffffffffff909116815260405190819003602001906000f08015801561017e573d6000803e3d6000fd5b5060025490955073ffffffffffffffffffffffffffffffffffffffff16151561023a57600154604080517f485cc95500000000000000000000000000000000000000000000000000000000815273ffffffffffffffffffffffffffffffffffffffff9283166004820152898316602482015290519187169163485cc9559160448082019260009290919082900301818387803b15801561021d57600080fd5b505af1158015610231573d6000803e3d6000fd5b50505050610a41565b600154604080517f485cc95500000000000000000000000000000000000000000000000000000000815273ffffffffffffffffffffffffffffffffffffffff928316600482015230602482015290519187169163485cc9559160448082019260009290919082900301818387803b1580156102b457600080fd5b505af11580156102c8573d6000803e3d6000fd5b505050508473ffffffffffffffffffffffffffffffffffffffff1663de2873596040518163ffffffff167c0100000000000000000000000000000000000000000000000000000000028152600401602060405180830381600087803b15801561033057600080fd5b505af1158015610344573d6000803e3d6000fd5b505050506040513d602081101561035a57600080fd5b5051604080517f3d6ab68f000000000000000000000000000000000000000000000000000000008152905191955073ffffffffffffffffffffffffffffffffffffffff861691633d6ab68f916004808201926020929091908290030181600087803b1580156103c857600080fd5b505af11580156103dc573d6000803e3d6000fd5b505050506040513d60208110156103f257600080fd5b5051604080517f8ea8dc9d000000000000000000000000000000000000000000000000000000008152905191945073ffffffffffffffffffffffffffffffffffffffff871691638ea8dc9d916004808201926020929091908290030181600087803b15801561046057600080fd5b505af1158015610474573d6000803e3d6000fd5b505050506040513d602081101561048a57600080fd5b5051600254604080517f0a8ed3db00000000000000000000000000000000000000000000000000000000815273ffffffffffffffffffffffffffffffffffffffff92831660048201529187166024830181905260448301879052905192945091630a8ed3db9160648082019260009290919082900301818387803b15801561051157600080fd5b505af1158015610525573d6000803e3d6000fd5b5050600254604080517fbe03847800000000000000000000000000000000000000000000000000000000815273ffffffffffffffffffffffffffffffffffffffff92831660048201528983166024820152604481018790523060648201529051918816935063be038478925060848082019260009290919082900301818387803b1580156105b257600080fd5b505af11580156105c6573d6000803e3d6000fd5b5050600254604080517f3340414300000000000000000000000000000000000000000000000000000000815273ffffffffffffffffffffffffffffffffffffffff8a8116600483015291519190921693506333404143925060248083019260209291908290030181600087803b15801561063f57600080fd5b505af1158015610653573d6000803e3d6000fd5b505050506040513d602081101561066957600080fd5b50516040805173ffffffffffffffffffffffffffffffffffffffff8316815290519192507f1a40224412580c1ae5a2fbe8029a565f49a3a029608a8fd9320b32477f314579919081900360200190a1600254604080517f9d0effdb00000000000000000000000000000000000000000000000000000000815273ffffffffffffffffffffffffffffffffffffffff9283166004820152878316602482015260448101859052905191861691639d0effdb9160648082019260009290919082900301818387803b15801561073b57600080fd5b505af115801561074f573d6000803e3d6000fd5b5050604080517fa885508a00000000000000000000000000000000000000000000000000000000815273ffffffffffffffffffffffffffffffffffffffff8981166004830152602482018790529151918816935063a885508a925060448082019260009290919082900301818387803b1580156107cb57600080fd5b505af11580156107df573d6000803e3d6000fd5b5050600254604080517f9d0effdb00000000000000000000000000000000000000000000000000000000815273ffffffffffffffffffffffffffffffffffffffff928316600482015291881660248301819052604483018890529051909350639d0effdb9250606480830192600092919082900301818387803b15801561086557600080fd5b505af1158015610879573d6000803e3d6000fd5b5050604080517f9d0effdb00000000000000000000000000000000000000000000000000000000815230600482015273ffffffffffffffffffffffffffffffffffffffff881660248201819052604482018890529151919350639d0effdb925060648082019260009290919082900301818387803b1580156108fa57600080fd5b505af115801561090e573d6000803e3d6000fd5b5050604080517f0a8ed3db00000000000000000000000000000000000000000000000000000000815273ffffffffffffffffffffffffffffffffffffffff8b81166004830152881660248201819052604482018890529151919350630a8ed3db925060648082019260009290919082900301818387803b15801561099157600080fd5b505af11580156109a5573d6000803e3d6000fd5b5050604080517fafd925df00000000000000000000000000000000000000000000000000000000815273ffffffffffffffffffffffffffffffffffffffff8b8116600483015288166024820181905260448201889052915191935063afd925df925060648082019260009290919082900301818387803b158015610a2857600080fd5b505af1158015610a3c573d6000803e3d6000fd5b505050505b6040805173ffffffffffffffffffffffffffffffffffffffff8716815290517f3a7eb042a769adf51e9be78b68ed7af0ad7b379246536efc376ed2ca012382829181900360200190a1509295945050505050565b60025473ffffffffffffffffffffffffffffffffffffffff1681565b60005473ffffffffffffffffffffffffffffffffffffffff1681565b6040516104de80610ade833901905600608060405234801561001057600080fd5b506040516020806104de833981016040525161003481640100000000610120810204565b151561003f57600080fd5b7f3b4bf6bf3ad5000ecf0f989d5befde585c6860fea3e574a4fab4c49d1c177d9c60008190527fc67454ed56db7ff90a4bb32fc9a8de1ab3174b221e5fecea22b7503a3111791f60209081527f8e2ed18767e9c33b25344c240cdf92034fae56be99e2c07f3d9946d949ffede48054600160a060020a031916600160a060020a03851690811790915560408051918252517fc681a85306374a5ab27f0bbc385296a54bcd314a1948b6cf61c4ea1bc44bb9f8927f2ec1ae0a449b7ae354b9dacfb3ade6b6332ba26b7fcbb935835fa39dd7263b23928290030190a35061014d565b600080600160a060020a038316151561013c5760009150610147565b823b90506000811191505b50919050565b6103828061015c6000396000f30060806040526004361061006c5763ffffffff7c01000000000000000000000000000000000000000000000000000000006000350416634555d5c9811461012b5780634558850c1461015257806348a0c8dd146101965780635c60da1b146101bf57806386070cfe146101d4575b6127107f665fd576fbbe6f247aff98f5c94a561e3f71ec2d3c988d56f12d342396c50cea6000825a10156100e15760003411361583541616156100dc576040513381523460208201527f15eeaa57c7bd188c1388020bcadc2c436ec60d647d36ef5b9eb3c742217ddee1604082a1005b600080fd5b6100e96101e9565b9050610126816000368080601f0160208091040260200160405190810160405280939291908181526020018383808284375061026c945050505050565b505050005b34801561013757600080fd5b506101406102ad565b60408051918252519081900360200190f35b34801561015e57600080fd5b5061016d6004356024356102b2565b6040805173ffffffffffffffffffffffffffffffffffffffff9092168252519081900360200190f35b3480156101a257600080fd5b506101ab6102e2565b604080519115158252519081900360200190f35b3480156101cb57600080fd5b5061016d6101e9565b3480156101e057600080fd5b50610140610312565b7f3b4bf6bf3ad5000ecf0f989d5befde585c6860fea3e574a4fab4c49d1c177d9c6000527fc67454ed56db7ff90a4bb32fc9a8de1ab3174b221e5fecea22b7503a3111791f6020527f8e2ed18767e9c33b25344c240cdf92034fae56be99e2c07f3d9946d949ffede45473ffffffffffffffffffffffffffffffffffffffff1690565b600061027783610318565b151561028257600080fd5b612710905060008083516020850186855a03f43d604051816000823e8280156102a9578282f35b8282fd5b600290565b600060208181529281526040808220909352908152205473ffffffffffffffffffffffffffffffffffffffff1681565b600061030d7f665fd576fbbe6f247aff98f5c94a561e3f71ec2d3c988d56f12d342396c50cea610352565b905090565b60015481565b60008073ffffffffffffffffffffffffffffffffffffffff83161515610341576000915061034c565b823b90506000811191505b50919050565b54905600a165627a7a7230582076ab69a1e028f60b3b4f2b099283fe071428f123d72dc8529fc5453f44c298880029a165627a7a723058203a952fa9e6ed8926345d8b625ccadbbfdb25075e386b9cc3aab6f946f9b717e80029",
			"opcodes": "PUSH1 0x80 PUSH1 0x40 MSTORE CALLVALUE DUP1 ISZERO PUSH2 0x10 JUMPI PUSH1 0x0 DUP1 REVERT JUMPDEST POP PUSH1 0x40 MLOAD PUSH1 0x60 DUP1 PUSH2 0x107D DUP4 CODECOPY DUP2 ADD PUSH1 0x40 SWAP1 DUP2 MSTORE DUP2 MLOAD PUSH1 0x20 DUP4 ADD MLOAD SWAP2 SWAP1 SWAP3 ADD MLOAD PUSH1 0x1 PUSH1 0xA0 PUSH1 0x2 EXP SUB DUP2 AND ISZERO PUSH2 0x5A JUMPI PUSH1 0x2 DUP1 SLOAD PUSH1 0x1 PUSH1 0xA0 PUSH1 0x2 EXP SUB NOT AND PUSH1 0x1 PUSH1 0xA0 PUSH1 0x2 EXP SUB DUP4 AND OR SWAP1 SSTORE JUMPDEST POP PUSH1 0x0 DUP1 SLOAD PUSH1 0x1 PUSH1 0xA0 PUSH1 0x2 EXP SUB SWAP4 DUP5 AND PUSH1 0x1 PUSH1 0xA0 PUSH1 0x2 EXP SUB NOT SWAP2 DUP3 AND OR SWAP1 SWAP2 SSTORE PUSH1 0x1 DUP1 SLOAD SWAP3 SWAP1 SWAP4 AND SWAP2 AND OR SWAP1 SSTORE PUSH2 0xFE7 DUP1 PUSH2 0x96 PUSH1 0x0 CODECOPY PUSH1 0x0 RETURN STOP PUSH1 0x80 PUSH1 0x40 MSTORE PUSH1 0x4 CALLDATASIZE LT PUSH2 0x61 JUMPI PUSH4 0xFFFFFFFF PUSH29 0x100000000000000000000000000000000000000000000000000000000 PUSH1 0x0 CALLDATALOAD DIV AND PUSH4 0x86B339E DUP2 EQ PUSH2 0x66 JUMPI DUP1 PUSH4 0x21687444 EQ PUSH2 0xA4 JUMPI DUP1 PUSH4 0x656362B5 EQ PUSH2 0xD2 JUMPI DUP1 PUSH4 0xB16DD130 EQ PUSH2 0xE7 JUMPI JUMPDEST PUSH1 0x0 DUP1 REVERT JUMPDEST CALLVALUE DUP1 ISZERO PUSH2 0x72 JUMPI PUSH1 0x0 DUP1 REVERT JUMPDEST POP PUSH2 0x7B PUSH2 0xFC JUMP JUMPDEST PUSH1 0x40 DUP1 MLOAD PUSH20 0xFFFFFFFFFFFFFFFFFFFFFFFFFFFFFFFFFFFFFFFF SWAP1 SWAP3 AND DUP3 MSTORE MLOAD SWAP1 DUP2 SWAP1 SUB PUSH1 0x20 ADD SWAP1 RETURN JUMPDEST CALLVALUE DUP1 ISZERO PUSH2 0xB0 JUMPI PUSH1 0x0 DUP1 REVERT JUMPDEST POP PUSH2 0x7B PUSH20 0xFFFFFFFFFFFFFFFFFFFFFFFFFFFFFFFFFFFFFFFF PUSH1 0x4 CALLDATALOAD AND PUSH2 0x118 JUMP JUMPDEST CALLVALUE DUP1 ISZERO PUSH2 0xDE JUMPI PUSH1 0x0 DUP1 REVERT JUMPDEST POP PUSH2 0x7B PUSH2 0xA95 JUMP JUMPDEST CALLVALUE DUP1 ISZERO PUSH2 0xF3 JUMPI PUSH1 0x0 DUP1 REVERT JUMPDEST POP PUSH2 0x7B PUSH2 0xAB1 JUMP JUMPDEST PUSH1 0x1 SLOAD PUSH20 0xFFFFFFFFFFFFFFFFFFFFFFFFFFFFFFFFFFFFFFFF AND DUP2 JUMP JUMPDEST PUSH1 0x0 DUP1 SLOAD DUP2 SWAP1 DUP2 SWAP1 DUP2 SWAP1 DUP2 SWAP1 DUP2 SWAP1 PUSH20 0xFFFFFFFFFFFFFFFFFFFFFFFFFFFFFFFFFFFFFFFF AND PUSH2 0x144 PUSH2 0xACD JUMP JUMPDEST PUSH20 0xFFFFFFFFFFFFFFFFFFFFFFFFFFFFFFFFFFFFFFFF SWAP1 SWAP2 AND DUP2 MSTORE PUSH1 0x40 MLOAD SWAP1 DUP2 SWAP1 SUB PUSH1 0x20 ADD SWAP1 PUSH1 0x0 CREATE DUP1 ISZERO DUP1 ISZERO PUSH2 0x17E JUMPI RETURNDATASIZE PUSH1 0x0 DUP1 RETURNDATACOPY RETURNDATASIZE PUSH1 0x0 REVERT JUMPDEST POP PUSH1 0x2 SLOAD SWAP1 SWAP6 POP PUSH20 0xFFFFFFFFFFFFFFFFFFFFFFFFFFFFFFFFFFFFFFFF AND ISZERO ISZERO PUSH2 0x23A JUMPI PUSH1 0x1 SLOAD PUSH1 0x40 DUP1 MLOAD PUSH32 0x485CC95500000000000000000000000000000000000000000000000000000000 DUP2 MSTORE PUSH20 0xFFFFFFFFFFFFFFFFFFFFFFFFFFFFFFFFFFFFFFFF SWAP3 DUP4 AND PUSH1 0x4 DUP3 ADD MSTORE DUP10 DUP4 AND PUSH1 0x24 DUP3 ADD MSTORE SWAP1 MLOAD SWAP2 DUP8 AND SWAP2 PUSH4 0x485CC955 SWAP2 PUSH1 0x44 DUP1 DUP3 ADD SWAP3 PUSH1 0x0 SWAP3 SWAP1 SWAP2 SWAP1 DUP3 SWAP1 SUB ADD DUP2 DUP4 DUP8 DUP1 EXTCODESIZE ISZERO DUP1 ISZERO PUSH2 0x21D JUMPI PUSH1 0x0 DUP1 REVERT JUMPDEST POP GAS CALL ISZERO DUP1 ISZERO PUSH2 0x231 JUMPI RETURNDATASIZE PUSH1 0x0 DUP1 RETURNDATACOPY RETURNDATASIZE PUSH1 0x0 REVERT JUMPDEST POP POP POP POP PUSH2 0xA41 JUMP JUMPDEST PUSH1 0x1 SLOAD PUSH1 0x40 DUP1 MLOAD PUSH32 0x485CC95500000000000000000000000000000000000000000000000000000000 DUP2 MSTORE PUSH20 0xFFFFFFFFFFFFFFFFFFFFFFFFFFFFFFFFFFFFFFFF SWAP3 DUP4 AND PUSH1 0x4 DUP3 ADD MSTORE ADDRESS PUSH1 0x24 DUP3 ADD MSTORE SWAP1 MLOAD SWAP2 DUP8 AND SWAP2 PUSH4 0x485CC955 SWAP2 PUSH1 0x44 DUP1 DUP3 ADD SWAP3 PUSH1 0x0 SWAP3 SWAP1 SWAP2 SWAP1 DUP3 SWAP1 SUB ADD DUP2 DUP4 DUP8 DUP1 EXTCODESIZE ISZERO DUP1 ISZERO PUSH2 0x2B4 JUMPI PUSH1 0x0 DUP1 REVERT JUMPDEST POP GAS CALL ISZERO DUP1 ISZERO PUSH2 0x2C8 JUMPI RETURNDATASIZE PUSH1 0x0 DUP1 RETURNDATACOPY RETURNDATASIZE PUSH1 0x0 REVERT JUMPDEST POP POP POP POP DUP5 PUSH20 0xFFFFFFFFFFFFFFFFFFFFFFFFFFFFFFFFFFFFFFFF AND PUSH4 0xDE287359 PUSH1 0x40 MLOAD DUP2 PUSH4 0xFFFFFFFF AND PUSH29 0x100000000000000000000000000000000000000000000000000000000 MUL DUP2 MSTORE PUSH1 0x4 ADD PUSH1 0x20 PUSH1 0x40 MLOAD DUP1 DUP4 SUB DUP2 PUSH1 0x0 DUP8 DUP1 EXTCODESIZE ISZERO DUP1 ISZERO PUSH2 0x330 JUMPI PUSH1 0x0 DUP1 REVERT JUMPDEST POP GAS CALL ISZERO DUP1 ISZERO PUSH2 0x344 JUMPI RETURNDATASIZE PUSH1 0x0 DUP1 RETURNDATACOPY RETURNDATASIZE PUSH1 0x0 REVERT JUMPDEST POP POP POP POP PUSH1 0x40 MLOAD RETURNDATASIZE PUSH1 0x20 DUP2 LT ISZERO PUSH2 0x35A JUMPI PUSH1 0x0 DUP1 REVERT JUMPDEST POP MLOAD PUSH1 0x40 DUP1 MLOAD PUSH32 0x3D6AB68F00000000000000000000000000000000000000000000000000000000 DUP2 MSTORE SWAP1 MLOAD SWAP2 SWAP6 POP PUSH20 0xFFFFFFFFFFFFFFFFFFFFFFFFFFFFFFFFFFFFFFFF DUP7 AND SWAP2 PUSH4 0x3D6AB68F SWAP2 PUSH1 0x4 DUP1 DUP3 ADD SWAP3 PUSH1 0x20 SWAP3 SWAP1 SWAP2 SWAP1 DUP3 SWAP1 SUB ADD DUP2 PUSH1 0x0 DUP8 DUP1 EXTCODESIZE ISZERO DUP1 ISZERO PUSH2 0x3C8 JUMPI PUSH1 0x0 DUP1 REVERT JUMPDEST POP GAS CALL ISZERO DUP1 ISZERO PUSH2 0x3DC JUMPI RETURNDATASIZE PUSH1 0x0 DUP1 RETURNDATACOPY RETURNDATASIZE PUSH1 0x0 REVERT JUMPDEST POP POP POP POP PUSH1 0x40 MLOAD RETURNDATASIZE PUSH1 0x20 DUP2 LT ISZERO PUSH2 0x3F2 JUMPI PUSH1 0x0 DUP1 REVERT JUMPDEST POP MLOAD PUSH1 0x40 DUP1 MLOAD PUSH32 0x8EA8DC9D00000000000000000000000000000000000000000000000000000000 DUP2 MSTORE SWAP1 MLOAD SWAP2 SWAP5 POP PUSH20 0xFFFFFFFFFFFFFFFFFFFFFFFFFFFFFFFFFFFFFFFF DUP8 AND SWAP2 PUSH4 0x8EA8DC9D SWAP2 PUSH1 0x4 DUP1 DUP3 ADD SWAP3 PUSH1 0x20 SWAP3 SWAP1 SWAP2 SWAP1 DUP3 SWAP1 SUB ADD DUP2 PUSH1 0x0 DUP8 DUP1 EXTCODESIZE ISZERO DUP1 ISZERO PUSH2 0x460 JUMPI PUSH1 0x0 DUP1 REVERT JUMPDEST POP GAS CALL ISZERO DUP1 ISZERO PUSH2 0x474 JUMPI RETURNDATASIZE PUSH1 0x0 DUP1 RETURNDATACOPY RETURNDATASIZE PUSH1 0x0 REVERT JUMPDEST POP POP POP POP PUSH1 0x40 MLOAD RETURNDATASIZE PUSH1 0x20 DUP2 LT ISZERO PUSH2 0x48A JUMPI PUSH1 0x0 DUP1 REVERT JUMPDEST POP MLOAD PUSH1 0x2 SLOAD PUSH1 0x40 DUP1 MLOAD PUSH32 0xA8ED3DB00000000000000000000000000000000000000000000000000000000 DUP2 MSTORE PUSH20 0xFFFFFFFFFFFFFFFFFFFFFFFFFFFFFFFFFFFFFFFF SWAP3 DUP4 AND PUSH1 0x4 DUP3 ADD MSTORE SWAP2 DUP8 AND PUSH1 0x24 DUP4 ADD DUP2 SWAP1 MSTORE PUSH1 0x44 DUP4 ADD DUP8 SWAP1 MSTORE SWAP1 MLOAD SWAP3 SWAP5 POP SWAP2 PUSH4 0xA8ED3DB SWAP2 PUSH1 0x64 DUP1 DUP3 ADD SWAP3 PUSH1 0x0 SWAP3 SWAP1 SWAP2 SWAP1 DUP3 SWAP1 SUB ADD DUP2 DUP4 DUP8 DUP1 EXTCODESIZE ISZERO DUP1 ISZERO PUSH2 0x511 JUMPI PUSH1 0x0 DUP1 REVERT JUMPDEST POP GAS CALL ISZERO DUP1 ISZERO PUSH2 0x525 JUMPI RETURNDATASIZE PUSH1 0x0 DUP1 RETURNDATACOPY RETURNDATASIZE PUSH1 0x0 REVERT JUMPDEST POP POP PUSH1 0x2 SLOAD PUSH1 0x40 DUP1 MLOAD PUSH32 0xBE03847800000000000000000000000000000000000000000000000000000000 DUP2 MSTORE PUSH20 0xFFFFFFFFFFFFFFFFFFFFFFFFFFFFFFFFFFFFFFFF SWAP3 DUP4 AND PUSH1 0x4 DUP3 ADD MSTORE DUP10 DUP4 AND PUSH1 0x24 DUP3 ADD MSTORE PUSH1 0x44 DUP2 ADD DUP8 SWAP1 MSTORE ADDRESS PUSH1 0x64 DUP3 ADD MSTORE SWAP1 MLOAD SWAP2 DUP9 AND SWAP4 POP PUSH4 0xBE038478 SWAP3 POP PUSH1 0x84 DUP1 DUP3 ADD SWAP3 PUSH1 0x0 SWAP3 SWAP1 SWAP2 SWAP1 DUP3 SWAP1 SUB ADD DUP2 DUP4 DUP8 DUP1 EXTCODESIZE ISZERO DUP1 ISZERO PUSH2 0x5B2 JUMPI PUSH1 0x0 DUP1 REVERT JUMPDEST POP GAS CALL ISZERO DUP1 ISZERO PUSH2 0x5C6 JUMPI RETURNDATASIZE PUSH1 0x0 DUP1 RETURNDATACOPY RETURNDATASIZE PUSH1 0x0 REVERT JUMPDEST POP POP PUSH1 0x2 SLOAD PUSH1 0x40 DUP1 MLOAD PUSH32 0x3340414300000000000000000000000000000000000000000000000000000000 DUP2 MSTORE PUSH20 0xFFFFFFFFFFFFFFFFFFFFFFFFFFFFFFFFFFFFFFFF DUP11 DUP2 AND PUSH1 0x4 DUP4 ADD MSTORE SWAP2 MLOAD SWAP2 SWAP1 SWAP3 AND SWAP4 POP PUSH4 0x33404143 SWAP3 POP PUSH1 0x24 DUP1 DUP4 ADD SWAP3 PUSH1 0x20 SWAP3 SWAP2 SWAP1 DUP3 SWAP1 SUB ADD DUP2 PUSH1 0x0 DUP8 DUP1 EXTCODESIZE ISZERO DUP1 ISZERO PUSH2 0x63F JUMPI PUSH1 0x0 DUP1 REVERT JUMPDEST POP GAS CALL ISZERO DUP1 ISZERO PUSH2 0x653 JUMPI RETURNDATASIZE PUSH1 0x0 DUP1 RETURNDATACOPY RETURNDATASIZE PUSH1 0x0 REVERT JUMPDEST POP POP POP POP PUSH1 0x40 MLOAD RETURNDATASIZE PUSH1 0x20 DUP2 LT ISZERO PUSH2 0x669 JUMPI PUSH1 0x0 DUP1 REVERT JUMPDEST POP MLOAD PUSH1 0x40 DUP1 MLOAD PUSH20 0xFFFFFFFFFFFFFFFFFFFFFFFFFFFFFFFFFFFFFFFF DUP4 AND DUP2 MSTORE SWAP1 MLOAD SWAP2 SWAP3 POP PUSH32 0x1A40224412580C1AE5A2FBE8029A565F49A3A029608A8FD9320B32477F314579 SWAP2 SWAP1 DUP2 SWAP1 SUB PUSH1 0x20 ADD SWAP1 LOG1 PUSH1 0x2 SLOAD PUSH1 0x40 DUP1 MLOAD PUSH32 0x9D0EFFDB00000000000000000000000000000000000000000000000000000000 DUP2 MSTORE PUSH20 0xFFFFFFFFFFFFFFFFFFFFFFFFFFFFFFFFFFFFFFFF SWAP3 DUP4 AND PUSH1 0x4 DUP3 ADD MSTORE DUP8 DUP4 AND PUSH1 0x24 DUP3 ADD MSTORE PUSH1 0x44 DUP2 ADD DUP6 SWAP1 MSTORE SWAP1 MLOAD SWAP2 DUP7 AND SWAP2 PUSH4 0x9D0EFFDB SWAP2 PUSH1 0x64 DUP1 DUP3 ADD SWAP3 PUSH1 0x0 SWAP3 SWAP1 SWAP2 SWAP1 DUP3 SWAP1 SUB ADD DUP2 DUP4 DUP8 DUP1 EXTCODESIZE ISZERO DUP1 ISZERO PUSH2 0x73B JUMPI PUSH1 0x0 DUP1 REVERT JUMPDEST POP GAS CALL ISZERO DUP1 ISZERO PUSH2 0x74F JUMPI RETURNDATASIZE PUSH1 0x0 DUP1 RETURNDATACOPY RETURNDATASIZE PUSH1 0x0 REVERT JUMPDEST POP POP PUSH1 0x40 DUP1 MLOAD PUSH32 0xA885508A00000000000000000000000000000000000000000000000000000000 DUP2 MSTORE PUSH20 0xFFFFFFFFFFFFFFFFFFFFFFFFFFFFFFFFFFFFFFFF DUP10 DUP2 AND PUSH1 0x4 DUP4 ADD MSTORE PUSH1 0x24 DUP3 ADD DUP8 SWAP1 MSTORE SWAP2 MLOAD SWAP2 DUP9 AND SWAP4 POP PUSH4 0xA885508A SWAP3 POP PUSH1 0x44 DUP1 DUP3 ADD SWAP3 PUSH1 0x0 SWAP3 SWAP1 SWAP2 SWAP1 DUP3 SWAP1 SUB ADD DUP2 DUP4 DUP8 DUP1 EXTCODESIZE ISZERO DUP1 ISZERO PUSH2 0x7CB JUMPI PUSH1 0x0 DUP1 REVERT JUMPDEST POP GAS CALL ISZERO DUP1 ISZERO PUSH2 0x7DF JUMPI RETURNDATASIZE PUSH1 0x0 DUP1 RETURNDATACOPY RETURNDATASIZE PUSH1 0x0 REVERT JUMPDEST POP POP PUSH1 0x2 SLOAD PUSH1 0x40 DUP1 MLOAD PUSH32 0x9D0EFFDB00000000000000000000000000000000000000000000000000000000 DUP2 MSTORE PUSH20 0xFFFFFFFFFFFFFFFFFFFFFFFFFFFFFFFFFFFFFFFF SWAP3 DUP4 AND PUSH1 0x4 DUP3 ADD MSTORE SWAP2 DUP9 AND PUSH1 0x24 DUP4 ADD DUP2 SWAP1 MSTORE PUSH1 0x44 DUP4 ADD DUP9 SWAP1 MSTORE SWAP1 MLOAD SWAP1 SWAP4 POP PUSH4 0x9D0EFFDB SWAP3 POP PUSH1 0x64 DUP1 DUP4 ADD SWAP3 PUSH1 0x0 SWAP3 SWAP2 SWAP1 DUP3 SWAP1 SUB ADD DUP2 DUP4 DUP8 DUP1 EXTCODESIZE ISZERO DUP1 ISZERO PUSH2 0x865 JUMPI PUSH1 0x0 DUP1 REVERT JUMPDEST POP GAS CALL ISZERO DUP1 ISZERO PUSH2 0x879 JUMPI RETURNDATASIZE PUSH1 0x0 DUP1 RETURNDATACOPY RETURNDATASIZE PUSH1 0x0 REVERT JUMPDEST POP POP PUSH1 0x40 DUP1 MLOAD PUSH32 0x9D0EFFDB00000000000000000000000000000000000000000000000000000000 DUP2 MSTORE ADDRESS PUSH1 0x4 DUP3 ADD MSTORE PUSH20 0xFFFFFFFFFFFFFFFFFFFFFFFFFFFFFFFFFFFFFFFF DUP9 AND PUSH1 0x24 DUP3 ADD DUP2 SWAP1 MSTORE PUSH1 0x44 DUP3 ADD DUP9 SWAP1 MSTORE SWAP2 MLOAD SWAP2 SWAP4 POP PUSH4 0x9D0EFFDB SWAP3 POP PUSH1 0x64 DUP1 DUP3 ADD SWAP3 PUSH1 0x0 SWAP3 SWAP1 SWAP2 SWAP1 DUP3 SWAP1 SUB ADD DUP2 DUP4 DUP8 DUP1 EXTCODESIZE ISZERO DUP1 ISZERO PUSH2 0x8FA JUMPI PUSH1 0x0 DUP1 REVERT JUMPDEST POP GAS CALL ISZERO DUP1 ISZERO PUSH2 0x90E JUMPI RETURNDATASIZE PUSH1 0x0 DUP1 RETURNDATACOPY RETURNDATASIZE PUSH1 0x0 REVERT JUMPDEST POP POP PUSH1 0x40 DUP1 MLOAD PUSH32 0xA8ED3DB00000000000000000000000000000000000000000000000000000000 DUP2 MSTORE PUSH20 0xFFFFFFFFFFFFFFFFFFFFFFFFFFFFFFFFFFFFFFFF DUP12 DUP2 AND PUSH1 0x4 DUP4 ADD MSTORE DUP9 AND PUSH1 0x24 DUP3 ADD DUP2 SWAP1 MSTORE PUSH1 0x44 DUP3 ADD DUP9 SWAP1 MSTORE SWAP2 MLOAD SWAP2 SWAP4 POP PUSH4 0xA8ED3DB SWAP3 POP PUSH1 0x64 DUP1 DUP3 ADD SWAP3 PUSH1 0x0 SWAP3 SWAP1 SWAP2 SWAP1 DUP3 SWAP1 SUB ADD DUP2 DUP4 DUP8 DUP1 EXTCODESIZE ISZERO DUP1 ISZERO PUSH2 0x991 JUMPI PUSH1 0x0 DUP1 REVERT JUMPDEST POP GAS CALL ISZERO DUP1 ISZERO PUSH2 0x9A5 JUMPI RETURNDATASIZE PUSH1 0x0 DUP1 RETURNDATACOPY RETURNDATASIZE PUSH1 0x0 REVERT JUMPDEST POP POP PUSH1 0x40 DUP1 MLOAD PUSH32 0xAFD925DF00000000000000000000000000000000000000000000000000000000 DUP2 MSTORE PUSH20 0xFFFFFFFFFFFFFFFFFFFFFFFFFFFFFFFFFFFFFFFF DUP12 DUP2 AND PUSH1 0x4 DUP4 ADD MSTORE DUP9 AND PUSH1 0x24 DUP3 ADD DUP2 SWAP1 MSTORE PUSH1 0x44 DUP3 ADD DUP9 SWAP1 MSTORE SWAP2 MLOAD SWAP2 SWAP4 POP PUSH4 0xAFD925DF SWAP3 POP PUSH1 0x64 DUP1 DUP3 ADD SWAP3 PUSH1 0x0 SWAP3 SWAP1 SWAP2 SWAP1 DUP3 SWAP1 SUB ADD DUP2 DUP4 DUP8 DUP1 EXTCODESIZE ISZERO DUP1 ISZERO PUSH2 0xA28 JUMPI PUSH1 0x0 DUP1 REVERT JUMPDEST POP GAS CALL ISZERO DUP1 ISZERO PUSH2 0xA3C JUMPI RETURNDATASIZE PUSH1 0x0 DUP1 RETURNDATACOPY RETURNDATASIZE PUSH1 0x0 REVERT JUMPDEST POP POP POP POP JUMPDEST PUSH1 0x40 DUP1 MLOAD PUSH20 0xFFFFFFFFFFFFFFFFFFFFFFFFFFFFFFFFFFFFFFFF DUP8 AND DUP2 MSTORE SWAP1 MLOAD PUSH32 0x3A7EB042A769ADF51E9BE78B68ED7AF0AD7B379246536EFC376ED2CA01238282 SWAP2 DUP2 SWAP1 SUB PUSH1 0x20 ADD SWAP1 LOG1 POP SWAP3 SWAP6 SWAP5 POP POP POP POP POP JUMP JUMPDEST PUSH1 0x2 SLOAD PUSH20 0xFFFFFFFFFFFFFFFFFFFFFFFFFFFFFFFFFFFFFFFF AND DUP2 JUMP JUMPDEST PUSH1 0x0 SLOAD PUSH20 0xFFFFFFFFFFFFFFFFFFFFFFFFFFFFFFFFFFFFFFFF AND DUP2 JUMP JUMPDEST PUSH1 0x40 MLOAD PUSH2 0x4DE DUP1 PUSH2 0xADE DUP4 CODECOPY ADD SWAP1 JUMP STOP PUSH1 0x80 PUSH1 0x40 MSTORE CALLVALUE DUP1 ISZERO PUSH2 0x10 JUMPI PUSH1 0x0 DUP1 REVERT JUMPDEST POP PUSH1 0x40 MLOAD PUSH1 0x20 DUP1 PUSH2 0x4DE DUP4 CODECOPY DUP2 ADD PUSH1 0x40 MSTORE MLOAD PUSH2 0x34 DUP2 PUSH5 0x100000000 PUSH2 0x120 DUP2 MUL DIV JUMP JUMPDEST ISZERO ISZERO PUSH2 0x3F JUMPI PUSH1 0x0 DUP1 REVERT JUMPDEST PUSH32 0x3B4BF6BF3AD5000ECF0F989D5BEFDE585C6860FEA3E574A4FAB4C49D1C177D9C PUSH1 0x0 DUP2 SWAP1 MSTORE PUSH32 0xC67454ED56DB7FF90A4BB32FC9A8DE1AB3174B221E5FECEA22B7503A3111791F PUSH1 0x20 SWAP1 DUP2 MSTORE PUSH32 0x8E2ED18767E9C33B25344C240CDF92034FAE56BE99E2C07F3D9946D949FFEDE4 DUP1 SLOAD PUSH1 0x1 PUSH1 0xA0 PUSH1 0x2 EXP SUB NOT AND PUSH1 0x1 PUSH1 0xA0 PUSH1 0x2 EXP SUB DUP6 AND SWAP1 DUP2 OR SWAP1 SWAP2 SSTORE PUSH1 0x40 DUP1 MLOAD SWAP2 DUP3 MSTORE MLOAD PUSH32 0xC681A85306374A5AB27F0BBC385296A54BCD314A1948B6CF61C4EA1BC44BB9F8 SWAP3 PUSH32 0x2EC1AE0A449B7AE354B9DACFB3ADE6B6332BA26B7FCBB935835FA39DD7263B23 SWAP3 DUP3 SWAP1 SUB ADD SWAP1 LOG3 POP PUSH2 0x14D JUMP JUMPDEST PUSH1 0x0 DUP1 PUSH1 0x1 PUSH1 0xA0 PUSH1 0x2 EXP SUB DUP4 AND ISZERO ISZERO PUSH2 0x13C JUMPI PUSH1 0x0 SWAP2 POP PUSH2 0x147 JUMP JUMPDEST DUP3 EXTCODESIZE SWAP1 POP PUSH1 0x0 DUP2 GT SWAP2 POP JUMPDEST POP SWAP2 SWAP1 POP JUMP JUMPDEST PUSH2 0x382 DUP1 PUSH2 0x15C PUSH1 0x0 CODECOPY PUSH1 0x0 RETURN STOP PUSH1 0x80 PUSH1 0x40 MSTORE PUSH1 0x4 CALLDATASIZE LT PUSH2 0x6C JUMPI PUSH4 0xFFFFFFFF PUSH29 0x100000000000000000000000000000000000000000000000000000000 PUSH1 0x0 CALLDATALOAD DIV AND PUSH4 0x4555D5C9 DUP2 EQ PUSH2 0x12B JUMPI DUP1 PUSH4 0x4558850C EQ PUSH2 0x152 JUMPI DUP1 PUSH4 0x48A0C8DD EQ PUSH2 0x196 JUMPI DUP1 PUSH4 0x5C60DA1B EQ PUSH2 0x1BF JUMPI DUP1 PUSH4 0x86070CFE EQ PUSH2 0x1D4 JUMPI JUMPDEST PUSH2 0x2710 PUSH32 0x665FD576FBBE6F247AFF98F5C94A561E3F71EC2D3C988D56F12D342396C50CEA PUSH1 0x0 DUP3 GAS LT ISZERO PUSH2 0xE1 JUMPI PUSH1 0x0 CALLVALUE GT CALLDATASIZE ISZERO DUP4 SLOAD AND AND ISZERO PUSH2 0xDC JUMPI PUSH1 0x40 MLOAD CALLER DUP2 MSTORE CALLVALUE PUSH1 0x20 DUP3 ADD MSTORE PUSH32 0x15EEAA57C7BD188C1388020BCADC2C436EC60D647D36EF5B9EB3C742217DDEE1 PUSH1 0x40 DUP3 LOG1 STOP JUMPDEST PUSH1 0x0 DUP1 REVERT JUMPDEST PUSH2 0xE9 PUSH2 0x1E9 JUMP JUMPDEST SWAP1 POP PUSH2 0x126 DUP2 PUSH1 0x0 CALLDATASIZE DUP1 DUP1 PUSH1 0x1F ADD PUSH1 0x20 DUP1 SWAP2 DIV MUL PUSH1 0x20 ADD PUSH1 0x40 MLOAD SWAP1 DUP2 ADD PUSH1 0x40 MSTORE DUP1 SWAP4 SWAP3 SWAP2 SWAP1 DUP2 DUP2 MSTORE PUSH1 0x20 ADD DUP4 DUP4 DUP1 DUP3 DUP5 CALLDATACOPY POP PUSH2 0x26C SWAP5 POP POP POP POP POP JUMP JUMPDEST POP POP POP STOP JUMPDEST CALLVALUE DUP1 ISZERO PUSH2 0x137 JUMPI PUSH1 0x0 DUP1 REVERT JUMPDEST POP PUSH2 0x140 PUSH2 0x2AD JUMP JUMPDEST PUSH1 0x40 DUP1 MLOAD SWAP2 DUP3 MSTORE MLOAD SWAP1 DUP2 SWAP1 SUB PUSH1 0x20 ADD SWAP1 RETURN JUMPDEST CALLVALUE DUP1 ISZERO PUSH2 0x15E JUMPI PUSH1 0x0 DUP1 REVERT JUMPDEST POP PUSH2 0x16D PUSH1 0x4 CALLDATALOAD PUSH1 0x24 CALLDATALOAD PUSH2 0x2B2 JUMP JUMPDEST PUSH1 0x40 DUP1 MLOAD PUSH20 0xFFFFFFFFFFFFFFFFFFFFFFFFFFFFFFFFFFFFFFFF SWAP1 SWAP3 AND DUP3 MSTORE MLOAD SWAP1 DUP2 SWAP1 SUB PUSH1 0x20 ADD SWAP1 RETURN JUMPDEST CALLVALUE DUP1 ISZERO PUSH2 0x1A2 JUMPI PUSH1 0x0 DUP1 REVERT JUMPDEST POP PUSH2 0x1AB PUSH2 0x2E2 JUMP JUMPDEST PUSH1 0x40 DUP1 MLOAD SWAP2 ISZERO ISZERO DUP3 MSTORE MLOAD SWAP1 DUP2 SWAP1 SUB PUSH1 0x20 ADD SWAP1 RETURN JUMPDEST CALLVALUE DUP1 ISZERO PUSH2 0x1CB JUMPI PUSH1 0x0 DUP1 REVERT JUMPDEST POP PUSH2 0x16D PUSH2 0x1E9 JUMP JUMPDEST CALLVALUE DUP1 ISZERO PUSH2 0x1E0 JUMPI PUSH1 0x0 DUP1 REVERT JUMPDEST POP PUSH2 0x140 PUSH2 0x312 JUMP JUMPDEST PUSH32 0x3B4BF6BF3AD5000ECF0F989D5BEFDE585C6860FEA3E574A4FAB4C49D1C177D9C PUSH1 0x0 MSTORE PUSH32 0xC67454ED56DB7FF90A4BB32FC9A8DE1AB3174B221E5FECEA22B7503A3111791F PUSH1 0x20 MSTORE PUSH32 0x8E2ED18767E9C33B25344C240CDF92034FAE56BE99E2C07F3D9946D949FFEDE4 SLOAD PUSH20 0xFFFFFFFFFFFFFFFFFFFFFFFFFFFFFFFFFFFFFFFF AND SWAP1 JUMP JUMPDEST PUSH1 0x0 PUSH2 0x277 DUP4 PUSH2 0x318 JUMP JUMPDEST ISZERO ISZERO PUSH2 0x282 JUMPI PUSH1 0x0 DUP1 REVERT JUMPDEST PUSH2 0x2710 SWAP1 POP PUSH1 0x0 DUP1 DUP4 MLOAD PUSH1 0x20 DUP6 ADD DUP7 DUP6 GAS SUB DELEGATECALL RETURNDATASIZE PUSH1 0x40 MLOAD DUP2 PUSH1 0x0 DUP3 RETURNDATACOPY DUP3 DUP1 ISZERO PUSH2 0x2A9 JUMPI DUP3 DUP3 RETURN JUMPDEST DUP3 DUP3 REVERT JUMPDEST PUSH1 0x2 SWAP1 JUMP JUMPDEST PUSH1 0x0 PUSH1 0x20 DUP2 DUP2 MSTORE SWAP3 DUP2 MSTORE PUSH1 0x40 DUP1 DUP3 KECCAK256 SWAP1 SWAP4 MSTORE SWAP1 DUP2 MSTORE KECCAK256 SLOAD PUSH20 0xFFFFFFFFFFFFFFFFFFFFFFFFFFFFFFFFFFFFFFFF AND DUP2 JUMP JUMPDEST PUSH1 0x0 PUSH2 0x30D PUSH32 0x665FD576FBBE6F247AFF98F5C94A561E3F71EC2D3C988D56F12D342396C50CEA PUSH2 0x352 JUMP JUMPDEST SWAP1 POP SWAP1 JUMP JUMPDEST PUSH1 0x1 SLOAD DUP2 JUMP JUMPDEST PUSH1 0x0 DUP1 PUSH20 0xFFFFFFFFFFFFFFFFFFFFFFFFFFFFFFFFFFFFFFFF DUP4 AND ISZERO ISZERO PUSH2 0x341 JUMPI PUSH1 0x0 SWAP2 POP PUSH2 0x34C JUMP JUMPDEST DUP3 EXTCODESIZE SWAP1 POP PUSH1 0x0 DUP2 GT SWAP2 POP JUMPDEST POP SWAP2 SWAP1 POP JUMP JUMPDEST SLOAD SWAP1 JUMP STOP LOG1 PUSH6 0x627A7A723058 KECCAK256 PUSH23 0xAB69A1E028F60B3B4F2B099283FE071428F123D72DC852 SWAP16 0xc5 GASLIMIT 0x3f DIFFICULTY 0xc2 SWAP9 DUP9 STOP 0x29 LOG1 PUSH6 0x627A7A723058 KECCAK256 GASPRICE SWAP6 0x2f 0xa9 0xe6 0xed DUP10 0x26 CALLVALUE 0x5d DUP12 PUSH3 0x5CCADB 0xbf 0xdb 0x25 SMOD 0x5e CODESIZE PUSH12 0x9CC3AAB6F946F9B717E80029 "
		},
		"gasEstimates": {
			"creation": {
				"codeDepositCost": "814200",
				"executionCost": "62007",
				"totalCost": "876207"
			},
			"external": {
				"baseACL()": "399",
				"baseKernel()": "465",
				"newDAO(address)": "infinite",
				"regFactory()": "443"
			}
		},
		"methodIdentifiers": {
			"baseACL()": "086b339e",
			"baseKernel()": "b16dd130",
			"newDAO(address)": "21687444",
			"regFactory()": "656362b5"
		}
	},
	"abi": [
		{
			"constant": true,
			"inputs": [],
			"name": "baseACL",
			"outputs": [
				{
					"name": "",
					"type": "address"
				}
			],
			"payable": false,
			"stateMutability": "view",
			"type": "function"
		},
		{
			"constant": false,
			"inputs": [
				{
					"name": "_root",
					"type": "address"
				}
			],
			"name": "newDAO",
			"outputs": [
				{
					"name": "",
					"type": "address"
				}
			],
			"payable": false,
			"stateMutability": "nonpayable",
			"type": "function"
		},
		{
			"constant": true,
			"inputs": [],
			"name": "regFactory",
			"outputs": [
				{
					"name": "",
					"type": "address"
				}
			],
			"payable": false,
			"stateMutability": "view",
			"type": "function"
		},
		{
			"constant": true,
			"inputs": [],
			"name": "baseKernel",
			"outputs": [
				{
					"name": "",
					"type": "address"
				}
			],
			"payable": false,
			"stateMutability": "view",
			"type": "function"
		},
		{
			"inputs": [
				{
					"name": "_baseKernel",
					"type": "address"
				},
				{
					"name": "_baseACL",
					"type": "address"
				},
				{
					"name": "_regFactory",
					"type": "address"
				}
			],
			"payable": false,
			"stateMutability": "nonpayable",
			"type": "constructor"
		},
		{
			"anonymous": false,
			"inputs": [
				{
					"indexed": false,
					"name": "dao",
					"type": "address"
				}
			],
			"name": "DeployDAO",
			"type": "event"
		},
		{
			"anonymous": false,
			"inputs": [
				{
					"indexed": false,
					"name": "reg",
					"type": "address"
				}
			],
			"name": "DeployEVMScriptRegistry",
			"type": "event"
		}
	]
}