{
	"data": {
		"bytecode": {
			"linkReferences": {},
			"object": "6080604052620000176401000000006200001d810204565b6200023b565b6200003064010000000062000125810204565b60408051808201909152601881527f494e49545f414c52454144595f494e495449414c495a45440000000000000000602082015290156200010c576040517f08c379a00000000000000000000000000000000000000000000000000000000081526004018080602001828103825283818151815260200191508051906020019080838360005b83811015620000d0578181015183820152602001620000b6565b50505050905090810190601f168015620000fe5780820380516001836020036101000a031916815260200191505b509250505060405180910390fd5b506200012360001964010000000062000154810204565b565b60006200014f6000805160206200313d833981519152640100000000620024c56200023382021704565b905090565b6200016764010000000062000125810204565b60408051808201909152601881527f494e49545f414c52454144595f494e495449414c495a454400000000000000006020820152901562000206576040517f08c379a000000000000000000000000000000000000000000000000000000000815260040180806020018281038252838181518152602001915080519060200190808383600083811015620000d0578181015183820152602001620000b6565b50620002306000805160206200313d8339815191528264010000000062002e896200023782021704565b50565b5490565b9055565b612ef2806200024b6000396000f3006080604052600436106101955763ffffffff7c01000000000000000000000000000000000000000000000000000000006000350416630803fac0811461019a5780630808343e146101c357806309699ff5146101f65780630a8ed3db1461022757806315949ed71461025e5780631b5e75be146102a75780631d63ff2b146103295780632914b9bd1461033e57806332f0a3b5146103c05780633d6ab68f146103d55780636815c992146103ea5780636d6712d81461046b5780637e7db6e1146104a257806380afdea8146104d05780638b3dd749146104e55780639d0effdb146104fa5780639d4941d814610531578063a03c58321461055f578063a1658fad146105dd578063a479e50814610651578063a5ed8bf814610666578063a885508a1461067b578063afd925df146106ac578063b1905727146106e3578063be03847814610714578063c4d66de814610752578063c513f66e14610780578063d4aae0c414610795578063de4796ed146107aa578063f516bc0e146107bf578063f520b58d146107d4578063fdef910614610855575b600080fd5b3480156101a657600080fd5b506101af6108d1565b604080519115158252519081900360200190f35b3480156101cf57600080fd5b506101f473ffffffffffffffffffffffffffffffffffffffff600435166024356108fa565b005b34801561020257600080fd5b506101f473ffffffffffffffffffffffffffffffffffffffff60043516602435610aee565b34801561023357600080fd5b506101f473ffffffffffffffffffffffffffffffffffffffff60043581169060243516604435610bc0565b34801561026a57600080fd5b5061029573ffffffffffffffffffffffffffffffffffffffff60043581169060243516604435610bfc565b60408051918252519081900360200190f35b3480156102b357600080fd5b5060408051602060046084358181013583810280860185019096528085526101af958335956024803573ffffffffffffffffffffffffffffffffffffffff9081169760443590911696606435963696919560a495949091019282919085019084908082843750949750610c3e9650505050505050565b34801561033557600080fd5b50610295610c8b565b34801561034a57600080fd5b506040805160206004803580820135601f8101849004840285018401909552848452610397943694929360249392840191908190840183828082843750949750610c909650505050505050565b6040805173ffffffffffffffffffffffffffffffffffffffff9092168252519081900360200190f35b3480156103cc57600080fd5b50610397610d9c565b3480156103e157600080fd5b50610295610e3a565b3480156103f657600080fd5b5060408051606435600481810135602081810285810182019096528185526101f49573ffffffffffffffffffffffffffffffffffffffff84358116966024803590921696604435963696909560849593949290920192909182919085019084908082843750949750610e5e9650505050505050565b34801561047757600080fd5b506101af73ffffffffffffffffffffffffffffffffffffffff60043581169060243516604435610f6f565b3480156104ae57600080fd5b506101af73ffffffffffffffffffffffffffffffffffffffff60043516610f96565b3480156104dc57600080fd5b50610295610f9c565b3480156104f157600080fd5b50610295610fcc565b34801561050657600080fd5b506101f473ffffffffffffffffffffffffffffffffffffffff60043581169060243516604435610ff7565b34801561053d57600080fd5b506101f473ffffffffffffffffffffffffffffffffffffffff600435166110c4565b34801561056b57600080fd5b5061059973ffffffffffffffffffffffffffffffffffffffff600435811690602435166044356064356113e6565b6040805160ff94851681529290931660208301527dffffffffffffffffffffffffffffffffffffffffffffffffffffffffffff168183015290519081900360600190f35b3480156105e957600080fd5b5060408051602060046044358181013583810280860185019096528085526101af95833573ffffffffffffffffffffffffffffffffffffffff1695602480359636969560649593949201929182918501908490808284375094975061147b9650505050505050565b34801561065d57600080fd5b50610397611609565b34801561067257600080fd5b506103976116cb565b34801561068757600080fd5b506101f473ffffffffffffffffffffffffffffffffffffffff600435166024356116ef565b3480156106b857600080fd5b506101f473ffffffffffffffffffffffffffffffffffffffff600435811690602435166044356117bb565b3480156106ef57600080fd5b5061039773ffffffffffffffffffffffffffffffffffffffff60043516602435611886565b34801561072057600080fd5b506101f473ffffffffffffffffffffffffffffffffffffffff60043581169060243581169060443590606435166118c4565b34801561075e57600080fd5b506101f473ffffffffffffffffffffffffffffffffffffffff60043516611a73565b34801561078c57600080fd5b50610295611c0b565b3480156107a157600080fd5b50610397611c2f565b3480156107b657600080fd5b506101af611c5a565b3480156107cb57600080fd5b50610397611c8b565b3480156107e057600080fd5b5060408051606435600481810135602081810285810182019096528185526101af9573ffffffffffffffffffffffffffffffffffffffff84358116966024803590921696604435963696909560849593949290920192909182919085019084908082843750949750611c909650505050505050565b34801561086157600080fd5b50604080516020601f6064356004818101359283018490048402850184019095528184526101af9473ffffffffffffffffffffffffffffffffffffffff8135811695602480359092169560443595369560849401918190840183828082843750949750611d709650505050505050565b6000806108dc610fcc565b905080158015906108f45750806108f1611d86565b10155b91505090565b604080516000808252602082019092527f0b719b33c83b8e5d300c521cb8b54ae9bd933996a14bef8c2f4e0285d2d2400a9161093c9133918491905b5061147b565b60408051808201909152600f81527f4150505f415554485f4641494c454400000000000000000000000000000000006020820152901515610a15576040517f08c379a00000000000000000000000000000000000000000000000000000000081526004018080602001828103825283818151815260200191508051906020019080838360005b838110156109da5781810151838201526020016109c2565b50505050905090810190601f168015610a075780820380516001836020036101000a031916815260200191505b509250505060405180910390fd5b5082826000610a248383611886565b73ffffffffffffffffffffffffffffffffffffffff16146040805190810160405280601481526020017f41434c5f4558495354454e545f4d414e41474552000000000000000000000000815250901515610ada576040517f08c379a0000000000000000000000000000000000000000000000000000000008152600401808060200182810382528381815181526020019150805190602001908083836000838110156109da5781810151838201526020016109c2565b50610ae760018686611d8a565b5050505050565b8181610afa8282611886565b60408051808201909152601381527f41434c5f415554485f4e4f5f4d414e414745520000000000000000000000000060208201529073ffffffffffffffffffffffffffffffffffffffff163314610bad576040517f08c379a0000000000000000000000000000000000000000000000000000000008152600401808060200182810382528381815181526020019150805190602001908083836000838110156109da5781810151838201526020016109c2565b50610bba60018585611d8a565b50505050565b610bf78383836000604051908082528060200260200182016040528015610bf1578160200160208202803883390190505b50610e5e565b505050565b600060016000806000610c10888888611e21565b81526020808201929092526040908101600090812054845291830193909352910190205490505b9392505050565b60007f290decd9548b62a8d60345a988386fc84ba6bc95484008f6362f93160ef3e563861415610c7057506001610c82565b610c7f86600087878787611f3e565b90505b95945050505050565b600081565b6000610c9a611609565b73ffffffffffffffffffffffffffffffffffffffff166304bf2a7f836040518263ffffffff167c01000000000000000000000000000000000000000000000000000000000281526004018080602001828103825283818151815260200191508051906020019080838360005b83811015610d1e578181015183820152602001610d06565b50505050905090810190601f168015610d4b5780820380516001836020036101000a031916815260200191505b5092505050602060405180830381600087803b158015610d6a57600080fd5b505af1158015610d7e573d6000803e3d6000fd5b505050506040513d6020811015610d9457600080fd5b505192915050565b6000610da6611c2f565b73ffffffffffffffffffffffffffffffffffffffff166332f0a3b56040518163ffffffff167c0100000000000000000000000000000000000000000000000000000000028152600401602060405180830381600087803b158015610e0957600080fd5b505af1158015610e1d573d6000803e3d6000fd5b505050506040513d6020811015610e3357600080fd5b5051905090565b7f0b719b33c83b8e5d300c521cb8b54ae9bd933996a14bef8c2f4e0285d2d2400a81565b60008383610e6c8282611886565b60408051808201909152601381527f41434c5f415554485f4e4f5f4d414e414745520000000000000000000000000060208201529073ffffffffffffffffffffffffffffffffffffffff163314610f1f576040517f08c379a0000000000000000000000000000000000000000000000000000000008152600401808060200182810382528381815181526020019150805190602001908083836000838110156109da5781810151838201526020016109c2565b506000845111610f4f577f290decd9548b62a8d60345a988386fc84ba6bc95484008f6362f93160ef3e563610f58565b610f5884612187565b9250610f66878787866123b7565b50505050505050565b60408051600080825260208201909252610f8b85858584611c90565b91505b509392505050565b50600190565b6000610fc77fd625496217aa6a3453eecb9c3489dc5a53e6c67b444329ea2b2cbc9ff547639b6124c5565b905090565b6000610fc77febb05b386a8d34882b8711d156f463690983dc47815980fb82aeeff1aa43579e6124c5565b81816110038282611886565b60408051808201909152601381527f41434c5f415554485f4e4f5f4d414e414745520000000000000000000000000060208201529073ffffffffffffffffffffffffffffffffffffffff1633146110b6576040517f08c379a0000000000000000000000000000000000000000000000000000000008152600401808060200182810382528381815181526020019150805190602001908083836000838110156109da5781810151838201526020016109c2565b50610ae785858560006123b7565b60008060006110d284610f96565b60408051808201909152601281527f5245434f5645525f444953414c4c4f5745440000000000000000000000000000602082015290151561116f576040517f08c379a0000000000000000000000000000000000000000000000000000000008152600401808060200182810382528381815181526020019150805190602001908083836000838110156109da5781810151838201526020016109c2565b50611178610d9c565b9250611183836124cd565b60408051808201909152601a81527f5245434f5645525f5641554c545f4e4f545f434f4e54524143540000000000006020820152901515611220576040517f08c379a0000000000000000000000000000000000000000000000000000000008152600401808060200182810382528381815181526020019150805190602001908083836000838110156109da5781810151838201526020016109c2565b5073ffffffffffffffffffffffffffffffffffffffff8416151561128b576040513031925073ffffffffffffffffffffffffffffffffffffffff84169083156108fc029084906000818181858888f19350505050158015611285573d6000803e3d6000fd5b5061137b565b50826112b373ffffffffffffffffffffffffffffffffffffffff82163063ffffffff61250716565b91506112dc73ffffffffffffffffffffffffffffffffffffffff8216848463ffffffff61264016565b60408051808201909152601d81527f5245434f5645525f544f4b454e5f5452414e534645525f4641494c45440000006020820152901515611379576040517f08c379a0000000000000000000000000000000000000000000000000000000008152600401808060200182810382528381815181526020019150805190602001908083836000838110156109da5781810151838201526020016109c2565b505b8373ffffffffffffffffffffffffffffffffffffffff168373ffffffffffffffffffffffffffffffffffffffff167f596caf56044b55fb8c4ca640089bbc2b63cae3e978b851f5745cbb7c5b288e02846040518082815260200191505060405180910390a350505050565b600080600080600160008060006113fe8c8c8c611e21565b815260208082019290925260409081016000908120548452918301939093529101902080548690811061142d57fe5b60009182526020909120015460ff8082169a61010083049091169950620100009091047dffffffffffffffffffffffffffffffffffffffffffffffffffffffffffff16975095505050505050565b6000806114866108d1565b15156114955760009150610f8e565b61149d611c2f565b905073ffffffffffffffffffffffffffffffffffffffff811615156114c55760009150610f8e565b8073ffffffffffffffffffffffffffffffffffffffff1663fdef91068630876114ed886126cf565b6040517c010000000000000000000000000000000000000000000000000000000063ffffffff871602815273ffffffffffffffffffffffffffffffffffffffff808616600483019081529085166024830152604482018490526080606483019081528351608484015283519192909160a490910190602085019080838360005b8381101561158557818101518382015260200161156d565b50505050905090810190601f1680156115b25780820380516001836020036101000a031916815260200191505b5095505050505050602060405180830381600087803b1580156115d457600080fd5b505af11580156115e8573d6000803e3d6000fd5b505050506040513d60208110156115fe57600080fd5b505195945050505050565b600080611614611c2f565b604080517fbe00bbd80000000000000000000000000000000000000000000000000000000081527fd6f028ca0e8edb4a8c9757ca4fdccab25fa1e0317da1188108f7d2dee14902fb60048201527fddbcfd564f642ab5627cf68b9b7d374fb4f8a36e941a75d89c87998cef03bd616024820152905173ffffffffffffffffffffffffffffffffffffffff929092169163be00bbd8916044808201926020929091908290030181600087803b158015610d6a57600080fd5b7fffffffffffffffffffffffffffffffffffffffffffffffffffffffffffffffff81565b81816116fb8282611886565b60408051808201909152601381527f41434c5f415554485f4e4f5f4d414e414745520000000000000000000000000060208201529073ffffffffffffffffffffffffffffffffffffffff1633146117ae576040517f08c379a0000000000000000000000000000000000000000000000000000000008152600401808060200182810382528381815181526020019150805190602001908083836000838110156109da5781810151838201526020016109c2565b50610bba60008585611d8a565b81816117c78282611886565b60408051808201909152601381527f41434c5f415554485f4e4f5f4d414e414745520000000000000000000000000060208201529073ffffffffffffffffffffffffffffffffffffffff16331461187a576040517f08c379a0000000000000000000000000000000000000000000000000000000008152600401808060200182810382528381815181526020019150805190602001908083836000838110156109da5781810151838201526020016109c2565b50610ae7858585611d8a565b60006002600061189685856126d9565b815260208101919091526040016000205473ffffffffffffffffffffffffffffffffffffffff169392505050565b604080516000808252602082019092527f0b719b33c83b8e5d300c521cb8b54ae9bd933996a14bef8c2f4e0285d2d2400a91611904913391849190610936565b60408051808201909152600f81527f4150505f415554485f4641494c4544000000000000000000000000000000000060208201529015156119a1576040517f08c379a0000000000000000000000000000000000000000000000000000000008152600401808060200182810382528381815181526020019150805190602001908083836000838110156109da5781810151838201526020016109c2565b50838360006119b08383611886565b73ffffffffffffffffffffffffffffffffffffffff16146040805190810160405280601481526020017f41434c5f4558495354454e545f4d414e41474552000000000000000000000000815250901515611a66576040517f08c379a0000000000000000000000000000000000000000000000000000000008152600401808060200182810382528381815181526020019150805190602001908083836000838110156109da5781810151838201526020016109c2565b50610f66878787876127eb565b611a7b610fcc565b60408051808201909152601881527f494e49545f414c52454144595f494e495449414c495a4544000000000000000060208201529015611b17576040517f08c379a0000000000000000000000000000000000000000000000000000000008152600401808060200182810382528381815181526020019150805190602001908083836000838110156109da5781810151838201526020016109c2565b50611b20612822565b611b28611c2f565b60408051808201909152601481527f41434c5f415554485f494e49545f4b45524e454c00000000000000000000000060208201529073ffffffffffffffffffffffffffffffffffffffff163314611bdb576040517f08c379a0000000000000000000000000000000000000000000000000000000008152600401808060200182810382528381815181526020019150805190602001908083836000838110156109da5781810151838201526020016109c2565b50611c0881307f0b719b33c83b8e5d300c521cb8b54ae9bd933996a14bef8c2f4e0285d2d2400a826127eb565b50565b7f290decd9548b62a8d60345a988386fc84ba6bc95484008f6362f93160ef3e56381565b6000610fc77f4172f0f7d2289153072b0a6ca36959e0cbe2efc3afe50fc81636caa96338137b6124c5565b60007fffffffffffffffffffffffffffffffffffffffffffffffffffffffffffffffff611c85610fcc565b14905090565b600181565b6000806000806000611ca3898989611e21565b815260208101919091526040016000205491508115801590611ccd5750611ccd8288888888610c3e565b15611cdb5760019250611d66565b600080611d097fffffffffffffffffffffffffffffffffffffffffffffffffffffffffffffffff8989611e21565b815260208101919091526040016000205490508015801590611d535750611d53817fffffffffffffffffffffffffffffffffffffffffffffffffffffffffffffffff888888610c3e565b15611d615760019250611d66565b600092505b5050949350505050565b6000610c82858585611d8186612901565b611c90565b4390565b8260026000611d9985856126d9565b815260208101919091526040908101600090812080547fffffffffffffffffffffffff00000000000000000000000000000000000000001673ffffffffffffffffffffffffffffffffffffffff9485161790559051858316928492908616917ff3addc8b8e25ee11528a61b0e65092cae0666ef0ec0c64cb303993c88d689b4d9190a4505050565b604080517f5045524d495353494f4e000000000000000000000000000000000000000000006020808301919091526c0100000000000000000000000073ffffffffffffffffffffffffffffffffffffffff8088168202602a850152861602603e8301526052808301859052835180840390910181526072909201928390528151600093918291908401908083835b60208310611eec57805182527fffffffffffffffffffffffffffffffffffffffffffffffffffffffffffffffe09092019160209182019101611eaf565b5181516020939093036101000a7fffffffffffffffffffffffffffffffffffffffffffffffffffffffffffffffff01801990911692169190911790526040519201829003909120979650505050505050565b6000611f48612ea6565b600088815260016020526040812054819063ffffffff8a1610611f6e576000935061217a565b60008a8152600160205260409020805463ffffffff8b16908110611f8e57fe5b600091825260209182902060408051606081018252929091015460ff8082168085526101008304909116948401949094526201000090047dffffffffffffffffffffffffffffffffffffffffffffffffffffffffffff1690820152935060cc141561200857612001838b8a8a8a8a6129c2565b935061217a565b50604082015182517dffffffffffffffffffffffffffffffffffffffffffffffffffffffffffff9091169060ff1660cb141561206b5761204f836040015189898989612b95565b61205a57600061205d565b60015b60ff16915060019050612129565b825160ff1660c8141561208757612080611d86565b9150612129565b825160ff1660c9141561209c57612080612cfe565b825160ff1660cd14156120d55782604001517dffffffffffffffffffffffffffffffffffffffffffffffffffffffffffff169150612129565b8451835160ff16106120ea576000935061217a565b82518551869160ff169081106120fc57fe5b906020019060200201517dffffffffffffffffffffffffffffffffffffffffffffffffffffffffffff1691505b6007836020015160ff16600c81111561213e57fe5b600c81111561214957fe5b141561215a5760008211935061217a565b61217782846020015160ff16600c81111561217157fe5b83612d02565b93505b5050509695505050505050565b6000806000806000612197612ea6565b8660405160200180828051906020019060200280838360005b838110156121c85781810151838201526020016121b0565b505050509050019150506040516020818303038152906040526040518082805190602001908083835b6020831061222e57805182527fffffffffffffffffffffffffffffffffffffffffffffffffffffffffffffffe090920191602091820191016121f1565b51815160209384036101000a7fffffffffffffffffffffffffffffffffffffffffffffffffffffffffffffffff01801990921691161790526040805192909401829003909120600081815260019092529290208054929950975050151591506123ac905057600092505b86518310156123ac5786838151811015156122af57fe5b9060200190602002015191506060604051908101604052806122d084612dbf565b60ff1681526020016122e184612de5565b60ff90811682527dffffffffffffffffffffffffffffffffffffffffffffffffffffffffffff858116602093840152875460018082018a5560008a81528590208651920180549587015160408801517fffffffffffffffffffffffffffffffffffffffffffffffffffffffffffffff00909716938616939093177fffffffffffffffffffffffffffffffffffffffffffffffffffffffffffff00ff1661010093909516929092029390931761ffff166201000094909216939093021790915593909301929050612298565b509295945050505050565b600080826000806123c9898989611e21565b8152602081019190915260400160002055821580159250829061240c57507f290decd9548b62a8d60345a988386fc84ba6bc95484008f6362f93160ef3e5638314155b6040805184151581529051919250859173ffffffffffffffffffffffffffffffffffffffff80891692908a16917f759b9a74d5354b5801710a0c1b283cc9f0d32b607ac8ced10c83ac8e75c77d529181900360200190a480156124bd57604080518481529051859173ffffffffffffffffffffffffffffffffffffffff80891692908a16917f8dfee25d92d73b8c9b868f9fa3e215cc1981033f426e53803e3da4f09a2cfc30919081900360200190a45b505050505050565b5490565b5490565b60008073ffffffffffffffffffffffffffffffffffffffff831615156124f65760009150612501565b823b90506000811191505b50919050565b6040805173ffffffffffffffffffffffffffffffffffffffff83166024808301919091528251808303909101815260449091019091526020810180517bffffffffffffffffffffffffffffffffffffffffffffffffffffffff167f70a082310000000000000000000000000000000000000000000000000000000017905260009081806125948684612e0a565b60408051808201909152601c81527f534146455f4552435f32305f42414c414e43455f52455645525445440000000060208201529193509150821515612636576040517f08c379a0000000000000000000000000000000000000000000000000000000008152600401808060200182810382528381815181526020019150805190602001908083836000838110156109da5781810151838201526020016109c2565b5095945050505050565b6040805173ffffffffffffffffffffffffffffffffffffffff8416602482015260448082018490528251808303909101815260649091019091526020810180517bffffffffffffffffffffffffffffffffffffffffffffffffffffffff167fa9059cbb00000000000000000000000000000000000000000000000000000000179052600090610f8b8582612e3b565b8051602002815290565b604080517f524f4c45000000000000000000000000000000000000000000000000000000006020808301919091526c0100000000000000000000000073ffffffffffffffffffffffffffffffffffffffff86160260248301526038808301859052835180840390910181526058909201928390528151600093918291908401908083835b6020831061279a57805182527fffffffffffffffffffffffffffffffffffffffffffffffffffffffffffffffe0909201916020918201910161275d565b5181516020939093036101000a7fffffffffffffffffffffffffffffffffffffffffffffffffffffffffffffffff018019909116921691909117905260405192018290039091209695505050505050565b6128178484847f290decd9548b62a8d60345a988386fc84ba6bc95484008f6362f93160ef3e5636123b7565b610bba818484611d8a565b61282a610fcc565b60408051808201909152601881527f494e49545f414c52454144595f494e495449414c495a45440000000000000000602082015290156128c6576040517f08c379a0000000000000000000000000000000000000000000000000000000008152600401808060200182810382528381815181526020019150805190602001908083836000838110156109da5781810151838201526020016109c2565b506128ff6128d2611d86565b7febb05b386a8d34882b8711d156f463690983dc47815980fb82aeeff1aa43579e9063ffffffff612e8916565b565b606060006020835181151561291257fe5b049050806020028351146040805190810160405280601a81526020017f434f4e56455253494f4e5f494d50524f5045525f4c454e4754480000000000008152509015156129bb576040517f08c379a0000000000000000000000000000000000000000000000000000000008152600401808060200182810382528381815181526020019150805190602001908083836000838110156109da5781810151838201526020016109c2565b5082525090565b60008080808080808080600c8f6020015160ff16600c8111156129e157fe5b600c8111156129ec57fe5b1415612a5757612a1f8f604001517dffffffffffffffffffffffffffffffffffffffffffffffffffffffffffff16612e8d565b91995097509550612a348e898f8f8f8f611f3e565b9450612a508e86612a455787612a47565b885b8f8f8f8f611f3e565b9850612b83565b612a848f604001517dffffffffffffffffffffffffffffffffffffffffffffffffffffffffffff16612e8d565b509094509250612a988e858f8f8f8f611f3e565b915060088f6020015160ff16600c811115612aaf57fe5b600c811115612aba57fe5b1415612ac95781159850612b83565b818015612af35750600a8f6020015160ff16600c811115612ae657fe5b600c811115612af157fe5b145b15612b015760019850612b83565b81158015612b2c575060098f6020015160ff16600c811115612b1f57fe5b600c811115612b2a57fe5b145b15612b3a5760009850612b83565b612b488e848f8f8f8f611f3e565b9050600b8f6020015160ff16600c811115612b5f57fe5b600c811115612b6a57fe5b1415612b7f5780151582151514159850612b83565b8098505b50505050505050509695505050505050565b60405173ffffffffffffffffffffffffffffffffffffffff85811660248301908152908516604483015260648201849052608060848301908152835160a484015283516000937f2a151090000000000000000000000000000000000000000000000000000000009360609386938493849388938e938e938e938e939092909160c40190602080860191028083838d5b83811015612c3c578181015183820152602001612c24565b5050505090500195505050505050604051602081830303815290604052907bffffffffffffffffffffffffffffffffffffffffffffffffffffffff19166020820180517bffffffffffffffffffffffffffffffffffffffffffffffffffffffff838183161783525050505093506000808551602087018e5afa9250821515612cc75760009550612cf0565b3d915060208214612cdb5760009550612cf0565b604051826000823e8051915060008152508095505b505050505095945050505050565b4290565b6000600183600c811115612d1257fe5b1415612d215750828114610c37565b600283600c811115612d2f57fe5b1415612d3f575082811415610c37565b600383600c811115612d4d57fe5b1415612d5c5750808311610c37565b600483600c811115612d6a57fe5b1415612d795750808310610c37565b600583600c811115612d8757fe5b1415612d97575080831015610c37565b600683600c811115612da557fe5b1415612db5575080831115610c37565b5060009392505050565b7f0100000000000000000000000000000000000000000000000000000000000000900490565b7e01000000000000000000000000000000000000000000000000000000000000900490565b6000806000806040516020818751602089018a5afa92506000831115612e2f57805191505b50909590945092505050565b6000806040516020818551602087016000895af16000811115612e7f573d8015612e6c5760208114612e7557612e7d565b60019350612e7d565b600183511493505b505b5090949350505050565b9055565b9064010000000082049068010000000000000000830490565b6040805160608101825260008082526020820181905291810191909152905600a165627a7a723058203a446a02e780a3dd0a04784aafd54069c9a29895c1ba6a62bb841c8aff9ac18b0029ebb05b386a8d34882b8711d156f463690983dc47815980fb82aeeff1aa43579e",
			"opcodes": "PUSH1 0x80 PUSH1 0x40 MSTORE PUSH3 0x17 PUSH5 0x100000000 PUSH3 0x1D DUP2 MUL DIV JUMP JUMPDEST PUSH3 0x23B JUMP JUMPDEST PUSH3 0x30 PUSH5 0x100000000 PUSH3 0x125 DUP2 MUL DIV JUMP JUMPDEST PUSH1 0x40 DUP1 MLOAD DUP1 DUP3 ADD SWAP1 SWAP2 MSTORE PUSH1 0x18 DUP2 MSTORE PUSH32 0x494E49545F414C52454144595F494E495449414C495A45440000000000000000 PUSH1 0x20 DUP3 ADD MSTORE SWAP1 ISZERO PUSH3 0x10C JUMPI PUSH1 0x40 MLOAD PUSH32 0x8C379A000000000000000000000000000000000000000000000000000000000 DUP2 MSTORE PUSH1 0x4 ADD DUP1 DUP1 PUSH1 0x20 ADD DUP3 DUP2 SUB DUP3 MSTORE DUP4 DUP2 DUP2 MLOAD DUP2 MSTORE PUSH1 0x20 ADD SWAP2 POP DUP1 MLOAD SWAP1 PUSH1 0x20 ADD SWAP1 DUP1 DUP4 DUP4 PUSH1 0x0 JUMPDEST DUP4 DUP2 LT ISZERO PUSH3 0xD0 JUMPI DUP2 DUP2 ADD MLOAD DUP4 DUP3 ADD MSTORE PUSH1 0x20 ADD PUSH3 0xB6 JUMP JUMPDEST POP POP POP POP SWAP1 POP SWAP1 DUP2 ADD SWAP1 PUSH1 0x1F AND DUP1 ISZERO PUSH3 0xFE JUMPI DUP1 DUP3 SUB DUP1 MLOAD PUSH1 0x1 DUP4 PUSH1 0x20 SUB PUSH2 0x100 EXP SUB NOT AND DUP2 MSTORE PUSH1 0x20 ADD SWAP2 POP JUMPDEST POP SWAP3 POP POP POP PUSH1 0x40 MLOAD DUP1 SWAP2 SUB SWAP1 REVERT JUMPDEST POP PUSH3 0x123 PUSH1 0x0 NOT PUSH5 0x100000000 PUSH3 0x154 DUP2 MUL DIV JUMP JUMPDEST JUMP JUMPDEST PUSH1 0x0 PUSH3 0x14F PUSH1 0x0 DUP1 MLOAD PUSH1 0x20 PUSH3 0x313D DUP4 CODECOPY DUP2 MLOAD SWAP2 MSTORE PUSH5 0x100000000 PUSH3 0x24C5 PUSH3 0x233 DUP3 MUL OR DIV JUMP JUMPDEST SWAP1 POP SWAP1 JUMP JUMPDEST PUSH3 0x167 PUSH5 0x100000000 PUSH3 0x125 DUP2 MUL DIV JUMP JUMPDEST PUSH1 0x40 DUP1 MLOAD DUP1 DUP3 ADD SWAP1 SWAP2 MSTORE PUSH1 0x18 DUP2 MSTORE PUSH32 0x494E49545F414C52454144595F494E495449414C495A45440000000000000000 PUSH1 0x20 DUP3 ADD MSTORE SWAP1 ISZERO PUSH3 0x206 JUMPI PUSH1 0x40 MLOAD PUSH32 0x8C379A000000000000000000000000000000000000000000000000000000000 DUP2 MSTORE PUSH1 0x4 ADD DUP1 DUP1 PUSH1 0x20 ADD DUP3 DUP2 SUB DUP3 MSTORE DUP4 DUP2 DUP2 MLOAD DUP2 MSTORE PUSH1 0x20 ADD SWAP2 POP DUP1 MLOAD SWAP1 PUSH1 0x20 ADD SWAP1 DUP1 DUP4 DUP4 PUSH1 0x0 DUP4 DUP2 LT ISZERO PUSH3 0xD0 JUMPI DUP2 DUP2 ADD MLOAD DUP4 DUP3 ADD MSTORE PUSH1 0x20 ADD PUSH3 0xB6 JUMP JUMPDEST POP PUSH3 0x230 PUSH1 0x0 DUP1 MLOAD PUSH1 0x20 PUSH3 0x313D DUP4 CODECOPY DUP2 MLOAD SWAP2 MSTORE DUP3 PUSH5 0x100000000 PUSH3 0x2E89 PUSH3 0x237 DUP3 MUL OR DIV JUMP JUMPDEST POP JUMP JUMPDEST SLOAD SWAP1 JUMP JUMPDEST SWAP1 SSTORE JUMP JUMPDEST PUSH2 0x2EF2 DUP1 PUSH3 0x24B PUSH1 0x0 CODECOPY PUSH1 0x0 RETURN STOP PUSH1 0x80 PUSH1 0x40 MSTORE PUSH1 0x4 CALLDATASIZE LT PUSH2 0x195 JUMPI PUSH4 0xFFFFFFFF PUSH29 0x100000000000000000000000000000000000000000000000000000000 PUSH1 0x0 CALLDATALOAD DIV AND PUSH4 0x803FAC0 DUP2 EQ PUSH2 0x19A JUMPI DUP1 PUSH4 0x808343E EQ PUSH2 0x1C3 JUMPI DUP1 PUSH4 0x9699FF5 EQ PUSH2 0x1F6 JUMPI DUP1 PUSH4 0xA8ED3DB EQ PUSH2 0x227 JUMPI DUP1 PUSH4 0x15949ED7 EQ PUSH2 0x25E JUMPI DUP1 PUSH4 0x1B5E75BE EQ PUSH2 0x2A7 JUMPI DUP1 PUSH4 0x1D63FF2B EQ PUSH2 0x329 JUMPI DUP1 PUSH4 0x2914B9BD EQ PUSH2 0x33E JUMPI DUP1 PUSH4 0x32F0A3B5 EQ PUSH2 0x3C0 JUMPI DUP1 PUSH4 0x3D6AB68F EQ PUSH2 0x3D5 JUMPI DUP1 PUSH4 0x6815C992 EQ PUSH2 0x3EA JUMPI DUP1 PUSH4 0x6D6712D8 EQ PUSH2 0x46B JUMPI DUP1 PUSH4 0x7E7DB6E1 EQ PUSH2 0x4A2 JUMPI DUP1 PUSH4 0x80AFDEA8 EQ PUSH2 0x4D0 JUMPI DUP1 PUSH4 0x8B3DD749 EQ PUSH2 0x4E5 JUMPI DUP1 PUSH4 0x9D0EFFDB EQ PUSH2 0x4FA JUMPI DUP1 PUSH4 0x9D4941D8 EQ PUSH2 0x531 JUMPI DUP1 PUSH4 0xA03C5832 EQ PUSH2 0x55F JUMPI DUP1 PUSH4 0xA1658FAD EQ PUSH2 0x5DD JUMPI DUP1 PUSH4 0xA479E508 EQ PUSH2 0x651 JUMPI DUP1 PUSH4 0xA5ED8BF8 EQ PUSH2 0x666 JUMPI DUP1 PUSH4 0xA885508A EQ PUSH2 0x67B JUMPI DUP1 PUSH4 0xAFD925DF EQ PUSH2 0x6AC JUMPI DUP1 PUSH4 0xB1905727 EQ PUSH2 0x6E3 JUMPI DUP1 PUSH4 0xBE038478 EQ PUSH2 0x714 JUMPI DUP1 PUSH4 0xC4D66DE8 EQ PUSH2 0x752 JUMPI DUP1 PUSH4 0xC513F66E EQ PUSH2 0x780 JUMPI DUP1 PUSH4 0xD4AAE0C4 EQ PUSH2 0x795 JUMPI DUP1 PUSH4 0xDE4796ED EQ PUSH2 0x7AA JUMPI DUP1 PUSH4 0xF516BC0E EQ PUSH2 0x7BF JUMPI DUP1 PUSH4 0xF520B58D EQ PUSH2 0x7D4 JUMPI DUP1 PUSH4 0xFDEF9106 EQ PUSH2 0x855 JUMPI JUMPDEST PUSH1 0x0 DUP1 REVERT JUMPDEST CALLVALUE DUP1 ISZERO PUSH2 0x1A6 JUMPI PUSH1 0x0 DUP1 REVERT JUMPDEST POP PUSH2 0x1AF PUSH2 0x8D1 JUMP JUMPDEST PUSH1 0x40 DUP1 MLOAD SWAP2 ISZERO ISZERO DUP3 MSTORE MLOAD SWAP1 DUP2 SWAP1 SUB PUSH1 0x20 ADD SWAP1 RETURN JUMPDEST CALLVALUE DUP1 ISZERO PUSH2 0x1CF JUMPI PUSH1 0x0 DUP1 REVERT JUMPDEST POP PUSH2 0x1F4 PUSH20 0xFFFFFFFFFFFFFFFFFFFFFFFFFFFFFFFFFFFFFFFF PUSH1 0x4 CALLDATALOAD AND PUSH1 0x24 CALLDATALOAD PUSH2 0x8FA JUMP JUMPDEST STOP JUMPDEST CALLVALUE DUP1 ISZERO PUSH2 0x202 JUMPI PUSH1 0x0 DUP1 REVERT JUMPDEST POP PUSH2 0x1F4 PUSH20 0xFFFFFFFFFFFFFFFFFFFFFFFFFFFFFFFFFFFFFFFF PUSH1 0x4 CALLDATALOAD AND PUSH1 0x24 CALLDATALOAD PUSH2 0xAEE JUMP JUMPDEST CALLVALUE DUP1 ISZERO PUSH2 0x233 JUMPI PUSH1 0x0 DUP1 REVERT JUMPDEST POP PUSH2 0x1F4 PUSH20 0xFFFFFFFFFFFFFFFFFFFFFFFFFFFFFFFFFFFFFFFF PUSH1 0x4 CALLDATALOAD DUP2 AND SWAP1 PUSH1 0x24 CALLDATALOAD AND PUSH1 0x44 CALLDATALOAD PUSH2 0xBC0 JUMP JUMPDEST CALLVALUE DUP1 ISZERO PUSH2 0x26A JUMPI PUSH1 0x0 DUP1 REVERT JUMPDEST POP PUSH2 0x295 PUSH20 0xFFFFFFFFFFFFFFFFFFFFFFFFFFFFFFFFFFFFFFFF PUSH1 0x4 CALLDATALOAD DUP2 AND SWAP1 PUSH1 0x24 CALLDATALOAD AND PUSH1 0x44 CALLDATALOAD PUSH2 0xBFC JUMP JUMPDEST PUSH1 0x40 DUP1 MLOAD SWAP2 DUP3 MSTORE MLOAD SWAP1 DUP2 SWAP1 SUB PUSH1 0x20 ADD SWAP1 RETURN JUMPDEST CALLVALUE DUP1 ISZERO PUSH2 0x2B3 JUMPI PUSH1 0x0 DUP1 REVERT JUMPDEST POP PUSH1 0x40 DUP1 MLOAD PUSH1 0x20 PUSH1 0x4 PUSH1 0x84 CALLDATALOAD DUP2 DUP2 ADD CALLDATALOAD DUP4 DUP2 MUL DUP1 DUP7 ADD DUP6 ADD SWAP1 SWAP7 MSTORE DUP1 DUP6 MSTORE PUSH2 0x1AF SWAP6 DUP4 CALLDATALOAD SWAP6 PUSH1 0x24 DUP1 CALLDATALOAD PUSH20 0xFFFFFFFFFFFFFFFFFFFFFFFFFFFFFFFFFFFFFFFF SWAP1 DUP2 AND SWAP8 PUSH1 0x44 CALLDATALOAD SWAP1 SWAP2 AND SWAP7 PUSH1 0x64 CALLDATALOAD SWAP7 CALLDATASIZE SWAP7 SWAP2 SWAP6 PUSH1 0xA4 SWAP6 SWAP5 SWAP1 SWAP2 ADD SWAP3 DUP3 SWAP2 SWAP1 DUP6 ADD SWAP1 DUP5 SWAP1 DUP1 DUP3 DUP5 CALLDATACOPY POP SWAP5 SWAP8 POP PUSH2 0xC3E SWAP7 POP POP POP POP POP POP POP JUMP JUMPDEST CALLVALUE DUP1 ISZERO PUSH2 0x335 JUMPI PUSH1 0x0 DUP1 REVERT JUMPDEST POP PUSH2 0x295 PUSH2 0xC8B JUMP JUMPDEST CALLVALUE DUP1 ISZERO PUSH2 0x34A JUMPI PUSH1 0x0 DUP1 REVERT JUMPDEST POP PUSH1 0x40 DUP1 MLOAD PUSH1 0x20 PUSH1 0x4 DUP1 CALLDATALOAD DUP1 DUP3 ADD CALLDATALOAD PUSH1 0x1F DUP2 ADD DUP5 SWAP1 DIV DUP5 MUL DUP6 ADD DUP5 ADD SWAP1 SWAP6 MSTORE DUP5 DUP5 MSTORE PUSH2 0x397 SWAP5 CALLDATASIZE SWAP5 SWAP3 SWAP4 PUSH1 0x24 SWAP4 SWAP3 DUP5 ADD SWAP2 SWAP1 DUP2 SWAP1 DUP5 ADD DUP4 DUP3 DUP1 DUP3 DUP5 CALLDATACOPY POP SWAP5 SWAP8 POP PUSH2 0xC90 SWAP7 POP POP POP POP POP POP POP JUMP JUMPDEST PUSH1 0x40 DUP1 MLOAD PUSH20 0xFFFFFFFFFFFFFFFFFFFFFFFFFFFFFFFFFFFFFFFF SWAP1 SWAP3 AND DUP3 MSTORE MLOAD SWAP1 DUP2 SWAP1 SUB PUSH1 0x20 ADD SWAP1 RETURN JUMPDEST CALLVALUE DUP1 ISZERO PUSH2 0x3CC JUMPI PUSH1 0x0 DUP1 REVERT JUMPDEST POP PUSH2 0x397 PUSH2 0xD9C JUMP JUMPDEST CALLVALUE DUP1 ISZERO PUSH2 0x3E1 JUMPI PUSH1 0x0 DUP1 REVERT JUMPDEST POP PUSH2 0x295 PUSH2 0xE3A JUMP JUMPDEST CALLVALUE DUP1 ISZERO PUSH2 0x3F6 JUMPI PUSH1 0x0 DUP1 REVERT JUMPDEST POP PUSH1 0x40 DUP1 MLOAD PUSH1 0x64 CALLDATALOAD PUSH1 0x4 DUP2 DUP2 ADD CALLDATALOAD PUSH1 0x20 DUP2 DUP2 MUL DUP6 DUP2 ADD DUP3 ADD SWAP1 SWAP7 MSTORE DUP2 DUP6 MSTORE PUSH2 0x1F4 SWAP6 PUSH20 0xFFFFFFFFFFFFFFFFFFFFFFFFFFFFFFFFFFFFFFFF DUP5 CALLDATALOAD DUP2 AND SWAP7 PUSH1 0x24 DUP1 CALLDATALOAD SWAP1 SWAP3 AND SWAP7 PUSH1 0x44 CALLDATALOAD SWAP7 CALLDATASIZE SWAP7 SWAP1 SWAP6 PUSH1 0x84 SWAP6 SWAP4 SWAP5 SWAP3 SWAP1 SWAP3 ADD SWAP3 SWAP1 SWAP2 DUP3 SWAP2 SWAP1 DUP6 ADD SWAP1 DUP5 SWAP1 DUP1 DUP3 DUP5 CALLDATACOPY POP SWAP5 SWAP8 POP PUSH2 0xE5E SWAP7 POP POP POP POP POP POP POP JUMP JUMPDEST CALLVALUE DUP1 ISZERO PUSH2 0x477 JUMPI PUSH1 0x0 DUP1 REVERT JUMPDEST POP PUSH2 0x1AF PUSH20 0xFFFFFFFFFFFFFFFFFFFFFFFFFFFFFFFFFFFFFFFF PUSH1 0x4 CALLDATALOAD DUP2 AND SWAP1 PUSH1 0x24 CALLDATALOAD AND PUSH1 0x44 CALLDATALOAD PUSH2 0xF6F JUMP JUMPDEST CALLVALUE DUP1 ISZERO PUSH2 0x4AE JUMPI PUSH1 0x0 DUP1 REVERT JUMPDEST POP PUSH2 0x1AF PUSH20 0xFFFFFFFFFFFFFFFFFFFFFFFFFFFFFFFFFFFFFFFF PUSH1 0x4 CALLDATALOAD AND PUSH2 0xF96 JUMP JUMPDEST CALLVALUE DUP1 ISZERO PUSH2 0x4DC JUMPI PUSH1 0x0 DUP1 REVERT JUMPDEST POP PUSH2 0x295 PUSH2 0xF9C JUMP JUMPDEST CALLVALUE DUP1 ISZERO PUSH2 0x4F1 JUMPI PUSH1 0x0 DUP1 REVERT JUMPDEST POP PUSH2 0x295 PUSH2 0xFCC JUMP JUMPDEST CALLVALUE DUP1 ISZERO PUSH2 0x506 JUMPI PUSH1 0x0 DUP1 REVERT JUMPDEST POP PUSH2 0x1F4 PUSH20 0xFFFFFFFFFFFFFFFFFFFFFFFFFFFFFFFFFFFFFFFF PUSH1 0x4 CALLDATALOAD DUP2 AND SWAP1 PUSH1 0x24 CALLDATALOAD AND PUSH1 0x44 CALLDATALOAD PUSH2 0xFF7 JUMP JUMPDEST CALLVALUE DUP1 ISZERO PUSH2 0x53D JUMPI PUSH1 0x0 DUP1 REVERT JUMPDEST POP PUSH2 0x1F4 PUSH20 0xFFFFFFFFFFFFFFFFFFFFFFFFFFFFFFFFFFFFFFFF PUSH1 0x4 CALLDATALOAD AND PUSH2 0x10C4 JUMP JUMPDEST CALLVALUE DUP1 ISZERO PUSH2 0x56B JUMPI PUSH1 0x0 DUP1 REVERT JUMPDEST POP PUSH2 0x599 PUSH20 0xFFFFFFFFFFFFFFFFFFFFFFFFFFFFFFFFFFFFFFFF PUSH1 0x4 CALLDATALOAD DUP2 AND SWAP1 PUSH1 0x24 CALLDATALOAD AND PUSH1 0x44 CALLDATALOAD PUSH1 0x64 CALLDATALOAD PUSH2 0x13E6 JUMP JUMPDEST PUSH1 0x40 DUP1 MLOAD PUSH1 0xFF SWAP5 DUP6 AND DUP2 MSTORE SWAP3 SWAP1 SWAP4 AND PUSH1 0x20 DUP4 ADD MSTORE PUSH30 0xFFFFFFFFFFFFFFFFFFFFFFFFFFFFFFFFFFFFFFFFFFFFFFFFFFFFFFFFFFFF AND DUP2 DUP4 ADD MSTORE SWAP1 MLOAD SWAP1 DUP2 SWAP1 SUB PUSH1 0x60 ADD SWAP1 RETURN JUMPDEST CALLVALUE DUP1 ISZERO PUSH2 0x5E9 JUMPI PUSH1 0x0 DUP1 REVERT JUMPDEST POP PUSH1 0x40 DUP1 MLOAD PUSH1 0x20 PUSH1 0x4 PUSH1 0x44 CALLDATALOAD DUP2 DUP2 ADD CALLDATALOAD DUP4 DUP2 MUL DUP1 DUP7 ADD DUP6 ADD SWAP1 SWAP7 MSTORE DUP1 DUP6 MSTORE PUSH2 0x1AF SWAP6 DUP4 CALLDATALOAD PUSH20 0xFFFFFFFFFFFFFFFFFFFFFFFFFFFFFFFFFFFFFFFF AND SWAP6 PUSH1 0x24 DUP1 CALLDATALOAD SWAP7 CALLDATASIZE SWAP7 SWAP6 PUSH1 0x64 SWAP6 SWAP4 SWAP5 SWAP3 ADD SWAP3 SWAP2 DUP3 SWAP2 DUP6 ADD SWAP1 DUP5 SWAP1 DUP1 DUP3 DUP5 CALLDATACOPY POP SWAP5 SWAP8 POP PUSH2 0x147B SWAP7 POP POP POP POP POP POP POP JUMP JUMPDEST CALLVALUE DUP1 ISZERO PUSH2 0x65D JUMPI PUSH1 0x0 DUP1 REVERT JUMPDEST POP PUSH2 0x397 PUSH2 0x1609 JUMP JUMPDEST CALLVALUE DUP1 ISZERO PUSH2 0x672 JUMPI PUSH1 0x0 DUP1 REVERT JUMPDEST POP PUSH2 0x397 PUSH2 0x16CB JUMP JUMPDEST CALLVALUE DUP1 ISZERO PUSH2 0x687 JUMPI PUSH1 0x0 DUP1 REVERT JUMPDEST POP PUSH2 0x1F4 PUSH20 0xFFFFFFFFFFFFFFFFFFFFFFFFFFFFFFFFFFFFFFFF PUSH1 0x4 CALLDATALOAD AND PUSH1 0x24 CALLDATALOAD PUSH2 0x16EF JUMP JUMPDEST CALLVALUE DUP1 ISZERO PUSH2 0x6B8 JUMPI PUSH1 0x0 DUP1 REVERT JUMPDEST POP PUSH2 0x1F4 PUSH20 0xFFFFFFFFFFFFFFFFFFFFFFFFFFFFFFFFFFFFFFFF PUSH1 0x4 CALLDATALOAD DUP2 AND SWAP1 PUSH1 0x24 CALLDATALOAD AND PUSH1 0x44 CALLDATALOAD PUSH2 0x17BB JUMP JUMPDEST CALLVALUE DUP1 ISZERO PUSH2 0x6EF JUMPI PUSH1 0x0 DUP1 REVERT JUMPDEST POP PUSH2 0x397 PUSH20 0xFFFFFFFFFFFFFFFFFFFFFFFFFFFFFFFFFFFFFFFF PUSH1 0x4 CALLDATALOAD AND PUSH1 0x24 CALLDATALOAD PUSH2 0x1886 JUMP JUMPDEST CALLVALUE DUP1 ISZERO PUSH2 0x720 JUMPI PUSH1 0x0 DUP1 REVERT JUMPDEST POP PUSH2 0x1F4 PUSH20 0xFFFFFFFFFFFFFFFFFFFFFFFFFFFFFFFFFFFFFFFF PUSH1 0x4 CALLDATALOAD DUP2 AND SWAP1 PUSH1 0x24 CALLDATALOAD DUP2 AND SWAP1 PUSH1 0x44 CALLDATALOAD SWAP1 PUSH1 0x64 CALLDATALOAD AND PUSH2 0x18C4 JUMP JUMPDEST CALLVALUE DUP1 ISZERO PUSH2 0x75E JUMPI PUSH1 0x0 DUP1 REVERT JUMPDEST POP PUSH2 0x1F4 PUSH20 0xFFFFFFFFFFFFFFFFFFFFFFFFFFFFFFFFFFFFFFFF PUSH1 0x4 CALLDATALOAD AND PUSH2 0x1A73 JUMP JUMPDEST CALLVALUE DUP1 ISZERO PUSH2 0x78C JUMPI PUSH1 0x0 DUP1 REVERT JUMPDEST POP PUSH2 0x295 PUSH2 0x1C0B JUMP JUMPDEST CALLVALUE DUP1 ISZERO PUSH2 0x7A1 JUMPI PUSH1 0x0 DUP1 REVERT JUMPDEST POP PUSH2 0x397 PUSH2 0x1C2F JUMP JUMPDEST CALLVALUE DUP1 ISZERO PUSH2 0x7B6 JUMPI PUSH1 0x0 DUP1 REVERT JUMPDEST POP PUSH2 0x1AF PUSH2 0x1C5A JUMP JUMPDEST CALLVALUE DUP1 ISZERO PUSH2 0x7CB JUMPI PUSH1 0x0 DUP1 REVERT JUMPDEST POP PUSH2 0x397 PUSH2 0x1C8B JUMP JUMPDEST CALLVALUE DUP1 ISZERO PUSH2 0x7E0 JUMPI PUSH1 0x0 DUP1 REVERT JUMPDEST POP PUSH1 0x40 DUP1 MLOAD PUSH1 0x64 CALLDATALOAD PUSH1 0x4 DUP2 DUP2 ADD CALLDATALOAD PUSH1 0x20 DUP2 DUP2 MUL DUP6 DUP2 ADD DUP3 ADD SWAP1 SWAP7 MSTORE DUP2 DUP6 MSTORE PUSH2 0x1AF SWAP6 PUSH20 0xFFFFFFFFFFFFFFFFFFFFFFFFFFFFFFFFFFFFFFFF DUP5 CALLDATALOAD DUP2 AND SWAP7 PUSH1 0x24 DUP1 CALLDATALOAD SWAP1 SWAP3 AND SWAP7 PUSH1 0x44 CALLDATALOAD SWAP7 CALLDATASIZE SWAP7 SWAP1 SWAP6 PUSH1 0x84 SWAP6 SWAP4 SWAP5 SWAP3 SWAP1 SWAP3 ADD SWAP3 SWAP1 SWAP2 DUP3 SWAP2 SWAP1 DUP6 ADD SWAP1 DUP5 SWAP1 DUP1 DUP3 DUP5 CALLDATACOPY POP SWAP5 SWAP8 POP PUSH2 0x1C90 SWAP7 POP POP POP POP POP POP POP JUMP JUMPDEST CALLVALUE DUP1 ISZERO PUSH2 0x861 JUMPI PUSH1 0x0 DUP1 REVERT JUMPDEST POP PUSH1 0x40 DUP1 MLOAD PUSH1 0x20 PUSH1 0x1F PUSH1 0x64 CALLDATALOAD PUSH1 0x4 DUP2 DUP2 ADD CALLDATALOAD SWAP3 DUP4 ADD DUP5 SWAP1 DIV DUP5 MUL DUP6 ADD DUP5 ADD SWAP1 SWAP6 MSTORE DUP2 DUP5 MSTORE PUSH2 0x1AF SWAP5 PUSH20 0xFFFFFFFFFFFFFFFFFFFFFFFFFFFFFFFFFFFFFFFF DUP2 CALLDATALOAD DUP2 AND SWAP6 PUSH1 0x24 DUP1 CALLDATALOAD SWAP1 SWAP3 AND SWAP6 PUSH1 0x44 CALLDATALOAD SWAP6 CALLDATASIZE SWAP6 PUSH1 0x84 SWAP5 ADD SWAP2 DUP2 SWAP1 DUP5 ADD DUP4 DUP3 DUP1 DUP3 DUP5 CALLDATACOPY POP SWAP5 SWAP8 POP PUSH2 0x1D70 SWAP7 POP POP POP POP POP POP POP JUMP JUMPDEST PUSH1 0x0 DUP1 PUSH2 0x8DC PUSH2 0xFCC JUMP JUMPDEST SWAP1 POP DUP1 ISZERO DUP1 ISZERO SWAP1 PUSH2 0x8F4 JUMPI POP DUP1 PUSH2 0x8F1 PUSH2 0x1D86 JUMP JUMPDEST LT ISZERO JUMPDEST SWAP2 POP POP SWAP1 JUMP JUMPDEST PUSH1 0x40 DUP1 MLOAD PUSH1 0x0 DUP1 DUP3 MSTORE PUSH1 0x20 DUP3 ADD SWAP1 SWAP3 MSTORE PUSH32 0xB719B33C83B8E5D300C521CB8B54AE9BD933996A14BEF8C2F4E0285D2D2400A SWAP2 PUSH2 0x93C SWAP2 CALLER SWAP2 DUP5 SWAP2 SWAP1 JUMPDEST POP PUSH2 0x147B JUMP JUMPDEST PUSH1 0x40 DUP1 MLOAD DUP1 DUP3 ADD SWAP1 SWAP2 MSTORE PUSH1 0xF DUP2 MSTORE PUSH32 0x4150505F415554485F4641494C45440000000000000000000000000000000000 PUSH1 0x20 DUP3 ADD MSTORE SWAP1 ISZERO ISZERO PUSH2 0xA15 JUMPI PUSH1 0x40 MLOAD PUSH32 0x8C379A000000000000000000000000000000000000000000000000000000000 DUP2 MSTORE PUSH1 0x4 ADD DUP1 DUP1 PUSH1 0x20 ADD DUP3 DUP2 SUB DUP3 MSTORE DUP4 DUP2 DUP2 MLOAD DUP2 MSTORE PUSH1 0x20 ADD SWAP2 POP DUP1 MLOAD SWAP1 PUSH1 0x20 ADD SWAP1 DUP1 DUP4 DUP4 PUSH1 0x0 JUMPDEST DUP4 DUP2 LT ISZERO PUSH2 0x9DA JUMPI DUP2 DUP2 ADD MLOAD DUP4 DUP3 ADD MSTORE PUSH1 0x20 ADD PUSH2 0x9C2 JUMP JUMPDEST POP POP POP POP SWAP1 POP SWAP1 DUP2 ADD SWAP1 PUSH1 0x1F AND DUP1 ISZERO PUSH2 0xA07 JUMPI DUP1 DUP3 SUB DUP1 MLOAD PUSH1 0x1 DUP4 PUSH1 0x20 SUB PUSH2 0x100 EXP SUB NOT AND DUP2 MSTORE PUSH1 0x20 ADD SWAP2 POP JUMPDEST POP SWAP3 POP POP POP PUSH1 0x40 MLOAD DUP1 SWAP2 SUB SWAP1 REVERT JUMPDEST POP DUP3 DUP3 PUSH1 0x0 PUSH2 0xA24 DUP4 DUP4 PUSH2 0x1886 JUMP JUMPDEST PUSH20 0xFFFFFFFFFFFFFFFFFFFFFFFFFFFFFFFFFFFFFFFF AND EQ PUSH1 0x40 DUP1 MLOAD SWAP1 DUP2 ADD PUSH1 0x40 MSTORE DUP1 PUSH1 0x14 DUP2 MSTORE PUSH1 0x20 ADD PUSH32 0x41434C5F4558495354454E545F4D414E41474552000000000000000000000000 DUP2 MSTORE POP SWAP1 ISZERO ISZERO PUSH2 0xADA JUMPI PUSH1 0x40 MLOAD PUSH32 0x8C379A000000000000000000000000000000000000000000000000000000000 DUP2 MSTORE PUSH1 0x4 ADD DUP1 DUP1 PUSH1 0x20 ADD DUP3 DUP2 SUB DUP3 MSTORE DUP4 DUP2 DUP2 MLOAD DUP2 MSTORE PUSH1 0x20 ADD SWAP2 POP DUP1 MLOAD SWAP1 PUSH1 0x20 ADD SWAP1 DUP1 DUP4 DUP4 PUSH1 0x0 DUP4 DUP2 LT ISZERO PUSH2 0x9DA JUMPI DUP2 DUP2 ADD MLOAD DUP4 DUP3 ADD MSTORE PUSH1 0x20 ADD PUSH2 0x9C2 JUMP JUMPDEST POP PUSH2 0xAE7 PUSH1 0x1 DUP7 DUP7 PUSH2 0x1D8A JUMP JUMPDEST POP POP POP POP POP JUMP JUMPDEST DUP2 DUP2 PUSH2 0xAFA DUP3 DUP3 PUSH2 0x1886 JUMP JUMPDEST PUSH1 0x40 DUP1 MLOAD DUP1 DUP3 ADD SWAP1 SWAP2 MSTORE PUSH1 0x13 DUP2 MSTORE PUSH32 0x41434C5F415554485F4E4F5F4D414E4147455200000000000000000000000000 PUSH1 0x20 DUP3 ADD MSTORE SWAP1 PUSH20 0xFFFFFFFFFFFFFFFFFFFFFFFFFFFFFFFFFFFFFFFF AND CALLER EQ PUSH2 0xBAD JUMPI PUSH1 0x40 MLOAD PUSH32 0x8C379A000000000000000000000000000000000000000000000000000000000 DUP2 MSTORE PUSH1 0x4 ADD DUP1 DUP1 PUSH1 0x20 ADD DUP3 DUP2 SUB DUP3 MSTORE DUP4 DUP2 DUP2 MLOAD DUP2 MSTORE PUSH1 0x20 ADD SWAP2 POP DUP1 MLOAD SWAP1 PUSH1 0x20 ADD SWAP1 DUP1 DUP4 DUP4 PUSH1 0x0 DUP4 DUP2 LT ISZERO PUSH2 0x9DA JUMPI DUP2 DUP2 ADD MLOAD DUP4 DUP3 ADD MSTORE PUSH1 0x20 ADD PUSH2 0x9C2 JUMP JUMPDEST POP PUSH2 0xBBA PUSH1 0x1 DUP6 DUP6 PUSH2 0x1D8A JUMP JUMPDEST POP POP POP POP JUMP JUMPDEST PUSH2 0xBF7 DUP4 DUP4 DUP4 PUSH1 0x0 PUSH1 0x40 MLOAD SWAP1 DUP1 DUP3 MSTORE DUP1 PUSH1 0x20 MUL PUSH1 0x20 ADD DUP3 ADD PUSH1 0x40 MSTORE DUP1 ISZERO PUSH2 0xBF1 JUMPI DUP2 PUSH1 0x20 ADD PUSH1 0x20 DUP3 MUL DUP1 CODESIZE DUP4 CODECOPY ADD SWAP1 POP JUMPDEST POP PUSH2 0xE5E JUMP JUMPDEST POP POP POP JUMP JUMPDEST PUSH1 0x0 PUSH1 0x1 PUSH1 0x0 DUP1 PUSH1 0x0 PUSH2 0xC10 DUP9 DUP9 DUP9 PUSH2 0x1E21 JUMP JUMPDEST DUP2 MSTORE PUSH1 0x20 DUP1 DUP3 ADD SWAP3 SWAP1 SWAP3 MSTORE PUSH1 0x40 SWAP1 DUP2 ADD PUSH1 0x0 SWAP1 DUP2 KECCAK256 SLOAD DUP5 MSTORE SWAP2 DUP4 ADD SWAP4 SWAP1 SWAP4 MSTORE SWAP2 ADD SWAP1 KECCAK256 SLOAD SWAP1 POP JUMPDEST SWAP4 SWAP3 POP POP POP JUMP JUMPDEST PUSH1 0x0 PUSH32 0x290DECD9548B62A8D60345A988386FC84BA6BC95484008F6362F93160EF3E563 DUP7 EQ ISZERO PUSH2 0xC70 JUMPI POP PUSH1 0x1 PUSH2 0xC82 JUMP JUMPDEST PUSH2 0xC7F DUP7 PUSH1 0x0 DUP8 DUP8 DUP8 DUP8 PUSH2 0x1F3E JUMP JUMPDEST SWAP1 POP JUMPDEST SWAP6 SWAP5 POP POP POP POP POP JUMP JUMPDEST PUSH1 0x0 DUP2 JUMP JUMPDEST PUSH1 0x0 PUSH2 0xC9A PUSH2 0x1609 JUMP JUMPDEST PUSH20 0xFFFFFFFFFFFFFFFFFFFFFFFFFFFFFFFFFFFFFFFF AND PUSH4 0x4BF2A7F DUP4 PUSH1 0x40 MLOAD DUP3 PUSH4 0xFFFFFFFF AND PUSH29 0x100000000000000000000000000000000000000000000000000000000 MUL DUP2 MSTORE PUSH1 0x4 ADD DUP1 DUP1 PUSH1 0x20 ADD DUP3 DUP2 SUB DUP3 MSTORE DUP4 DUP2 DUP2 MLOAD DUP2 MSTORE PUSH1 0x20 ADD SWAP2 POP DUP1 MLOAD SWAP1 PUSH1 0x20 ADD SWAP1 DUP1 DUP4 DUP4 PUSH1 0x0 JUMPDEST DUP4 DUP2 LT ISZERO PUSH2 0xD1E JUMPI DUP2 DUP2 ADD MLOAD DUP4 DUP3 ADD MSTORE PUSH1 0x20 ADD PUSH2 0xD06 JUMP JUMPDEST POP POP POP POP SWAP1 POP SWAP1 DUP2 ADD SWAP1 PUSH1 0x1F AND DUP1 ISZERO PUSH2 0xD4B JUMPI DUP1 DUP3 SUB DUP1 MLOAD PUSH1 0x1 DUP4 PUSH1 0x20 SUB PUSH2 0x100 EXP SUB NOT AND DUP2 MSTORE PUSH1 0x20 ADD SWAP2 POP JUMPDEST POP SWAP3 POP POP POP PUSH1 0x20 PUSH1 0x40 MLOAD DUP1 DUP4 SUB DUP2 PUSH1 0x0 DUP8 DUP1 EXTCODESIZE ISZERO DUP1 ISZERO PUSH2 0xD6A JUMPI PUSH1 0x0 DUP1 REVERT JUMPDEST POP GAS CALL ISZERO DUP1 ISZERO PUSH2 0xD7E JUMPI RETURNDATASIZE PUSH1 0x0 DUP1 RETURNDATACOPY RETURNDATASIZE PUSH1 0x0 REVERT JUMPDEST POP POP POP POP PUSH1 0x40 MLOAD RETURNDATASIZE PUSH1 0x20 DUP2 LT ISZERO PUSH2 0xD94 JUMPI PUSH1 0x0 DUP1 REVERT JUMPDEST POP MLOAD SWAP3 SWAP2 POP POP JUMP JUMPDEST PUSH1 0x0 PUSH2 0xDA6 PUSH2 0x1C2F JUMP JUMPDEST PUSH20 0xFFFFFFFFFFFFFFFFFFFFFFFFFFFFFFFFFFFFFFFF AND PUSH4 0x32F0A3B5 PUSH1 0x40 MLOAD DUP2 PUSH4 0xFFFFFFFF AND PUSH29 0x100000000000000000000000000000000000000000000000000000000 MUL DUP2 MSTORE PUSH1 0x4 ADD PUSH1 0x20 PUSH1 0x40 MLOAD DUP1 DUP4 SUB DUP2 PUSH1 0x0 DUP8 DUP1 EXTCODESIZE ISZERO DUP1 ISZERO PUSH2 0xE09 JUMPI PUSH1 0x0 DUP1 REVERT JUMPDEST POP GAS CALL ISZERO DUP1 ISZERO PUSH2 0xE1D JUMPI RETURNDATASIZE PUSH1 0x0 DUP1 RETURNDATACOPY RETURNDATASIZE PUSH1 0x0 REVERT JUMPDEST POP POP POP POP PUSH1 0x40 MLOAD RETURNDATASIZE PUSH1 0x20 DUP2 LT ISZERO PUSH2 0xE33 JUMPI PUSH1 0x0 DUP1 REVERT JUMPDEST POP MLOAD SWAP1 POP SWAP1 JUMP JUMPDEST PUSH32 0xB719B33C83B8E5D300C521CB8B54AE9BD933996A14BEF8C2F4E0285D2D2400A DUP2 JUMP JUMPDEST PUSH1 0x0 DUP4 DUP4 PUSH2 0xE6C DUP3 DUP3 PUSH2 0x1886 JUMP JUMPDEST PUSH1 0x40 DUP1 MLOAD DUP1 DUP3 ADD SWAP1 SWAP2 MSTORE PUSH1 0x13 DUP2 MSTORE PUSH32 0x41434C5F415554485F4E4F5F4D414E4147455200000000000000000000000000 PUSH1 0x20 DUP3 ADD MSTORE SWAP1 PUSH20 0xFFFFFFFFFFFFFFFFFFFFFFFFFFFFFFFFFFFFFFFF AND CALLER EQ PUSH2 0xF1F JUMPI PUSH1 0x40 MLOAD PUSH32 0x8C379A000000000000000000000000000000000000000000000000000000000 DUP2 MSTORE PUSH1 0x4 ADD DUP1 DUP1 PUSH1 0x20 ADD DUP3 DUP2 SUB DUP3 MSTORE DUP4 DUP2 DUP2 MLOAD DUP2 MSTORE PUSH1 0x20 ADD SWAP2 POP DUP1 MLOAD SWAP1 PUSH1 0x20 ADD SWAP1 DUP1 DUP4 DUP4 PUSH1 0x0 DUP4 DUP2 LT ISZERO PUSH2 0x9DA JUMPI DUP2 DUP2 ADD MLOAD DUP4 DUP3 ADD MSTORE PUSH1 0x20 ADD PUSH2 0x9C2 JUMP JUMPDEST POP PUSH1 0x0 DUP5 MLOAD GT PUSH2 0xF4F JUMPI PUSH32 0x290DECD9548B62A8D60345A988386FC84BA6BC95484008F6362F93160EF3E563 PUSH2 0xF58 JUMP JUMPDEST PUSH2 0xF58 DUP5 PUSH2 0x2187 JUMP JUMPDEST SWAP3 POP PUSH2 0xF66 DUP8 DUP8 DUP8 DUP7 PUSH2 0x23B7 JUMP JUMPDEST POP POP POP POP POP POP POP JUMP JUMPDEST PUSH1 0x40 DUP1 MLOAD PUSH1 0x0 DUP1 DUP3 MSTORE PUSH1 0x20 DUP3 ADD SWAP1 SWAP3 MSTORE PUSH2 0xF8B DUP6 DUP6 DUP6 DUP5 PUSH2 0x1C90 JUMP JUMPDEST SWAP2 POP JUMPDEST POP SWAP4 SWAP3 POP POP POP JUMP JUMPDEST POP PUSH1 0x1 SWAP1 JUMP JUMPDEST PUSH1 0x0 PUSH2 0xFC7 PUSH32 0xD625496217AA6A3453EECB9C3489DC5A53E6C67B444329EA2B2CBC9FF547639B PUSH2 0x24C5 JUMP JUMPDEST SWAP1 POP SWAP1 JUMP JUMPDEST PUSH1 0x0 PUSH2 0xFC7 PUSH32 0xEBB05B386A8D34882B8711D156F463690983DC47815980FB82AEEFF1AA43579E PUSH2 0x24C5 JUMP JUMPDEST DUP2 DUP2 PUSH2 0x1003 DUP3 DUP3 PUSH2 0x1886 JUMP JUMPDEST PUSH1 0x40 DUP1 MLOAD DUP1 DUP3 ADD SWAP1 SWAP2 MSTORE PUSH1 0x13 DUP2 MSTORE PUSH32 0x41434C5F415554485F4E4F5F4D414E4147455200000000000000000000000000 PUSH1 0x20 DUP3 ADD MSTORE SWAP1 PUSH20 0xFFFFFFFFFFFFFFFFFFFFFFFFFFFFFFFFFFFFFFFF AND CALLER EQ PUSH2 0x10B6 JUMPI PUSH1 0x40 MLOAD PUSH32 0x8C379A000000000000000000000000000000000000000000000000000000000 DUP2 MSTORE PUSH1 0x4 ADD DUP1 DUP1 PUSH1 0x20 ADD DUP3 DUP2 SUB DUP3 MSTORE DUP4 DUP2 DUP2 MLOAD DUP2 MSTORE PUSH1 0x20 ADD SWAP2 POP DUP1 MLOAD SWAP1 PUSH1 0x20 ADD SWAP1 DUP1 DUP4 DUP4 PUSH1 0x0 DUP4 DUP2 LT ISZERO PUSH2 0x9DA JUMPI DUP2 DUP2 ADD MLOAD DUP4 DUP3 ADD MSTORE PUSH1 0x20 ADD PUSH2 0x9C2 JUMP JUMPDEST POP PUSH2 0xAE7 DUP6 DUP6 DUP6 PUSH1 0x0 PUSH2 0x23B7 JUMP JUMPDEST PUSH1 0x0 DUP1 PUSH1 0x0 PUSH2 0x10D2 DUP5 PUSH2 0xF96 JUMP JUMPDEST PUSH1 0x40 DUP1 MLOAD DUP1 DUP3 ADD SWAP1 SWAP2 MSTORE PUSH1 0x12 DUP2 MSTORE PUSH32 0x5245434F5645525F444953414C4C4F5745440000000000000000000000000000 PUSH1 0x20 DUP3 ADD MSTORE SWAP1 ISZERO ISZERO PUSH2 0x116F JUMPI PUSH1 0x40 MLOAD PUSH32 0x8C379A000000000000000000000000000000000000000000000000000000000 DUP2 MSTORE PUSH1 0x4 ADD DUP1 DUP1 PUSH1 0x20 ADD DUP3 DUP2 SUB DUP3 MSTORE DUP4 DUP2 DUP2 MLOAD DUP2 MSTORE PUSH1 0x20 ADD SWAP2 POP DUP1 MLOAD SWAP1 PUSH1 0x20 ADD SWAP1 DUP1 DUP4 DUP4 PUSH1 0x0 DUP4 DUP2 LT ISZERO PUSH2 0x9DA JUMPI DUP2 DUP2 ADD MLOAD DUP4 DUP3 ADD MSTORE PUSH1 0x20 ADD PUSH2 0x9C2 JUMP JUMPDEST POP PUSH2 0x1178 PUSH2 0xD9C JUMP JUMPDEST SWAP3 POP PUSH2 0x1183 DUP4 PUSH2 0x24CD JUMP JUMPDEST PUSH1 0x40 DUP1 MLOAD DUP1 DUP3 ADD SWAP1 SWAP2 MSTORE PUSH1 0x1A DUP2 MSTORE PUSH32 0x5245434F5645525F5641554C545F4E4F545F434F4E5452414354000000000000 PUSH1 0x20 DUP3 ADD MSTORE SWAP1 ISZERO ISZERO PUSH2 0x1220 JUMPI PUSH1 0x40 MLOAD PUSH32 0x8C379A000000000000000000000000000000000000000000000000000000000 DUP2 MSTORE PUSH1 0x4 ADD DUP1 DUP1 PUSH1 0x20 ADD DUP3 DUP2 SUB DUP3 MSTORE DUP4 DUP2 DUP2 MLOAD DUP2 MSTORE PUSH1 0x20 ADD SWAP2 POP DUP1 MLOAD SWAP1 PUSH1 0x20 ADD SWAP1 DUP1 DUP4 DUP4 PUSH1 0x0 DUP4 DUP2 LT ISZERO PUSH2 0x9DA JUMPI DUP2 DUP2 ADD MLOAD DUP4 DUP3 ADD MSTORE PUSH1 0x20 ADD PUSH2 0x9C2 JUMP JUMPDEST POP PUSH20 0xFFFFFFFFFFFFFFFFFFFFFFFFFFFFFFFFFFFFFFFF DUP5 AND ISZERO ISZERO PUSH2 0x128B JUMPI PUSH1 0x40 MLOAD ADDRESS BALANCE SWAP3 POP PUSH20 0xFFFFFFFFFFFFFFFFFFFFFFFFFFFFFFFFFFFFFFFF DUP5 AND SWAP1 DUP4 ISZERO PUSH2 0x8FC MUL SWAP1 DUP5 SWAP1 PUSH1 0x0 DUP2 DUP2 DUP2 DUP6 DUP9 DUP9 CALL SWAP4 POP POP POP POP ISZERO DUP1 ISZERO PUSH2 0x1285 JUMPI RETURNDATASIZE PUSH1 0x0 DUP1 RETURNDATACOPY RETURNDATASIZE PUSH1 0x0 REVERT JUMPDEST POP PUSH2 0x137B JUMP JUMPDEST POP DUP3 PUSH2 0x12B3 PUSH20 0xFFFFFFFFFFFFFFFFFFFFFFFFFFFFFFFFFFFFFFFF DUP3 AND ADDRESS PUSH4 0xFFFFFFFF PUSH2 0x2507 AND JUMP JUMPDEST SWAP2 POP PUSH2 0x12DC PUSH20 0xFFFFFFFFFFFFFFFFFFFFFFFFFFFFFFFFFFFFFFFF DUP3 AND DUP5 DUP5 PUSH4 0xFFFFFFFF PUSH2 0x2640 AND JUMP JUMPDEST PUSH1 0x40 DUP1 MLOAD DUP1 DUP3 ADD SWAP1 SWAP2 MSTORE PUSH1 0x1D DUP2 MSTORE PUSH32 0x5245434F5645525F544F4B454E5F5452414E534645525F4641494C4544000000 PUSH1 0x20 DUP3 ADD MSTORE SWAP1 ISZERO ISZERO PUSH2 0x1379 JUMPI PUSH1 0x40 MLOAD PUSH32 0x8C379A000000000000000000000000000000000000000000000000000000000 DUP2 MSTORE PUSH1 0x4 ADD DUP1 DUP1 PUSH1 0x20 ADD DUP3 DUP2 SUB DUP3 MSTORE DUP4 DUP2 DUP2 MLOAD DUP2 MSTORE PUSH1 0x20 ADD SWAP2 POP DUP1 MLOAD SWAP1 PUSH1 0x20 ADD SWAP1 DUP1 DUP4 DUP4 PUSH1 0x0 DUP4 DUP2 LT ISZERO PUSH2 0x9DA JUMPI DUP2 DUP2 ADD MLOAD DUP4 DUP3 ADD MSTORE PUSH1 0x20 ADD PUSH2 0x9C2 JUMP JUMPDEST POP JUMPDEST DUP4 PUSH20 0xFFFFFFFFFFFFFFFFFFFFFFFFFFFFFFFFFFFFFFFF AND DUP4 PUSH20 0xFFFFFFFFFFFFFFFFFFFFFFFFFFFFFFFFFFFFFFFF AND PUSH32 0x596CAF56044B55FB8C4CA640089BBC2B63CAE3E978B851F5745CBB7C5B288E02 DUP5 PUSH1 0x40 MLOAD DUP1 DUP3 DUP2 MSTORE PUSH1 0x20 ADD SWAP2 POP POP PUSH1 0x40 MLOAD DUP1 SWAP2 SUB SWAP1 LOG3 POP POP POP POP JUMP JUMPDEST PUSH1 0x0 DUP1 PUSH1 0x0 DUP1 PUSH1 0x1 PUSH1 0x0 DUP1 PUSH1 0x0 PUSH2 0x13FE DUP13 DUP13 DUP13 PUSH2 0x1E21 JUMP JUMPDEST DUP2 MSTORE PUSH1 0x20 DUP1 DUP3 ADD SWAP3 SWAP1 SWAP3 MSTORE PUSH1 0x40 SWAP1 DUP2 ADD PUSH1 0x0 SWAP1 DUP2 KECCAK256 SLOAD DUP5 MSTORE SWAP2 DUP4 ADD SWAP4 SWAP1 SWAP4 MSTORE SWAP2 ADD SWAP1 KECCAK256 DUP1 SLOAD DUP7 SWAP1 DUP2 LT PUSH2 0x142D JUMPI INVALID JUMPDEST PUSH1 0x0 SWAP2 DUP3 MSTORE PUSH1 0x20 SWAP1 SWAP2 KECCAK256 ADD SLOAD PUSH1 0xFF DUP1 DUP3 AND SWAP11 PUSH2 0x100 DUP4 DIV SWAP1 SWAP2 AND SWAP10 POP PUSH3 0x10000 SWAP1 SWAP2 DIV PUSH30 0xFFFFFFFFFFFFFFFFFFFFFFFFFFFFFFFFFFFFFFFFFFFFFFFFFFFFFFFFFFFF AND SWAP8 POP SWAP6 POP POP POP POP POP POP JUMP JUMPDEST PUSH1 0x0 DUP1 PUSH2 0x1486 PUSH2 0x8D1 JUMP JUMPDEST ISZERO ISZERO PUSH2 0x1495 JUMPI PUSH1 0x0 SWAP2 POP PUSH2 0xF8E JUMP JUMPDEST PUSH2 0x149D PUSH2 0x1C2F JUMP JUMPDEST SWAP1 POP PUSH20 0xFFFFFFFFFFFFFFFFFFFFFFFFFFFFFFFFFFFFFFFF DUP2 AND ISZERO ISZERO PUSH2 0x14C5 JUMPI PUSH1 0x0 SWAP2 POP PUSH2 0xF8E JUMP JUMPDEST DUP1 PUSH20 0xFFFFFFFFFFFFFFFFFFFFFFFFFFFFFFFFFFFFFFFF AND PUSH4 0xFDEF9106 DUP7 ADDRESS DUP8 PUSH2 0x14ED DUP9 PUSH2 0x26CF JUMP JUMPDEST PUSH1 0x40 MLOAD PUSH29 0x100000000000000000000000000000000000000000000000000000000 PUSH4 0xFFFFFFFF DUP8 AND MUL DUP2 MSTORE PUSH20 0xFFFFFFFFFFFFFFFFFFFFFFFFFFFFFFFFFFFFFFFF DUP1 DUP7 AND PUSH1 0x4 DUP4 ADD SWAP1 DUP2 MSTORE SWAP1 DUP6 AND PUSH1 0x24 DUP4 ADD MSTORE PUSH1 0x44 DUP3 ADD DUP5 SWAP1 MSTORE PUSH1 0x80 PUSH1 0x64 DUP4 ADD SWAP1 DUP2 MSTORE DUP4 MLOAD PUSH1 0x84 DUP5 ADD MSTORE DUP4 MLOAD SWAP2 SWAP3 SWAP1 SWAP2 PUSH1 0xA4 SWAP1 SWAP2 ADD SWAP1 PUSH1 0x20 DUP6 ADD SWAP1 DUP1 DUP4 DUP4 PUSH1 0x0 JUMPDEST DUP4 DUP2 LT ISZERO PUSH2 0x1585 JUMPI DUP2 DUP2 ADD MLOAD DUP4 DUP3 ADD MSTORE PUSH1 0x20 ADD PUSH2 0x156D JUMP JUMPDEST POP POP POP POP SWAP1 POP SWAP1 DUP2 ADD SWAP1 PUSH1 0x1F AND DUP1 ISZERO PUSH2 0x15B2 JUMPI DUP1 DUP3 SUB DUP1 MLOAD PUSH1 0x1 DUP4 PUSH1 0x20 SUB PUSH2 0x100 EXP SUB NOT AND DUP2 MSTORE PUSH1 0x20 ADD SWAP2 POP JUMPDEST POP SWAP6 POP POP POP POP POP POP PUSH1 0x20 PUSH1 0x40 MLOAD DUP1 DUP4 SUB DUP2 PUSH1 0x0 DUP8 DUP1 EXTCODESIZE ISZERO DUP1 ISZERO PUSH2 0x15D4 JUMPI PUSH1 0x0 DUP1 REVERT JUMPDEST POP GAS CALL ISZERO DUP1 ISZERO PUSH2 0x15E8 JUMPI RETURNDATASIZE PUSH1 0x0 DUP1 RETURNDATACOPY RETURNDATASIZE PUSH1 0x0 REVERT JUMPDEST POP POP POP POP PUSH1 0x40 MLOAD RETURNDATASIZE PUSH1 0x20 DUP2 LT ISZERO PUSH2 0x15FE JUMPI PUSH1 0x0 DUP1 REVERT JUMPDEST POP MLOAD SWAP6 SWAP5 POP POP POP POP POP JUMP JUMPDEST PUSH1 0x0 DUP1 PUSH2 0x1614 PUSH2 0x1C2F JUMP JUMPDEST PUSH1 0x40 DUP1 MLOAD PUSH32 0xBE00BBD800000000000000000000000000000000000000000000000000000000 DUP2 MSTORE PUSH32 0xD6F028CA0E8EDB4A8C9757CA4FDCCAB25FA1E0317DA1188108F7D2DEE14902FB PUSH1 0x4 DUP3 ADD MSTORE PUSH32 0xDDBCFD564F642AB5627CF68B9B7D374FB4F8A36E941A75D89C87998CEF03BD61 PUSH1 0x24 DUP3 ADD MSTORE SWAP1 MLOAD PUSH20 0xFFFFFFFFFFFFFFFFFFFFFFFFFFFFFFFFFFFFFFFF SWAP3 SWAP1 SWAP3 AND SWAP2 PUSH4 0xBE00BBD8 SWAP2 PUSH1 0x44 DUP1 DUP3 ADD SWAP3 PUSH1 0x20 SWAP3 SWAP1 SWAP2 SWAP1 DUP3 SWAP1 SUB ADD DUP2 PUSH1 0x0 DUP8 DUP1 EXTCODESIZE ISZERO DUP1 ISZERO PUSH2 0xD6A JUMPI PUSH1 0x0 DUP1 REVERT JUMPDEST PUSH32 0xFFFFFFFFFFFFFFFFFFFFFFFFFFFFFFFFFFFFFFFFFFFFFFFFFFFFFFFFFFFFFFFF DUP2 JUMP JUMPDEST DUP2 DUP2 PUSH2 0x16FB DUP3 DUP3 PUSH2 0x1886 JUMP JUMPDEST PUSH1 0x40 DUP1 MLOAD DUP1 DUP3 ADD SWAP1 SWAP2 MSTORE PUSH1 0x13 DUP2 MSTORE PUSH32 0x41434C5F415554485F4E4F5F4D414E4147455200000000000000000000000000 PUSH1 0x20 DUP3 ADD MSTORE SWAP1 PUSH20 0xFFFFFFFFFFFFFFFFFFFFFFFFFFFFFFFFFFFFFFFF AND CALLER EQ PUSH2 0x17AE JUMPI PUSH1 0x40 MLOAD PUSH32 0x8C379A000000000000000000000000000000000000000000000000000000000 DUP2 MSTORE PUSH1 0x4 ADD DUP1 DUP1 PUSH1 0x20 ADD DUP3 DUP2 SUB DUP3 MSTORE DUP4 DUP2 DUP2 MLOAD DUP2 MSTORE PUSH1 0x20 ADD SWAP2 POP DUP1 MLOAD SWAP1 PUSH1 0x20 ADD SWAP1 DUP1 DUP4 DUP4 PUSH1 0x0 DUP4 DUP2 LT ISZERO PUSH2 0x9DA JUMPI DUP2 DUP2 ADD MLOAD DUP4 DUP3 ADD MSTORE PUSH1 0x20 ADD PUSH2 0x9C2 JUMP JUMPDEST POP PUSH2 0xBBA PUSH1 0x0 DUP6 DUP6 PUSH2 0x1D8A JUMP JUMPDEST DUP2 DUP2 PUSH2 0x17C7 DUP3 DUP3 PUSH2 0x1886 JUMP JUMPDEST PUSH1 0x40 DUP1 MLOAD DUP1 DUP3 ADD SWAP1 SWAP2 MSTORE PUSH1 0x13 DUP2 MSTORE PUSH32 0x41434C5F415554485F4E4F5F4D414E4147455200000000000000000000000000 PUSH1 0x20 DUP3 ADD MSTORE SWAP1 PUSH20 0xFFFFFFFFFFFFFFFFFFFFFFFFFFFFFFFFFFFFFFFF AND CALLER EQ PUSH2 0x187A JUMPI PUSH1 0x40 MLOAD PUSH32 0x8C379A000000000000000000000000000000000000000000000000000000000 DUP2 MSTORE PUSH1 0x4 ADD DUP1 DUP1 PUSH1 0x20 ADD DUP3 DUP2 SUB DUP3 MSTORE DUP4 DUP2 DUP2 MLOAD DUP2 MSTORE PUSH1 0x20 ADD SWAP2 POP DUP1 MLOAD SWAP1 PUSH1 0x20 ADD SWAP1 DUP1 DUP4 DUP4 PUSH1 0x0 DUP4 DUP2 LT ISZERO PUSH2 0x9DA JUMPI DUP2 DUP2 ADD MLOAD DUP4 DUP3 ADD MSTORE PUSH1 0x20 ADD PUSH2 0x9C2 JUMP JUMPDEST POP PUSH2 0xAE7 DUP6 DUP6 DUP6 PUSH2 0x1D8A JUMP JUMPDEST PUSH1 0x0 PUSH1 0x2 PUSH1 0x0 PUSH2 0x1896 DUP6 DUP6 PUSH2 0x26D9 JUMP JUMPDEST DUP2 MSTORE PUSH1 0x20 DUP2 ADD SWAP2 SWAP1 SWAP2 MSTORE PUSH1 0x40 ADD PUSH1 0x0 KECCAK256 SLOAD PUSH20 0xFFFFFFFFFFFFFFFFFFFFFFFFFFFFFFFFFFFFFFFF AND SWAP4 SWAP3 POP POP POP JUMP JUMPDEST PUSH1 0x40 DUP1 MLOAD PUSH1 0x0 DUP1 DUP3 MSTORE PUSH1 0x20 DUP3 ADD SWAP1 SWAP3 MSTORE PUSH32 0xB719B33C83B8E5D300C521CB8B54AE9BD933996A14BEF8C2F4E0285D2D2400A SWAP2 PUSH2 0x1904 SWAP2 CALLER SWAP2 DUP5 SWAP2 SWAP1 PUSH2 0x936 JUMP JUMPDEST PUSH1 0x40 DUP1 MLOAD DUP1 DUP3 ADD SWAP1 SWAP2 MSTORE PUSH1 0xF DUP2 MSTORE PUSH32 0x4150505F415554485F4641494C45440000000000000000000000000000000000 PUSH1 0x20 DUP3 ADD MSTORE SWAP1 ISZERO ISZERO PUSH2 0x19A1 JUMPI PUSH1 0x40 MLOAD PUSH32 0x8C379A000000000000000000000000000000000000000000000000000000000 DUP2 MSTORE PUSH1 0x4 ADD DUP1 DUP1 PUSH1 0x20 ADD DUP3 DUP2 SUB DUP3 MSTORE DUP4 DUP2 DUP2 MLOAD DUP2 MSTORE PUSH1 0x20 ADD SWAP2 POP DUP1 MLOAD SWAP1 PUSH1 0x20 ADD SWAP1 DUP1 DUP4 DUP4 PUSH1 0x0 DUP4 DUP2 LT ISZERO PUSH2 0x9DA JUMPI DUP2 DUP2 ADD MLOAD DUP4 DUP3 ADD MSTORE PUSH1 0x20 ADD PUSH2 0x9C2 JUMP JUMPDEST POP DUP4 DUP4 PUSH1 0x0 PUSH2 0x19B0 DUP4 DUP4 PUSH2 0x1886 JUMP JUMPDEST PUSH20 0xFFFFFFFFFFFFFFFFFFFFFFFFFFFFFFFFFFFFFFFF AND EQ PUSH1 0x40 DUP1 MLOAD SWAP1 DUP2 ADD PUSH1 0x40 MSTORE DUP1 PUSH1 0x14 DUP2 MSTORE PUSH1 0x20 ADD PUSH32 0x41434C5F4558495354454E545F4D414E41474552000000000000000000000000 DUP2 MSTORE POP SWAP1 ISZERO ISZERO PUSH2 0x1A66 JUMPI PUSH1 0x40 MLOAD PUSH32 0x8C379A000000000000000000000000000000000000000000000000000000000 DUP2 MSTORE PUSH1 0x4 ADD DUP1 DUP1 PUSH1 0x20 ADD DUP3 DUP2 SUB DUP3 MSTORE DUP4 DUP2 DUP2 MLOAD DUP2 MSTORE PUSH1 0x20 ADD SWAP2 POP DUP1 MLOAD SWAP1 PUSH1 0x20 ADD SWAP1 DUP1 DUP4 DUP4 PUSH1 0x0 DUP4 DUP2 LT ISZERO PUSH2 0x9DA JUMPI DUP2 DUP2 ADD MLOAD DUP4 DUP3 ADD MSTORE PUSH1 0x20 ADD PUSH2 0x9C2 JUMP JUMPDEST POP PUSH2 0xF66 DUP8 DUP8 DUP8 DUP8 PUSH2 0x27EB JUMP JUMPDEST PUSH2 0x1A7B PUSH2 0xFCC JUMP JUMPDEST PUSH1 0x40 DUP1 MLOAD DUP1 DUP3 ADD SWAP1 SWAP2 MSTORE PUSH1 0x18 DUP2 MSTORE PUSH32 0x494E49545F414C52454144595F494E495449414C495A45440000000000000000 PUSH1 0x20 DUP3 ADD MSTORE SWAP1 ISZERO PUSH2 0x1B17 JUMPI PUSH1 0x40 MLOAD PUSH32 0x8C379A000000000000000000000000000000000000000000000000000000000 DUP2 MSTORE PUSH1 0x4 ADD DUP1 DUP1 PUSH1 0x20 ADD DUP3 DUP2 SUB DUP3 MSTORE DUP4 DUP2 DUP2 MLOAD DUP2 MSTORE PUSH1 0x20 ADD SWAP2 POP DUP1 MLOAD SWAP1 PUSH1 0x20 ADD SWAP1 DUP1 DUP4 DUP4 PUSH1 0x0 DUP4 DUP2 LT ISZERO PUSH2 0x9DA JUMPI DUP2 DUP2 ADD MLOAD DUP4 DUP3 ADD MSTORE PUSH1 0x20 ADD PUSH2 0x9C2 JUMP JUMPDEST POP PUSH2 0x1B20 PUSH2 0x2822 JUMP JUMPDEST PUSH2 0x1B28 PUSH2 0x1C2F JUMP JUMPDEST PUSH1 0x40 DUP1 MLOAD DUP1 DUP3 ADD SWAP1 SWAP2 MSTORE PUSH1 0x14 DUP2 MSTORE PUSH32 0x41434C5F415554485F494E49545F4B45524E454C000000000000000000000000 PUSH1 0x20 DUP3 ADD MSTORE SWAP1 PUSH20 0xFFFFFFFFFFFFFFFFFFFFFFFFFFFFFFFFFFFFFFFF AND CALLER EQ PUSH2 0x1BDB JUMPI PUSH1 0x40 MLOAD PUSH32 0x8C379A000000000000000000000000000000000000000000000000000000000 DUP2 MSTORE PUSH1 0x4 ADD DUP1 DUP1 PUSH1 0x20 ADD DUP3 DUP2 SUB DUP3 MSTORE DUP4 DUP2 DUP2 MLOAD DUP2 MSTORE PUSH1 0x20 ADD SWAP2 POP DUP1 MLOAD SWAP1 PUSH1 0x20 ADD SWAP1 DUP1 DUP4 DUP4 PUSH1 0x0 DUP4 DUP2 LT ISZERO PUSH2 0x9DA JUMPI DUP2 DUP2 ADD MLOAD DUP4 DUP3 ADD MSTORE PUSH1 0x20 ADD PUSH2 0x9C2 JUMP JUMPDEST POP PUSH2 0x1C08 DUP2 ADDRESS PUSH32 0xB719B33C83B8E5D300C521CB8B54AE9BD933996A14BEF8C2F4E0285D2D2400A DUP3 PUSH2 0x27EB JUMP JUMPDEST POP JUMP JUMPDEST PUSH32 0x290DECD9548B62A8D60345A988386FC84BA6BC95484008F6362F93160EF3E563 DUP2 JUMP JUMPDEST PUSH1 0x0 PUSH2 0xFC7 PUSH32 0x4172F0F7D2289153072B0A6CA36959E0CBE2EFC3AFE50FC81636CAA96338137B PUSH2 0x24C5 JUMP JUMPDEST PUSH1 0x0 PUSH32 0xFFFFFFFFFFFFFFFFFFFFFFFFFFFFFFFFFFFFFFFFFFFFFFFFFFFFFFFFFFFFFFFF PUSH2 0x1C85 PUSH2 0xFCC JUMP JUMPDEST EQ SWAP1 POP SWAP1 JUMP JUMPDEST PUSH1 0x1 DUP2 JUMP JUMPDEST PUSH1 0x0 DUP1 PUSH1 0x0 DUP1 PUSH1 0x0 PUSH2 0x1CA3 DUP10 DUP10 DUP10 PUSH2 0x1E21 JUMP JUMPDEST DUP2 MSTORE PUSH1 0x20 DUP2 ADD SWAP2 SWAP1 SWAP2 MSTORE PUSH1 0x40 ADD PUSH1 0x0 KECCAK256 SLOAD SWAP2 POP DUP2 ISZERO DUP1 ISZERO SWAP1 PUSH2 0x1CCD JUMPI POP PUSH2 0x1CCD DUP3 DUP9 DUP9 DUP9 DUP9 PUSH2 0xC3E JUMP JUMPDEST ISZERO PUSH2 0x1CDB JUMPI PUSH1 0x1 SWAP3 POP PUSH2 0x1D66 JUMP JUMPDEST PUSH1 0x0 DUP1 PUSH2 0x1D09 PUSH32 0xFFFFFFFFFFFFFFFFFFFFFFFFFFFFFFFFFFFFFFFFFFFFFFFFFFFFFFFFFFFFFFFF DUP10 DUP10 PUSH2 0x1E21 JUMP JUMPDEST DUP2 MSTORE PUSH1 0x20 DUP2 ADD SWAP2 SWAP1 SWAP2 MSTORE PUSH1 0x40 ADD PUSH1 0x0 KECCAK256 SLOAD SWAP1 POP DUP1 ISZERO DUP1 ISZERO SWAP1 PUSH2 0x1D53 JUMPI POP PUSH2 0x1D53 DUP2 PUSH32 0xFFFFFFFFFFFFFFFFFFFFFFFFFFFFFFFFFFFFFFFFFFFFFFFFFFFFFFFFFFFFFFFF DUP9 DUP9 DUP9 PUSH2 0xC3E JUMP JUMPDEST ISZERO PUSH2 0x1D61 JUMPI PUSH1 0x1 SWAP3 POP PUSH2 0x1D66 JUMP JUMPDEST PUSH1 0x0 SWAP3 POP JUMPDEST POP POP SWAP5 SWAP4 POP POP POP POP JUMP JUMPDEST PUSH1 0x0 PUSH2 0xC82 DUP6 DUP6 DUP6 PUSH2 0x1D81 DUP7 PUSH2 0x2901 JUMP JUMPDEST PUSH2 0x1C90 JUMP JUMPDEST NUMBER SWAP1 JUMP JUMPDEST DUP3 PUSH1 0x2 PUSH1 0x0 PUSH2 0x1D99 DUP6 DUP6 PUSH2 0x26D9 JUMP JUMPDEST DUP2 MSTORE PUSH1 0x20 DUP2 ADD SWAP2 SWAP1 SWAP2 MSTORE PUSH1 0x40 SWAP1 DUP2 ADD PUSH1 0x0 SWAP1 DUP2 KECCAK256 DUP1 SLOAD PUSH32 0xFFFFFFFFFFFFFFFFFFFFFFFF0000000000000000000000000000000000000000 AND PUSH20 0xFFFFFFFFFFFFFFFFFFFFFFFFFFFFFFFFFFFFFFFF SWAP5 DUP6 AND OR SWAP1 SSTORE SWAP1 MLOAD DUP6 DUP4 AND SWAP3 DUP5 SWAP3 SWAP1 DUP7 AND SWAP2 PUSH32 0xF3ADDC8B8E25EE11528A61B0E65092CAE0666EF0EC0C64CB303993C88D689B4D SWAP2 SWAP1 LOG4 POP POP POP JUMP JUMPDEST PUSH1 0x40 DUP1 MLOAD PUSH32 0x5045524D495353494F4E00000000000000000000000000000000000000000000 PUSH1 0x20 DUP1 DUP4 ADD SWAP2 SWAP1 SWAP2 MSTORE PUSH13 0x1000000000000000000000000 PUSH20 0xFFFFFFFFFFFFFFFFFFFFFFFFFFFFFFFFFFFFFFFF DUP1 DUP9 AND DUP3 MUL PUSH1 0x2A DUP6 ADD MSTORE DUP7 AND MUL PUSH1 0x3E DUP4 ADD MSTORE PUSH1 0x52 DUP1 DUP4 ADD DUP6 SWAP1 MSTORE DUP4 MLOAD DUP1 DUP5 SUB SWAP1 SWAP2 ADD DUP2 MSTORE PUSH1 0x72 SWAP1 SWAP3 ADD SWAP3 DUP4 SWAP1 MSTORE DUP2 MLOAD PUSH1 0x0 SWAP4 SWAP2 DUP3 SWAP2 SWAP1 DUP5 ADD SWAP1 DUP1 DUP4 DUP4 JUMPDEST PUSH1 0x20 DUP4 LT PUSH2 0x1EEC JUMPI DUP1 MLOAD DUP3 MSTORE PUSH32 0xFFFFFFFFFFFFFFFFFFFFFFFFFFFFFFFFFFFFFFFFFFFFFFFFFFFFFFFFFFFFFFE0 SWAP1 SWAP3 ADD SWAP2 PUSH1 0x20 SWAP2 DUP3 ADD SWAP2 ADD PUSH2 0x1EAF JUMP JUMPDEST MLOAD DUP2 MLOAD PUSH1 0x20 SWAP4 SWAP1 SWAP4 SUB PUSH2 0x100 EXP PUSH32 0xFFFFFFFFFFFFFFFFFFFFFFFFFFFFFFFFFFFFFFFFFFFFFFFFFFFFFFFFFFFFFFFF ADD DUP1 NOT SWAP1 SWAP2 AND SWAP3 AND SWAP2 SWAP1 SWAP2 OR SWAP1 MSTORE PUSH1 0x40 MLOAD SWAP3 ADD DUP3 SWAP1 SUB SWAP1 SWAP2 KECCAK256 SWAP8 SWAP7 POP POP POP POP POP POP POP JUMP JUMPDEST PUSH1 0x0 PUSH2 0x1F48 PUSH2 0x2EA6 JUMP JUMPDEST PUSH1 0x0 DUP9 DUP2 MSTORE PUSH1 0x1 PUSH1 0x20 MSTORE PUSH1 0x40 DUP2 KECCAK256 SLOAD DUP2 SWAP1 PUSH4 0xFFFFFFFF DUP11 AND LT PUSH2 0x1F6E JUMPI PUSH1 0x0 SWAP4 POP PUSH2 0x217A JUMP JUMPDEST PUSH1 0x0 DUP11 DUP2 MSTORE PUSH1 0x1 PUSH1 0x20 MSTORE PUSH1 0x40 SWAP1 KECCAK256 DUP1 SLOAD PUSH4 0xFFFFFFFF DUP12 AND SWAP1 DUP2 LT PUSH2 0x1F8E JUMPI INVALID JUMPDEST PUSH1 0x0 SWAP2 DUP3 MSTORE PUSH1 0x20 SWAP2 DUP3 SWAP1 KECCAK256 PUSH1 0x40 DUP1 MLOAD PUSH1 0x60 DUP2 ADD DUP3 MSTORE SWAP3 SWAP1 SWAP2 ADD SLOAD PUSH1 0xFF DUP1 DUP3 AND DUP1 DUP6 MSTORE PUSH2 0x100 DUP4 DIV SWAP1 SWAP2 AND SWAP5 DUP5 ADD SWAP5 SWAP1 SWAP5 MSTORE PUSH3 0x10000 SWAP1 DIV PUSH30 0xFFFFFFFFFFFFFFFFFFFFFFFFFFFFFFFFFFFFFFFFFFFFFFFFFFFFFFFFFFFF AND SWAP1 DUP3 ADD MSTORE SWAP4 POP PUSH1 0xCC EQ ISZERO PUSH2 0x2008 JUMPI PUSH2 0x2001 DUP4 DUP12 DUP11 DUP11 DUP11 DUP11 PUSH2 0x29C2 JUMP JUMPDEST SWAP4 POP PUSH2 0x217A JUMP JUMPDEST POP PUSH1 0x40 DUP3 ADD MLOAD DUP3 MLOAD PUSH30 0xFFFFFFFFFFFFFFFFFFFFFFFFFFFFFFFFFFFFFFFFFFFFFFFFFFFFFFFFFFFF SWAP1 SWAP2 AND SWAP1 PUSH1 0xFF AND PUSH1 0xCB EQ ISZERO PUSH2 0x206B JUMPI PUSH2 0x204F DUP4 PUSH1 0x40 ADD MLOAD DUP10 DUP10 DUP10 DUP10 PUSH2 0x2B95 JUMP JUMPDEST PUSH2 0x205A JUMPI PUSH1 0x0 PUSH2 0x205D JUMP JUMPDEST PUSH1 0x1 JUMPDEST PUSH1 0xFF AND SWAP2 POP PUSH1 0x1 SWAP1 POP PUSH2 0x2129 JUMP JUMPDEST DUP3 MLOAD PUSH1 0xFF AND PUSH1 0xC8 EQ ISZERO PUSH2 0x2087 JUMPI PUSH2 0x2080 PUSH2 0x1D86 JUMP JUMPDEST SWAP2 POP PUSH2 0x2129 JUMP JUMPDEST DUP3 MLOAD PUSH1 0xFF AND PUSH1 0xC9 EQ ISZERO PUSH2 0x209C JUMPI PUSH2 0x2080 PUSH2 0x2CFE JUMP JUMPDEST DUP3 MLOAD PUSH1 0xFF AND PUSH1 0xCD EQ ISZERO PUSH2 0x20D5 JUMPI DUP3 PUSH1 0x40 ADD MLOAD PUSH30 0xFFFFFFFFFFFFFFFFFFFFFFFFFFFFFFFFFFFFFFFFFFFFFFFFFFFFFFFFFFFF AND SWAP2 POP PUSH2 0x2129 JUMP JUMPDEST DUP5 MLOAD DUP4 MLOAD PUSH1 0xFF AND LT PUSH2 0x20EA JUMPI PUSH1 0x0 SWAP4 POP PUSH2 0x217A JUMP JUMPDEST DUP3 MLOAD DUP6 MLOAD DUP7 SWAP2 PUSH1 0xFF AND SWAP1 DUP2 LT PUSH2 0x20FC JUMPI INVALID JUMPDEST SWAP1 PUSH1 0x20 ADD SWAP1 PUSH1 0x20 MUL ADD MLOAD PUSH30 0xFFFFFFFFFFFFFFFFFFFFFFFFFFFFFFFFFFFFFFFFFFFFFFFFFFFFFFFFFFFF AND SWAP2 POP JUMPDEST PUSH1 0x7 DUP4 PUSH1 0x20 ADD MLOAD PUSH1 0xFF AND PUSH1 0xC DUP2 GT ISZERO PUSH2 0x213E JUMPI INVALID JUMPDEST PUSH1 0xC DUP2 GT ISZERO PUSH2 0x2149 JUMPI INVALID JUMPDEST EQ ISZERO PUSH2 0x215A JUMPI PUSH1 0x0 DUP3 GT SWAP4 POP PUSH2 0x217A JUMP JUMPDEST PUSH2 0x2177 DUP3 DUP5 PUSH1 0x20 ADD MLOAD PUSH1 0xFF AND PUSH1 0xC DUP2 GT ISZERO PUSH2 0x2171 JUMPI INVALID JUMPDEST DUP4 PUSH2 0x2D02 JUMP JUMPDEST SWAP4 POP JUMPDEST POP POP POP SWAP7 SWAP6 POP POP POP POP POP POP JUMP JUMPDEST PUSH1 0x0 DUP1 PUSH1 0x0 DUP1 PUSH1 0x0 PUSH2 0x2197 PUSH2 0x2EA6 JUMP JUMPDEST DUP7 PUSH1 0x40 MLOAD PUSH1 0x20 ADD DUP1 DUP3 DUP1 MLOAD SWAP1 PUSH1 0x20 ADD SWAP1 PUSH1 0x20 MUL DUP1 DUP4 DUP4 PUSH1 0x0 JUMPDEST DUP4 DUP2 LT ISZERO PUSH2 0x21C8 JUMPI DUP2 DUP2 ADD MLOAD DUP4 DUP3 ADD MSTORE PUSH1 0x20 ADD PUSH2 0x21B0 JUMP JUMPDEST POP POP POP POP SWAP1 POP ADD SWAP2 POP POP PUSH1 0x40 MLOAD PUSH1 0x20 DUP2 DUP4 SUB SUB DUP2 MSTORE SWAP1 PUSH1 0x40 MSTORE PUSH1 0x40 MLOAD DUP1 DUP3 DUP1 MLOAD SWAP1 PUSH1 0x20 ADD SWAP1 DUP1 DUP4 DUP4 JUMPDEST PUSH1 0x20 DUP4 LT PUSH2 0x222E JUMPI DUP1 MLOAD DUP3 MSTORE PUSH32 0xFFFFFFFFFFFFFFFFFFFFFFFFFFFFFFFFFFFFFFFFFFFFFFFFFFFFFFFFFFFFFFE0 SWAP1 SWAP3 ADD SWAP2 PUSH1 0x20 SWAP2 DUP3 ADD SWAP2 ADD PUSH2 0x21F1 JUMP JUMPDEST MLOAD DUP2 MLOAD PUSH1 0x20 SWAP4 DUP5 SUB PUSH2 0x100 EXP PUSH32 0xFFFFFFFFFFFFFFFFFFFFFFFFFFFFFFFFFFFFFFFFFFFFFFFFFFFFFFFFFFFFFFFF ADD DUP1 NOT SWAP1 SWAP3 AND SWAP2 AND OR SWAP1 MSTORE PUSH1 0x40 DUP1 MLOAD SWAP3 SWAP1 SWAP5 ADD DUP3 SWAP1 SUB SWAP1 SWAP2 KECCAK256 PUSH1 0x0 DUP2 DUP2 MSTORE PUSH1 0x1 SWAP1 SWAP3 MSTORE SWAP3 SWAP1 KECCAK256 DUP1 SLOAD SWAP3 SWAP10 POP SWAP8 POP POP ISZERO ISZERO SWAP2 POP PUSH2 0x23AC SWAP1 POP JUMPI PUSH1 0x0 SWAP3 POP JUMPDEST DUP7 MLOAD DUP4 LT ISZERO PUSH2 0x23AC JUMPI DUP7 DUP4 DUP2 MLOAD DUP2 LT ISZERO ISZERO PUSH2 0x22AF JUMPI INVALID JUMPDEST SWAP1 PUSH1 0x20 ADD SWAP1 PUSH1 0x20 MUL ADD MLOAD SWAP2 POP PUSH1 0x60 PUSH1 0x40 MLOAD SWAP1 DUP2 ADD PUSH1 0x40 MSTORE DUP1 PUSH2 0x22D0 DUP5 PUSH2 0x2DBF JUMP JUMPDEST PUSH1 0xFF AND DUP2 MSTORE PUSH1 0x20 ADD PUSH2 0x22E1 DUP5 PUSH2 0x2DE5 JUMP JUMPDEST PUSH1 0xFF SWAP1 DUP2 AND DUP3 MSTORE PUSH30 0xFFFFFFFFFFFFFFFFFFFFFFFFFFFFFFFFFFFFFFFFFFFFFFFFFFFFFFFFFFFF DUP6 DUP2 AND PUSH1 0x20 SWAP4 DUP5 ADD MSTORE DUP8 SLOAD PUSH1 0x1 DUP1 DUP3 ADD DUP11 SSTORE PUSH1 0x0 DUP11 DUP2 MSTORE DUP6 SWAP1 KECCAK256 DUP7 MLOAD SWAP3 ADD DUP1 SLOAD SWAP6 DUP8 ADD MLOAD PUSH1 0x40 DUP9 ADD MLOAD PUSH32 0xFFFFFFFFFFFFFFFFFFFFFFFFFFFFFFFFFFFFFFFFFFFFFFFFFFFFFFFFFFFFFF00 SWAP1 SWAP8 AND SWAP4 DUP7 AND SWAP4 SWAP1 SWAP4 OR PUSH32 0xFFFFFFFFFFFFFFFFFFFFFFFFFFFFFFFFFFFFFFFFFFFFFFFFFFFFFFFFFFFF00FF AND PUSH2 0x100 SWAP4 SWAP1 SWAP6 AND SWAP3 SWAP1 SWAP3 MUL SWAP4 SWAP1 SWAP4 OR PUSH2 0xFFFF AND PUSH3 0x10000 SWAP5 SWAP1 SWAP3 AND SWAP4 SWAP1 SWAP4 MUL OR SWAP1 SWAP2 SSTORE SWAP4 SWAP1 SWAP4 ADD SWAP3 SWAP1 POP PUSH2 0x2298 JUMP JUMPDEST POP SWAP3 SWAP6 SWAP5 POP POP POP POP POP JUMP JUMPDEST PUSH1 0x0 DUP1 DUP3 PUSH1 0x0 DUP1 PUSH2 0x23C9 DUP10 DUP10 DUP10 PUSH2 0x1E21 JUMP JUMPDEST DUP2 MSTORE PUSH1 0x20 DUP2 ADD SWAP2 SWAP1 SWAP2 MSTORE PUSH1 0x40 ADD PUSH1 0x0 KECCAK256 SSTORE DUP3 ISZERO DUP1 ISZERO SWAP3 POP DUP3 SWAP1 PUSH2 0x240C JUMPI POP PUSH32 0x290DECD9548B62A8D60345A988386FC84BA6BC95484008F6362F93160EF3E563 DUP4 EQ ISZERO JUMPDEST PUSH1 0x40 DUP1 MLOAD DUP5 ISZERO ISZERO DUP2 MSTORE SWAP1 MLOAD SWAP2 SWAP3 POP DUP6 SWAP2 PUSH20 0xFFFFFFFFFFFFFFFFFFFFFFFFFFFFFFFFFFFFFFFF DUP1 DUP10 AND SWAP3 SWAP1 DUP11 AND SWAP2 PUSH32 0x759B9A74D5354B5801710A0C1B283CC9F0D32B607AC8CED10C83AC8E75C77D52 SWAP2 DUP2 SWAP1 SUB PUSH1 0x20 ADD SWAP1 LOG4 DUP1 ISZERO PUSH2 0x24BD JUMPI PUSH1 0x40 DUP1 MLOAD DUP5 DUP2 MSTORE SWAP1 MLOAD DUP6 SWAP2 PUSH20 0xFFFFFFFFFFFFFFFFFFFFFFFFFFFFFFFFFFFFFFFF DUP1 DUP10 AND SWAP3 SWAP1 DUP11 AND SWAP2 PUSH32 0x8DFEE25D92D73B8C9B868F9FA3E215CC1981033F426E53803E3DA4F09A2CFC30 SWAP2 SWAP1 DUP2 SWAP1 SUB PUSH1 0x20 ADD SWAP1 LOG4 JUMPDEST POP POP POP POP POP POP JUMP JUMPDEST SLOAD SWAP1 JUMP JUMPDEST SLOAD SWAP1 JUMP JUMPDEST PUSH1 0x0 DUP1 PUSH20 0xFFFFFFFFFFFFFFFFFFFFFFFFFFFFFFFFFFFFFFFF DUP4 AND ISZERO ISZERO PUSH2 0x24F6 JUMPI PUSH1 0x0 SWAP2 POP PUSH2 0x2501 JUMP JUMPDEST DUP3 EXTCODESIZE SWAP1 POP PUSH1 0x0 DUP2 GT SWAP2 POP JUMPDEST POP SWAP2 SWAP1 POP JUMP JUMPDEST PUSH1 0x40 DUP1 MLOAD PUSH20 0xFFFFFFFFFFFFFFFFFFFFFFFFFFFFFFFFFFFFFFFF DUP4 AND PUSH1 0x24 DUP1 DUP4 ADD SWAP2 SWAP1 SWAP2 MSTORE DUP3 MLOAD DUP1 DUP4 SUB SWAP1 SWAP2 ADD DUP2 MSTORE PUSH1 0x44 SWAP1 SWAP2 ADD SWAP1 SWAP2 MSTORE PUSH1 0x20 DUP2 ADD DUP1 MLOAD PUSH28 0xFFFFFFFFFFFFFFFFFFFFFFFFFFFFFFFFFFFFFFFFFFFFFFFFFFFFFFFF AND PUSH32 0x70A0823100000000000000000000000000000000000000000000000000000000 OR SWAP1 MSTORE PUSH1 0x0 SWAP1 DUP2 DUP1 PUSH2 0x2594 DUP7 DUP5 PUSH2 0x2E0A JUMP JUMPDEST PUSH1 0x40 DUP1 MLOAD DUP1 DUP3 ADD SWAP1 SWAP2 MSTORE PUSH1 0x1C DUP2 MSTORE PUSH32 0x534146455F4552435F32305F42414C414E43455F524556455254454400000000 PUSH1 0x20 DUP3 ADD MSTORE SWAP2 SWAP4 POP SWAP2 POP DUP3 ISZERO ISZERO PUSH2 0x2636 JUMPI PUSH1 0x40 MLOAD PUSH32 0x8C379A000000000000000000000000000000000000000000000000000000000 DUP2 MSTORE PUSH1 0x4 ADD DUP1 DUP1 PUSH1 0x20 ADD DUP3 DUP2 SUB DUP3 MSTORE DUP4 DUP2 DUP2 MLOAD DUP2 MSTORE PUSH1 0x20 ADD SWAP2 POP DUP1 MLOAD SWAP1 PUSH1 0x20 ADD SWAP1 DUP1 DUP4 DUP4 PUSH1 0x0 DUP4 DUP2 LT ISZERO PUSH2 0x9DA JUMPI DUP2 DUP2 ADD MLOAD DUP4 DUP3 ADD MSTORE PUSH1 0x20 ADD PUSH2 0x9C2 JUMP JUMPDEST POP SWAP6 SWAP5 POP POP POP POP POP JUMP JUMPDEST PUSH1 0x40 DUP1 MLOAD PUSH20 0xFFFFFFFFFFFFFFFFFFFFFFFFFFFFFFFFFFFFFFFF DUP5 AND PUSH1 0x24 DUP3 ADD MSTORE PUSH1 0x44 DUP1 DUP3 ADD DUP5 SWAP1 MSTORE DUP3 MLOAD DUP1 DUP4 SUB SWAP1 SWAP2 ADD DUP2 MSTORE PUSH1 0x64 SWAP1 SWAP2 ADD SWAP1 SWAP2 MSTORE PUSH1 0x20 DUP2 ADD DUP1 MLOAD PUSH28 0xFFFFFFFFFFFFFFFFFFFFFFFFFFFFFFFFFFFFFFFFFFFFFFFFFFFFFFFF AND PUSH32 0xA9059CBB00000000000000000000000000000000000000000000000000000000 OR SWAP1 MSTORE PUSH1 0x0 SWAP1 PUSH2 0xF8B DUP6 DUP3 PUSH2 0x2E3B JUMP JUMPDEST DUP1 MLOAD PUSH1 0x20 MUL DUP2 MSTORE SWAP1 JUMP JUMPDEST PUSH1 0x40 DUP1 MLOAD PUSH32 0x524F4C4500000000000000000000000000000000000000000000000000000000 PUSH1 0x20 DUP1 DUP4 ADD SWAP2 SWAP1 SWAP2 MSTORE PUSH13 0x1000000000000000000000000 PUSH20 0xFFFFFFFFFFFFFFFFFFFFFFFFFFFFFFFFFFFFFFFF DUP7 AND MUL PUSH1 0x24 DUP4 ADD MSTORE PUSH1 0x38 DUP1 DUP4 ADD DUP6 SWAP1 MSTORE DUP4 MLOAD DUP1 DUP5 SUB SWAP1 SWAP2 ADD DUP2 MSTORE PUSH1 0x58 SWAP1 SWAP3 ADD SWAP3 DUP4 SWAP1 MSTORE DUP2 MLOAD PUSH1 0x0 SWAP4 SWAP2 DUP3 SWAP2 SWAP1 DUP5 ADD SWAP1 DUP1 DUP4 DUP4 JUMPDEST PUSH1 0x20 DUP4 LT PUSH2 0x279A JUMPI DUP1 MLOAD DUP3 MSTORE PUSH32 0xFFFFFFFFFFFFFFFFFFFFFFFFFFFFFFFFFFFFFFFFFFFFFFFFFFFFFFFFFFFFFFE0 SWAP1 SWAP3 ADD SWAP2 PUSH1 0x20 SWAP2 DUP3 ADD SWAP2 ADD PUSH2 0x275D JUMP JUMPDEST MLOAD DUP2 MLOAD PUSH1 0x20 SWAP4 SWAP1 SWAP4 SUB PUSH2 0x100 EXP PUSH32 0xFFFFFFFFFFFFFFFFFFFFFFFFFFFFFFFFFFFFFFFFFFFFFFFFFFFFFFFFFFFFFFFF ADD DUP1 NOT SWAP1 SWAP2 AND SWAP3 AND SWAP2 SWAP1 SWAP2 OR SWAP1 MSTORE PUSH1 0x40 MLOAD SWAP3 ADD DUP3 SWAP1 SUB SWAP1 SWAP2 KECCAK256 SWAP7 SWAP6 POP POP POP POP POP POP JUMP JUMPDEST PUSH2 0x2817 DUP5 DUP5 DUP5 PUSH32 0x290DECD9548B62A8D60345A988386FC84BA6BC95484008F6362F93160EF3E563 PUSH2 0x23B7 JUMP JUMPDEST PUSH2 0xBBA DUP2 DUP5 DUP5 PUSH2 0x1D8A JUMP JUMPDEST PUSH2 0x282A PUSH2 0xFCC JUMP JUMPDEST PUSH1 0x40 DUP1 MLOAD DUP1 DUP3 ADD SWAP1 SWAP2 MSTORE PUSH1 0x18 DUP2 MSTORE PUSH32 0x494E49545F414C52454144595F494E495449414C495A45440000000000000000 PUSH1 0x20 DUP3 ADD MSTORE SWAP1 ISZERO PUSH2 0x28C6 JUMPI PUSH1 0x40 MLOAD PUSH32 0x8C379A000000000000000000000000000000000000000000000000000000000 DUP2 MSTORE PUSH1 0x4 ADD DUP1 DUP1 PUSH1 0x20 ADD DUP3 DUP2 SUB DUP3 MSTORE DUP4 DUP2 DUP2 MLOAD DUP2 MSTORE PUSH1 0x20 ADD SWAP2 POP DUP1 MLOAD SWAP1 PUSH1 0x20 ADD SWAP1 DUP1 DUP4 DUP4 PUSH1 0x0 DUP4 DUP2 LT ISZERO PUSH2 0x9DA JUMPI DUP2 DUP2 ADD MLOAD DUP4 DUP3 ADD MSTORE PUSH1 0x20 ADD PUSH2 0x9C2 JUMP JUMPDEST POP PUSH2 0x28FF PUSH2 0x28D2 PUSH2 0x1D86 JUMP JUMPDEST PUSH32 0xEBB05B386A8D34882B8711D156F463690983DC47815980FB82AEEFF1AA43579E SWAP1 PUSH4 0xFFFFFFFF PUSH2 0x2E89 AND JUMP JUMPDEST JUMP JUMPDEST PUSH1 0x60 PUSH1 0x0 PUSH1 0x20 DUP4 MLOAD DUP2 ISZERO ISZERO PUSH2 0x2912 JUMPI INVALID JUMPDEST DIV SWAP1 POP DUP1 PUSH1 0x20 MUL DUP4 MLOAD EQ PUSH1 0x40 DUP1 MLOAD SWAP1 DUP2 ADD PUSH1 0x40 MSTORE DUP1 PUSH1 0x1A DUP2 MSTORE PUSH1 0x20 ADD PUSH32 0x434F4E56455253494F4E5F494D50524F5045525F4C454E475448000000000000 DUP2 MSTORE POP SWAP1 ISZERO ISZERO PUSH2 0x29BB JUMPI PUSH1 0x40 MLOAD PUSH32 0x8C379A000000000000000000000000000000000000000000000000000000000 DUP2 MSTORE PUSH1 0x4 ADD DUP1 DUP1 PUSH1 0x20 ADD DUP3 DUP2 SUB DUP3 MSTORE DUP4 DUP2 DUP2 MLOAD DUP2 MSTORE PUSH1 0x20 ADD SWAP2 POP DUP1 MLOAD SWAP1 PUSH1 0x20 ADD SWAP1 DUP1 DUP4 DUP4 PUSH1 0x0 DUP4 DUP2 LT ISZERO PUSH2 0x9DA JUMPI DUP2 DUP2 ADD MLOAD DUP4 DUP3 ADD MSTORE PUSH1 0x20 ADD PUSH2 0x9C2 JUMP JUMPDEST POP DUP3 MSTORE POP SWAP1 JUMP JUMPDEST PUSH1 0x0 DUP1 DUP1 DUP1 DUP1 DUP1 DUP1 DUP1 DUP1 PUSH1 0xC DUP16 PUSH1 0x20 ADD MLOAD PUSH1 0xFF AND PUSH1 0xC DUP2 GT ISZERO PUSH2 0x29E1 JUMPI INVALID JUMPDEST PUSH1 0xC DUP2 GT ISZERO PUSH2 0x29EC JUMPI INVALID JUMPDEST EQ ISZERO PUSH2 0x2A57 JUMPI PUSH2 0x2A1F DUP16 PUSH1 0x40 ADD MLOAD PUSH30 0xFFFFFFFFFFFFFFFFFFFFFFFFFFFFFFFFFFFFFFFFFFFFFFFFFFFFFFFFFFFF AND PUSH2 0x2E8D JUMP JUMPDEST SWAP2 SWAP10 POP SWAP8 POP SWAP6 POP PUSH2 0x2A34 DUP15 DUP10 DUP16 DUP16 DUP16 DUP16 PUSH2 0x1F3E JUMP JUMPDEST SWAP5 POP PUSH2 0x2A50 DUP15 DUP7 PUSH2 0x2A45 JUMPI DUP8 PUSH2 0x2A47 JUMP JUMPDEST DUP9 JUMPDEST DUP16 DUP16 DUP16 DUP16 PUSH2 0x1F3E JUMP JUMPDEST SWAP9 POP PUSH2 0x2B83 JUMP JUMPDEST PUSH2 0x2A84 DUP16 PUSH1 0x40 ADD MLOAD PUSH30 0xFFFFFFFFFFFFFFFFFFFFFFFFFFFFFFFFFFFFFFFFFFFFFFFFFFFFFFFFFFFF AND PUSH2 0x2E8D JUMP JUMPDEST POP SWAP1 SWAP5 POP SWAP3 POP PUSH2 0x2A98 DUP15 DUP6 DUP16 DUP16 DUP16 DUP16 PUSH2 0x1F3E JUMP JUMPDEST SWAP2 POP PUSH1 0x8 DUP16 PUSH1 0x20 ADD MLOAD PUSH1 0xFF AND PUSH1 0xC DUP2 GT ISZERO PUSH2 0x2AAF JUMPI INVALID JUMPDEST PUSH1 0xC DUP2 GT ISZERO PUSH2 0x2ABA JUMPI INVALID JUMPDEST EQ ISZERO PUSH2 0x2AC9 JUMPI DUP2 ISZERO SWAP9 POP PUSH2 0x2B83 JUMP JUMPDEST DUP2 DUP1 ISZERO PUSH2 0x2AF3 JUMPI POP PUSH1 0xA DUP16 PUSH1 0x20 ADD MLOAD PUSH1 0xFF AND PUSH1 0xC DUP2 GT ISZERO PUSH2 0x2AE6 JUMPI INVALID JUMPDEST PUSH1 0xC DUP2 GT ISZERO PUSH2 0x2AF1 JUMPI INVALID JUMPDEST EQ JUMPDEST ISZERO PUSH2 0x2B01 JUMPI PUSH1 0x1 SWAP9 POP PUSH2 0x2B83 JUMP JUMPDEST DUP2 ISZERO DUP1 ISZERO PUSH2 0x2B2C JUMPI POP PUSH1 0x9 DUP16 PUSH1 0x20 ADD MLOAD PUSH1 0xFF AND PUSH1 0xC DUP2 GT ISZERO PUSH2 0x2B1F JUMPI INVALID JUMPDEST PUSH1 0xC DUP2 GT ISZERO PUSH2 0x2B2A JUMPI INVALID JUMPDEST EQ JUMPDEST ISZERO PUSH2 0x2B3A JUMPI PUSH1 0x0 SWAP9 POP PUSH2 0x2B83 JUMP JUMPDEST PUSH2 0x2B48 DUP15 DUP5 DUP16 DUP16 DUP16 DUP16 PUSH2 0x1F3E JUMP JUMPDEST SWAP1 POP PUSH1 0xB DUP16 PUSH1 0x20 ADD MLOAD PUSH1 0xFF AND PUSH1 0xC DUP2 GT ISZERO PUSH2 0x2B5F JUMPI INVALID JUMPDEST PUSH1 0xC DUP2 GT ISZERO PUSH2 0x2B6A JUMPI INVALID JUMPDEST EQ ISZERO PUSH2 0x2B7F JUMPI DUP1 ISZERO ISZERO DUP3 ISZERO ISZERO EQ ISZERO SWAP9 POP PUSH2 0x2B83 JUMP JUMPDEST DUP1 SWAP9 POP JUMPDEST POP POP POP POP POP POP POP POP SWAP7 SWAP6 POP POP POP POP POP POP JUMP JUMPDEST PUSH1 0x40 MLOAD PUSH20 0xFFFFFFFFFFFFFFFFFFFFFFFFFFFFFFFFFFFFFFFF DUP6 DUP2 AND PUSH1 0x24 DUP4 ADD SWAP1 DUP2 MSTORE SWAP1 DUP6 AND PUSH1 0x44 DUP4 ADD MSTORE PUSH1 0x64 DUP3 ADD DUP5 SWAP1 MSTORE PUSH1 0x80 PUSH1 0x84 DUP4 ADD SWAP1 DUP2 MSTORE DUP4 MLOAD PUSH1 0xA4 DUP5 ADD MSTORE DUP4 MLOAD PUSH1 0x0 SWAP4 PUSH32 0x2A15109000000000000000000000000000000000000000000000000000000000 SWAP4 PUSH1 0x60 SWAP4 DUP7 SWAP4 DUP5 SWAP4 DUP5 SWAP4 DUP9 SWAP4 DUP15 SWAP4 DUP15 SWAP4 DUP15 SWAP4 DUP15 SWAP4 SWAP1 SWAP3 SWAP1 SWAP2 PUSH1 0xC4 ADD SWAP1 PUSH1 0x20 DUP1 DUP7 ADD SWAP2 MUL DUP1 DUP4 DUP4 DUP14 JUMPDEST DUP4 DUP2 LT ISZERO PUSH2 0x2C3C JUMPI DUP2 DUP2 ADD MLOAD DUP4 DUP3 ADD MSTORE PUSH1 0x20 ADD PUSH2 0x2C24 JUMP JUMPDEST POP POP POP POP SWAP1 POP ADD SWAP6 POP POP POP POP POP POP PUSH1 0x40 MLOAD PUSH1 0x20 DUP2 DUP4 SUB SUB DUP2 MSTORE SWAP1 PUSH1 0x40 MSTORE SWAP1 PUSH28 0xFFFFFFFFFFFFFFFFFFFFFFFFFFFFFFFFFFFFFFFFFFFFFFFFFFFFFFFF NOT AND PUSH1 0x20 DUP3 ADD DUP1 MLOAD PUSH28 0xFFFFFFFFFFFFFFFFFFFFFFFFFFFFFFFFFFFFFFFFFFFFFFFFFFFFFFFF DUP4 DUP2 DUP4 AND OR DUP4 MSTORE POP POP POP POP SWAP4 POP PUSH1 0x0 DUP1 DUP6 MLOAD PUSH1 0x20 DUP8 ADD DUP15 GAS STATICCALL SWAP3 POP DUP3 ISZERO ISZERO PUSH2 0x2CC7 JUMPI PUSH1 0x0 SWAP6 POP PUSH2 0x2CF0 JUMP JUMPDEST RETURNDATASIZE SWAP2 POP PUSH1 0x20 DUP3 EQ PUSH2 0x2CDB JUMPI PUSH1 0x0 SWAP6 POP PUSH2 0x2CF0 JUMP JUMPDEST PUSH1 0x40 MLOAD DUP3 PUSH1 0x0 DUP3 RETURNDATACOPY DUP1 MLOAD SWAP2 POP PUSH1 0x0 DUP2 MSTORE POP DUP1 SWAP6 POP JUMPDEST POP POP POP POP POP SWAP6 SWAP5 POP POP POP POP POP JUMP JUMPDEST TIMESTAMP SWAP1 JUMP JUMPDEST PUSH1 0x0 PUSH1 0x1 DUP4 PUSH1 0xC DUP2 GT ISZERO PUSH2 0x2D12 JUMPI INVALID JUMPDEST EQ ISZERO PUSH2 0x2D21 JUMPI POP DUP3 DUP2 EQ PUSH2 0xC37 JUMP JUMPDEST PUSH1 0x2 DUP4 PUSH1 0xC DUP2 GT ISZERO PUSH2 0x2D2F JUMPI INVALID JUMPDEST EQ ISZERO PUSH2 0x2D3F JUMPI POP DUP3 DUP2 EQ ISZERO PUSH2 0xC37 JUMP JUMPDEST PUSH1 0x3 DUP4 PUSH1 0xC DUP2 GT ISZERO PUSH2 0x2D4D JUMPI INVALID JUMPDEST EQ ISZERO PUSH2 0x2D5C JUMPI POP DUP1 DUP4 GT PUSH2 0xC37 JUMP JUMPDEST PUSH1 0x4 DUP4 PUSH1 0xC DUP2 GT ISZERO PUSH2 0x2D6A JUMPI INVALID JUMPDEST EQ ISZERO PUSH2 0x2D79 JUMPI POP DUP1 DUP4 LT PUSH2 0xC37 JUMP JUMPDEST PUSH1 0x5 DUP4 PUSH1 0xC DUP2 GT ISZERO PUSH2 0x2D87 JUMPI INVALID JUMPDEST EQ ISZERO PUSH2 0x2D97 JUMPI POP DUP1 DUP4 LT ISZERO PUSH2 0xC37 JUMP JUMPDEST PUSH1 0x6 DUP4 PUSH1 0xC DUP2 GT ISZERO PUSH2 0x2DA5 JUMPI INVALID JUMPDEST EQ ISZERO PUSH2 0x2DB5 JUMPI POP DUP1 DUP4 GT ISZERO PUSH2 0xC37 JUMP JUMPDEST POP PUSH1 0x0 SWAP4 SWAP3 POP POP POP JUMP JUMPDEST PUSH32 0x100000000000000000000000000000000000000000000000000000000000000 SWAP1 DIV SWAP1 JUMP JUMPDEST PUSH31 0x1000000000000000000000000000000000000000000000000000000000000 SWAP1 DIV SWAP1 JUMP JUMPDEST PUSH1 0x0 DUP1 PUSH1 0x0 DUP1 PUSH1 0x40 MLOAD PUSH1 0x20 DUP2 DUP8 MLOAD PUSH1 0x20 DUP10 ADD DUP11 GAS STATICCALL SWAP3 POP PUSH1 0x0 DUP4 GT ISZERO PUSH2 0x2E2F JUMPI DUP1 MLOAD SWAP2 POP JUMPDEST POP SWAP1 SWAP6 SWAP1 SWAP5 POP SWAP3 POP POP POP JUMP JUMPDEST PUSH1 0x0 DUP1 PUSH1 0x40 MLOAD PUSH1 0x20 DUP2 DUP6 MLOAD PUSH1 0x20 DUP8 ADD PUSH1 0x0 DUP10 GAS CALL PUSH1 0x0 DUP2 GT ISZERO PUSH2 0x2E7F JUMPI RETURNDATASIZE DUP1 ISZERO PUSH2 0x2E6C JUMPI PUSH1 0x20 DUP2 EQ PUSH2 0x2E75 JUMPI PUSH2 0x2E7D JUMP JUMPDEST PUSH1 0x1 SWAP4 POP PUSH2 0x2E7D JUMP JUMPDEST PUSH1 0x1 DUP4 MLOAD EQ SWAP4 POP JUMPDEST POP JUMPDEST POP SWAP1 SWAP5 SWAP4 POP POP POP POP JUMP JUMPDEST SWAP1 SSTORE JUMP JUMPDEST SWAP1 PUSH5 0x100000000 DUP3 DIV SWAP1 PUSH9 0x10000000000000000 DUP4 DIV SWAP1 JUMP JUMPDEST PUSH1 0x40 DUP1 MLOAD PUSH1 0x60 DUP2 ADD DUP3 MSTORE PUSH1 0x0 DUP1 DUP3 MSTORE PUSH1 0x20 DUP3 ADD DUP2 SWAP1 MSTORE SWAP2 DUP2 ADD SWAP2 SWAP1 SWAP2 MSTORE SWAP1 JUMP STOP LOG1 PUSH6 0x627A7A723058 KECCAK256 GASPRICE DIFFICULTY PUSH11 0x2E780A3DD0A04784AAFD5 BLOCKHASH PUSH10 0xC9A29895C1BA6A62BB84 SHR DUP11 SELFDESTRUCT SWAP11 0xc1 DUP12 STOP 0x29 0xeb 0xb0 JUMPDEST CODESIZE PUSH11 0x8D34882B8711D156F46369 MULMOD DUP4 0xdc 0x47 DUP2 MSIZE DUP1 CREATE2 DUP3 0xae 0xef CALL 0xaa NUMBER JUMPI SWAP15 "
		},
		"gasEstimates": {
			"creation": {
				"codeDepositCost": "2403600",
				"executionCost": "infinite",
				"totalCost": "infinite"
			},
			"external": {
				"ANY_ENTITY()": "633",
				"BURN_ENTITY()": "831",
				"CREATE_PERMISSIONS_ROLE()": "382",
				"EMPTY_PARAM_HASH()": "756",
				"NO_PERMISSION()": "316",
				"allowRecoverability(address)": "468",
				"appId()": "705",
				"burnPermissionManager(address,bytes32)": "infinite",
				"canPerform(address,bytes32,uint256[])": "infinite",
				"createBurnedPermission(address,bytes32)": "infinite",
				"createPermission(address,address,bytes32,address)": "infinite",
				"evalParams(bytes32,address,address,bytes32,uint256[])": "infinite",
				"getEVMScriptExecutor(bytes)": "infinite",
				"getEVMScriptRegistry()": "infinite",
				"getInitializationBlock()": "727",
				"getPermissionManager(address,bytes32)": "infinite",
				"getPermissionParam(address,address,bytes32,uint256)": "infinite",
				"getPermissionParamsLength(address,address,bytes32)": "infinite",
				"getRecoveryVault()": "infinite",
				"grantPermission(address,address,bytes32)": "infinite",
				"grantPermissionP(address,address,bytes32,uint256[])": "infinite",
				"hasInitialized()": "539",
				"hasPermission(address,address,bytes32)": "infinite",
				"hasPermission(address,address,bytes32,bytes)": "infinite",
				"hasPermission(address,address,bytes32,uint256[])": "infinite",
				"initialize(address)": "infinite",
				"isPetrified()": "1082",
				"kernel()": "1022",
				"removePermissionManager(address,bytes32)": "infinite",
				"revokePermission(address,address,bytes32)": "infinite",
				"setPermissionManager(address,address,bytes32)": "infinite",
				"transferToVault(address)": "infinite"
			},
			"internal": {
				"_createPermission(address,address,bytes32,address)": "infinite",
				"_evalLogic(struct ACL.Param memory,bytes32,address,address,bytes32,uint256[] memory)": "infinite",
				"_evalParam(bytes32,uint32,address,address,bytes32,uint256[] memory)": "infinite",
				"_saveParams(uint256[] memory)": "infinite",
				"_setPermission(address,address,bytes32,bytes32)": "infinite",
				"_setPermissionManager(address,address,bytes32)": "infinite",
				"checkOracle(contract IACLOracle,address,address,bytes32,uint256[] memory)": "infinite",
				"compare(uint256,enum ACL.Op,uint256)": "361",
				"permissionHash(address,address,bytes32)": "infinite",
				"roleHash(address,bytes32)": "infinite"
			}
		},
		"methodIdentifiers": {
			"ANY_ENTITY()": "a5ed8bf8",
			"BURN_ENTITY()": "f516bc0e",
			"CREATE_PERMISSIONS_ROLE()": "3d6ab68f",
			"EMPTY_PARAM_HASH()": "c513f66e",
			"NO_PERMISSION()": "1d63ff2b",
			"allowRecoverability(address)": "7e7db6e1",
			"appId()": "80afdea8",
			"burnPermissionManager(address,bytes32)": "09699ff5",
			"canPerform(address,bytes32,uint256[])": "a1658fad",
			"createBurnedPermission(address,bytes32)": "0808343e",
			"createPermission(address,address,bytes32,address)": "be038478",
			"evalParams(bytes32,address,address,bytes32,uint256[])": "1b5e75be",
			"getEVMScriptExecutor(bytes)": "2914b9bd",
			"getEVMScriptRegistry()": "a479e508",
			"getInitializationBlock()": "8b3dd749",
			"getPermissionManager(address,bytes32)": "b1905727",
			"getPermissionParam(address,address,bytes32,uint256)": "a03c5832",
			"getPermissionParamsLength(address,address,bytes32)": "15949ed7",
			"getRecoveryVault()": "32f0a3b5",
			"grantPermission(address,address,bytes32)": "0a8ed3db",
			"grantPermissionP(address,address,bytes32,uint256[])": "6815c992",
			"hasInitialized()": "0803fac0",
			"hasPermission(address,address,bytes32)": "6d6712d8",
			"hasPermission(address,address,bytes32,bytes)": "fdef9106",
			"hasPermission(address,address,bytes32,uint256[])": "f520b58d",
			"initialize(address)": "c4d66de8",
			"isPetrified()": "de4796ed",
			"kernel()": "d4aae0c4",
			"removePermissionManager(address,bytes32)": "a885508a",
			"revokePermission(address,address,bytes32)": "9d0effdb",
			"setPermissionManager(address,address,bytes32)": "afd925df",
			"transferToVault(address)": "9d4941d8"
		}
	},
	"abi": [
		{
			"constant": true,
			"inputs": [],
			"name": "hasInitialized",
			"outputs": [
				{
					"name": "",
					"type": "bool"
				}
			],
			"payable": false,
			"stateMutability": "view",
			"type": "function"
		},
		{
			"constant": false,
			"inputs": [
				{
					"name": "_app",
					"type": "address"
				},
				{
					"name": "_role",
					"type": "bytes32"
				}
			],
			"name": "createBurnedPermission",
			"outputs": [],
			"payable": false,
			"stateMutability": "nonpayable",
			"type": "function"
		},
		{
			"constant": false,
			"inputs": [
				{
					"name": "_app",
					"type": "address"
				},
				{
					"name": "_role",
					"type": "bytes32"
				}
			],
			"name": "burnPermissionManager",
			"outputs": [],
			"payable": false,
			"stateMutability": "nonpayable",
			"type": "function"
		},
		{
			"constant": false,
			"inputs": [
				{
					"name": "_entity",
					"type": "address"
				},
				{
					"name": "_app",
					"type": "address"
				},
				{
					"name": "_role",
					"type": "bytes32"
				}
			],
			"name": "grantPermission",
			"outputs": [],
			"payable": false,
			"stateMutability": "nonpayable",
			"type": "function"
		},
		{
			"constant": true,
			"inputs": [
				{
					"name": "_entity",
					"type": "address"
				},
				{
					"name": "_app",
					"type": "address"
				},
				{
					"name": "_role",
					"type": "bytes32"
				}
			],
			"name": "getPermissionParamsLength",
			"outputs": [
				{
					"name": "",
					"type": "uint256"
				}
			],
			"payable": false,
			"stateMutability": "view",
			"type": "function"
		},
		{
			"constant": true,
			"inputs": [
				{
					"name": "_paramsHash",
					"type": "bytes32"
				},
				{
					"name": "_who",
					"type": "address"
				},
				{
					"name": "_where",
					"type": "address"
				},
				{
					"name": "_what",
					"type": "bytes32"
				},
				{
					"name": "_how",
					"type": "uint256[]"
				}
			],
			"name": "evalParams",
			"outputs": [
				{
					"name": "",
					"type": "bool"
				}
			],
			"payable": false,
			"stateMutability": "view",
			"type": "function"
		},
		{
			"constant": true,
			"inputs": [],
			"name": "NO_PERMISSION",
			"outputs": [
				{
					"name": "",
					"type": "bytes32"
				}
			],
			"payable": false,
			"stateMutability": "view",
			"type": "function"
		},
		{
			"constant": true,
			"inputs": [
				{
					"name": "_script",
					"type": "bytes"
				}
			],
			"name": "getEVMScriptExecutor",
			"outputs": [
				{
					"name": "",
					"type": "address"
				}
			],
			"payable": false,
			"stateMutability": "view",
			"type": "function"
		},
		{
			"constant": true,
			"inputs": [],
			"name": "getRecoveryVault",
			"outputs": [
				{
					"name": "",
					"type": "address"
				}
			],
			"payable": false,
			"stateMutability": "view",
			"type": "function"
		},
		{
			"constant": true,
			"inputs": [],
			"name": "CREATE_PERMISSIONS_ROLE",
			"outputs": [
				{
					"name": "",
					"type": "bytes32"
				}
			],
			"payable": false,
			"stateMutability": "view",
			"type": "function"
		},
		{
			"constant": false,
			"inputs": [
				{
					"name": "_entity",
					"type": "address"
				},
				{
					"name": "_app",
					"type": "address"
				},
				{
					"name": "_role",
					"type": "bytes32"
				},
				{
					"name": "_params",
					"type": "uint256[]"
				}
			],
			"name": "grantPermissionP",
			"outputs": [],
			"payable": false,
			"stateMutability": "nonpayable",
			"type": "function"
		},
		{
			"constant": true,
			"inputs": [
				{
					"name": "_who",
					"type": "address"
				},
				{
					"name": "_where",
					"type": "address"
				},
				{
					"name": "_what",
					"type": "bytes32"
				}
			],
			"name": "hasPermission",
			"outputs": [
				{
					"name": "",
					"type": "bool"
				}
			],
			"payable": false,
			"stateMutability": "view",
			"type": "function"
		},
		{
			"constant": true,
			"inputs": [
				{
					"name": "token",
					"type": "address"
				}
			],
			"name": "allowRecoverability",
			"outputs": [
				{
					"name": "",
					"type": "bool"
				}
			],
			"payable": false,
			"stateMutability": "view",
			"type": "function"
		},
		{
			"constant": true,
			"inputs": [],
			"name": "appId",
			"outputs": [
				{
					"name": "",
					"type": "bytes32"
				}
			],
			"payable": false,
			"stateMutability": "view",
			"type": "function"
		},
		{
			"constant": true,
			"inputs": [],
			"name": "getInitializationBlock",
			"outputs": [
				{
					"name": "",
					"type": "uint256"
				}
			],
			"payable": false,
			"stateMutability": "view",
			"type": "function"
		},
		{
			"constant": false,
			"inputs": [
				{
					"name": "_entity",
					"type": "address"
				},
				{
					"name": "_app",
					"type": "address"
				},
				{
					"name": "_role",
					"type": "bytes32"
				}
			],
			"name": "revokePermission",
			"outputs": [],
			"payable": false,
			"stateMutability": "nonpayable",
			"type": "function"
		},
		{
			"constant": false,
			"inputs": [
				{
					"name": "_token",
					"type": "address"
				}
			],
			"name": "transferToVault",
			"outputs": [],
			"payable": false,
			"stateMutability": "nonpayable",
			"type": "function"
		},
		{
			"constant": true,
			"inputs": [
				{
					"name": "_entity",
					"type": "address"
				},
				{
					"name": "_app",
					"type": "address"
				},
				{
					"name": "_role",
					"type": "bytes32"
				},
				{
					"name": "_index",
					"type": "uint256"
				}
			],
			"name": "getPermissionParam",
			"outputs": [
				{
					"name": "",
					"type": "uint8"
				},
				{
					"name": "",
					"type": "uint8"
				},
				{
					"name": "",
					"type": "uint240"
				}
			],
			"payable": false,
			"stateMutability": "view",
			"type": "function"
		},
		{
			"constant": true,
			"inputs": [
				{
					"name": "_sender",
					"type": "address"
				},
				{
					"name": "_role",
					"type": "bytes32"
				},
				{
					"name": "_params",
					"type": "uint256[]"
				}
			],
			"name": "canPerform",
			"outputs": [
				{
					"name": "",
					"type": "bool"
				}
			],
			"payable": false,
			"stateMutability": "view",
			"type": "function"
		},
		{
			"constant": true,
			"inputs": [],
			"name": "getEVMScriptRegistry",
			"outputs": [
				{
					"name": "",
					"type": "address"
				}
			],
			"payable": false,
			"stateMutability": "view",
			"type": "function"
		},
		{
			"constant": true,
			"inputs": [],
			"name": "ANY_ENTITY",
			"outputs": [
				{
					"name": "",
					"type": "address"
				}
			],
			"payable": false,
			"stateMutability": "view",
			"type": "function"
		},
		{
			"constant": false,
			"inputs": [
				{
					"name": "_app",
					"type": "address"
				},
				{
					"name": "_role",
					"type": "bytes32"
				}
			],
			"name": "removePermissionManager",
			"outputs": [],
			"payable": false,
			"stateMutability": "nonpayable",
			"type": "function"
		},
		{
			"constant": false,
			"inputs": [
				{
					"name": "_newManager",
					"type": "address"
				},
				{
					"name": "_app",
					"type": "address"
				},
				{
					"name": "_role",
					"type": "bytes32"
				}
			],
			"name": "setPermissionManager",
			"outputs": [],
			"payable": false,
			"stateMutability": "nonpayable",
			"type": "function"
		},
		{
			"constant": true,
			"inputs": [
				{
					"name": "_app",
					"type": "address"
				},
				{
					"name": "_role",
					"type": "bytes32"
				}
			],
			"name": "getPermissionManager",
			"outputs": [
				{
					"name": "",
					"type": "address"
				}
			],
			"payable": false,
			"stateMutability": "view",
			"type": "function"
		},
		{
			"constant": false,
			"inputs": [
				{
					"name": "_entity",
					"type": "address"
				},
				{
					"name": "_app",
					"type": "address"
				},
				{
					"name": "_role",
					"type": "bytes32"
				},
				{
					"name": "_manager",
					"type": "address"
				}
			],
			"name": "createPermission",
			"outputs": [],
			"payable": false,
			"stateMutability": "nonpayable",
			"type": "function"
		},
		{
			"constant": false,
			"inputs": [
				{
					"name": "_permissionsCreator",
					"type": "address"
				}
			],
			"name": "initialize",
			"outputs": [],
			"payable": false,
			"stateMutability": "nonpayable",
			"type": "function"
		},
		{
			"constant": true,
			"inputs": [],
			"name": "EMPTY_PARAM_HASH",
			"outputs": [
				{
					"name": "",
					"type": "bytes32"
				}
			],
			"payable": false,
			"stateMutability": "view",
			"type": "function"
		},
		{
			"constant": true,
			"inputs": [],
			"name": "kernel",
			"outputs": [
				{
					"name": "",
					"type": "address"
				}
			],
			"payable": false,
			"stateMutability": "view",
			"type": "function"
		},
		{
			"constant": true,
			"inputs": [],
			"name": "isPetrified",
			"outputs": [
				{
					"name": "",
					"type": "bool"
				}
			],
			"payable": false,
			"stateMutability": "view",
			"type": "function"
		},
		{
			"constant": true,
			"inputs": [],
			"name": "BURN_ENTITY",
			"outputs": [
				{
					"name": "",
					"type": "address"
				}
			],
			"payable": false,
			"stateMutability": "view",
			"type": "function"
		},
		{
			"constant": true,
			"inputs": [
				{
					"name": "_who",
					"type": "address"
				},
				{
					"name": "_where",
					"type": "address"
				},
				{
					"name": "_what",
					"type": "bytes32"
				},
				{
					"name": "_how",
					"type": "uint256[]"
				}
			],
			"name": "hasPermission",
			"outputs": [
				{
					"name": "",
					"type": "bool"
				}
			],
			"payable": false,
			"stateMutability": "view",
			"type": "function"
		},
		{
			"constant": true,
			"inputs": [
				{
					"name": "_who",
					"type": "address"
				},
				{
					"name": "_where",
					"type": "address"
				},
				{
					"name": "_what",
					"type": "bytes32"
				},
				{
					"name": "_how",
					"type": "bytes"
				}
			],
			"name": "hasPermission",
			"outputs": [
				{
					"name": "",
					"type": "bool"
				}
			],
			"payable": false,
			"stateMutability": "view",
			"type": "function"
		},
		{
			"anonymous": false,
			"inputs": [
				{
					"indexed": true,
					"name": "entity",
					"type": "address"
				},
				{
					"indexed": true,
					"name": "app",
					"type": "address"
				},
				{
					"indexed": true,
					"name": "role",
					"type": "bytes32"
				},
				{
					"indexed": false,
					"name": "allowed",
					"type": "bool"
				}
			],
			"name": "SetPermission",
			"type": "event"
		},
		{
			"anonymous": false,
			"inputs": [
				{
					"indexed": true,
					"name": "entity",
					"type": "address"
				},
				{
					"indexed": true,
					"name": "app",
					"type": "address"
				},
				{
					"indexed": true,
					"name": "role",
					"type": "bytes32"
				},
				{
					"indexed": false,
					"name": "paramsHash",
					"type": "bytes32"
				}
			],
			"name": "SetPermissionParams",
			"type": "event"
		},
		{
			"anonymous": false,
			"inputs": [
				{
					"indexed": true,
					"name": "app",
					"type": "address"
				},
				{
					"indexed": true,
					"name": "role",
					"type": "bytes32"
				},
				{
					"indexed": true,
					"name": "manager",
					"type": "address"
				}
			],
			"name": "ChangePermissionManager",
			"type": "event"
		},
		{
			"anonymous": false,
			"inputs": [
				{
					"indexed": true,
					"name": "executor",
					"type": "address"
				},
				{
					"indexed": false,
					"name": "script",
					"type": "bytes"
				},
				{
					"indexed": false,
					"name": "input",
					"type": "bytes"
				},
				{
					"indexed": false,
					"name": "returnData",
					"type": "bytes"
				}
			],
			"name": "ScriptResult",
			"type": "event"
		},
		{
			"anonymous": false,
			"inputs": [
				{
					"indexed": true,
					"name": "vault",
					"type": "address"
				},
				{
					"indexed": true,
					"name": "token",
					"type": "address"
				},
				{
					"indexed": false,
					"name": "amount",
					"type": "uint256"
				}
			],
			"name": "RecoverToVault",
			"type": "event"
		}
	]
}