{
	"data": {
		"bytecode": {
			"linkReferences": {},
			"object": "608060405234801561001057600080fd5b50613362806100206000396000f300608060405260043610620000425763ffffffff7c01000000000000000000000000000000000000000000000000000000006000350416635b7b72c1811462000047575b600080fd5b3480156200005457600080fd5b506200006c620000663660046200020b565b62000084565b6040516200007b9190620003e3565b60405180910390f35b60008030888888888888620000986200015f565b620000aa97969594939291906200035f565b604051809103906000f080158015620000c7573d6000803e3d6000fd5b506040517f3cebb82300000000000000000000000000000000000000000000000000000000815290915073ffffffffffffffffffffffffffffffffffffffff821690633cebb823906200011f90339060040162000349565b600060405180830381600087803b1580156200013a57600080fd5b505af11580156200014f573d6000803e3d6000fd5b50929a9950505050505050505050565b604051612e27806200050283390190565b60006200017e82356200047f565b9392505050565b60006200017e82356200048d565b6000601f82018313620001a557600080fd5b8135620001bc620001b6826200041b565b620003f3565b91508082526020830160208301858383011115620001d957600080fd5b620001e68382846200049a565b50505092915050565b60006200017e823562000484565b60006200017e823562000487565b60008060008060008060c087890312156200022557600080fd5b600062000233898962000185565b96505060206200024689828a01620001ef565b955050604087013567ffffffffffffffff8111156200026457600080fd5b6200027289828a0162000193565b94505060606200028589828a01620001fd565b935050608087013567ffffffffffffffff811115620002a357600080fd5b620002b189828a0162000193565b92505060a0620002c489828a0162000170565b9150509295509295509295565b620002dc8162000466565b82525050565b620002dc816200047f565b620002dc816200048d565b6000620003058262000462565b8084526200031b816020860160208601620004a6565b6200032681620004d9565b9093016020019392505050565b620002dc8162000484565b620002dc8162000487565b60208101620003598284620002d1565b92915050565b60e081016200036f828a620002ed565b6200037e6020830189620002ed565b6200038d604083018862000333565b8181036060830152620003a18187620002f8565b9050620003b260808301866200033e565b81810360a0830152620003c68185620002f8565b9050620003d760c0830184620002e2565b98975050505050505050565b60208101620003598284620002ed565b60405181810167ffffffffffffffff811182821017156200041357600080fd5b604052919050565b600067ffffffffffffffff8211156200043357600080fd5b506020601f919091017fffffffffffffffffffffffffffffffffffffffffffffffffffffffffffffffe0160190565b5190565b73ffffffffffffffffffffffffffffffffffffffff1690565b151590565b90565b60ff1690565b6000620003598262000466565b82818337506000910152565b60005b83811015620004c3578181015183820152602001620004a9565b83811115620004d3576000848401525b50505050565b601f017fffffffffffffffffffffffffffffffffffffffffffffffffffffffffffffffe01690560060c0604052600760808190527f4d4d545f302e310000000000000000000000000000000000000000000000000060a090815262000040916004919062000126565b503480156200004e57600080fd5b5060405162002e2738038062002e27833981018060405262000074919081019062000266565b60008054600160a060020a03191633179055600d8054600160a060020a0389166101000261010060a860020a03199091161790558351620000bd90600190602087019062000126565b506002805460ff191660ff85161790558151620000e290600390602085019062000126565b5060058054600160a060020a031916600160a060020a039790971696909617909555505050600655600d805460ff19169115159190911790555043600755620003ed565b828054600181600116156101000203166002900490600052602060002090601f016020900481019282601f106200016957805160ff191683800117855562000199565b8280016001018555821562000199579182015b82811115620001995782518255916020019190600101906200017c565b50620001a7929150620001ab565b5090565b620001c891905b80821115620001a75760008155600101620001b2565b90565b6000620001d982516200039c565b9392505050565b6000620001d98251620003a1565b6000601f820183136200020057600080fd5b815162000217620002118262000368565b62000341565b915080825260208301602083018583830111156200023457600080fd5b62000241838284620003ba565b50505092915050565b6000620001d98251620001c8565b6000620001d98251620003b4565b600080600080600080600060e0888a0312156200028257600080fd5b6000620002908a8a620001e0565b9750506020620002a38a828b01620001e0565b9650506040620002b68a828b016200024a565b95505060608801516001604060020a03811115620002d357600080fd5b620002e18a828b01620001ee565b9450506080620002f48a828b0162000258565b93505060a08801516001604060020a038111156200031157600080fd5b6200031f8a828b01620001ee565b92505060c0620003328a828b01620001cb565b91505092959891949750929550565b6040518181016001604060020a03811182821017156200036057600080fd5b604052919050565b60006001604060020a038211156200037f57600080fd5b506020601f91909101601f19160190565b600160a060020a031690565b151590565b6000620003ae8262000390565b92915050565b60ff1690565b60005b83811015620003d7578181015183820152602001620003bd565b83811115620003e7576000848401525b50505050565b612a2a80620003fd6000396000f30060806040526004361061018a5763ffffffff7c010000000000000000000000000000000000000000000000000000000060003504166306fdde038114610271578063095ea7b31461029c57806317634514146102c957806318160ddd146102eb57806323b872dd146103005780632a11ced014610320578063313ce5671461034f5780633cebb823146103715780634ee2cd7e1461039157806354fd4d50146103b15780636638c087146103c657806370a08231146103f357806375ed57ce1461041357806380a5400114610433578063827f32c014610448578063876b15661461046857806395d89b411461048a578063981b24d01461049f578063a9059cbb146104bf578063bef97c87146104df578063c5bcc4f1146104f4578063cae9ca5114610509578063ccf012b314610529578063d3ce77fe14610549578063db04aef414610569578063dd62ed3e1461057e578063df8de3e71461059e578063e77772fe146105be578063e9bbb040146105d3578063f41e60c5146105f3578063f77c479114610613575b6000546101ac9073ffffffffffffffffffffffffffffffffffffffff16610635565b15156101b757600080fd5b6000546040517ff48c305400000000000000000000000000000000000000000000000000000000815273ffffffffffffffffffffffffffffffffffffffff9091169063f48c305490349061020f90339060040161275f565b6020604051808303818588803b15801561022857600080fd5b505af115801561023c573d6000803e3d6000fd5b50505050506040513d601f19601f8201168201806040525061026191908101906124ca565b151560011461026f57600080fd5b005b34801561027d57600080fd5b5061028661066f565b60405161029391906128bd565b60405180910390f35b3480156102a857600080fd5b506102bc6102b736600461247c565b6106fc565b6040516102939190612839565b3480156102d557600080fd5b506102de6108b0565b60405161029391906128ce565b3480156102f757600080fd5b506102de6108b6565b34801561030c57600080fd5b506102bc61031b3660046123e7565b6108c7565b34801561032c57600080fd5b5061034061033b366004612605565b610985565b60405161029393929190612795565b34801561035b57600080fd5b50610364610ae9565b60405161029391906128dc565b34801561037d57600080fd5b5061026f61038c366004612387565b610af2565b34801561039d57600080fd5b506102de6103ac36600461247c565b610b5d565b3480156103bd57600080fd5b50610286610cfa565b3480156103d257600080fd5b506103e66103e1366004612561565b610d55565b6040516102939190612847565b3480156103ff57600080fd5b506102de61040e366004612387565b610f02565b34801561041f57600080fd5b5061026f61042e366004612434565b610f16565b34801561043f57600080fd5b506103e6610f98565b34801561045457600080fd5b506102bc61046336600461247c565b610fb4565b34801561047457600080fd5b5061047d6111bf565b6040516102939190612828565b34801561049657600080fd5b50610286611366565b3480156104ab57600080fd5b506102de6104ba366004612605565b6113c1565b3480156104cb57600080fd5b506102bc6104da36600461247c565b6114f6565b3480156104eb57600080fd5b506102bc611515565b34801561050057600080fd5b506102de61151e565b34801561051557600080fd5b506102bc6105243660046124e8565b611524565b34801561053557600080fd5b5061026f610544366004612434565b6115cf565b34801561055557600080fd5b506102bc61056436600461247c565b61164c565b34801561057557600080fd5b506102de61186f565b34801561058a57600080fd5b506102de6105993660046123ad565b611875565b3480156105aa57600080fd5b5061026f6105b9366004612387565b6118ad565b3480156105ca57600080fd5b506103e6611af0565b3480156105df57600080fd5b506102de6105ee366004612387565b611b11565b3480156105ff57600080fd5b5061026f61060e3660046124ac565b611b23565b34801561061f57600080fd5b50610628611b78565b604051610293919061275f565b60008073ffffffffffffffffffffffffffffffffffffffff8316151561065e5760009150610669565b823b90506000811191505b50919050565b60018054604080516020600284861615610100026000190190941693909304601f810184900484028201840190925281815292918301828280156106f45780601f106106c9576101008083540402835291602001916106f4565b820191906000526020600020905b8154815290600101906020018083116106d757829003601f168201915b505050505081565b600d5460009060ff16151561071057600080fd5b81158061074b5750336000908152600b6020908152604080832073ffffffffffffffffffffffffffffffffffffffff87168452909152902054155b151561075657600080fd5b6000546107789073ffffffffffffffffffffffffffffffffffffffff16610635565b15610837576000546040517fda682aeb00000000000000000000000000000000000000000000000000000000815273ffffffffffffffffffffffffffffffffffffffff9091169063da682aeb906107d79033908790879060040161276d565b602060405180830381600087803b1580156107f157600080fd5b505af1158015610805573d6000803e3d6000fd5b505050506040513d601f19601f8201168201806040525061082991908101906124ca565b151560011461083757600080fd5b336000818152600b6020908152604080832073ffffffffffffffffffffffffffffffffffffffff881680855292529182902085905590519091907f8c5be1e5ebec7d5bd14f71427d1e84f3dd0314c0f7b2291e5b200ac8c7c3b9259061089e9086906128ce565b60405180910390a35060015b92915050565b60075481565b60006108c1436113c1565b90505b90565b6000805473ffffffffffffffffffffffffffffffffffffffff16331461097057600d5460ff1615156108f857600080fd5b73ffffffffffffffffffffffffffffffffffffffff84166000908152600b602090815260408083203384529091529020548211156109385750600061097e565b73ffffffffffffffffffffffffffffffffffffffff84166000908152600b602090815260408083203384529091529020805483900390555b61097b848484611b94565b90505b9392505050565b600980548290811061099357fe5b600091825260209182902060039091020180546001808301805460408051601f600260001996851615610100029690960190931694909404918201879004870284018701905280835273ffffffffffffffffffffffffffffffffffffffff9093169550929390929190830182828015610a4d5780601f10610a2257610100808354040283529160200191610a4d565b820191906000526020600020905b815481529060010190602001808311610a3057829003601f168201915b50505060028085018054604080516020601f6000196101006001871615020190941695909504928301859004850281018501909152818152959695945090925090830182828015610adf5780601f10610ab457610100808354040283529160200191610adf565b820191906000526020600020905b815481529060010190602001808311610ac257829003601f168201915b5050505050905083565b60025460ff1681565b60005473ffffffffffffffffffffffffffffffffffffffff163314610b1657600080fd5b600080547fffffffffffffffffffffffff00000000000000000000000000000000000000001673ffffffffffffffffffffffffffffffffffffffff92909216919091179055565b73ffffffffffffffffffffffffffffffffffffffff82166000908152600860205260408120541580610bdc575073ffffffffffffffffffffffffffffffffffffffff8316600090815260086020526040812080548492908110610bbc57fe5b6000918252602090912001546fffffffffffffffffffffffffffffffff16115b15610ccb5760055473ffffffffffffffffffffffffffffffffffffffff1615610cc35760055460065473ffffffffffffffffffffffffffffffffffffffff90911690634ee2cd7e908590610c31908690611dea565b6040518363ffffffff167c0100000000000000000000000000000000000000000000000000000000028152600401610c6a9291906127c9565b602060405180830381600087803b158015610c8457600080fd5b505af1158015610c98573d6000803e3d6000fd5b505050506040513d601f19601f82011682018060405250610cbc9190810190612623565b90506108aa565b5060006108aa565b73ffffffffffffffffffffffffffffffffffffffff83166000908152600860205260409020610cbc9083611e00565b6004805460408051602060026001851615610100026000190190941693909304601f810184900484028201840190925281815292918301828280156106f45780601f106106c9576101008083540402835291602001916106f4565b600080808415610d655784610d6a565b600143035b600d546040517f5b7b72c1000000000000000000000000000000000000000000000000000000008152919350610100900473ffffffffffffffffffffffffffffffffffffffff1690635b7b72c190610dd090309086908d908d908d908c90600401612855565b602060405180830381600087803b158015610dea57600080fd5b505af1158015610dfe573d6000803e3d6000fd5b505050506040513d601f19601f82011682018060405250610e229190810190612543565b6040517f3cebb82300000000000000000000000000000000000000000000000000000000815290915073ffffffffffffffffffffffffffffffffffffffff821690633cebb82390610e7790339060040161275f565b600060405180830381600087803b158015610e9157600080fd5b505af1158015610ea5573d6000803e3d6000fd5b505050508073ffffffffffffffffffffffffffffffffffffffff167f086c875b377f900b07ce03575813022f05dd10ed7640b5282cf6d3c3fc352ade83604051610eef91906128ce565b60405180910390a2979650505050505050565b6000610f0e8243610b5d565b90505b919050565b60005473ffffffffffffffffffffffffffffffffffffffff163314610f3a57600080fd5b73ffffffffffffffffffffffffffffffffffffffff82166000908152600a6020526040902054600980548392908110610f6f57fe5b90600052602060002090600302016001019080519060200190610f939291906120aa565b505050565b60055473ffffffffffffffffffffffffffffffffffffffff1681565b6000806000610fc1612128565b60005473ffffffffffffffffffffffffffffffffffffffff163314610fe557600080fd5b610fed6108b6565b9250848301831115610ffe57600080fd5b61100786610f02565b915084820182111561101857600080fd5b611025600c868501611f8a565b73ffffffffffffffffffffffffffffffffffffffff8616600090815260086020526040902061105690838701611f8a565b8573ffffffffffffffffffffffffffffffffffffffff1660007fddf252ad1be2c89b69c2b068fc378daa952ba7f163c4a11628f55a4df523b3ef8760405161109e91906128ce565b60405180910390a36009805473ffffffffffffffffffffffffffffffffffffffff8881166000818152600a60209081526040808320869055928752825180820184528281528782019081528351808301855283815293880193909352600185018087559590915285517f6e1540171b6c0c960b71a7020d9f60077f6af931a8bbf590da0223dacf75c7af600390950294850180547fffffffffffffffffffffffff00000000000000000000000000000000000000001691909416178355905180518694611191937f6e1540171b6c0c960b71a7020d9f60077f6af931a8bbf590da0223dacf75c7b09091019201906120aa565b50604082015180516111ad9160028401916020909101906120aa565b50505050600193505b50505092915050565b60606009805480602002602001604051908101604052809291908181526020016000905b8282101561135d5760008481526020908190206040805160608101825260038602909201805473ffffffffffffffffffffffffffffffffffffffff168352600180820180548451600261010094831615949094026000190190911692909204601f8101879004870283018701909452838252939491938583019391929091908301828280156112b35780601f10611288576101008083540402835291602001916112b3565b820191906000526020600020905b81548152906001019060200180831161129657829003601f168201915b5050509183525050600282810180546040805160206001841615610100026000190190931694909404601f810183900483028501830190915280845293810193908301828280156113455780601f1061131a57610100808354040283529160200191611345565b820191906000526020600020905b81548152906001019060200180831161132857829003601f168201915b505050505081525050815260200190600101906111e3565b50505050905090565b6003805460408051602060026001851615610100026000190190941693909304601f810184900484028201840190925281815292918301828280156106f45780601f106106c9576101008083540402835291602001916106f4565b600c5460009015806113ff575081600c60008154811015156113df57fe5b6000918252602090912001546fffffffffffffffffffffffffffffffff16115b156114eb5760055473ffffffffffffffffffffffffffffffffffffffff16156114e35760055460065473ffffffffffffffffffffffffffffffffffffffff9091169063981b24d090611452908590611dea565b6040518263ffffffff167c010000000000000000000000000000000000000000000000000000000002815260040161148a91906128ce565b602060405180830381600087803b1580156114a457600080fd5b505af11580156114b8573d6000803e3d6000fd5b505050506040513d601f19601f820116820180604052506114dc9190810190612623565b9050610f11565b506000610f11565b6114dc600c83611e00565b600d5460009060ff16151561150a57600080fd5b61097e338484611b94565b600d5460ff1681565b60065481565b600061153084846106fc565b151561153b57600080fd5b6040517f8f4ffcb100000000000000000000000000000000000000000000000000000000815273ffffffffffffffffffffffffffffffffffffffff851690638f4ffcb1906115939033908790309088906004016127e4565b600060405180830381600087803b1580156115ad57600080fd5b505af11580156115c1573d6000803e3d6000fd5b506001979650505050505050565b60005473ffffffffffffffffffffffffffffffffffffffff1633146115f357600080fd5b73ffffffffffffffffffffffffffffffffffffffff82166000908152600a602052604090205460098054839290811061162857fe5b90600052602060002090600302016002019080519060200190610f939291906120aa565b600080548190819073ffffffffffffffffffffffffffffffffffffffff16331461167557600080fd5b61167d6108b6565b91508382101561168c57600080fd5b61169585610f02565b9050838110156116a457600080fd5b6116b1600c858403611f8a565b73ffffffffffffffffffffffffffffffffffffffff851660009081526008602052604090206116e290858303611f8a565b60008573ffffffffffffffffffffffffffffffffffffffff167fddf252ad1be2c89b69c2b068fc378daa952ba7f163c4a11628f55a4df523b3ef8660405161172a91906128ce565b60405180910390a3600954600110156118505760098054600019810190811061174f57fe5b90600052602060002090600302016009600a60008873ffffffffffffffffffffffffffffffffffffffff1673ffffffffffffffffffffffffffffffffffffffff168152602001908152602001600020548154811015156117ab57fe5b60009182526020909120825460039092020180547fffffffffffffffffffffffff00000000000000000000000000000000000000001673ffffffffffffffffffffffffffffffffffffffff9092169190911781556001808301805461182792808501929160026000199282161561010002929092011604612160565b506002828101805461184c928481019291600019610100600183161502011604612160565b5050505b60098054906118639060001983016121d5565b50600195945050505050565b60095490565b73ffffffffffffffffffffffffffffffffffffffff9182166000908152600b6020908152604080832093909416825291909152205490565b60008054819073ffffffffffffffffffffffffffffffffffffffff1633146118d457600080fd5b73ffffffffffffffffffffffffffffffffffffffff8316151561193f576000805460405173ffffffffffffffffffffffffffffffffffffffff90911691303180156108fc02929091818181858888f19350505050158015611939573d6000803e3d6000fd5b50610f93565b6040517f70a0823100000000000000000000000000000000000000000000000000000000815283925073ffffffffffffffffffffffffffffffffffffffff8316906370a0823190611994903090600401612847565b602060405180830381600087803b1580156119ae57600080fd5b505af11580156119c2573d6000803e3d6000fd5b505050506040513d601f19601f820116820180604052506119e69190810190612623565b6000546040517fa9059cbb00000000000000000000000000000000000000000000000000000000815291925073ffffffffffffffffffffffffffffffffffffffff8085169263a9059cbb92611a4192169085906004016127c9565b602060405180830381600087803b158015611a5b57600080fd5b505af1158015611a6f573d6000803e3d6000fd5b505050506040513d601f19601f82011682018060405250611a9391908101906124ca565b5060005460405173ffffffffffffffffffffffffffffffffffffffff918216918516907ff931edb47c50b4b4104c187b5814a9aef5f709e17e2ecf9617e860cacade929c90611ae39085906128ce565b60405180910390a3505050565b600d54610100900473ffffffffffffffffffffffffffffffffffffffff1681565b600a6020526000908152604090205481565b60005473ffffffffffffffffffffffffffffffffffffffff163314611b4757600080fd5b600d80547fffffffffffffffffffffffffffffffffffffffffffffffffffffffffffffff0016911515919091179055565b60005473ffffffffffffffffffffffffffffffffffffffff1681565b60008080831515611ba85760019250611de1565b6006544311611bb657600080fd5b73ffffffffffffffffffffffffffffffffffffffff851615801590611bf1575073ffffffffffffffffffffffffffffffffffffffff85163014155b1515611bfc57600080fd5b611c068643610b5d565b915083821015611c195760009250611de1565b600054611c3b9073ffffffffffffffffffffffffffffffffffffffff16610635565b15611cfa576000546040517f4a39314900000000000000000000000000000000000000000000000000000000815273ffffffffffffffffffffffffffffffffffffffff90911690634a39314990611c9a9089908990899060040161276d565b602060405180830381600087803b158015611cb457600080fd5b505af1158015611cc8573d6000803e3d6000fd5b505050506040513d601f19601f82011682018060405250611cec91908101906124ca565b1515600114611cfa57600080fd5b73ffffffffffffffffffffffffffffffffffffffff86166000908152600860205260409020611d2b90858403611f8a565b611d358543610b5d565b9050838101811115611d4657600080fd5b73ffffffffffffffffffffffffffffffffffffffff85166000908152600860205260409020611d7790828601611f8a565b8473ffffffffffffffffffffffffffffffffffffffff168673ffffffffffffffffffffffffffffffffffffffff167fddf252ad1be2c89b69c2b068fc378daa952ba7f163c4a11628f55a4df523b3ef86604051611dd491906128ce565b60405180910390a3600192505b50509392505050565b6000818310611df9578161097e565b5090919050565b600080600080858054905060001415611e1c57600093506111b6565b855486906000198101908110611e2e57fe5b6000918252602090912001546fffffffffffffffffffffffffffffffff168510611e9d57855486906000198101908110611e6457fe5b60009182526020909120015470010000000000000000000000000000000090046fffffffffffffffffffffffffffffffff1693506111b6565b856000815481101515611eac57fe5b6000918252602090912001546fffffffffffffffffffffffffffffffff16851015611eda57600093506111b6565b8554600093506000190191505b82821115611f40576002600183850101049050848682815481101515611f0957fe5b6000918252602090912001546fffffffffffffffffffffffffffffffff1611611f3457809250611f3b565b6001810391505b611ee7565b8583815481101515611f4e57fe5b60009182526020909120015470010000000000000000000000000000000090046fffffffffffffffffffffffffffffffff169695505050505050565b815460009081901580611fcc57508354439085906000198101908110611fac57fe5b6000918252602090912001546fffffffffffffffffffffffffffffffff16105b156120565783548490611fe28260018301612201565b81548110611fec57fe5b600091825260209091200180546fffffffffffffffffffffffffffffffff858116700100000000000000000000000000000000024382167fffffffffffffffffffffffffffffffff00000000000000000000000000000000909316929092171617815591506120a4565b83548490600019810190811061206857fe5b600091825260209091200180546fffffffffffffffffffffffffffffffff80861670010000000000000000000000000000000002911617815590505b50505050565b828054600181600116156101000203166002900490600052602060002090601f016020900481019282601f106120eb57805160ff1916838001178555612118565b82800160010185558215612118579182015b828111156121185782518255916020019190600101906120fd565b50612124929150612221565b5090565b606060405190810160405280600073ffffffffffffffffffffffffffffffffffffffff16815260200160608152602001606081525090565b828054600181600116156101000203166002900490600052602060002090601f016020900481019282601f106121995780548555612118565b8280016001018555821561211857600052602060002091601f016020900482015b828111156121185782548255916001019190600101906121ba565b815481835581811115610f9357600302816003028360005260206000209182019101610f93919061223b565b815481835581811115610f9357600083815260209020610f939181019083015b6108c491905b808211156121245760008155600101612227565b6108c491905b808211156121245780547fffffffffffffffffffffffff0000000000000000000000000000000000000000168155600061227e6001830182612295565b61228c600283016000612295565b50600301612241565b50805460018160011615610100020316600290046000825580601f106122bb57506122d9565b601f0160209004906000526020600020908101906122d99190612221565b50565b600061097e8235612961565b600061097e823561297a565b600061097e825161297a565b6000601f8201831361231157600080fd5b813561232461231f82612911565b6128ea565b9150808252602083016020830185838301111561234057600080fd5b6111b6838284612990565b600061097e8235612985565b600061097e8251612985565b600061097e82356108c4565b600061097e82516108c4565b600061097e823561297f565b60006020828403121561239957600080fd5b60006123a584846122dc565b949350505050565b600080604083850312156123c057600080fd5b60006123cc85856122dc565b92505060206123dd858286016122dc565b9150509250929050565b6000806000606084860312156123fc57600080fd5b600061240886866122dc565b9350506020612419868287016122dc565b925050604061242a86828701612363565b9150509250925092565b6000806040838503121561244757600080fd5b600061245385856122dc565b925050602083013567ffffffffffffffff81111561247057600080fd5b6123dd85828601612300565b6000806040838503121561248f57600080fd5b600061249b85856122dc565b92505060206123dd85828601612363565b6000602082840312156124be57600080fd5b60006123a584846122e8565b6000602082840312156124dc57600080fd5b60006123a584846122f4565b6000806000606084860312156124fd57600080fd5b6000612509868661234b565b935050602061251a86828701612363565b925050604084013567ffffffffffffffff81111561253757600080fd5b61242a86828701612300565b60006020828403121561255557600080fd5b60006123a58484612357565b600080600080600060a0868803121561257957600080fd5b853567ffffffffffffffff81111561259057600080fd5b61259c88828901612300565b95505060206125ad8882890161237b565b945050604086013567ffffffffffffffff8111156125ca57600080fd5b6125d688828901612300565b93505060606125e788828901612363565b92505060806125f8888289016122e8565b9150509295509295909350565b60006020828403121561261757600080fd5b60006123a58484612363565b60006020828403121561263557600080fd5b60006123a5848461236f565b61264a81612961565b82525050565b600061265b8261295d565b8084526020840193508360208202850161267485612957565b60005b848110156126ab57838303885261268f8383516126fe565b925061269a82612957565b602098909801979150600101612677565b50909695505050505050565b61264a8161297a565b60006126cb8261295d565b8084526126df81602086016020860161299c565b6126e8816129c8565b9093016020019392505050565b61264a81612985565b805160009060608401906127128582612641565b506020830151848203602086015261272a82826126c0565b9150506040830151848203604086015261274482826126c0565b95945050505050565b61264a816108c4565b61264a8161297f565b602081016108aa8284612641565b6060810161277b8286612641565b6127886020830185612641565b6123a5604083018461274d565b606081016127a38286612641565b81810360208301526127b581856126c0565b9050818103604083015261274481846126c0565b604081016127d78285612641565b61097e602083018461274d565b608081016127f28287612641565b6127ff602083018661274d565b61280c60408301856126f5565b818103606083015261281e81846126c0565b9695505050505050565b6020808252810161097e8184612650565b602081016108aa82846126b7565b602081016108aa82846126f5565b60c0810161286382896126f5565b612870602083018861274d565b818103604083015261288281876126c0565b90506128916060830186612756565b81810360808301526128a381856126c0565b90506128b260a08301846126b7565b979650505050505050565b6020808252810161097e81846126c0565b602081016108aa828461274d565b602081016108aa8284612756565b60405181810167ffffffffffffffff8111828210171561290957600080fd5b604052919050565b600067ffffffffffffffff82111561292857600080fd5b506020601f919091017fffffffffffffffffffffffffffffffffffffffffffffffffffffffffffffffe0160190565b60200190565b5190565b73ffffffffffffffffffffffffffffffffffffffff1690565b151590565b60ff1690565b6000610f0e82612961565b82818337506000910152565b60005b838110156129b757818101518382015260200161299f565b838111156120a45750506000910152565b601f017fffffffffffffffffffffffffffffffffffffffffffffffffffffffffffffffe016905600a265627a7a72305820dd26b2f702ec21dab69407e38e3ee0488f113d5efa65bd03f808607afbd309ef6c6578706572696d656e74616cf50037a265627a7a723058206b5554007ba5b9aaf91793e519a97a497ec198ce5768dfa90ee97414a3497bd16c6578706572696d656e74616cf50037",
			"opcodes": "PUSH1 0x80 PUSH1 0x40 MSTORE CALLVALUE DUP1 ISZERO PUSH2 0x10 JUMPI PUSH1 0x0 DUP1 REVERT JUMPDEST POP PUSH2 0x3362 DUP1 PUSH2 0x20 PUSH1 0x0 CODECOPY PUSH1 0x0 RETURN STOP PUSH1 0x80 PUSH1 0x40 MSTORE PUSH1 0x4 CALLDATASIZE LT PUSH3 0x42 JUMPI PUSH4 0xFFFFFFFF PUSH29 0x100000000000000000000000000000000000000000000000000000000 PUSH1 0x0 CALLDATALOAD DIV AND PUSH4 0x5B7B72C1 DUP2 EQ PUSH3 0x47 JUMPI JUMPDEST PUSH1 0x0 DUP1 REVERT JUMPDEST CALLVALUE DUP1 ISZERO PUSH3 0x54 JUMPI PUSH1 0x0 DUP1 REVERT JUMPDEST POP PUSH3 0x6C PUSH3 0x66 CALLDATASIZE PUSH1 0x4 PUSH3 0x20B JUMP JUMPDEST PUSH3 0x84 JUMP JUMPDEST PUSH1 0x40 MLOAD PUSH3 0x7B SWAP2 SWAP1 PUSH3 0x3E3 JUMP JUMPDEST PUSH1 0x40 MLOAD DUP1 SWAP2 SUB SWAP1 RETURN JUMPDEST PUSH1 0x0 DUP1 ADDRESS DUP9 DUP9 DUP9 DUP9 DUP9 DUP9 PUSH3 0x98 PUSH3 0x15F JUMP JUMPDEST PUSH3 0xAA SWAP8 SWAP7 SWAP6 SWAP5 SWAP4 SWAP3 SWAP2 SWAP1 PUSH3 0x35F JUMP JUMPDEST PUSH1 0x40 MLOAD DUP1 SWAP2 SUB SWAP1 PUSH1 0x0 CREATE DUP1 ISZERO DUP1 ISZERO PUSH3 0xC7 JUMPI RETURNDATASIZE PUSH1 0x0 DUP1 RETURNDATACOPY RETURNDATASIZE PUSH1 0x0 REVERT JUMPDEST POP PUSH1 0x40 MLOAD PUSH32 0x3CEBB82300000000000000000000000000000000000000000000000000000000 DUP2 MSTORE SWAP1 SWAP2 POP PUSH20 0xFFFFFFFFFFFFFFFFFFFFFFFFFFFFFFFFFFFFFFFF DUP3 AND SWAP1 PUSH4 0x3CEBB823 SWAP1 PUSH3 0x11F SWAP1 CALLER SWAP1 PUSH1 0x4 ADD PUSH3 0x349 JUMP JUMPDEST PUSH1 0x0 PUSH1 0x40 MLOAD DUP1 DUP4 SUB DUP2 PUSH1 0x0 DUP8 DUP1 EXTCODESIZE ISZERO DUP1 ISZERO PUSH3 0x13A JUMPI PUSH1 0x0 DUP1 REVERT JUMPDEST POP GAS CALL ISZERO DUP1 ISZERO PUSH3 0x14F JUMPI RETURNDATASIZE PUSH1 0x0 DUP1 RETURNDATACOPY RETURNDATASIZE PUSH1 0x0 REVERT JUMPDEST POP SWAP3 SWAP11 SWAP10 POP POP POP POP POP POP POP POP POP POP JUMP JUMPDEST PUSH1 0x40 MLOAD PUSH2 0x2E27 DUP1 PUSH3 0x502 DUP4 CODECOPY ADD SWAP1 JUMP JUMPDEST PUSH1 0x0 PUSH3 0x17E DUP3 CALLDATALOAD PUSH3 0x47F JUMP JUMPDEST SWAP4 SWAP3 POP POP POP JUMP JUMPDEST PUSH1 0x0 PUSH3 0x17E DUP3 CALLDATALOAD PUSH3 0x48D JUMP JUMPDEST PUSH1 0x0 PUSH1 0x1F DUP3 ADD DUP4 SGT PUSH3 0x1A5 JUMPI PUSH1 0x0 DUP1 REVERT JUMPDEST DUP2 CALLDATALOAD PUSH3 0x1BC PUSH3 0x1B6 DUP3 PUSH3 0x41B JUMP JUMPDEST PUSH3 0x3F3 JUMP JUMPDEST SWAP2 POP DUP1 DUP3 MSTORE PUSH1 0x20 DUP4 ADD PUSH1 0x20 DUP4 ADD DUP6 DUP4 DUP4 ADD GT ISZERO PUSH3 0x1D9 JUMPI PUSH1 0x0 DUP1 REVERT JUMPDEST PUSH3 0x1E6 DUP4 DUP3 DUP5 PUSH3 0x49A JUMP JUMPDEST POP POP POP SWAP3 SWAP2 POP POP JUMP JUMPDEST PUSH1 0x0 PUSH3 0x17E DUP3 CALLDATALOAD PUSH3 0x484 JUMP JUMPDEST PUSH1 0x0 PUSH3 0x17E DUP3 CALLDATALOAD PUSH3 0x487 JUMP JUMPDEST PUSH1 0x0 DUP1 PUSH1 0x0 DUP1 PUSH1 0x0 DUP1 PUSH1 0xC0 DUP8 DUP10 SUB SLT ISZERO PUSH3 0x225 JUMPI PUSH1 0x0 DUP1 REVERT JUMPDEST PUSH1 0x0 PUSH3 0x233 DUP10 DUP10 PUSH3 0x185 JUMP JUMPDEST SWAP7 POP POP PUSH1 0x20 PUSH3 0x246 DUP10 DUP3 DUP11 ADD PUSH3 0x1EF JUMP JUMPDEST SWAP6 POP POP PUSH1 0x40 DUP8 ADD CALLDATALOAD PUSH8 0xFFFFFFFFFFFFFFFF DUP2 GT ISZERO PUSH3 0x264 JUMPI PUSH1 0x0 DUP1 REVERT JUMPDEST PUSH3 0x272 DUP10 DUP3 DUP11 ADD PUSH3 0x193 JUMP JUMPDEST SWAP5 POP POP PUSH1 0x60 PUSH3 0x285 DUP10 DUP3 DUP11 ADD PUSH3 0x1FD JUMP JUMPDEST SWAP4 POP POP PUSH1 0x80 DUP8 ADD CALLDATALOAD PUSH8 0xFFFFFFFFFFFFFFFF DUP2 GT ISZERO PUSH3 0x2A3 JUMPI PUSH1 0x0 DUP1 REVERT JUMPDEST PUSH3 0x2B1 DUP10 DUP3 DUP11 ADD PUSH3 0x193 JUMP JUMPDEST SWAP3 POP POP PUSH1 0xA0 PUSH3 0x2C4 DUP10 DUP3 DUP11 ADD PUSH3 0x170 JUMP JUMPDEST SWAP2 POP POP SWAP3 SWAP6 POP SWAP3 SWAP6 POP SWAP3 SWAP6 JUMP JUMPDEST PUSH3 0x2DC DUP2 PUSH3 0x466 JUMP JUMPDEST DUP3 MSTORE POP POP JUMP JUMPDEST PUSH3 0x2DC DUP2 PUSH3 0x47F JUMP JUMPDEST PUSH3 0x2DC DUP2 PUSH3 0x48D JUMP JUMPDEST PUSH1 0x0 PUSH3 0x305 DUP3 PUSH3 0x462 JUMP JUMPDEST DUP1 DUP5 MSTORE PUSH3 0x31B DUP2 PUSH1 0x20 DUP7 ADD PUSH1 0x20 DUP7 ADD PUSH3 0x4A6 JUMP JUMPDEST PUSH3 0x326 DUP2 PUSH3 0x4D9 JUMP JUMPDEST SWAP1 SWAP4 ADD PUSH1 0x20 ADD SWAP4 SWAP3 POP POP POP JUMP JUMPDEST PUSH3 0x2DC DUP2 PUSH3 0x484 JUMP JUMPDEST PUSH3 0x2DC DUP2 PUSH3 0x487 JUMP JUMPDEST PUSH1 0x20 DUP2 ADD PUSH3 0x359 DUP3 DUP5 PUSH3 0x2D1 JUMP JUMPDEST SWAP3 SWAP2 POP POP JUMP JUMPDEST PUSH1 0xE0 DUP2 ADD PUSH3 0x36F DUP3 DUP11 PUSH3 0x2ED JUMP JUMPDEST PUSH3 0x37E PUSH1 0x20 DUP4 ADD DUP10 PUSH3 0x2ED JUMP JUMPDEST PUSH3 0x38D PUSH1 0x40 DUP4 ADD DUP9 PUSH3 0x333 JUMP JUMPDEST DUP2 DUP2 SUB PUSH1 0x60 DUP4 ADD MSTORE PUSH3 0x3A1 DUP2 DUP8 PUSH3 0x2F8 JUMP JUMPDEST SWAP1 POP PUSH3 0x3B2 PUSH1 0x80 DUP4 ADD DUP7 PUSH3 0x33E JUMP JUMPDEST DUP2 DUP2 SUB PUSH1 0xA0 DUP4 ADD MSTORE PUSH3 0x3C6 DUP2 DUP6 PUSH3 0x2F8 JUMP JUMPDEST SWAP1 POP PUSH3 0x3D7 PUSH1 0xC0 DUP4 ADD DUP5 PUSH3 0x2E2 JUMP JUMPDEST SWAP9 SWAP8 POP POP POP POP POP POP POP POP JUMP JUMPDEST PUSH1 0x20 DUP2 ADD PUSH3 0x359 DUP3 DUP5 PUSH3 0x2ED JUMP JUMPDEST PUSH1 0x40 MLOAD DUP2 DUP2 ADD PUSH8 0xFFFFFFFFFFFFFFFF DUP2 GT DUP3 DUP3 LT OR ISZERO PUSH3 0x413 JUMPI PUSH1 0x0 DUP1 REVERT JUMPDEST PUSH1 0x40 MSTORE SWAP2 SWAP1 POP JUMP JUMPDEST PUSH1 0x0 PUSH8 0xFFFFFFFFFFFFFFFF DUP3 GT ISZERO PUSH3 0x433 JUMPI PUSH1 0x0 DUP1 REVERT JUMPDEST POP PUSH1 0x20 PUSH1 0x1F SWAP2 SWAP1 SWAP2 ADD PUSH32 0xFFFFFFFFFFFFFFFFFFFFFFFFFFFFFFFFFFFFFFFFFFFFFFFFFFFFFFFFFFFFFFE0 AND ADD SWAP1 JUMP JUMPDEST MLOAD SWAP1 JUMP JUMPDEST PUSH20 0xFFFFFFFFFFFFFFFFFFFFFFFFFFFFFFFFFFFFFFFF AND SWAP1 JUMP JUMPDEST ISZERO ISZERO SWAP1 JUMP JUMPDEST SWAP1 JUMP JUMPDEST PUSH1 0xFF AND SWAP1 JUMP JUMPDEST PUSH1 0x0 PUSH3 0x359 DUP3 PUSH3 0x466 JUMP JUMPDEST DUP3 DUP2 DUP4 CALLDATACOPY POP PUSH1 0x0 SWAP2 ADD MSTORE JUMP JUMPDEST PUSH1 0x0 JUMPDEST DUP4 DUP2 LT ISZERO PUSH3 0x4C3 JUMPI DUP2 DUP2 ADD MLOAD DUP4 DUP3 ADD MSTORE PUSH1 0x20 ADD PUSH3 0x4A9 JUMP JUMPDEST DUP4 DUP2 GT ISZERO PUSH3 0x4D3 JUMPI PUSH1 0x0 DUP5 DUP5 ADD MSTORE JUMPDEST POP POP POP POP JUMP JUMPDEST PUSH1 0x1F ADD PUSH32 0xFFFFFFFFFFFFFFFFFFFFFFFFFFFFFFFFFFFFFFFFFFFFFFFFFFFFFFFFFFFFFFE0 AND SWAP1 JUMP STOP PUSH1 0xC0 PUSH1 0x40 MSTORE PUSH1 0x7 PUSH1 0x80 DUP2 SWAP1 MSTORE PUSH32 0x4D4D545F302E3100000000000000000000000000000000000000000000000000 PUSH1 0xA0 SWAP1 DUP2 MSTORE PUSH3 0x40 SWAP2 PUSH1 0x4 SWAP2 SWAP1 PUSH3 0x126 JUMP JUMPDEST POP CALLVALUE DUP1 ISZERO PUSH3 0x4E JUMPI PUSH1 0x0 DUP1 REVERT JUMPDEST POP PUSH1 0x40 MLOAD PUSH3 0x2E27 CODESIZE SUB DUP1 PUSH3 0x2E27 DUP4 CODECOPY DUP2 ADD DUP1 PUSH1 0x40 MSTORE PUSH3 0x74 SWAP2 SWAP1 DUP2 ADD SWAP1 PUSH3 0x266 JUMP JUMPDEST PUSH1 0x0 DUP1 SLOAD PUSH1 0x1 PUSH1 0xA0 PUSH1 0x2 EXP SUB NOT AND CALLER OR SWAP1 SSTORE PUSH1 0xD DUP1 SLOAD PUSH1 0x1 PUSH1 0xA0 PUSH1 0x2 EXP SUB DUP10 AND PUSH2 0x100 MUL PUSH2 0x100 PUSH1 0xA8 PUSH1 0x2 EXP SUB NOT SWAP1 SWAP2 AND OR SWAP1 SSTORE DUP4 MLOAD PUSH3 0xBD SWAP1 PUSH1 0x1 SWAP1 PUSH1 0x20 DUP8 ADD SWAP1 PUSH3 0x126 JUMP JUMPDEST POP PUSH1 0x2 DUP1 SLOAD PUSH1 0xFF NOT AND PUSH1 0xFF DUP6 AND OR SWAP1 SSTORE DUP2 MLOAD PUSH3 0xE2 SWAP1 PUSH1 0x3 SWAP1 PUSH1 0x20 DUP6 ADD SWAP1 PUSH3 0x126 JUMP JUMPDEST POP PUSH1 0x5 DUP1 SLOAD PUSH1 0x1 PUSH1 0xA0 PUSH1 0x2 EXP SUB NOT AND PUSH1 0x1 PUSH1 0xA0 PUSH1 0x2 EXP SUB SWAP8 SWAP1 SWAP8 AND SWAP7 SWAP1 SWAP7 OR SWAP1 SWAP6 SSTORE POP POP POP PUSH1 0x6 SSTORE PUSH1 0xD DUP1 SLOAD PUSH1 0xFF NOT AND SWAP2 ISZERO ISZERO SWAP2 SWAP1 SWAP2 OR SWAP1 SSTORE POP NUMBER PUSH1 0x7 SSTORE PUSH3 0x3ED JUMP JUMPDEST DUP3 DUP1 SLOAD PUSH1 0x1 DUP2 PUSH1 0x1 AND ISZERO PUSH2 0x100 MUL SUB AND PUSH1 0x2 SWAP1 DIV SWAP1 PUSH1 0x0 MSTORE PUSH1 0x20 PUSH1 0x0 KECCAK256 SWAP1 PUSH1 0x1F ADD PUSH1 0x20 SWAP1 DIV DUP2 ADD SWAP3 DUP3 PUSH1 0x1F LT PUSH3 0x169 JUMPI DUP1 MLOAD PUSH1 0xFF NOT AND DUP4 DUP1 ADD OR DUP6 SSTORE PUSH3 0x199 JUMP JUMPDEST DUP3 DUP1 ADD PUSH1 0x1 ADD DUP6 SSTORE DUP3 ISZERO PUSH3 0x199 JUMPI SWAP2 DUP3 ADD JUMPDEST DUP3 DUP2 GT ISZERO PUSH3 0x199 JUMPI DUP3 MLOAD DUP3 SSTORE SWAP2 PUSH1 0x20 ADD SWAP2 SWAP1 PUSH1 0x1 ADD SWAP1 PUSH3 0x17C JUMP JUMPDEST POP PUSH3 0x1A7 SWAP3 SWAP2 POP PUSH3 0x1AB JUMP JUMPDEST POP SWAP1 JUMP JUMPDEST PUSH3 0x1C8 SWAP2 SWAP1 JUMPDEST DUP1 DUP3 GT ISZERO PUSH3 0x1A7 JUMPI PUSH1 0x0 DUP2 SSTORE PUSH1 0x1 ADD PUSH3 0x1B2 JUMP JUMPDEST SWAP1 JUMP JUMPDEST PUSH1 0x0 PUSH3 0x1D9 DUP3 MLOAD PUSH3 0x39C JUMP JUMPDEST SWAP4 SWAP3 POP POP POP JUMP JUMPDEST PUSH1 0x0 PUSH3 0x1D9 DUP3 MLOAD PUSH3 0x3A1 JUMP JUMPDEST PUSH1 0x0 PUSH1 0x1F DUP3 ADD DUP4 SGT PUSH3 0x200 JUMPI PUSH1 0x0 DUP1 REVERT JUMPDEST DUP2 MLOAD PUSH3 0x217 PUSH3 0x211 DUP3 PUSH3 0x368 JUMP JUMPDEST PUSH3 0x341 JUMP JUMPDEST SWAP2 POP DUP1 DUP3 MSTORE PUSH1 0x20 DUP4 ADD PUSH1 0x20 DUP4 ADD DUP6 DUP4 DUP4 ADD GT ISZERO PUSH3 0x234 JUMPI PUSH1 0x0 DUP1 REVERT JUMPDEST PUSH3 0x241 DUP4 DUP3 DUP5 PUSH3 0x3BA JUMP JUMPDEST POP POP POP SWAP3 SWAP2 POP POP JUMP JUMPDEST PUSH1 0x0 PUSH3 0x1D9 DUP3 MLOAD PUSH3 0x1C8 JUMP JUMPDEST PUSH1 0x0 PUSH3 0x1D9 DUP3 MLOAD PUSH3 0x3B4 JUMP JUMPDEST PUSH1 0x0 DUP1 PUSH1 0x0 DUP1 PUSH1 0x0 DUP1 PUSH1 0x0 PUSH1 0xE0 DUP9 DUP11 SUB SLT ISZERO PUSH3 0x282 JUMPI PUSH1 0x0 DUP1 REVERT JUMPDEST PUSH1 0x0 PUSH3 0x290 DUP11 DUP11 PUSH3 0x1E0 JUMP JUMPDEST SWAP8 POP POP PUSH1 0x20 PUSH3 0x2A3 DUP11 DUP3 DUP12 ADD PUSH3 0x1E0 JUMP JUMPDEST SWAP7 POP POP PUSH1 0x40 PUSH3 0x2B6 DUP11 DUP3 DUP12 ADD PUSH3 0x24A JUMP JUMPDEST SWAP6 POP POP PUSH1 0x60 DUP9 ADD MLOAD PUSH1 0x1 PUSH1 0x40 PUSH1 0x2 EXP SUB DUP2 GT ISZERO PUSH3 0x2D3 JUMPI PUSH1 0x0 DUP1 REVERT JUMPDEST PUSH3 0x2E1 DUP11 DUP3 DUP12 ADD PUSH3 0x1EE JUMP JUMPDEST SWAP5 POP POP PUSH1 0x80 PUSH3 0x2F4 DUP11 DUP3 DUP12 ADD PUSH3 0x258 JUMP JUMPDEST SWAP4 POP POP PUSH1 0xA0 DUP9 ADD MLOAD PUSH1 0x1 PUSH1 0x40 PUSH1 0x2 EXP SUB DUP2 GT ISZERO PUSH3 0x311 JUMPI PUSH1 0x0 DUP1 REVERT JUMPDEST PUSH3 0x31F DUP11 DUP3 DUP12 ADD PUSH3 0x1EE JUMP JUMPDEST SWAP3 POP POP PUSH1 0xC0 PUSH3 0x332 DUP11 DUP3 DUP12 ADD PUSH3 0x1CB JUMP JUMPDEST SWAP2 POP POP SWAP3 SWAP6 SWAP9 SWAP2 SWAP5 SWAP8 POP SWAP3 SWAP6 POP JUMP JUMPDEST PUSH1 0x40 MLOAD DUP2 DUP2 ADD PUSH1 0x1 PUSH1 0x40 PUSH1 0x2 EXP SUB DUP2 GT DUP3 DUP3 LT OR ISZERO PUSH3 0x360 JUMPI PUSH1 0x0 DUP1 REVERT JUMPDEST PUSH1 0x40 MSTORE SWAP2 SWAP1 POP JUMP JUMPDEST PUSH1 0x0 PUSH1 0x1 PUSH1 0x40 PUSH1 0x2 EXP SUB DUP3 GT ISZERO PUSH3 0x37F JUMPI PUSH1 0x0 DUP1 REVERT JUMPDEST POP PUSH1 0x20 PUSH1 0x1F SWAP2 SWAP1 SWAP2 ADD PUSH1 0x1F NOT AND ADD SWAP1 JUMP JUMPDEST PUSH1 0x1 PUSH1 0xA0 PUSH1 0x2 EXP SUB AND SWAP1 JUMP JUMPDEST ISZERO ISZERO SWAP1 JUMP JUMPDEST PUSH1 0x0 PUSH3 0x3AE DUP3 PUSH3 0x390 JUMP JUMPDEST SWAP3 SWAP2 POP POP JUMP JUMPDEST PUSH1 0xFF AND SWAP1 JUMP JUMPDEST PUSH1 0x0 JUMPDEST DUP4 DUP2 LT ISZERO PUSH3 0x3D7 JUMPI DUP2 DUP2 ADD MLOAD DUP4 DUP3 ADD MSTORE PUSH1 0x20 ADD PUSH3 0x3BD JUMP JUMPDEST DUP4 DUP2 GT ISZERO PUSH3 0x3E7 JUMPI PUSH1 0x0 DUP5 DUP5 ADD MSTORE JUMPDEST POP POP POP POP JUMP JUMPDEST PUSH2 0x2A2A DUP1 PUSH3 0x3FD PUSH1 0x0 CODECOPY PUSH1 0x0 RETURN STOP PUSH1 0x80 PUSH1 0x40 MSTORE PUSH1 0x4 CALLDATASIZE LT PUSH2 0x18A JUMPI PUSH4 0xFFFFFFFF PUSH29 0x100000000000000000000000000000000000000000000000000000000 PUSH1 0x0 CALLDATALOAD DIV AND PUSH4 0x6FDDE03 DUP2 EQ PUSH2 0x271 JUMPI DUP1 PUSH4 0x95EA7B3 EQ PUSH2 0x29C JUMPI DUP1 PUSH4 0x17634514 EQ PUSH2 0x2C9 JUMPI DUP1 PUSH4 0x18160DDD EQ PUSH2 0x2EB JUMPI DUP1 PUSH4 0x23B872DD EQ PUSH2 0x300 JUMPI DUP1 PUSH4 0x2A11CED0 EQ PUSH2 0x320 JUMPI DUP1 PUSH4 0x313CE567 EQ PUSH2 0x34F JUMPI DUP1 PUSH4 0x3CEBB823 EQ PUSH2 0x371 JUMPI DUP1 PUSH4 0x4EE2CD7E EQ PUSH2 0x391 JUMPI DUP1 PUSH4 0x54FD4D50 EQ PUSH2 0x3B1 JUMPI DUP1 PUSH4 0x6638C087 EQ PUSH2 0x3C6 JUMPI DUP1 PUSH4 0x70A08231 EQ PUSH2 0x3F3 JUMPI DUP1 PUSH4 0x75ED57CE EQ PUSH2 0x413 JUMPI DUP1 PUSH4 0x80A54001 EQ PUSH2 0x433 JUMPI DUP1 PUSH4 0x827F32C0 EQ PUSH2 0x448 JUMPI DUP1 PUSH4 0x876B1566 EQ PUSH2 0x468 JUMPI DUP1 PUSH4 0x95D89B41 EQ PUSH2 0x48A JUMPI DUP1 PUSH4 0x981B24D0 EQ PUSH2 0x49F JUMPI DUP1 PUSH4 0xA9059CBB EQ PUSH2 0x4BF JUMPI DUP1 PUSH4 0xBEF97C87 EQ PUSH2 0x4DF JUMPI DUP1 PUSH4 0xC5BCC4F1 EQ PUSH2 0x4F4 JUMPI DUP1 PUSH4 0xCAE9CA51 EQ PUSH2 0x509 JUMPI DUP1 PUSH4 0xCCF012B3 EQ PUSH2 0x529 JUMPI DUP1 PUSH4 0xD3CE77FE EQ PUSH2 0x549 JUMPI DUP1 PUSH4 0xDB04AEF4 EQ PUSH2 0x569 JUMPI DUP1 PUSH4 0xDD62ED3E EQ PUSH2 0x57E JUMPI DUP1 PUSH4 0xDF8DE3E7 EQ PUSH2 0x59E JUMPI DUP1 PUSH4 0xE77772FE EQ PUSH2 0x5BE JUMPI DUP1 PUSH4 0xE9BBB040 EQ PUSH2 0x5D3 JUMPI DUP1 PUSH4 0xF41E60C5 EQ PUSH2 0x5F3 JUMPI DUP1 PUSH4 0xF77C4791 EQ PUSH2 0x613 JUMPI JUMPDEST PUSH1 0x0 SLOAD PUSH2 0x1AC SWAP1 PUSH20 0xFFFFFFFFFFFFFFFFFFFFFFFFFFFFFFFFFFFFFFFF AND PUSH2 0x635 JUMP JUMPDEST ISZERO ISZERO PUSH2 0x1B7 JUMPI PUSH1 0x0 DUP1 REVERT JUMPDEST PUSH1 0x0 SLOAD PUSH1 0x40 MLOAD PUSH32 0xF48C305400000000000000000000000000000000000000000000000000000000 DUP2 MSTORE PUSH20 0xFFFFFFFFFFFFFFFFFFFFFFFFFFFFFFFFFFFFFFFF SWAP1 SWAP2 AND SWAP1 PUSH4 0xF48C3054 SWAP1 CALLVALUE SWAP1 PUSH2 0x20F SWAP1 CALLER SWAP1 PUSH1 0x4 ADD PUSH2 0x275F JUMP JUMPDEST PUSH1 0x20 PUSH1 0x40 MLOAD DUP1 DUP4 SUB DUP2 DUP6 DUP9 DUP1 EXTCODESIZE ISZERO DUP1 ISZERO PUSH2 0x228 JUMPI PUSH1 0x0 DUP1 REVERT JUMPDEST POP GAS CALL ISZERO DUP1 ISZERO PUSH2 0x23C JUMPI RETURNDATASIZE PUSH1 0x0 DUP1 RETURNDATACOPY RETURNDATASIZE PUSH1 0x0 REVERT JUMPDEST POP POP POP POP POP PUSH1 0x40 MLOAD RETURNDATASIZE PUSH1 0x1F NOT PUSH1 0x1F DUP3 ADD AND DUP3 ADD DUP1 PUSH1 0x40 MSTORE POP PUSH2 0x261 SWAP2 SWAP1 DUP2 ADD SWAP1 PUSH2 0x24CA JUMP JUMPDEST ISZERO ISZERO PUSH1 0x1 EQ PUSH2 0x26F JUMPI PUSH1 0x0 DUP1 REVERT JUMPDEST STOP JUMPDEST CALLVALUE DUP1 ISZERO PUSH2 0x27D JUMPI PUSH1 0x0 DUP1 REVERT JUMPDEST POP PUSH2 0x286 PUSH2 0x66F JUMP JUMPDEST PUSH1 0x40 MLOAD PUSH2 0x293 SWAP2 SWAP1 PUSH2 0x28BD JUMP JUMPDEST PUSH1 0x40 MLOAD DUP1 SWAP2 SUB SWAP1 RETURN JUMPDEST CALLVALUE DUP1 ISZERO PUSH2 0x2A8 JUMPI PUSH1 0x0 DUP1 REVERT JUMPDEST POP PUSH2 0x2BC PUSH2 0x2B7 CALLDATASIZE PUSH1 0x4 PUSH2 0x247C JUMP JUMPDEST PUSH2 0x6FC JUMP JUMPDEST PUSH1 0x40 MLOAD PUSH2 0x293 SWAP2 SWAP1 PUSH2 0x2839 JUMP JUMPDEST CALLVALUE DUP1 ISZERO PUSH2 0x2D5 JUMPI PUSH1 0x0 DUP1 REVERT JUMPDEST POP PUSH2 0x2DE PUSH2 0x8B0 JUMP JUMPDEST PUSH1 0x40 MLOAD PUSH2 0x293 SWAP2 SWAP1 PUSH2 0x28CE JUMP JUMPDEST CALLVALUE DUP1 ISZERO PUSH2 0x2F7 JUMPI PUSH1 0x0 DUP1 REVERT JUMPDEST POP PUSH2 0x2DE PUSH2 0x8B6 JUMP JUMPDEST CALLVALUE DUP1 ISZERO PUSH2 0x30C JUMPI PUSH1 0x0 DUP1 REVERT JUMPDEST POP PUSH2 0x2BC PUSH2 0x31B CALLDATASIZE PUSH1 0x4 PUSH2 0x23E7 JUMP JUMPDEST PUSH2 0x8C7 JUMP JUMPDEST CALLVALUE DUP1 ISZERO PUSH2 0x32C JUMPI PUSH1 0x0 DUP1 REVERT JUMPDEST POP PUSH2 0x340 PUSH2 0x33B CALLDATASIZE PUSH1 0x4 PUSH2 0x2605 JUMP JUMPDEST PUSH2 0x985 JUMP JUMPDEST PUSH1 0x40 MLOAD PUSH2 0x293 SWAP4 SWAP3 SWAP2 SWAP1 PUSH2 0x2795 JUMP JUMPDEST CALLVALUE DUP1 ISZERO PUSH2 0x35B JUMPI PUSH1 0x0 DUP1 REVERT JUMPDEST POP PUSH2 0x364 PUSH2 0xAE9 JUMP JUMPDEST PUSH1 0x40 MLOAD PUSH2 0x293 SWAP2 SWAP1 PUSH2 0x28DC JUMP JUMPDEST CALLVALUE DUP1 ISZERO PUSH2 0x37D JUMPI PUSH1 0x0 DUP1 REVERT JUMPDEST POP PUSH2 0x26F PUSH2 0x38C CALLDATASIZE PUSH1 0x4 PUSH2 0x2387 JUMP JUMPDEST PUSH2 0xAF2 JUMP JUMPDEST CALLVALUE DUP1 ISZERO PUSH2 0x39D JUMPI PUSH1 0x0 DUP1 REVERT JUMPDEST POP PUSH2 0x2DE PUSH2 0x3AC CALLDATASIZE PUSH1 0x4 PUSH2 0x247C JUMP JUMPDEST PUSH2 0xB5D JUMP JUMPDEST CALLVALUE DUP1 ISZERO PUSH2 0x3BD JUMPI PUSH1 0x0 DUP1 REVERT JUMPDEST POP PUSH2 0x286 PUSH2 0xCFA JUMP JUMPDEST CALLVALUE DUP1 ISZERO PUSH2 0x3D2 JUMPI PUSH1 0x0 DUP1 REVERT JUMPDEST POP PUSH2 0x3E6 PUSH2 0x3E1 CALLDATASIZE PUSH1 0x4 PUSH2 0x2561 JUMP JUMPDEST PUSH2 0xD55 JUMP JUMPDEST PUSH1 0x40 MLOAD PUSH2 0x293 SWAP2 SWAP1 PUSH2 0x2847 JUMP JUMPDEST CALLVALUE DUP1 ISZERO PUSH2 0x3FF JUMPI PUSH1 0x0 DUP1 REVERT JUMPDEST POP PUSH2 0x2DE PUSH2 0x40E CALLDATASIZE PUSH1 0x4 PUSH2 0x2387 JUMP JUMPDEST PUSH2 0xF02 JUMP JUMPDEST CALLVALUE DUP1 ISZERO PUSH2 0x41F JUMPI PUSH1 0x0 DUP1 REVERT JUMPDEST POP PUSH2 0x26F PUSH2 0x42E CALLDATASIZE PUSH1 0x4 PUSH2 0x2434 JUMP JUMPDEST PUSH2 0xF16 JUMP JUMPDEST CALLVALUE DUP1 ISZERO PUSH2 0x43F JUMPI PUSH1 0x0 DUP1 REVERT JUMPDEST POP PUSH2 0x3E6 PUSH2 0xF98 JUMP JUMPDEST CALLVALUE DUP1 ISZERO PUSH2 0x454 JUMPI PUSH1 0x0 DUP1 REVERT JUMPDEST POP PUSH2 0x2BC PUSH2 0x463 CALLDATASIZE PUSH1 0x4 PUSH2 0x247C JUMP JUMPDEST PUSH2 0xFB4 JUMP JUMPDEST CALLVALUE DUP1 ISZERO PUSH2 0x474 JUMPI PUSH1 0x0 DUP1 REVERT JUMPDEST POP PUSH2 0x47D PUSH2 0x11BF JUMP JUMPDEST PUSH1 0x40 MLOAD PUSH2 0x293 SWAP2 SWAP1 PUSH2 0x2828 JUMP JUMPDEST CALLVALUE DUP1 ISZERO PUSH2 0x496 JUMPI PUSH1 0x0 DUP1 REVERT JUMPDEST POP PUSH2 0x286 PUSH2 0x1366 JUMP JUMPDEST CALLVALUE DUP1 ISZERO PUSH2 0x4AB JUMPI PUSH1 0x0 DUP1 REVERT JUMPDEST POP PUSH2 0x2DE PUSH2 0x4BA CALLDATASIZE PUSH1 0x4 PUSH2 0x2605 JUMP JUMPDEST PUSH2 0x13C1 JUMP JUMPDEST CALLVALUE DUP1 ISZERO PUSH2 0x4CB JUMPI PUSH1 0x0 DUP1 REVERT JUMPDEST POP PUSH2 0x2BC PUSH2 0x4DA CALLDATASIZE PUSH1 0x4 PUSH2 0x247C JUMP JUMPDEST PUSH2 0x14F6 JUMP JUMPDEST CALLVALUE DUP1 ISZERO PUSH2 0x4EB JUMPI PUSH1 0x0 DUP1 REVERT JUMPDEST POP PUSH2 0x2BC PUSH2 0x1515 JUMP JUMPDEST CALLVALUE DUP1 ISZERO PUSH2 0x500 JUMPI PUSH1 0x0 DUP1 REVERT JUMPDEST POP PUSH2 0x2DE PUSH2 0x151E JUMP JUMPDEST CALLVALUE DUP1 ISZERO PUSH2 0x515 JUMPI PUSH1 0x0 DUP1 REVERT JUMPDEST POP PUSH2 0x2BC PUSH2 0x524 CALLDATASIZE PUSH1 0x4 PUSH2 0x24E8 JUMP JUMPDEST PUSH2 0x1524 JUMP JUMPDEST CALLVALUE DUP1 ISZERO PUSH2 0x535 JUMPI PUSH1 0x0 DUP1 REVERT JUMPDEST POP PUSH2 0x26F PUSH2 0x544 CALLDATASIZE PUSH1 0x4 PUSH2 0x2434 JUMP JUMPDEST PUSH2 0x15CF JUMP JUMPDEST CALLVALUE DUP1 ISZERO PUSH2 0x555 JUMPI PUSH1 0x0 DUP1 REVERT JUMPDEST POP PUSH2 0x2BC PUSH2 0x564 CALLDATASIZE PUSH1 0x4 PUSH2 0x247C JUMP JUMPDEST PUSH2 0x164C JUMP JUMPDEST CALLVALUE DUP1 ISZERO PUSH2 0x575 JUMPI PUSH1 0x0 DUP1 REVERT JUMPDEST POP PUSH2 0x2DE PUSH2 0x186F JUMP JUMPDEST CALLVALUE DUP1 ISZERO PUSH2 0x58A JUMPI PUSH1 0x0 DUP1 REVERT JUMPDEST POP PUSH2 0x2DE PUSH2 0x599 CALLDATASIZE PUSH1 0x4 PUSH2 0x23AD JUMP JUMPDEST PUSH2 0x1875 JUMP JUMPDEST CALLVALUE DUP1 ISZERO PUSH2 0x5AA JUMPI PUSH1 0x0 DUP1 REVERT JUMPDEST POP PUSH2 0x26F PUSH2 0x5B9 CALLDATASIZE PUSH1 0x4 PUSH2 0x2387 JUMP JUMPDEST PUSH2 0x18AD JUMP JUMPDEST CALLVALUE DUP1 ISZERO PUSH2 0x5CA JUMPI PUSH1 0x0 DUP1 REVERT JUMPDEST POP PUSH2 0x3E6 PUSH2 0x1AF0 JUMP JUMPDEST CALLVALUE DUP1 ISZERO PUSH2 0x5DF JUMPI PUSH1 0x0 DUP1 REVERT JUMPDEST POP PUSH2 0x2DE PUSH2 0x5EE CALLDATASIZE PUSH1 0x4 PUSH2 0x2387 JUMP JUMPDEST PUSH2 0x1B11 JUMP JUMPDEST CALLVALUE DUP1 ISZERO PUSH2 0x5FF JUMPI PUSH1 0x0 DUP1 REVERT JUMPDEST POP PUSH2 0x26F PUSH2 0x60E CALLDATASIZE PUSH1 0x4 PUSH2 0x24AC JUMP JUMPDEST PUSH2 0x1B23 JUMP JUMPDEST CALLVALUE DUP1 ISZERO PUSH2 0x61F JUMPI PUSH1 0x0 DUP1 REVERT JUMPDEST POP PUSH2 0x628 PUSH2 0x1B78 JUMP JUMPDEST PUSH1 0x40 MLOAD PUSH2 0x293 SWAP2 SWAP1 PUSH2 0x275F JUMP JUMPDEST PUSH1 0x0 DUP1 PUSH20 0xFFFFFFFFFFFFFFFFFFFFFFFFFFFFFFFFFFFFFFFF DUP4 AND ISZERO ISZERO PUSH2 0x65E JUMPI PUSH1 0x0 SWAP2 POP PUSH2 0x669 JUMP JUMPDEST DUP3 EXTCODESIZE SWAP1 POP PUSH1 0x0 DUP2 GT SWAP2 POP JUMPDEST POP SWAP2 SWAP1 POP JUMP JUMPDEST PUSH1 0x1 DUP1 SLOAD PUSH1 0x40 DUP1 MLOAD PUSH1 0x20 PUSH1 0x2 DUP5 DUP7 AND ISZERO PUSH2 0x100 MUL PUSH1 0x0 NOT ADD SWAP1 SWAP5 AND SWAP4 SWAP1 SWAP4 DIV PUSH1 0x1F DUP2 ADD DUP5 SWAP1 DIV DUP5 MUL DUP3 ADD DUP5 ADD SWAP1 SWAP3 MSTORE DUP2 DUP2 MSTORE SWAP3 SWAP2 DUP4 ADD DUP3 DUP3 DUP1 ISZERO PUSH2 0x6F4 JUMPI DUP1 PUSH1 0x1F LT PUSH2 0x6C9 JUMPI PUSH2 0x100 DUP1 DUP4 SLOAD DIV MUL DUP4 MSTORE SWAP2 PUSH1 0x20 ADD SWAP2 PUSH2 0x6F4 JUMP JUMPDEST DUP3 ADD SWAP2 SWAP1 PUSH1 0x0 MSTORE PUSH1 0x20 PUSH1 0x0 KECCAK256 SWAP1 JUMPDEST DUP2 SLOAD DUP2 MSTORE SWAP1 PUSH1 0x1 ADD SWAP1 PUSH1 0x20 ADD DUP1 DUP4 GT PUSH2 0x6D7 JUMPI DUP3 SWAP1 SUB PUSH1 0x1F AND DUP3 ADD SWAP2 JUMPDEST POP POP POP POP POP DUP2 JUMP JUMPDEST PUSH1 0xD SLOAD PUSH1 0x0 SWAP1 PUSH1 0xFF AND ISZERO ISZERO PUSH2 0x710 JUMPI PUSH1 0x0 DUP1 REVERT JUMPDEST DUP2 ISZERO DUP1 PUSH2 0x74B JUMPI POP CALLER PUSH1 0x0 SWAP1 DUP2 MSTORE PUSH1 0xB PUSH1 0x20 SWAP1 DUP2 MSTORE PUSH1 0x40 DUP1 DUP4 KECCAK256 PUSH20 0xFFFFFFFFFFFFFFFFFFFFFFFFFFFFFFFFFFFFFFFF DUP8 AND DUP5 MSTORE SWAP1 SWAP2 MSTORE SWAP1 KECCAK256 SLOAD ISZERO JUMPDEST ISZERO ISZERO PUSH2 0x756 JUMPI PUSH1 0x0 DUP1 REVERT JUMPDEST PUSH1 0x0 SLOAD PUSH2 0x778 SWAP1 PUSH20 0xFFFFFFFFFFFFFFFFFFFFFFFFFFFFFFFFFFFFFFFF AND PUSH2 0x635 JUMP JUMPDEST ISZERO PUSH2 0x837 JUMPI PUSH1 0x0 SLOAD PUSH1 0x40 MLOAD PUSH32 0xDA682AEB00000000000000000000000000000000000000000000000000000000 DUP2 MSTORE PUSH20 0xFFFFFFFFFFFFFFFFFFFFFFFFFFFFFFFFFFFFFFFF SWAP1 SWAP2 AND SWAP1 PUSH4 0xDA682AEB SWAP1 PUSH2 0x7D7 SWAP1 CALLER SWAP1 DUP8 SWAP1 DUP8 SWAP1 PUSH1 0x4 ADD PUSH2 0x276D JUMP JUMPDEST PUSH1 0x20 PUSH1 0x40 MLOAD DUP1 DUP4 SUB DUP2 PUSH1 0x0 DUP8 DUP1 EXTCODESIZE ISZERO DUP1 ISZERO PUSH2 0x7F1 JUMPI PUSH1 0x0 DUP1 REVERT JUMPDEST POP GAS CALL ISZERO DUP1 ISZERO PUSH2 0x805 JUMPI RETURNDATASIZE PUSH1 0x0 DUP1 RETURNDATACOPY RETURNDATASIZE PUSH1 0x0 REVERT JUMPDEST POP POP POP POP PUSH1 0x40 MLOAD RETURNDATASIZE PUSH1 0x1F NOT PUSH1 0x1F DUP3 ADD AND DUP3 ADD DUP1 PUSH1 0x40 MSTORE POP PUSH2 0x829 SWAP2 SWAP1 DUP2 ADD SWAP1 PUSH2 0x24CA JUMP JUMPDEST ISZERO ISZERO PUSH1 0x1 EQ PUSH2 0x837 JUMPI PUSH1 0x0 DUP1 REVERT JUMPDEST CALLER PUSH1 0x0 DUP2 DUP2 MSTORE PUSH1 0xB PUSH1 0x20 SWAP1 DUP2 MSTORE PUSH1 0x40 DUP1 DUP4 KECCAK256 PUSH20 0xFFFFFFFFFFFFFFFFFFFFFFFFFFFFFFFFFFFFFFFF DUP9 AND DUP1 DUP6 MSTORE SWAP3 MSTORE SWAP2 DUP3 SWAP1 KECCAK256 DUP6 SWAP1 SSTORE SWAP1 MLOAD SWAP1 SWAP2 SWAP1 PUSH32 0x8C5BE1E5EBEC7D5BD14F71427D1E84F3DD0314C0F7B2291E5B200AC8C7C3B925 SWAP1 PUSH2 0x89E SWAP1 DUP7 SWAP1 PUSH2 0x28CE JUMP JUMPDEST PUSH1 0x40 MLOAD DUP1 SWAP2 SUB SWAP1 LOG3 POP PUSH1 0x1 JUMPDEST SWAP3 SWAP2 POP POP JUMP JUMPDEST PUSH1 0x7 SLOAD DUP2 JUMP JUMPDEST PUSH1 0x0 PUSH2 0x8C1 NUMBER PUSH2 0x13C1 JUMP JUMPDEST SWAP1 POP JUMPDEST SWAP1 JUMP JUMPDEST PUSH1 0x0 DUP1 SLOAD PUSH20 0xFFFFFFFFFFFFFFFFFFFFFFFFFFFFFFFFFFFFFFFF AND CALLER EQ PUSH2 0x970 JUMPI PUSH1 0xD SLOAD PUSH1 0xFF AND ISZERO ISZERO PUSH2 0x8F8 JUMPI PUSH1 0x0 DUP1 REVERT JUMPDEST PUSH20 0xFFFFFFFFFFFFFFFFFFFFFFFFFFFFFFFFFFFFFFFF DUP5 AND PUSH1 0x0 SWAP1 DUP2 MSTORE PUSH1 0xB PUSH1 0x20 SWAP1 DUP2 MSTORE PUSH1 0x40 DUP1 DUP4 KECCAK256 CALLER DUP5 MSTORE SWAP1 SWAP2 MSTORE SWAP1 KECCAK256 SLOAD DUP3 GT ISZERO PUSH2 0x938 JUMPI POP PUSH1 0x0 PUSH2 0x97E JUMP JUMPDEST PUSH20 0xFFFFFFFFFFFFFFFFFFFFFFFFFFFFFFFFFFFFFFFF DUP5 AND PUSH1 0x0 SWAP1 DUP2 MSTORE PUSH1 0xB PUSH1 0x20 SWAP1 DUP2 MSTORE PUSH1 0x40 DUP1 DUP4 KECCAK256 CALLER DUP5 MSTORE SWAP1 SWAP2 MSTORE SWAP1 KECCAK256 DUP1 SLOAD DUP4 SWAP1 SUB SWAP1 SSTORE JUMPDEST PUSH2 0x97B DUP5 DUP5 DUP5 PUSH2 0x1B94 JUMP JUMPDEST SWAP1 POP JUMPDEST SWAP4 SWAP3 POP POP POP JUMP JUMPDEST PUSH1 0x9 DUP1 SLOAD DUP3 SWAP1 DUP2 LT PUSH2 0x993 JUMPI INVALID JUMPDEST PUSH1 0x0 SWAP2 DUP3 MSTORE PUSH1 0x20 SWAP2 DUP3 SWAP1 KECCAK256 PUSH1 0x3 SWAP1 SWAP2 MUL ADD DUP1 SLOAD PUSH1 0x1 DUP1 DUP4 ADD DUP1 SLOAD PUSH1 0x40 DUP1 MLOAD PUSH1 0x1F PUSH1 0x2 PUSH1 0x0 NOT SWAP7 DUP6 AND ISZERO PUSH2 0x100 MUL SWAP7 SWAP1 SWAP7 ADD SWAP1 SWAP4 AND SWAP5 SWAP1 SWAP5 DIV SWAP2 DUP3 ADD DUP8 SWAP1 DIV DUP8 MUL DUP5 ADD DUP8 ADD SWAP1 MSTORE DUP1 DUP4 MSTORE PUSH20 0xFFFFFFFFFFFFFFFFFFFFFFFFFFFFFFFFFFFFFFFF SWAP1 SWAP4 AND SWAP6 POP SWAP3 SWAP4 SWAP1 SWAP3 SWAP2 SWAP1 DUP4 ADD DUP3 DUP3 DUP1 ISZERO PUSH2 0xA4D JUMPI DUP1 PUSH1 0x1F LT PUSH2 0xA22 JUMPI PUSH2 0x100 DUP1 DUP4 SLOAD DIV MUL DUP4 MSTORE SWAP2 PUSH1 0x20 ADD SWAP2 PUSH2 0xA4D JUMP JUMPDEST DUP3 ADD SWAP2 SWAP1 PUSH1 0x0 MSTORE PUSH1 0x20 PUSH1 0x0 KECCAK256 SWAP1 JUMPDEST DUP2 SLOAD DUP2 MSTORE SWAP1 PUSH1 0x1 ADD SWAP1 PUSH1 0x20 ADD DUP1 DUP4 GT PUSH2 0xA30 JUMPI DUP3 SWAP1 SUB PUSH1 0x1F AND DUP3 ADD SWAP2 JUMPDEST POP POP POP PUSH1 0x2 DUP1 DUP6 ADD DUP1 SLOAD PUSH1 0x40 DUP1 MLOAD PUSH1 0x20 PUSH1 0x1F PUSH1 0x0 NOT PUSH2 0x100 PUSH1 0x1 DUP8 AND ISZERO MUL ADD SWAP1 SWAP5 AND SWAP6 SWAP1 SWAP6 DIV SWAP3 DUP4 ADD DUP6 SWAP1 DIV DUP6 MUL DUP2 ADD DUP6 ADD SWAP1 SWAP2 MSTORE DUP2 DUP2 MSTORE SWAP6 SWAP7 SWAP6 SWAP5 POP SWAP1 SWAP3 POP SWAP1 DUP4 ADD DUP3 DUP3 DUP1 ISZERO PUSH2 0xADF JUMPI DUP1 PUSH1 0x1F LT PUSH2 0xAB4 JUMPI PUSH2 0x100 DUP1 DUP4 SLOAD DIV MUL DUP4 MSTORE SWAP2 PUSH1 0x20 ADD SWAP2 PUSH2 0xADF JUMP JUMPDEST DUP3 ADD SWAP2 SWAP1 PUSH1 0x0 MSTORE PUSH1 0x20 PUSH1 0x0 KECCAK256 SWAP1 JUMPDEST DUP2 SLOAD DUP2 MSTORE SWAP1 PUSH1 0x1 ADD SWAP1 PUSH1 0x20 ADD DUP1 DUP4 GT PUSH2 0xAC2 JUMPI DUP3 SWAP1 SUB PUSH1 0x1F AND DUP3 ADD SWAP2 JUMPDEST POP POP POP POP POP SWAP1 POP DUP4 JUMP JUMPDEST PUSH1 0x2 SLOAD PUSH1 0xFF AND DUP2 JUMP JUMPDEST PUSH1 0x0 SLOAD PUSH20 0xFFFFFFFFFFFFFFFFFFFFFFFFFFFFFFFFFFFFFFFF AND CALLER EQ PUSH2 0xB16 JUMPI PUSH1 0x0 DUP1 REVERT JUMPDEST PUSH1 0x0 DUP1 SLOAD PUSH32 0xFFFFFFFFFFFFFFFFFFFFFFFF0000000000000000000000000000000000000000 AND PUSH20 0xFFFFFFFFFFFFFFFFFFFFFFFFFFFFFFFFFFFFFFFF SWAP3 SWAP1 SWAP3 AND SWAP2 SWAP1 SWAP2 OR SWAP1 SSTORE JUMP JUMPDEST PUSH20 0xFFFFFFFFFFFFFFFFFFFFFFFFFFFFFFFFFFFFFFFF DUP3 AND PUSH1 0x0 SWAP1 DUP2 MSTORE PUSH1 0x8 PUSH1 0x20 MSTORE PUSH1 0x40 DUP2 KECCAK256 SLOAD ISZERO DUP1 PUSH2 0xBDC JUMPI POP PUSH20 0xFFFFFFFFFFFFFFFFFFFFFFFFFFFFFFFFFFFFFFFF DUP4 AND PUSH1 0x0 SWAP1 DUP2 MSTORE PUSH1 0x8 PUSH1 0x20 MSTORE PUSH1 0x40 DUP2 KECCAK256 DUP1 SLOAD DUP5 SWAP3 SWAP1 DUP2 LT PUSH2 0xBBC JUMPI INVALID JUMPDEST PUSH1 0x0 SWAP2 DUP3 MSTORE PUSH1 0x20 SWAP1 SWAP2 KECCAK256 ADD SLOAD PUSH16 0xFFFFFFFFFFFFFFFFFFFFFFFFFFFFFFFF AND GT JUMPDEST ISZERO PUSH2 0xCCB JUMPI PUSH1 0x5 SLOAD PUSH20 0xFFFFFFFFFFFFFFFFFFFFFFFFFFFFFFFFFFFFFFFF AND ISZERO PUSH2 0xCC3 JUMPI PUSH1 0x5 SLOAD PUSH1 0x6 SLOAD PUSH20 0xFFFFFFFFFFFFFFFFFFFFFFFFFFFFFFFFFFFFFFFF SWAP1 SWAP2 AND SWAP1 PUSH4 0x4EE2CD7E SWAP1 DUP6 SWAP1 PUSH2 0xC31 SWAP1 DUP7 SWAP1 PUSH2 0x1DEA JUMP JUMPDEST PUSH1 0x40 MLOAD DUP4 PUSH4 0xFFFFFFFF AND PUSH29 0x100000000000000000000000000000000000000000000000000000000 MUL DUP2 MSTORE PUSH1 0x4 ADD PUSH2 0xC6A SWAP3 SWAP2 SWAP1 PUSH2 0x27C9 JUMP JUMPDEST PUSH1 0x20 PUSH1 0x40 MLOAD DUP1 DUP4 SUB DUP2 PUSH1 0x0 DUP8 DUP1 EXTCODESIZE ISZERO DUP1 ISZERO PUSH2 0xC84 JUMPI PUSH1 0x0 DUP1 REVERT JUMPDEST POP GAS CALL ISZERO DUP1 ISZERO PUSH2 0xC98 JUMPI RETURNDATASIZE PUSH1 0x0 DUP1 RETURNDATACOPY RETURNDATASIZE PUSH1 0x0 REVERT JUMPDEST POP POP POP POP PUSH1 0x40 MLOAD RETURNDATASIZE PUSH1 0x1F NOT PUSH1 0x1F DUP3 ADD AND DUP3 ADD DUP1 PUSH1 0x40 MSTORE POP PUSH2 0xCBC SWAP2 SWAP1 DUP2 ADD SWAP1 PUSH2 0x2623 JUMP JUMPDEST SWAP1 POP PUSH2 0x8AA JUMP JUMPDEST POP PUSH1 0x0 PUSH2 0x8AA JUMP JUMPDEST PUSH20 0xFFFFFFFFFFFFFFFFFFFFFFFFFFFFFFFFFFFFFFFF DUP4 AND PUSH1 0x0 SWAP1 DUP2 MSTORE PUSH1 0x8 PUSH1 0x20 MSTORE PUSH1 0x40 SWAP1 KECCAK256 PUSH2 0xCBC SWAP1 DUP4 PUSH2 0x1E00 JUMP JUMPDEST PUSH1 0x4 DUP1 SLOAD PUSH1 0x40 DUP1 MLOAD PUSH1 0x20 PUSH1 0x2 PUSH1 0x1 DUP6 AND ISZERO PUSH2 0x100 MUL PUSH1 0x0 NOT ADD SWAP1 SWAP5 AND SWAP4 SWAP1 SWAP4 DIV PUSH1 0x1F DUP2 ADD DUP5 SWAP1 DIV DUP5 MUL DUP3 ADD DUP5 ADD SWAP1 SWAP3 MSTORE DUP2 DUP2 MSTORE SWAP3 SWAP2 DUP4 ADD DUP3 DUP3 DUP1 ISZERO PUSH2 0x6F4 JUMPI DUP1 PUSH1 0x1F LT PUSH2 0x6C9 JUMPI PUSH2 0x100 DUP1 DUP4 SLOAD DIV MUL DUP4 MSTORE SWAP2 PUSH1 0x20 ADD SWAP2 PUSH2 0x6F4 JUMP JUMPDEST PUSH1 0x0 DUP1 DUP1 DUP5 ISZERO PUSH2 0xD65 JUMPI DUP5 PUSH2 0xD6A JUMP JUMPDEST PUSH1 0x1 NUMBER SUB JUMPDEST PUSH1 0xD SLOAD PUSH1 0x40 MLOAD PUSH32 0x5B7B72C100000000000000000000000000000000000000000000000000000000 DUP2 MSTORE SWAP2 SWAP4 POP PUSH2 0x100 SWAP1 DIV PUSH20 0xFFFFFFFFFFFFFFFFFFFFFFFFFFFFFFFFFFFFFFFF AND SWAP1 PUSH4 0x5B7B72C1 SWAP1 PUSH2 0xDD0 SWAP1 ADDRESS SWAP1 DUP7 SWAP1 DUP14 SWAP1 DUP14 SWAP1 DUP14 SWAP1 DUP13 SWAP1 PUSH1 0x4 ADD PUSH2 0x2855 JUMP JUMPDEST PUSH1 0x20 PUSH1 0x40 MLOAD DUP1 DUP4 SUB DUP2 PUSH1 0x0 DUP8 DUP1 EXTCODESIZE ISZERO DUP1 ISZERO PUSH2 0xDEA JUMPI PUSH1 0x0 DUP1 REVERT JUMPDEST POP GAS CALL ISZERO DUP1 ISZERO PUSH2 0xDFE JUMPI RETURNDATASIZE PUSH1 0x0 DUP1 RETURNDATACOPY RETURNDATASIZE PUSH1 0x0 REVERT JUMPDEST POP POP POP POP PUSH1 0x40 MLOAD RETURNDATASIZE PUSH1 0x1F NOT PUSH1 0x1F DUP3 ADD AND DUP3 ADD DUP1 PUSH1 0x40 MSTORE POP PUSH2 0xE22 SWAP2 SWAP1 DUP2 ADD SWAP1 PUSH2 0x2543 JUMP JUMPDEST PUSH1 0x40 MLOAD PUSH32 0x3CEBB82300000000000000000000000000000000000000000000000000000000 DUP2 MSTORE SWAP1 SWAP2 POP PUSH20 0xFFFFFFFFFFFFFFFFFFFFFFFFFFFFFFFFFFFFFFFF DUP3 AND SWAP1 PUSH4 0x3CEBB823 SWAP1 PUSH2 0xE77 SWAP1 CALLER SWAP1 PUSH1 0x4 ADD PUSH2 0x275F JUMP JUMPDEST PUSH1 0x0 PUSH1 0x40 MLOAD DUP1 DUP4 SUB DUP2 PUSH1 0x0 DUP8 DUP1 EXTCODESIZE ISZERO DUP1 ISZERO PUSH2 0xE91 JUMPI PUSH1 0x0 DUP1 REVERT JUMPDEST POP GAS CALL ISZERO DUP1 ISZERO PUSH2 0xEA5 JUMPI RETURNDATASIZE PUSH1 0x0 DUP1 RETURNDATACOPY RETURNDATASIZE PUSH1 0x0 REVERT JUMPDEST POP POP POP POP DUP1 PUSH20 0xFFFFFFFFFFFFFFFFFFFFFFFFFFFFFFFFFFFFFFFF AND PUSH32 0x86C875B377F900B07CE03575813022F05DD10ED7640B5282CF6D3C3FC352ADE DUP4 PUSH1 0x40 MLOAD PUSH2 0xEEF SWAP2 SWAP1 PUSH2 0x28CE JUMP JUMPDEST PUSH1 0x40 MLOAD DUP1 SWAP2 SUB SWAP1 LOG2 SWAP8 SWAP7 POP POP POP POP POP POP POP JUMP JUMPDEST PUSH1 0x0 PUSH2 0xF0E DUP3 NUMBER PUSH2 0xB5D JUMP JUMPDEST SWAP1 POP JUMPDEST SWAP2 SWAP1 POP JUMP JUMPDEST PUSH1 0x0 SLOAD PUSH20 0xFFFFFFFFFFFFFFFFFFFFFFFFFFFFFFFFFFFFFFFF AND CALLER EQ PUSH2 0xF3A JUMPI PUSH1 0x0 DUP1 REVERT JUMPDEST PUSH20 0xFFFFFFFFFFFFFFFFFFFFFFFFFFFFFFFFFFFFFFFF DUP3 AND PUSH1 0x0 SWAP1 DUP2 MSTORE PUSH1 0xA PUSH1 0x20 MSTORE PUSH1 0x40 SWAP1 KECCAK256 SLOAD PUSH1 0x9 DUP1 SLOAD DUP4 SWAP3 SWAP1 DUP2 LT PUSH2 0xF6F JUMPI INVALID JUMPDEST SWAP1 PUSH1 0x0 MSTORE PUSH1 0x20 PUSH1 0x0 KECCAK256 SWAP1 PUSH1 0x3 MUL ADD PUSH1 0x1 ADD SWAP1 DUP1 MLOAD SWAP1 PUSH1 0x20 ADD SWAP1 PUSH2 0xF93 SWAP3 SWAP2 SWAP1 PUSH2 0x20AA JUMP JUMPDEST POP POP POP JUMP JUMPDEST PUSH1 0x5 SLOAD PUSH20 0xFFFFFFFFFFFFFFFFFFFFFFFFFFFFFFFFFFFFFFFF AND DUP2 JUMP JUMPDEST PUSH1 0x0 DUP1 PUSH1 0x0 PUSH2 0xFC1 PUSH2 0x2128 JUMP JUMPDEST PUSH1 0x0 SLOAD PUSH20 0xFFFFFFFFFFFFFFFFFFFFFFFFFFFFFFFFFFFFFFFF AND CALLER EQ PUSH2 0xFE5 JUMPI PUSH1 0x0 DUP1 REVERT JUMPDEST PUSH2 0xFED PUSH2 0x8B6 JUMP JUMPDEST SWAP3 POP DUP5 DUP4 ADD DUP4 GT ISZERO PUSH2 0xFFE JUMPI PUSH1 0x0 DUP1 REVERT JUMPDEST PUSH2 0x1007 DUP7 PUSH2 0xF02 JUMP JUMPDEST SWAP2 POP DUP5 DUP3 ADD DUP3 GT ISZERO PUSH2 0x1018 JUMPI PUSH1 0x0 DUP1 REVERT JUMPDEST PUSH2 0x1025 PUSH1 0xC DUP7 DUP6 ADD PUSH2 0x1F8A JUMP JUMPDEST PUSH20 0xFFFFFFFFFFFFFFFFFFFFFFFFFFFFFFFFFFFFFFFF DUP7 AND PUSH1 0x0 SWAP1 DUP2 MSTORE PUSH1 0x8 PUSH1 0x20 MSTORE PUSH1 0x40 SWAP1 KECCAK256 PUSH2 0x1056 SWAP1 DUP4 DUP8 ADD PUSH2 0x1F8A JUMP JUMPDEST DUP6 PUSH20 0xFFFFFFFFFFFFFFFFFFFFFFFFFFFFFFFFFFFFFFFF AND PUSH1 0x0 PUSH32 0xDDF252AD1BE2C89B69C2B068FC378DAA952BA7F163C4A11628F55A4DF523B3EF DUP8 PUSH1 0x40 MLOAD PUSH2 0x109E SWAP2 SWAP1 PUSH2 0x28CE JUMP JUMPDEST PUSH1 0x40 MLOAD DUP1 SWAP2 SUB SWAP1 LOG3 PUSH1 0x9 DUP1 SLOAD PUSH20 0xFFFFFFFFFFFFFFFFFFFFFFFFFFFFFFFFFFFFFFFF DUP9 DUP2 AND PUSH1 0x0 DUP2 DUP2 MSTORE PUSH1 0xA PUSH1 0x20 SWAP1 DUP2 MSTORE PUSH1 0x40 DUP1 DUP4 KECCAK256 DUP7 SWAP1 SSTORE SWAP3 DUP8 MSTORE DUP3 MLOAD DUP1 DUP3 ADD DUP5 MSTORE DUP3 DUP2 MSTORE DUP8 DUP3 ADD SWAP1 DUP2 MSTORE DUP4 MLOAD DUP1 DUP4 ADD DUP6 MSTORE DUP4 DUP2 MSTORE SWAP4 DUP9 ADD SWAP4 SWAP1 SWAP4 MSTORE PUSH1 0x1 DUP6 ADD DUP1 DUP8 SSTORE SWAP6 SWAP1 SWAP2 MSTORE DUP6 MLOAD PUSH32 0x6E1540171B6C0C960B71A7020D9F60077F6AF931A8BBF590DA0223DACF75C7AF PUSH1 0x3 SWAP1 SWAP6 MUL SWAP5 DUP6 ADD DUP1 SLOAD PUSH32 0xFFFFFFFFFFFFFFFFFFFFFFFF0000000000000000000000000000000000000000 AND SWAP2 SWAP1 SWAP5 AND OR DUP4 SSTORE SWAP1 MLOAD DUP1 MLOAD DUP7 SWAP5 PUSH2 0x1191 SWAP4 PUSH32 0x6E1540171B6C0C960B71A7020D9F60077F6AF931A8BBF590DA0223DACF75C7B0 SWAP1 SWAP2 ADD SWAP3 ADD SWAP1 PUSH2 0x20AA JUMP JUMPDEST POP PUSH1 0x40 DUP3 ADD MLOAD DUP1 MLOAD PUSH2 0x11AD SWAP2 PUSH1 0x2 DUP5 ADD SWAP2 PUSH1 0x20 SWAP1 SWAP2 ADD SWAP1 PUSH2 0x20AA JUMP JUMPDEST POP POP POP POP PUSH1 0x1 SWAP4 POP JUMPDEST POP POP POP SWAP3 SWAP2 POP POP JUMP JUMPDEST PUSH1 0x60 PUSH1 0x9 DUP1 SLOAD DUP1 PUSH1 0x20 MUL PUSH1 0x20 ADD PUSH1 0x40 MLOAD SWAP1 DUP2 ADD PUSH1 0x40 MSTORE DUP1 SWAP3 SWAP2 SWAP1 DUP2 DUP2 MSTORE PUSH1 0x20 ADD PUSH1 0x0 SWAP1 JUMPDEST DUP3 DUP3 LT ISZERO PUSH2 0x135D JUMPI PUSH1 0x0 DUP5 DUP2 MSTORE PUSH1 0x20 SWAP1 DUP2 SWAP1 KECCAK256 PUSH1 0x40 DUP1 MLOAD PUSH1 0x60 DUP2 ADD DUP3 MSTORE PUSH1 0x3 DUP7 MUL SWAP1 SWAP3 ADD DUP1 SLOAD PUSH20 0xFFFFFFFFFFFFFFFFFFFFFFFFFFFFFFFFFFFFFFFF AND DUP4 MSTORE PUSH1 0x1 DUP1 DUP3 ADD DUP1 SLOAD DUP5 MLOAD PUSH1 0x2 PUSH2 0x100 SWAP5 DUP4 AND ISZERO SWAP5 SWAP1 SWAP5 MUL PUSH1 0x0 NOT ADD SWAP1 SWAP2 AND SWAP3 SWAP1 SWAP3 DIV PUSH1 0x1F DUP2 ADD DUP8 SWAP1 DIV DUP8 MUL DUP4 ADD DUP8 ADD SWAP1 SWAP5 MSTORE DUP4 DUP3 MSTORE SWAP4 SWAP5 SWAP2 SWAP4 DUP6 DUP4 ADD SWAP4 SWAP2 SWAP3 SWAP1 SWAP2 SWAP1 DUP4 ADD DUP3 DUP3 DUP1 ISZERO PUSH2 0x12B3 JUMPI DUP1 PUSH1 0x1F LT PUSH2 0x1288 JUMPI PUSH2 0x100 DUP1 DUP4 SLOAD DIV MUL DUP4 MSTORE SWAP2 PUSH1 0x20 ADD SWAP2 PUSH2 0x12B3 JUMP JUMPDEST DUP3 ADD SWAP2 SWAP1 PUSH1 0x0 MSTORE PUSH1 0x20 PUSH1 0x0 KECCAK256 SWAP1 JUMPDEST DUP2 SLOAD DUP2 MSTORE SWAP1 PUSH1 0x1 ADD SWAP1 PUSH1 0x20 ADD DUP1 DUP4 GT PUSH2 0x1296 JUMPI DUP3 SWAP1 SUB PUSH1 0x1F AND DUP3 ADD SWAP2 JUMPDEST POP POP POP SWAP2 DUP4 MSTORE POP POP PUSH1 0x2 DUP3 DUP2 ADD DUP1 SLOAD PUSH1 0x40 DUP1 MLOAD PUSH1 0x20 PUSH1 0x1 DUP5 AND ISZERO PUSH2 0x100 MUL PUSH1 0x0 NOT ADD SWAP1 SWAP4 AND SWAP5 SWAP1 SWAP5 DIV PUSH1 0x1F DUP2 ADD DUP4 SWAP1 DIV DUP4 MUL DUP6 ADD DUP4 ADD SWAP1 SWAP2 MSTORE DUP1 DUP5 MSTORE SWAP4 DUP2 ADD SWAP4 SWAP1 DUP4 ADD DUP3 DUP3 DUP1 ISZERO PUSH2 0x1345 JUMPI DUP1 PUSH1 0x1F LT PUSH2 0x131A JUMPI PUSH2 0x100 DUP1 DUP4 SLOAD DIV MUL DUP4 MSTORE SWAP2 PUSH1 0x20 ADD SWAP2 PUSH2 0x1345 JUMP JUMPDEST DUP3 ADD SWAP2 SWAP1 PUSH1 0x0 MSTORE PUSH1 0x20 PUSH1 0x0 KECCAK256 SWAP1 JUMPDEST DUP2 SLOAD DUP2 MSTORE SWAP1 PUSH1 0x1 ADD SWAP1 PUSH1 0x20 ADD DUP1 DUP4 GT PUSH2 0x1328 JUMPI DUP3 SWAP1 SUB PUSH1 0x1F AND DUP3 ADD SWAP2 JUMPDEST POP POP POP POP POP DUP2 MSTORE POP POP DUP2 MSTORE PUSH1 0x20 ADD SWAP1 PUSH1 0x1 ADD SWAP1 PUSH2 0x11E3 JUMP JUMPDEST POP POP POP POP SWAP1 POP SWAP1 JUMP JUMPDEST PUSH1 0x3 DUP1 SLOAD PUSH1 0x40 DUP1 MLOAD PUSH1 0x20 PUSH1 0x2 PUSH1 0x1 DUP6 AND ISZERO PUSH2 0x100 MUL PUSH1 0x0 NOT ADD SWAP1 SWAP5 AND SWAP4 SWAP1 SWAP4 DIV PUSH1 0x1F DUP2 ADD DUP5 SWAP1 DIV DUP5 MUL DUP3 ADD DUP5 ADD SWAP1 SWAP3 MSTORE DUP2 DUP2 MSTORE SWAP3 SWAP2 DUP4 ADD DUP3 DUP3 DUP1 ISZERO PUSH2 0x6F4 JUMPI DUP1 PUSH1 0x1F LT PUSH2 0x6C9 JUMPI PUSH2 0x100 DUP1 DUP4 SLOAD DIV MUL DUP4 MSTORE SWAP2 PUSH1 0x20 ADD SWAP2 PUSH2 0x6F4 JUMP JUMPDEST PUSH1 0xC SLOAD PUSH1 0x0 SWAP1 ISZERO DUP1 PUSH2 0x13FF JUMPI POP DUP2 PUSH1 0xC PUSH1 0x0 DUP2 SLOAD DUP2 LT ISZERO ISZERO PUSH2 0x13DF JUMPI INVALID JUMPDEST PUSH1 0x0 SWAP2 DUP3 MSTORE PUSH1 0x20 SWAP1 SWAP2 KECCAK256 ADD SLOAD PUSH16 0xFFFFFFFFFFFFFFFFFFFFFFFFFFFFFFFF AND GT JUMPDEST ISZERO PUSH2 0x14EB JUMPI PUSH1 0x5 SLOAD PUSH20 0xFFFFFFFFFFFFFFFFFFFFFFFFFFFFFFFFFFFFFFFF AND ISZERO PUSH2 0x14E3 JUMPI PUSH1 0x5 SLOAD PUSH1 0x6 SLOAD PUSH20 0xFFFFFFFFFFFFFFFFFFFFFFFFFFFFFFFFFFFFFFFF SWAP1 SWAP2 AND SWAP1 PUSH4 0x981B24D0 SWAP1 PUSH2 0x1452 SWAP1 DUP6 SWAP1 PUSH2 0x1DEA JUMP JUMPDEST PUSH1 0x40 MLOAD DUP3 PUSH4 0xFFFFFFFF AND PUSH29 0x100000000000000000000000000000000000000000000000000000000 MUL DUP2 MSTORE PUSH1 0x4 ADD PUSH2 0x148A SWAP2 SWAP1 PUSH2 0x28CE JUMP JUMPDEST PUSH1 0x20 PUSH1 0x40 MLOAD DUP1 DUP4 SUB DUP2 PUSH1 0x0 DUP8 DUP1 EXTCODESIZE ISZERO DUP1 ISZERO PUSH2 0x14A4 JUMPI PUSH1 0x0 DUP1 REVERT JUMPDEST POP GAS CALL ISZERO DUP1 ISZERO PUSH2 0x14B8 JUMPI RETURNDATASIZE PUSH1 0x0 DUP1 RETURNDATACOPY RETURNDATASIZE PUSH1 0x0 REVERT JUMPDEST POP POP POP POP PUSH1 0x40 MLOAD RETURNDATASIZE PUSH1 0x1F NOT PUSH1 0x1F DUP3 ADD AND DUP3 ADD DUP1 PUSH1 0x40 MSTORE POP PUSH2 0x14DC SWAP2 SWAP1 DUP2 ADD SWAP1 PUSH2 0x2623 JUMP JUMPDEST SWAP1 POP PUSH2 0xF11 JUMP JUMPDEST POP PUSH1 0x0 PUSH2 0xF11 JUMP JUMPDEST PUSH2 0x14DC PUSH1 0xC DUP4 PUSH2 0x1E00 JUMP JUMPDEST PUSH1 0xD SLOAD PUSH1 0x0 SWAP1 PUSH1 0xFF AND ISZERO ISZERO PUSH2 0x150A JUMPI PUSH1 0x0 DUP1 REVERT JUMPDEST PUSH2 0x97E CALLER DUP5 DUP5 PUSH2 0x1B94 JUMP JUMPDEST PUSH1 0xD SLOAD PUSH1 0xFF AND DUP2 JUMP JUMPDEST PUSH1 0x6 SLOAD DUP2 JUMP JUMPDEST PUSH1 0x0 PUSH2 0x1530 DUP5 DUP5 PUSH2 0x6FC JUMP JUMPDEST ISZERO ISZERO PUSH2 0x153B JUMPI PUSH1 0x0 DUP1 REVERT JUMPDEST PUSH1 0x40 MLOAD PUSH32 0x8F4FFCB100000000000000000000000000000000000000000000000000000000 DUP2 MSTORE PUSH20 0xFFFFFFFFFFFFFFFFFFFFFFFFFFFFFFFFFFFFFFFF DUP6 AND SWAP1 PUSH4 0x8F4FFCB1 SWAP1 PUSH2 0x1593 SWAP1 CALLER SWAP1 DUP8 SWAP1 ADDRESS SWAP1 DUP9 SWAP1 PUSH1 0x4 ADD PUSH2 0x27E4 JUMP JUMPDEST PUSH1 0x0 PUSH1 0x40 MLOAD DUP1 DUP4 SUB DUP2 PUSH1 0x0 DUP8 DUP1 EXTCODESIZE ISZERO DUP1 ISZERO PUSH2 0x15AD JUMPI PUSH1 0x0 DUP1 REVERT JUMPDEST POP GAS CALL ISZERO DUP1 ISZERO PUSH2 0x15C1 JUMPI RETURNDATASIZE PUSH1 0x0 DUP1 RETURNDATACOPY RETURNDATASIZE PUSH1 0x0 REVERT JUMPDEST POP PUSH1 0x1 SWAP8 SWAP7 POP POP POP POP POP POP POP JUMP JUMPDEST PUSH1 0x0 SLOAD PUSH20 0xFFFFFFFFFFFFFFFFFFFFFFFFFFFFFFFFFFFFFFFF AND CALLER EQ PUSH2 0x15F3 JUMPI PUSH1 0x0 DUP1 REVERT JUMPDEST PUSH20 0xFFFFFFFFFFFFFFFFFFFFFFFFFFFFFFFFFFFFFFFF DUP3 AND PUSH1 0x0 SWAP1 DUP2 MSTORE PUSH1 0xA PUSH1 0x20 MSTORE PUSH1 0x40 SWAP1 KECCAK256 SLOAD PUSH1 0x9 DUP1 SLOAD DUP4 SWAP3 SWAP1 DUP2 LT PUSH2 0x1628 JUMPI INVALID JUMPDEST SWAP1 PUSH1 0x0 MSTORE PUSH1 0x20 PUSH1 0x0 KECCAK256 SWAP1 PUSH1 0x3 MUL ADD PUSH1 0x2 ADD SWAP1 DUP1 MLOAD SWAP1 PUSH1 0x20 ADD SWAP1 PUSH2 0xF93 SWAP3 SWAP2 SWAP1 PUSH2 0x20AA JUMP JUMPDEST PUSH1 0x0 DUP1 SLOAD DUP2 SWAP1 DUP2 SWAP1 PUSH20 0xFFFFFFFFFFFFFFFFFFFFFFFFFFFFFFFFFFFFFFFF AND CALLER EQ PUSH2 0x1675 JUMPI PUSH1 0x0 DUP1 REVERT JUMPDEST PUSH2 0x167D PUSH2 0x8B6 JUMP JUMPDEST SWAP2 POP DUP4 DUP3 LT ISZERO PUSH2 0x168C JUMPI PUSH1 0x0 DUP1 REVERT JUMPDEST PUSH2 0x1695 DUP6 PUSH2 0xF02 JUMP JUMPDEST SWAP1 POP DUP4 DUP2 LT ISZERO PUSH2 0x16A4 JUMPI PUSH1 0x0 DUP1 REVERT JUMPDEST PUSH2 0x16B1 PUSH1 0xC DUP6 DUP5 SUB PUSH2 0x1F8A JUMP JUMPDEST PUSH20 0xFFFFFFFFFFFFFFFFFFFFFFFFFFFFFFFFFFFFFFFF DUP6 AND PUSH1 0x0 SWAP1 DUP2 MSTORE PUSH1 0x8 PUSH1 0x20 MSTORE PUSH1 0x40 SWAP1 KECCAK256 PUSH2 0x16E2 SWAP1 DUP6 DUP4 SUB PUSH2 0x1F8A JUMP JUMPDEST PUSH1 0x0 DUP6 PUSH20 0xFFFFFFFFFFFFFFFFFFFFFFFFFFFFFFFFFFFFFFFF AND PUSH32 0xDDF252AD1BE2C89B69C2B068FC378DAA952BA7F163C4A11628F55A4DF523B3EF DUP7 PUSH1 0x40 MLOAD PUSH2 0x172A SWAP2 SWAP1 PUSH2 0x28CE JUMP JUMPDEST PUSH1 0x40 MLOAD DUP1 SWAP2 SUB SWAP1 LOG3 PUSH1 0x9 SLOAD PUSH1 0x1 LT ISZERO PUSH2 0x1850 JUMPI PUSH1 0x9 DUP1 SLOAD PUSH1 0x0 NOT DUP2 ADD SWAP1 DUP2 LT PUSH2 0x174F JUMPI INVALID JUMPDEST SWAP1 PUSH1 0x0 MSTORE PUSH1 0x20 PUSH1 0x0 KECCAK256 SWAP1 PUSH1 0x3 MUL ADD PUSH1 0x9 PUSH1 0xA PUSH1 0x0 DUP9 PUSH20 0xFFFFFFFFFFFFFFFFFFFFFFFFFFFFFFFFFFFFFFFF AND PUSH20 0xFFFFFFFFFFFFFFFFFFFFFFFFFFFFFFFFFFFFFFFF AND DUP2 MSTORE PUSH1 0x20 ADD SWAP1 DUP2 MSTORE PUSH1 0x20 ADD PUSH1 0x0 KECCAK256 SLOAD DUP2 SLOAD DUP2 LT ISZERO ISZERO PUSH2 0x17AB JUMPI INVALID JUMPDEST PUSH1 0x0 SWAP2 DUP3 MSTORE PUSH1 0x20 SWAP1 SWAP2 KECCAK256 DUP3 SLOAD PUSH1 0x3 SWAP1 SWAP3 MUL ADD DUP1 SLOAD PUSH32 0xFFFFFFFFFFFFFFFFFFFFFFFF0000000000000000000000000000000000000000 AND PUSH20 0xFFFFFFFFFFFFFFFFFFFFFFFFFFFFFFFFFFFFFFFF SWAP1 SWAP3 AND SWAP2 SWAP1 SWAP2 OR DUP2 SSTORE PUSH1 0x1 DUP1 DUP4 ADD DUP1 SLOAD PUSH2 0x1827 SWAP3 DUP1 DUP6 ADD SWAP3 SWAP2 PUSH1 0x2 PUSH1 0x0 NOT SWAP3 DUP3 AND ISZERO PUSH2 0x100 MUL SWAP3 SWAP1 SWAP3 ADD AND DIV PUSH2 0x2160 JUMP JUMPDEST POP PUSH1 0x2 DUP3 DUP2 ADD DUP1 SLOAD PUSH2 0x184C SWAP3 DUP5 DUP2 ADD SWAP3 SWAP2 PUSH1 0x0 NOT PUSH2 0x100 PUSH1 0x1 DUP4 AND ISZERO MUL ADD AND DIV PUSH2 0x2160 JUMP JUMPDEST POP POP POP JUMPDEST PUSH1 0x9 DUP1 SLOAD SWAP1 PUSH2 0x1863 SWAP1 PUSH1 0x0 NOT DUP4 ADD PUSH2 0x21D5 JUMP JUMPDEST POP PUSH1 0x1 SWAP6 SWAP5 POP POP POP POP POP JUMP JUMPDEST PUSH1 0x9 SLOAD SWAP1 JUMP JUMPDEST PUSH20 0xFFFFFFFFFFFFFFFFFFFFFFFFFFFFFFFFFFFFFFFF SWAP2 DUP3 AND PUSH1 0x0 SWAP1 DUP2 MSTORE PUSH1 0xB PUSH1 0x20 SWAP1 DUP2 MSTORE PUSH1 0x40 DUP1 DUP4 KECCAK256 SWAP4 SWAP1 SWAP5 AND DUP3 MSTORE SWAP2 SWAP1 SWAP2 MSTORE KECCAK256 SLOAD SWAP1 JUMP JUMPDEST PUSH1 0x0 DUP1 SLOAD DUP2 SWAP1 PUSH20 0xFFFFFFFFFFFFFFFFFFFFFFFFFFFFFFFFFFFFFFFF AND CALLER EQ PUSH2 0x18D4 JUMPI PUSH1 0x0 DUP1 REVERT JUMPDEST PUSH20 0xFFFFFFFFFFFFFFFFFFFFFFFFFFFFFFFFFFFFFFFF DUP4 AND ISZERO ISZERO PUSH2 0x193F JUMPI PUSH1 0x0 DUP1 SLOAD PUSH1 0x40 MLOAD PUSH20 0xFFFFFFFFFFFFFFFFFFFFFFFFFFFFFFFFFFFFFFFF SWAP1 SWAP2 AND SWAP2 ADDRESS BALANCE DUP1 ISZERO PUSH2 0x8FC MUL SWAP3 SWAP1 SWAP2 DUP2 DUP2 DUP2 DUP6 DUP9 DUP9 CALL SWAP4 POP POP POP POP ISZERO DUP1 ISZERO PUSH2 0x1939 JUMPI RETURNDATASIZE PUSH1 0x0 DUP1 RETURNDATACOPY RETURNDATASIZE PUSH1 0x0 REVERT JUMPDEST POP PUSH2 0xF93 JUMP JUMPDEST PUSH1 0x40 MLOAD PUSH32 0x70A0823100000000000000000000000000000000000000000000000000000000 DUP2 MSTORE DUP4 SWAP3 POP PUSH20 0xFFFFFFFFFFFFFFFFFFFFFFFFFFFFFFFFFFFFFFFF DUP4 AND SWAP1 PUSH4 0x70A08231 SWAP1 PUSH2 0x1994 SWAP1 ADDRESS SWAP1 PUSH1 0x4 ADD PUSH2 0x2847 JUMP JUMPDEST PUSH1 0x20 PUSH1 0x40 MLOAD DUP1 DUP4 SUB DUP2 PUSH1 0x0 DUP8 DUP1 EXTCODESIZE ISZERO DUP1 ISZERO PUSH2 0x19AE JUMPI PUSH1 0x0 DUP1 REVERT JUMPDEST POP GAS CALL ISZERO DUP1 ISZERO PUSH2 0x19C2 JUMPI RETURNDATASIZE PUSH1 0x0 DUP1 RETURNDATACOPY RETURNDATASIZE PUSH1 0x0 REVERT JUMPDEST POP POP POP POP PUSH1 0x40 MLOAD RETURNDATASIZE PUSH1 0x1F NOT PUSH1 0x1F DUP3 ADD AND DUP3 ADD DUP1 PUSH1 0x40 MSTORE POP PUSH2 0x19E6 SWAP2 SWAP1 DUP2 ADD SWAP1 PUSH2 0x2623 JUMP JUMPDEST PUSH1 0x0 SLOAD PUSH1 0x40 MLOAD PUSH32 0xA9059CBB00000000000000000000000000000000000000000000000000000000 DUP2 MSTORE SWAP2 SWAP3 POP PUSH20 0xFFFFFFFFFFFFFFFFFFFFFFFFFFFFFFFFFFFFFFFF DUP1 DUP6 AND SWAP3 PUSH4 0xA9059CBB SWAP3 PUSH2 0x1A41 SWAP3 AND SWAP1 DUP6 SWAP1 PUSH1 0x4 ADD PUSH2 0x27C9 JUMP JUMPDEST PUSH1 0x20 PUSH1 0x40 MLOAD DUP1 DUP4 SUB DUP2 PUSH1 0x0 DUP8 DUP1 EXTCODESIZE ISZERO DUP1 ISZERO PUSH2 0x1A5B JUMPI PUSH1 0x0 DUP1 REVERT JUMPDEST POP GAS CALL ISZERO DUP1 ISZERO PUSH2 0x1A6F JUMPI RETURNDATASIZE PUSH1 0x0 DUP1 RETURNDATACOPY RETURNDATASIZE PUSH1 0x0 REVERT JUMPDEST POP POP POP POP PUSH1 0x40 MLOAD RETURNDATASIZE PUSH1 0x1F NOT PUSH1 0x1F DUP3 ADD AND DUP3 ADD DUP1 PUSH1 0x40 MSTORE POP PUSH2 0x1A93 SWAP2 SWAP1 DUP2 ADD SWAP1 PUSH2 0x24CA JUMP JUMPDEST POP PUSH1 0x0 SLOAD PUSH1 0x40 MLOAD PUSH20 0xFFFFFFFFFFFFFFFFFFFFFFFFFFFFFFFFFFFFFFFF SWAP2 DUP3 AND SWAP2 DUP6 AND SWAP1 PUSH32 0xF931EDB47C50B4B4104C187B5814A9AEF5F709E17E2ECF9617E860CACADE929C SWAP1 PUSH2 0x1AE3 SWAP1 DUP6 SWAP1 PUSH2 0x28CE JUMP JUMPDEST PUSH1 0x40 MLOAD DUP1 SWAP2 SUB SWAP1 LOG3 POP POP POP JUMP JUMPDEST PUSH1 0xD SLOAD PUSH2 0x100 SWAP1 DIV PUSH20 0xFFFFFFFFFFFFFFFFFFFFFFFFFFFFFFFFFFFFFFFF AND DUP2 JUMP JUMPDEST PUSH1 0xA PUSH1 0x20 MSTORE PUSH1 0x0 SWAP1 DUP2 MSTORE PUSH1 0x40 SWAP1 KECCAK256 SLOAD DUP2 JUMP JUMPDEST PUSH1 0x0 SLOAD PUSH20 0xFFFFFFFFFFFFFFFFFFFFFFFFFFFFFFFFFFFFFFFF AND CALLER EQ PUSH2 0x1B47 JUMPI PUSH1 0x0 DUP1 REVERT JUMPDEST PUSH1 0xD DUP1 SLOAD PUSH32 0xFFFFFFFFFFFFFFFFFFFFFFFFFFFFFFFFFFFFFFFFFFFFFFFFFFFFFFFFFFFFFF00 AND SWAP2 ISZERO ISZERO SWAP2 SWAP1 SWAP2 OR SWAP1 SSTORE JUMP JUMPDEST PUSH1 0x0 SLOAD PUSH20 0xFFFFFFFFFFFFFFFFFFFFFFFFFFFFFFFFFFFFFFFF AND DUP2 JUMP JUMPDEST PUSH1 0x0 DUP1 DUP1 DUP4 ISZERO ISZERO PUSH2 0x1BA8 JUMPI PUSH1 0x1 SWAP3 POP PUSH2 0x1DE1 JUMP JUMPDEST PUSH1 0x6 SLOAD NUMBER GT PUSH2 0x1BB6 JUMPI PUSH1 0x0 DUP1 REVERT JUMPDEST PUSH20 0xFFFFFFFFFFFFFFFFFFFFFFFFFFFFFFFFFFFFFFFF DUP6 AND ISZERO DUP1 ISZERO SWAP1 PUSH2 0x1BF1 JUMPI POP PUSH20 0xFFFFFFFFFFFFFFFFFFFFFFFFFFFFFFFFFFFFFFFF DUP6 AND ADDRESS EQ ISZERO JUMPDEST ISZERO ISZERO PUSH2 0x1BFC JUMPI PUSH1 0x0 DUP1 REVERT JUMPDEST PUSH2 0x1C06 DUP7 NUMBER PUSH2 0xB5D JUMP JUMPDEST SWAP2 POP DUP4 DUP3 LT ISZERO PUSH2 0x1C19 JUMPI PUSH1 0x0 SWAP3 POP PUSH2 0x1DE1 JUMP JUMPDEST PUSH1 0x0 SLOAD PUSH2 0x1C3B SWAP1 PUSH20 0xFFFFFFFFFFFFFFFFFFFFFFFFFFFFFFFFFFFFFFFF AND PUSH2 0x635 JUMP JUMPDEST ISZERO PUSH2 0x1CFA JUMPI PUSH1 0x0 SLOAD PUSH1 0x40 MLOAD PUSH32 0x4A39314900000000000000000000000000000000000000000000000000000000 DUP2 MSTORE PUSH20 0xFFFFFFFFFFFFFFFFFFFFFFFFFFFFFFFFFFFFFFFF SWAP1 SWAP2 AND SWAP1 PUSH4 0x4A393149 SWAP1 PUSH2 0x1C9A SWAP1 DUP10 SWAP1 DUP10 SWAP1 DUP10 SWAP1 PUSH1 0x4 ADD PUSH2 0x276D JUMP JUMPDEST PUSH1 0x20 PUSH1 0x40 MLOAD DUP1 DUP4 SUB DUP2 PUSH1 0x0 DUP8 DUP1 EXTCODESIZE ISZERO DUP1 ISZERO PUSH2 0x1CB4 JUMPI PUSH1 0x0 DUP1 REVERT JUMPDEST POP GAS CALL ISZERO DUP1 ISZERO PUSH2 0x1CC8 JUMPI RETURNDATASIZE PUSH1 0x0 DUP1 RETURNDATACOPY RETURNDATASIZE PUSH1 0x0 REVERT JUMPDEST POP POP POP POP PUSH1 0x40 MLOAD RETURNDATASIZE PUSH1 0x1F NOT PUSH1 0x1F DUP3 ADD AND DUP3 ADD DUP1 PUSH1 0x40 MSTORE POP PUSH2 0x1CEC SWAP2 SWAP1 DUP2 ADD SWAP1 PUSH2 0x24CA JUMP JUMPDEST ISZERO ISZERO PUSH1 0x1 EQ PUSH2 0x1CFA JUMPI PUSH1 0x0 DUP1 REVERT JUMPDEST PUSH20 0xFFFFFFFFFFFFFFFFFFFFFFFFFFFFFFFFFFFFFFFF DUP7 AND PUSH1 0x0 SWAP1 DUP2 MSTORE PUSH1 0x8 PUSH1 0x20 MSTORE PUSH1 0x40 SWAP1 KECCAK256 PUSH2 0x1D2B SWAP1 DUP6 DUP5 SUB PUSH2 0x1F8A JUMP JUMPDEST PUSH2 0x1D35 DUP6 NUMBER PUSH2 0xB5D JUMP JUMPDEST SWAP1 POP DUP4 DUP2 ADD DUP2 GT ISZERO PUSH2 0x1D46 JUMPI PUSH1 0x0 DUP1 REVERT JUMPDEST PUSH20 0xFFFFFFFFFFFFFFFFFFFFFFFFFFFFFFFFFFFFFFFF DUP6 AND PUSH1 0x0 SWAP1 DUP2 MSTORE PUSH1 0x8 PUSH1 0x20 MSTORE PUSH1 0x40 SWAP1 KECCAK256 PUSH2 0x1D77 SWAP1 DUP3 DUP7 ADD PUSH2 0x1F8A JUMP JUMPDEST DUP5 PUSH20 0xFFFFFFFFFFFFFFFFFFFFFFFFFFFFFFFFFFFFFFFF AND DUP7 PUSH20 0xFFFFFFFFFFFFFFFFFFFFFFFFFFFFFFFFFFFFFFFF AND PUSH32 0xDDF252AD1BE2C89B69C2B068FC378DAA952BA7F163C4A11628F55A4DF523B3EF DUP7 PUSH1 0x40 MLOAD PUSH2 0x1DD4 SWAP2 SWAP1 PUSH2 0x28CE JUMP JUMPDEST PUSH1 0x40 MLOAD DUP1 SWAP2 SUB SWAP1 LOG3 PUSH1 0x1 SWAP3 POP JUMPDEST POP POP SWAP4 SWAP3 POP POP POP JUMP JUMPDEST PUSH1 0x0 DUP2 DUP4 LT PUSH2 0x1DF9 JUMPI DUP2 PUSH2 0x97E JUMP JUMPDEST POP SWAP1 SWAP2 SWAP1 POP JUMP JUMPDEST PUSH1 0x0 DUP1 PUSH1 0x0 DUP1 DUP6 DUP1 SLOAD SWAP1 POP PUSH1 0x0 EQ ISZERO PUSH2 0x1E1C JUMPI PUSH1 0x0 SWAP4 POP PUSH2 0x11B6 JUMP JUMPDEST DUP6 SLOAD DUP7 SWAP1 PUSH1 0x0 NOT DUP2 ADD SWAP1 DUP2 LT PUSH2 0x1E2E JUMPI INVALID JUMPDEST PUSH1 0x0 SWAP2 DUP3 MSTORE PUSH1 0x20 SWAP1 SWAP2 KECCAK256 ADD SLOAD PUSH16 0xFFFFFFFFFFFFFFFFFFFFFFFFFFFFFFFF AND DUP6 LT PUSH2 0x1E9D JUMPI DUP6 SLOAD DUP7 SWAP1 PUSH1 0x0 NOT DUP2 ADD SWAP1 DUP2 LT PUSH2 0x1E64 JUMPI INVALID JUMPDEST PUSH1 0x0 SWAP2 DUP3 MSTORE PUSH1 0x20 SWAP1 SWAP2 KECCAK256 ADD SLOAD PUSH17 0x100000000000000000000000000000000 SWAP1 DIV PUSH16 0xFFFFFFFFFFFFFFFFFFFFFFFFFFFFFFFF AND SWAP4 POP PUSH2 0x11B6 JUMP JUMPDEST DUP6 PUSH1 0x0 DUP2 SLOAD DUP2 LT ISZERO ISZERO PUSH2 0x1EAC JUMPI INVALID JUMPDEST PUSH1 0x0 SWAP2 DUP3 MSTORE PUSH1 0x20 SWAP1 SWAP2 KECCAK256 ADD SLOAD PUSH16 0xFFFFFFFFFFFFFFFFFFFFFFFFFFFFFFFF AND DUP6 LT ISZERO PUSH2 0x1EDA JUMPI PUSH1 0x0 SWAP4 POP PUSH2 0x11B6 JUMP JUMPDEST DUP6 SLOAD PUSH1 0x0 SWAP4 POP PUSH1 0x0 NOT ADD SWAP2 POP JUMPDEST DUP3 DUP3 GT ISZERO PUSH2 0x1F40 JUMPI PUSH1 0x2 PUSH1 0x1 DUP4 DUP6 ADD ADD DIV SWAP1 POP DUP5 DUP7 DUP3 DUP2 SLOAD DUP2 LT ISZERO ISZERO PUSH2 0x1F09 JUMPI INVALID JUMPDEST PUSH1 0x0 SWAP2 DUP3 MSTORE PUSH1 0x20 SWAP1 SWAP2 KECCAK256 ADD SLOAD PUSH16 0xFFFFFFFFFFFFFFFFFFFFFFFFFFFFFFFF AND GT PUSH2 0x1F34 JUMPI DUP1 SWAP3 POP PUSH2 0x1F3B JUMP JUMPDEST PUSH1 0x1 DUP2 SUB SWAP2 POP JUMPDEST PUSH2 0x1EE7 JUMP JUMPDEST DUP6 DUP4 DUP2 SLOAD DUP2 LT ISZERO ISZERO PUSH2 0x1F4E JUMPI INVALID JUMPDEST PUSH1 0x0 SWAP2 DUP3 MSTORE PUSH1 0x20 SWAP1 SWAP2 KECCAK256 ADD SLOAD PUSH17 0x100000000000000000000000000000000 SWAP1 DIV PUSH16 0xFFFFFFFFFFFFFFFFFFFFFFFFFFFFFFFF AND SWAP7 SWAP6 POP POP POP POP POP POP JUMP JUMPDEST DUP2 SLOAD PUSH1 0x0 SWAP1 DUP2 SWAP1 ISZERO DUP1 PUSH2 0x1FCC JUMPI POP DUP4 SLOAD NUMBER SWAP1 DUP6 SWAP1 PUSH1 0x0 NOT DUP2 ADD SWAP1 DUP2 LT PUSH2 0x1FAC JUMPI INVALID JUMPDEST PUSH1 0x0 SWAP2 DUP3 MSTORE PUSH1 0x20 SWAP1 SWAP2 KECCAK256 ADD SLOAD PUSH16 0xFFFFFFFFFFFFFFFFFFFFFFFFFFFFFFFF AND LT JUMPDEST ISZERO PUSH2 0x2056 JUMPI DUP4 SLOAD DUP5 SWAP1 PUSH2 0x1FE2 DUP3 PUSH1 0x1 DUP4 ADD PUSH2 0x2201 JUMP JUMPDEST DUP2 SLOAD DUP2 LT PUSH2 0x1FEC JUMPI INVALID JUMPDEST PUSH1 0x0 SWAP2 DUP3 MSTORE PUSH1 0x20 SWAP1 SWAP2 KECCAK256 ADD DUP1 SLOAD PUSH16 0xFFFFFFFFFFFFFFFFFFFFFFFFFFFFFFFF DUP6 DUP2 AND PUSH17 0x100000000000000000000000000000000 MUL NUMBER DUP3 AND PUSH32 0xFFFFFFFFFFFFFFFFFFFFFFFFFFFFFFFF00000000000000000000000000000000 SWAP1 SWAP4 AND SWAP3 SWAP1 SWAP3 OR AND OR DUP2 SSTORE SWAP2 POP PUSH2 0x20A4 JUMP JUMPDEST DUP4 SLOAD DUP5 SWAP1 PUSH1 0x0 NOT DUP2 ADD SWAP1 DUP2 LT PUSH2 0x2068 JUMPI INVALID JUMPDEST PUSH1 0x0 SWAP2 DUP3 MSTORE PUSH1 0x20 SWAP1 SWAP2 KECCAK256 ADD DUP1 SLOAD PUSH16 0xFFFFFFFFFFFFFFFFFFFFFFFFFFFFFFFF DUP1 DUP7 AND PUSH17 0x100000000000000000000000000000000 MUL SWAP2 AND OR DUP2 SSTORE SWAP1 POP JUMPDEST POP POP POP POP JUMP JUMPDEST DUP3 DUP1 SLOAD PUSH1 0x1 DUP2 PUSH1 0x1 AND ISZERO PUSH2 0x100 MUL SUB AND PUSH1 0x2 SWAP1 DIV SWAP1 PUSH1 0x0 MSTORE PUSH1 0x20 PUSH1 0x0 KECCAK256 SWAP1 PUSH1 0x1F ADD PUSH1 0x20 SWAP1 DIV DUP2 ADD SWAP3 DUP3 PUSH1 0x1F LT PUSH2 0x20EB JUMPI DUP1 MLOAD PUSH1 0xFF NOT AND DUP4 DUP1 ADD OR DUP6 SSTORE PUSH2 0x2118 JUMP JUMPDEST DUP3 DUP1 ADD PUSH1 0x1 ADD DUP6 SSTORE DUP3 ISZERO PUSH2 0x2118 JUMPI SWAP2 DUP3 ADD JUMPDEST DUP3 DUP2 GT ISZERO PUSH2 0x2118 JUMPI DUP3 MLOAD DUP3 SSTORE SWAP2 PUSH1 0x20 ADD SWAP2 SWAP1 PUSH1 0x1 ADD SWAP1 PUSH2 0x20FD JUMP JUMPDEST POP PUSH2 0x2124 SWAP3 SWAP2 POP PUSH2 0x2221 JUMP JUMPDEST POP SWAP1 JUMP JUMPDEST PUSH1 0x60 PUSH1 0x40 MLOAD SWAP1 DUP2 ADD PUSH1 0x40 MSTORE DUP1 PUSH1 0x0 PUSH20 0xFFFFFFFFFFFFFFFFFFFFFFFFFFFFFFFFFFFFFFFF AND DUP2 MSTORE PUSH1 0x20 ADD PUSH1 0x60 DUP2 MSTORE PUSH1 0x20 ADD PUSH1 0x60 DUP2 MSTORE POP SWAP1 JUMP JUMPDEST DUP3 DUP1 SLOAD PUSH1 0x1 DUP2 PUSH1 0x1 AND ISZERO PUSH2 0x100 MUL SUB AND PUSH1 0x2 SWAP1 DIV SWAP1 PUSH1 0x0 MSTORE PUSH1 0x20 PUSH1 0x0 KECCAK256 SWAP1 PUSH1 0x1F ADD PUSH1 0x20 SWAP1 DIV DUP2 ADD SWAP3 DUP3 PUSH1 0x1F LT PUSH2 0x2199 JUMPI DUP1 SLOAD DUP6 SSTORE PUSH2 0x2118 JUMP JUMPDEST DUP3 DUP1 ADD PUSH1 0x1 ADD DUP6 SSTORE DUP3 ISZERO PUSH2 0x2118 JUMPI PUSH1 0x0 MSTORE PUSH1 0x20 PUSH1 0x0 KECCAK256 SWAP2 PUSH1 0x1F ADD PUSH1 0x20 SWAP1 DIV DUP3 ADD JUMPDEST DUP3 DUP2 GT ISZERO PUSH2 0x2118 JUMPI DUP3 SLOAD DUP3 SSTORE SWAP2 PUSH1 0x1 ADD SWAP2 SWAP1 PUSH1 0x1 ADD SWAP1 PUSH2 0x21BA JUMP JUMPDEST DUP2 SLOAD DUP2 DUP4 SSTORE DUP2 DUP2 GT ISZERO PUSH2 0xF93 JUMPI PUSH1 0x3 MUL DUP2 PUSH1 0x3 MUL DUP4 PUSH1 0x0 MSTORE PUSH1 0x20 PUSH1 0x0 KECCAK256 SWAP2 DUP3 ADD SWAP2 ADD PUSH2 0xF93 SWAP2 SWAP1 PUSH2 0x223B JUMP JUMPDEST DUP2 SLOAD DUP2 DUP4 SSTORE DUP2 DUP2 GT ISZERO PUSH2 0xF93 JUMPI PUSH1 0x0 DUP4 DUP2 MSTORE PUSH1 0x20 SWAP1 KECCAK256 PUSH2 0xF93 SWAP2 DUP2 ADD SWAP1 DUP4 ADD JUMPDEST PUSH2 0x8C4 SWAP2 SWAP1 JUMPDEST DUP1 DUP3 GT ISZERO PUSH2 0x2124 JUMPI PUSH1 0x0 DUP2 SSTORE PUSH1 0x1 ADD PUSH2 0x2227 JUMP JUMPDEST PUSH2 0x8C4 SWAP2 SWAP1 JUMPDEST DUP1 DUP3 GT ISZERO PUSH2 0x2124 JUMPI DUP1 SLOAD PUSH32 0xFFFFFFFFFFFFFFFFFFFFFFFF0000000000000000000000000000000000000000 AND DUP2 SSTORE PUSH1 0x0 PUSH2 0x227E PUSH1 0x1 DUP4 ADD DUP3 PUSH2 0x2295 JUMP JUMPDEST PUSH2 0x228C PUSH1 0x2 DUP4 ADD PUSH1 0x0 PUSH2 0x2295 JUMP JUMPDEST POP PUSH1 0x3 ADD PUSH2 0x2241 JUMP JUMPDEST POP DUP1 SLOAD PUSH1 0x1 DUP2 PUSH1 0x1 AND ISZERO PUSH2 0x100 MUL SUB AND PUSH1 0x2 SWAP1 DIV PUSH1 0x0 DUP3 SSTORE DUP1 PUSH1 0x1F LT PUSH2 0x22BB JUMPI POP PUSH2 0x22D9 JUMP JUMPDEST PUSH1 0x1F ADD PUSH1 0x20 SWAP1 DIV SWAP1 PUSH1 0x0 MSTORE PUSH1 0x20 PUSH1 0x0 KECCAK256 SWAP1 DUP2 ADD SWAP1 PUSH2 0x22D9 SWAP2 SWAP1 PUSH2 0x2221 JUMP JUMPDEST POP JUMP JUMPDEST PUSH1 0x0 PUSH2 0x97E DUP3 CALLDATALOAD PUSH2 0x2961 JUMP JUMPDEST PUSH1 0x0 PUSH2 0x97E DUP3 CALLDATALOAD PUSH2 0x297A JUMP JUMPDEST PUSH1 0x0 PUSH2 0x97E DUP3 MLOAD PUSH2 0x297A JUMP JUMPDEST PUSH1 0x0 PUSH1 0x1F DUP3 ADD DUP4 SGT PUSH2 0x2311 JUMPI PUSH1 0x0 DUP1 REVERT JUMPDEST DUP2 CALLDATALOAD PUSH2 0x2324 PUSH2 0x231F DUP3 PUSH2 0x2911 JUMP JUMPDEST PUSH2 0x28EA JUMP JUMPDEST SWAP2 POP DUP1 DUP3 MSTORE PUSH1 0x20 DUP4 ADD PUSH1 0x20 DUP4 ADD DUP6 DUP4 DUP4 ADD GT ISZERO PUSH2 0x2340 JUMPI PUSH1 0x0 DUP1 REVERT JUMPDEST PUSH2 0x11B6 DUP4 DUP3 DUP5 PUSH2 0x2990 JUMP JUMPDEST PUSH1 0x0 PUSH2 0x97E DUP3 CALLDATALOAD PUSH2 0x2985 JUMP JUMPDEST PUSH1 0x0 PUSH2 0x97E DUP3 MLOAD PUSH2 0x2985 JUMP JUMPDEST PUSH1 0x0 PUSH2 0x97E DUP3 CALLDATALOAD PUSH2 0x8C4 JUMP JUMPDEST PUSH1 0x0 PUSH2 0x97E DUP3 MLOAD PUSH2 0x8C4 JUMP JUMPDEST PUSH1 0x0 PUSH2 0x97E DUP3 CALLDATALOAD PUSH2 0x297F JUMP JUMPDEST PUSH1 0x0 PUSH1 0x20 DUP3 DUP5 SUB SLT ISZERO PUSH2 0x2399 JUMPI PUSH1 0x0 DUP1 REVERT JUMPDEST PUSH1 0x0 PUSH2 0x23A5 DUP5 DUP5 PUSH2 0x22DC JUMP JUMPDEST SWAP5 SWAP4 POP POP POP POP JUMP JUMPDEST PUSH1 0x0 DUP1 PUSH1 0x40 DUP4 DUP6 SUB SLT ISZERO PUSH2 0x23C0 JUMPI PUSH1 0x0 DUP1 REVERT JUMPDEST PUSH1 0x0 PUSH2 0x23CC DUP6 DUP6 PUSH2 0x22DC JUMP JUMPDEST SWAP3 POP POP PUSH1 0x20 PUSH2 0x23DD DUP6 DUP3 DUP7 ADD PUSH2 0x22DC JUMP JUMPDEST SWAP2 POP POP SWAP3 POP SWAP3 SWAP1 POP JUMP JUMPDEST PUSH1 0x0 DUP1 PUSH1 0x0 PUSH1 0x60 DUP5 DUP7 SUB SLT ISZERO PUSH2 0x23FC JUMPI PUSH1 0x0 DUP1 REVERT JUMPDEST PUSH1 0x0 PUSH2 0x2408 DUP7 DUP7 PUSH2 0x22DC JUMP JUMPDEST SWAP4 POP POP PUSH1 0x20 PUSH2 0x2419 DUP7 DUP3 DUP8 ADD PUSH2 0x22DC JUMP JUMPDEST SWAP3 POP POP PUSH1 0x40 PUSH2 0x242A DUP7 DUP3 DUP8 ADD PUSH2 0x2363 JUMP JUMPDEST SWAP2 POP POP SWAP3 POP SWAP3 POP SWAP3 JUMP JUMPDEST PUSH1 0x0 DUP1 PUSH1 0x40 DUP4 DUP6 SUB SLT ISZERO PUSH2 0x2447 JUMPI PUSH1 0x0 DUP1 REVERT JUMPDEST PUSH1 0x0 PUSH2 0x2453 DUP6 DUP6 PUSH2 0x22DC JUMP JUMPDEST SWAP3 POP POP PUSH1 0x20 DUP4 ADD CALLDATALOAD PUSH8 0xFFFFFFFFFFFFFFFF DUP2 GT ISZERO PUSH2 0x2470 JUMPI PUSH1 0x0 DUP1 REVERT JUMPDEST PUSH2 0x23DD DUP6 DUP3 DUP7 ADD PUSH2 0x2300 JUMP JUMPDEST PUSH1 0x0 DUP1 PUSH1 0x40 DUP4 DUP6 SUB SLT ISZERO PUSH2 0x248F JUMPI PUSH1 0x0 DUP1 REVERT JUMPDEST PUSH1 0x0 PUSH2 0x249B DUP6 DUP6 PUSH2 0x22DC JUMP JUMPDEST SWAP3 POP POP PUSH1 0x20 PUSH2 0x23DD DUP6 DUP3 DUP7 ADD PUSH2 0x2363 JUMP JUMPDEST PUSH1 0x0 PUSH1 0x20 DUP3 DUP5 SUB SLT ISZERO PUSH2 0x24BE JUMPI PUSH1 0x0 DUP1 REVERT JUMPDEST PUSH1 0x0 PUSH2 0x23A5 DUP5 DUP5 PUSH2 0x22E8 JUMP JUMPDEST PUSH1 0x0 PUSH1 0x20 DUP3 DUP5 SUB SLT ISZERO PUSH2 0x24DC JUMPI PUSH1 0x0 DUP1 REVERT JUMPDEST PUSH1 0x0 PUSH2 0x23A5 DUP5 DUP5 PUSH2 0x22F4 JUMP JUMPDEST PUSH1 0x0 DUP1 PUSH1 0x0 PUSH1 0x60 DUP5 DUP7 SUB SLT ISZERO PUSH2 0x24FD JUMPI PUSH1 0x0 DUP1 REVERT JUMPDEST PUSH1 0x0 PUSH2 0x2509 DUP7 DUP7 PUSH2 0x234B JUMP JUMPDEST SWAP4 POP POP PUSH1 0x20 PUSH2 0x251A DUP7 DUP3 DUP8 ADD PUSH2 0x2363 JUMP JUMPDEST SWAP3 POP POP PUSH1 0x40 DUP5 ADD CALLDATALOAD PUSH8 0xFFFFFFFFFFFFFFFF DUP2 GT ISZERO PUSH2 0x2537 JUMPI PUSH1 0x0 DUP1 REVERT JUMPDEST PUSH2 0x242A DUP7 DUP3 DUP8 ADD PUSH2 0x2300 JUMP JUMPDEST PUSH1 0x0 PUSH1 0x20 DUP3 DUP5 SUB SLT ISZERO PUSH2 0x2555 JUMPI PUSH1 0x0 DUP1 REVERT JUMPDEST PUSH1 0x0 PUSH2 0x23A5 DUP5 DUP5 PUSH2 0x2357 JUMP JUMPDEST PUSH1 0x0 DUP1 PUSH1 0x0 DUP1 PUSH1 0x0 PUSH1 0xA0 DUP7 DUP9 SUB SLT ISZERO PUSH2 0x2579 JUMPI PUSH1 0x0 DUP1 REVERT JUMPDEST DUP6 CALLDATALOAD PUSH8 0xFFFFFFFFFFFFFFFF DUP2 GT ISZERO PUSH2 0x2590 JUMPI PUSH1 0x0 DUP1 REVERT JUMPDEST PUSH2 0x259C DUP9 DUP3 DUP10 ADD PUSH2 0x2300 JUMP JUMPDEST SWAP6 POP POP PUSH1 0x20 PUSH2 0x25AD DUP9 DUP3 DUP10 ADD PUSH2 0x237B JUMP JUMPDEST SWAP5 POP POP PUSH1 0x40 DUP7 ADD CALLDATALOAD PUSH8 0xFFFFFFFFFFFFFFFF DUP2 GT ISZERO PUSH2 0x25CA JUMPI PUSH1 0x0 DUP1 REVERT JUMPDEST PUSH2 0x25D6 DUP9 DUP3 DUP10 ADD PUSH2 0x2300 JUMP JUMPDEST SWAP4 POP POP PUSH1 0x60 PUSH2 0x25E7 DUP9 DUP3 DUP10 ADD PUSH2 0x2363 JUMP JUMPDEST SWAP3 POP POP PUSH1 0x80 PUSH2 0x25F8 DUP9 DUP3 DUP10 ADD PUSH2 0x22E8 JUMP JUMPDEST SWAP2 POP POP SWAP3 SWAP6 POP SWAP3 SWAP6 SWAP1 SWAP4 POP JUMP JUMPDEST PUSH1 0x0 PUSH1 0x20 DUP3 DUP5 SUB SLT ISZERO PUSH2 0x2617 JUMPI PUSH1 0x0 DUP1 REVERT JUMPDEST PUSH1 0x0 PUSH2 0x23A5 DUP5 DUP5 PUSH2 0x2363 JUMP JUMPDEST PUSH1 0x0 PUSH1 0x20 DUP3 DUP5 SUB SLT ISZERO PUSH2 0x2635 JUMPI PUSH1 0x0 DUP1 REVERT JUMPDEST PUSH1 0x0 PUSH2 0x23A5 DUP5 DUP5 PUSH2 0x236F JUMP JUMPDEST PUSH2 0x264A DUP2 PUSH2 0x2961 JUMP JUMPDEST DUP3 MSTORE POP POP JUMP JUMPDEST PUSH1 0x0 PUSH2 0x265B DUP3 PUSH2 0x295D JUMP JUMPDEST DUP1 DUP5 MSTORE PUSH1 0x20 DUP5 ADD SWAP4 POP DUP4 PUSH1 0x20 DUP3 MUL DUP6 ADD PUSH2 0x2674 DUP6 PUSH2 0x2957 JUMP JUMPDEST PUSH1 0x0 JUMPDEST DUP5 DUP2 LT ISZERO PUSH2 0x26AB JUMPI DUP4 DUP4 SUB DUP9 MSTORE PUSH2 0x268F DUP4 DUP4 MLOAD PUSH2 0x26FE JUMP JUMPDEST SWAP3 POP PUSH2 0x269A DUP3 PUSH2 0x2957 JUMP JUMPDEST PUSH1 0x20 SWAP9 SWAP1 SWAP9 ADD SWAP8 SWAP2 POP PUSH1 0x1 ADD PUSH2 0x2677 JUMP JUMPDEST POP SWAP1 SWAP7 SWAP6 POP POP POP POP POP POP JUMP JUMPDEST PUSH2 0x264A DUP2 PUSH2 0x297A JUMP JUMPDEST PUSH1 0x0 PUSH2 0x26CB DUP3 PUSH2 0x295D JUMP JUMPDEST DUP1 DUP5 MSTORE PUSH2 0x26DF DUP2 PUSH1 0x20 DUP7 ADD PUSH1 0x20 DUP7 ADD PUSH2 0x299C JUMP JUMPDEST PUSH2 0x26E8 DUP2 PUSH2 0x29C8 JUMP JUMPDEST SWAP1 SWAP4 ADD PUSH1 0x20 ADD SWAP4 SWAP3 POP POP POP JUMP JUMPDEST PUSH2 0x264A DUP2 PUSH2 0x2985 JUMP JUMPDEST DUP1 MLOAD PUSH1 0x0 SWAP1 PUSH1 0x60 DUP5 ADD SWAP1 PUSH2 0x2712 DUP6 DUP3 PUSH2 0x2641 JUMP JUMPDEST POP PUSH1 0x20 DUP4 ADD MLOAD DUP5 DUP3 SUB PUSH1 0x20 DUP7 ADD MSTORE PUSH2 0x272A DUP3 DUP3 PUSH2 0x26C0 JUMP JUMPDEST SWAP2 POP POP PUSH1 0x40 DUP4 ADD MLOAD DUP5 DUP3 SUB PUSH1 0x40 DUP7 ADD MSTORE PUSH2 0x2744 DUP3 DUP3 PUSH2 0x26C0 JUMP JUMPDEST SWAP6 SWAP5 POP POP POP POP POP JUMP JUMPDEST PUSH2 0x264A DUP2 PUSH2 0x8C4 JUMP JUMPDEST PUSH2 0x264A DUP2 PUSH2 0x297F JUMP JUMPDEST PUSH1 0x20 DUP2 ADD PUSH2 0x8AA DUP3 DUP5 PUSH2 0x2641 JUMP JUMPDEST PUSH1 0x60 DUP2 ADD PUSH2 0x277B DUP3 DUP7 PUSH2 0x2641 JUMP JUMPDEST PUSH2 0x2788 PUSH1 0x20 DUP4 ADD DUP6 PUSH2 0x2641 JUMP JUMPDEST PUSH2 0x23A5 PUSH1 0x40 DUP4 ADD DUP5 PUSH2 0x274D JUMP JUMPDEST PUSH1 0x60 DUP2 ADD PUSH2 0x27A3 DUP3 DUP7 PUSH2 0x2641 JUMP JUMPDEST DUP2 DUP2 SUB PUSH1 0x20 DUP4 ADD MSTORE PUSH2 0x27B5 DUP2 DUP6 PUSH2 0x26C0 JUMP JUMPDEST SWAP1 POP DUP2 DUP2 SUB PUSH1 0x40 DUP4 ADD MSTORE PUSH2 0x2744 DUP2 DUP5 PUSH2 0x26C0 JUMP JUMPDEST PUSH1 0x40 DUP2 ADD PUSH2 0x27D7 DUP3 DUP6 PUSH2 0x2641 JUMP JUMPDEST PUSH2 0x97E PUSH1 0x20 DUP4 ADD DUP5 PUSH2 0x274D JUMP JUMPDEST PUSH1 0x80 DUP2 ADD PUSH2 0x27F2 DUP3 DUP8 PUSH2 0x2641 JUMP JUMPDEST PUSH2 0x27FF PUSH1 0x20 DUP4 ADD DUP7 PUSH2 0x274D JUMP JUMPDEST PUSH2 0x280C PUSH1 0x40 DUP4 ADD DUP6 PUSH2 0x26F5 JUMP JUMPDEST DUP2 DUP2 SUB PUSH1 0x60 DUP4 ADD MSTORE PUSH2 0x281E DUP2 DUP5 PUSH2 0x26C0 JUMP JUMPDEST SWAP7 SWAP6 POP POP POP POP POP POP JUMP JUMPDEST PUSH1 0x20 DUP1 DUP3 MSTORE DUP2 ADD PUSH2 0x97E DUP2 DUP5 PUSH2 0x2650 JUMP JUMPDEST PUSH1 0x20 DUP2 ADD PUSH2 0x8AA DUP3 DUP5 PUSH2 0x26B7 JUMP JUMPDEST PUSH1 0x20 DUP2 ADD PUSH2 0x8AA DUP3 DUP5 PUSH2 0x26F5 JUMP JUMPDEST PUSH1 0xC0 DUP2 ADD PUSH2 0x2863 DUP3 DUP10 PUSH2 0x26F5 JUMP JUMPDEST PUSH2 0x2870 PUSH1 0x20 DUP4 ADD DUP9 PUSH2 0x274D JUMP JUMPDEST DUP2 DUP2 SUB PUSH1 0x40 DUP4 ADD MSTORE PUSH2 0x2882 DUP2 DUP8 PUSH2 0x26C0 JUMP JUMPDEST SWAP1 POP PUSH2 0x2891 PUSH1 0x60 DUP4 ADD DUP7 PUSH2 0x2756 JUMP JUMPDEST DUP2 DUP2 SUB PUSH1 0x80 DUP4 ADD MSTORE PUSH2 0x28A3 DUP2 DUP6 PUSH2 0x26C0 JUMP JUMPDEST SWAP1 POP PUSH2 0x28B2 PUSH1 0xA0 DUP4 ADD DUP5 PUSH2 0x26B7 JUMP JUMPDEST SWAP8 SWAP7 POP POP POP POP POP POP POP JUMP JUMPDEST PUSH1 0x20 DUP1 DUP3 MSTORE DUP2 ADD PUSH2 0x97E DUP2 DUP5 PUSH2 0x26C0 JUMP JUMPDEST PUSH1 0x20 DUP2 ADD PUSH2 0x8AA DUP3 DUP5 PUSH2 0x274D JUMP JUMPDEST PUSH1 0x20 DUP2 ADD PUSH2 0x8AA DUP3 DUP5 PUSH2 0x2756 JUMP JUMPDEST PUSH1 0x40 MLOAD DUP2 DUP2 ADD PUSH8 0xFFFFFFFFFFFFFFFF DUP2 GT DUP3 DUP3 LT OR ISZERO PUSH2 0x2909 JUMPI PUSH1 0x0 DUP1 REVERT JUMPDEST PUSH1 0x40 MSTORE SWAP2 SWAP1 POP JUMP JUMPDEST PUSH1 0x0 PUSH8 0xFFFFFFFFFFFFFFFF DUP3 GT ISZERO PUSH2 0x2928 JUMPI PUSH1 0x0 DUP1 REVERT JUMPDEST POP PUSH1 0x20 PUSH1 0x1F SWAP2 SWAP1 SWAP2 ADD PUSH32 0xFFFFFFFFFFFFFFFFFFFFFFFFFFFFFFFFFFFFFFFFFFFFFFFFFFFFFFFFFFFFFFE0 AND ADD SWAP1 JUMP JUMPDEST PUSH1 0x20 ADD SWAP1 JUMP JUMPDEST MLOAD SWAP1 JUMP JUMPDEST PUSH20 0xFFFFFFFFFFFFFFFFFFFFFFFFFFFFFFFFFFFFFFFF AND SWAP1 JUMP JUMPDEST ISZERO ISZERO SWAP1 JUMP JUMPDEST PUSH1 0xFF AND SWAP1 JUMP JUMPDEST PUSH1 0x0 PUSH2 0xF0E DUP3 PUSH2 0x2961 JUMP JUMPDEST DUP3 DUP2 DUP4 CALLDATACOPY POP PUSH1 0x0 SWAP2 ADD MSTORE JUMP JUMPDEST PUSH1 0x0 JUMPDEST DUP4 DUP2 LT ISZERO PUSH2 0x29B7 JUMPI DUP2 DUP2 ADD MLOAD DUP4 DUP3 ADD MSTORE PUSH1 0x20 ADD PUSH2 0x299F JUMP JUMPDEST DUP4 DUP2 GT ISZERO PUSH2 0x20A4 JUMPI POP POP PUSH1 0x0 SWAP2 ADD MSTORE JUMP JUMPDEST PUSH1 0x1F ADD PUSH32 0xFFFFFFFFFFFFFFFFFFFFFFFFFFFFFFFFFFFFFFFFFFFFFFFFFFFFFFFFFFFFFFE0 AND SWAP1 JUMP STOP LOG2 PUSH6 0x627A7A723058 KECCAK256 0xdd 0x26 0xb2 0xf7 MUL 0xec 0x21 0xda 0xb6 SWAP5 SMOD 0xe3 DUP15 RETURNDATACOPY 0xe0 0x48 DUP16 GT RETURNDATASIZE 0x5e STATICCALL PUSH6 0xBD03F808607A CREATE2 0xd3 MULMOD 0xef PUSH13 0x6578706572696D656E74616CF5 STOP CALLDATACOPY LOG2 PUSH6 0x627A7A723058 KECCAK256 PUSH12 0x5554007BA5B9AAF91793E519 0xa9 PUSH27 0x497EC198CE5768DFA90EE97414A3497BD16C6578706572696D656E PUSH21 0x616CF5003700000000000000000000000000000000 "
		},
		"gasEstimates": {
			"creation": {
				"codeDepositCost": "2630800",
				"executionCost": "2854",
				"totalCost": "2633654"
			},
			"external": {
				"createCloneToken(address,uint256,string,uint8,string,bool)": "infinite"
			}
		},
		"methodIdentifiers": {
			"createCloneToken(address,uint256,string,uint8,string,bool)": "5b7b72c1"
		}
	},
	"abi": [
		{
			"constant": false,
			"inputs": [
				{
					"name": "_parentToken",
					"type": "address"
				},
				{
					"name": "_snapshotBlock",
					"type": "uint256"
				},
				{
					"name": "_tokenName",
					"type": "string"
				},
				{
					"name": "_decimalUnits",
					"type": "uint8"
				},
				{
					"name": "_tokenSymbol",
					"type": "string"
				},
				{
					"name": "_transfersEnabled",
					"type": "bool"
				}
			],
			"name": "createCloneToken",
			"outputs": [
				{
					"name": "",
					"type": "address"
				}
			],
			"payable": false,
			"stateMutability": "nonpayable",
			"type": "function"
		}
	]
}